{"contracts/AcademicCertification.sol":{"AcademicCertification":{"abi":[{"inputs":[],"stateMutability":"nonpayable","type":"constructor"},{"anonymous":false,"inputs":[{"indexed":true,"internalType":"address","name":"owner","type":"address"},{"indexed":true,"internalType":"address","name":"approved","type":"address"},{"indexed":true,"internalType":"uint256","name":"tokenId","type":"uint256"}],"name":"Approval","type":"event"},{"anonymous":false,"inputs":[{"indexed":true,"internalType":"address","name":"owner","type":"address"},{"indexed":true,"internalType":"address","name":"operator","type":"address"},{"indexed":false,"internalType":"bool","name":"approved","type":"bool"}],"name":"ApprovalForAll","type":"event"},{"anonymous":false,"inputs":[{"indexed":false,"internalType":"uint256","name":"_fromTokenId","type":"uint256"},{"indexed":false,"internalType":"uint256","name":"_toTokenId","type":"uint256"}],"name":"BatchMetadataUpdate","type":"event"},{"anonymous":false,"inputs":[{"indexed":true,"internalType":"uint256","name":"certificateId","type":"uint256"},{"indexed":true,"internalType":"bytes32","name":"certificateHash","type":"bytes32"},{"indexed":true,"internalType":"address","name":"recipient","type":"address"},{"indexed":false,"internalType":"address","name":"issuer","type":"address"}],"name":"CertificateIssued","type":"event"},{"anonymous":false,"inputs":[{"indexed":true,"internalType":"uint256","name":"certificateId","type":"uint256"},{"indexed":false,"internalType":"string","name":"reason","type":"string"},{"indexed":false,"internalType":"address","name":"revokedBy","type":"address"}],"name":"CertificateRevoked","type":"event"},{"anonymous":false,"inputs":[{"indexed":true,"internalType":"uint256","name":"certificateId","type":"uint256"},{"indexed":false,"internalType":"address","name":"verifier","type":"address"}],"name":"CertificateVerified","type":"event"},{"anonymous":false,"inputs":[{"indexed":true,"internalType":"address","name":"adminAddress","type":"address"}],"name":"ContractInitialized","type":"event"},{"anonymous":false,"inputs":[{"indexed":true,"internalType":"address","name":"issuerAddress","type":"address"},{"indexed":false,"internalType":"string","name":"name","type":"string"},{"indexed":false,"internalType":"string","name":"country","type":"string"}],"name":"IssuerRegistered","type":"event"},{"anonymous":false,"inputs":[{"indexed":true,"internalType":"address","name":"issuerAddress","type":"address"},{"indexed":false,"internalType":"enum AcademicCertification.IssuerStatus","name":"newStatus","type":"uint8"}],"name":"IssuerStatusChanged","type":"event"},{"anonymous":false,"inputs":[{"indexed":true,"internalType":"address","name":"issuerAddress","type":"address"}],"name":"IssuerVerified","type":"event"},{"anonymous":false,"inputs":[{"indexed":false,"internalType":"uint256","name":"_tokenId","type":"uint256"}],"name":"MetadataUpdate","type":"event"},{"anonymous":false,"inputs":[{"indexed":true,"internalType":"address","name":"from","type":"address"},{"indexed":true,"internalType":"address","name":"to","type":"address"},{"indexed":true,"internalType":"uint256","name":"tokenId","type":"uint256"}],"name":"Transfer","type":"event"},{"inputs":[],"name":"admin","outputs":[{"internalType":"address","name":"","type":"address"}],"stateMutability":"view","type":"function"},{"inputs":[{"internalType":"address","name":"to","type":"address"},{"internalType":"uint256","name":"tokenId","type":"uint256"}],"name":"approve","outputs":[],"stateMutability":"nonpayable","type":"function"},{"inputs":[{"internalType":"address","name":"owner","type":"address"}],"name":"balanceOf","outputs":[{"internalType":"uint256","name":"","type":"uint256"}],"stateMutability":"view","type":"function"},{"inputs":[{"internalType":"bytes32[]","name":"_certificateHashes","type":"bytes32[]"},{"internalType":"address[]","name":"_recipients","type":"address[]"},{"internalType":"enum AcademicCertification.CertificateType","name":"_certType","type":"uint8"},{"internalType":"string","name":"_programName","type":"string"},{"internalType":"string[]","name":"_metadataURIs","type":"string[]"}],"name":"batchIssueCertificates","outputs":[{"internalType":"uint256[]","name":"","type":"uint256[]"}],"stateMutability":"nonpayable","type":"function"},{"inputs":[{"internalType":"bytes32","name":"_certificateHash","type":"bytes32"}],"name":"certificateExists","outputs":[{"internalType":"bool","name":"","type":"bool"}],"stateMutability":"view","type":"function"},{"inputs":[{"internalType":"uint256","name":"tokenId","type":"uint256"}],"name":"getApproved","outputs":[{"internalType":"address","name":"","type":"address"}],"stateMutability":"view","type":"function"},{"inputs":[{"internalType":"uint256","name":"_certificateId","type":"uint256"}],"name":"getCertificate","outputs":[{"components":[{"internalType":"uint256","name":"id","type":"uint256"},{"internalType":"bytes32","name":"certificateHash","type":"bytes32"},{"internalType":"address","name":"issuer","type":"address"},{"internalType":"address","name":"recipient","type":"address"},{"internalType":"enum AcademicCertification.CertificateType","name":"certificateType","type":"uint8"},{"internalType":"string","name":"programName","type":"string"},{"internalType":"uint256","name":"issuedDate","type":"uint256"},{"internalType":"uint256","name":"expiryDate","type":"uint256"},{"internalType":"enum AcademicCertification.CertificateStatus","name":"status","type":"uint8"},{"internalType":"string","name":"metadataURI","type":"string"}],"internalType":"struct AcademicCertification.Certificate","name":"","type":"tuple"}],"stateMutability":"view","type":"function"},{"inputs":[{"internalType":"bytes32","name":"_certificateHash","type":"bytes32"}],"name":"getCertificateByHash","outputs":[{"components":[{"internalType":"uint256","name":"id","type":"uint256"},{"internalType":"bytes32","name":"certificateHash","type":"bytes32"},{"internalType":"address","name":"issuer","type":"address"},{"internalType":"address","name":"recipient","type":"address"},{"internalType":"enum AcademicCertification.CertificateType","name":"certificateType","type":"uint8"},{"internalType":"string","name":"programName","type":"string"},{"internalType":"uint256","name":"issuedDate","type":"uint256"},{"internalType":"uint256","name":"expiryDate","type":"uint256"},{"internalType":"enum AcademicCertification.CertificateStatus","name":"status","type":"uint8"},{"internalType":"string","name":"metadataURI","type":"string"}],"internalType":"struct AcademicCertification.Certificate","name":"","type":"tuple"}],"stateMutability":"view","type":"function"},{"inputs":[{"internalType":"address","name":"_issuerAddress","type":"address"}],"name":"getIssuer","outputs":[{"components":[{"internalType":"address","name":"issuerAddress","type":"address"},{"internalType":"string","name":"name","type":"string"},{"internalType":"string","name":"country","type":"string"},{"internalType":"string","name":"website","type":"string"},{"internalType":"uint256","name":"registrationDate","type":"uint256"},{"internalType":"enum AcademicCertification.IssuerStatus","name":"status","type":"uint8"},{"internalType":"bool","name":"isVerified","type":"bool"}],"internalType":"struct AcademicCertification.Issuer","name":"","type":"tuple"}],"stateMutability":"view","type":"function"},{"inputs":[{"internalType":"address","name":"_issuer","type":"address"}],"name":"getIssuerCertificates","outputs":[{"internalType":"uint256[]","name":"","type":"uint256[]"}],"stateMutability":"view","type":"function"},{"inputs":[{"internalType":"address","name":"_recipientAddress","type":"address"}],"name":"getRecipient","outputs":[{"components":[{"internalType":"address","name":"recipientAddress","type":"address"},{"internalType":"string","name":"did","type":"string"},{"internalType":"uint256[]","name":"certificateIds","type":"uint256[]"}],"internalType":"struct AcademicCertification.Recipient","name":"","type":"tuple"}],"stateMutability":"view","type":"function"},{"inputs":[{"internalType":"address","name":"_recipient","type":"address"}],"name":"getRecipientCertificates","outputs":[{"internalType":"uint256[]","name":"","type":"uint256[]"}],"stateMutability":"view","type":"function"},{"inputs":[{"internalType":"uint256","name":"_certificateId","type":"uint256"}],"name":"getRevocation","outputs":[{"components":[{"internalType":"uint256","name":"certificateId","type":"uint256"},{"internalType":"uint256","name":"revocationDate","type":"uint256"},{"internalType":"string","name":"reason","type":"string"},{"internalType":"address","name":"revokedBy","type":"address"}],"internalType":"struct AcademicCertification.Revocation","name":"","type":"tuple"}],"stateMutability":"view","type":"function"},{"inputs":[{"internalType":"address","name":"owner","type":"address"},{"internalType":"address","name":"operator","type":"address"}],"name":"isApprovedForAll","outputs":[{"internalType":"bool","name":"","type":"bool"}],"stateMutability":"view","type":"function"},{"inputs":[{"internalType":"address","name":"_issuerAddress","type":"address"}],"name":"isAuthorizedIssuer","outputs":[{"internalType":"bool","name":"","type":"bool"}],"stateMutability":"view","type":"function"},{"inputs":[{"internalType":"uint256","name":"_certificateId","type":"uint256"}],"name":"isCertificateExpired","outputs":[{"internalType":"bool","name":"","type":"bool"}],"stateMutability":"view","type":"function"},{"inputs":[{"internalType":"bytes32","name":"_certificateHash","type":"bytes32"},{"internalType":"address","name":"_recipient","type":"address"},{"internalType":"enum AcademicCertification.CertificateType","name":"_certType","type":"uint8"},{"internalType":"string","name":"_programName","type":"string"},{"internalType":"uint256","name":"_expiryDate","type":"uint256"},{"internalType":"string","name":"_metadataURI","type":"string"}],"name":"issueCertificate","outputs":[{"internalType":"uint256","name":"","type":"uint256"}],"stateMutability":"nonpayable","type":"function"},{"inputs":[{"internalType":"address","name":"","type":"address"},{"internalType":"uint256","name":"","type":"uint256"}],"name":"issuerCertificates","outputs":[{"internalType":"uint256","name":"","type":"uint256"}],"stateMutability":"view","type":"function"},{"inputs":[],"name":"name","outputs":[{"internalType":"string","name":"","type":"string"}],"stateMutability":"view","type":"function"},{"inputs":[],"name":"nextCertificateId","outputs":[{"internalType":"uint256","name":"","type":"uint256"}],"stateMutability":"view","type":"function"},{"inputs":[],"name":"owner","outputs":[{"internalType":"address","name":"","type":"address"}],"stateMutability":"view","type":"function"},{"inputs":[{"internalType":"uint256","name":"tokenId","type":"uint256"}],"name":"ownerOf","outputs":[{"internalType":"address","name":"","type":"address"}],"stateMutability":"view","type":"function"},{"inputs":[{"internalType":"address","name":"","type":"address"},{"internalType":"uint256","name":"","type":"uint256"}],"name":"recipientCertificates","outputs":[{"internalType":"uint256","name":"","type":"uint256"}],"stateMutability":"view","type":"function"},{"inputs":[{"internalType":"string","name":"_name","type":"string"},{"internalType":"string","name":"_country","type":"string"},{"internalType":"string","name":"_website","type":"string"}],"name":"registerIssuer","outputs":[],"stateMutability":"nonpayable","type":"function"},{"inputs":[{"internalType":"uint256","name":"_certificateId","type":"uint256"},{"internalType":"string","name":"_reason","type":"string"}],"name":"revokeCertificate","outputs":[],"stateMutability":"nonpayable","type":"function"},{"inputs":[{"internalType":"bytes32","name":"_certificateHash","type":"bytes32"},{"internalType":"string","name":"_reason","type":"string"}],"name":"revokeCertificateByHash","outputs":[],"stateMutability":"nonpayable","type":"function"},{"inputs":[{"internalType":"address","name":"from","type":"address"},{"internalType":"address","name":"to","type":"address"},{"internalType":"uint256","name":"tokenId","type":"uint256"}],"name":"safeTransferFrom","outputs":[],"stateMutability":"nonpayable","type":"function"},{"inputs":[{"internalType":"address","name":"from","type":"address"},{"internalType":"address","name":"to","type":"address"},{"internalType":"uint256","name":"tokenId","type":"uint256"},{"internalType":"bytes","name":"data","type":"bytes"}],"name":"safeTransferFrom","outputs":[],"stateMutability":"nonpayable","type":"function"},{"inputs":[{"internalType":"address","name":"operator","type":"address"},{"internalType":"bool","name":"approved","type":"bool"}],"name":"setApprovalForAll","outputs":[],"stateMutability":"nonpayable","type":"function"},{"inputs":[{"internalType":"bytes4","name":"interfaceId","type":"bytes4"}],"name":"supportsInterface","outputs":[{"internalType":"bool","name":"","type":"bool"}],"stateMutability":"view","type":"function"},{"inputs":[],"name":"symbol","outputs":[{"internalType":"string","name":"","type":"string"}],"stateMutability":"view","type":"function"},{"inputs":[{"internalType":"uint256","name":"tokenId","type":"uint256"}],"name":"tokenURI","outputs":[{"internalType":"string","name":"","type":"string"}],"stateMutability":"view","type":"function"},{"inputs":[{"internalType":"address","name":"from","type":"address"},{"internalType":"address","name":"to","type":"address"},{"internalType":"uint256","name":"tokenId","type":"uint256"}],"name":"transferFrom","outputs":[],"stateMutability":"nonpayable","type":"function"},{"inputs":[{"internalType":"address","name":"_issuerAddress","type":"address"},{"internalType":"enum AcademicCertification.IssuerStatus","name":"_newStatus","type":"uint8"}],"name":"updateIssuerStatus","outputs":[],"stateMutability":"nonpayable","type":"function"},{"inputs":[{"internalType":"bytes32","name":"_certificateHash","type":"bytes32"}],"name":"verifyCertificate","outputs":[{"internalType":"bool","name":"exists","type":"bool"},{"internalType":"bool","name":"isValid","type":"bool"},{"internalType":"enum AcademicCertification.CertificateStatus","name":"status","type":"uint8"},{"internalType":"address","name":"issuer","type":"address"},{"internalType":"address","name":"recipient","type":"address"}],"stateMutability":"view","type":"function"},{"inputs":[{"internalType":"uint256","name":"_certificateId","type":"uint256"}],"name":"verifyCertificateById","outputs":[{"internalType":"bool","name":"","type":"bool"}],"stateMutability":"nonpayable","type":"function"},{"inputs":[{"internalType":"address","name":"_issuerAddress","type":"address"}],"name":"verifyIssuer","outputs":[],"stateMutability":"nonpayable","type":"function"}],"evm":{"bytecode":{"linkReferences":{},"object":"608060405260016008553480156200001657600080fd5b506040518060400160405280601581526020017f41636164656d696343657274696669636174696f6e00000000000000000000008152506040518060400160405280600881526020017f4143414443455254000000000000000000000000000000000000000000000000815250816000908162000094919062000442565b508060019081620000a6919062000442565b505050620000c5674a95fd0472f9d99f60c01b620001c560201b60201c565b620000e16793c05ce3558137e060c01b620001c560201b60201c565b33600760006101000a81548173ffffffffffffffffffffffffffffffffffffffff021916908373ffffffffffffffffffffffffffffffffffffffff1602179055506200013e67979194a92a5ca3f260c01b620001c560201b60201c565b6200015a67ec3ff2a7720d66eb60c01b620001c560201b60201c565b600760009054906101000a900473ffffffffffffffffffffffffffffffffffffffff1673ffffffffffffffffffffffffffffffffffffffff167fb8bb5a08c752924168166e254455ca6708ef2ac4cfd39bba39eb5a5b89f0cbd660405160405180910390a262000529565b50565b600081519050919050565b7f4e487b7100000000000000000000000000000000000000000000000000000000600052604160045260246000fd5b7f4e487b7100000000000000000000000000000000000000000000000000000000600052602260045260246000fd5b600060028204905060018216806200024a57607f821691505b60208210810362000260576200025f62000202565b5b50919050565b60008190508160005260206000209050919050565b60006020601f8301049050919050565b600082821b905092915050565b600060088302620002ca7fffffffffffffffffffffffffffffffffffffffffffffffffffffffffffffffff826200028b565b620002d686836200028b565b95508019841693508086168417925050509392505050565b6000819050919050565b6000819050919050565b6000620003236200031d6200031784620002ee565b620002f8565b620002ee565b9050919050565b6000819050919050565b6200033f8362000302565b620003576200034e826200032a565b84845462000298565b825550505050565b600090565b6200036e6200035f565b6200037b81848462000334565b505050565b5b81811015620003a3576200039760008262000364565b60018101905062000381565b5050565b601f821115620003f257620003bc8162000266565b620003c7846200027b565b81016020851015620003d7578190505b620003ef620003e6856200027b565b83018262000380565b50505b505050565b600082821c905092915050565b60006200041760001984600802620003f7565b1980831691505092915050565b600062000432838362000404565b9150826002028217905092915050565b6200044d82620001c8565b67ffffffffffffffff811115620004695762000468620001d3565b5b62000475825462000231565b62000482828285620003a7565b600060209050601f831160018114620004ba5760008415620004a5578287015190505b620004b1858262000424565b86555062000521565b601f198416620004ca8662000266565b60005b82811015620004f457848901518255600182019150602085019450602081019050620004cd565b8683101562000514578489015162000510601f89168262000404565b8355505b6001600288020188555050505b505050505050565b618ec980620005396000396000f3fe608060405234801561001057600080fd5b50600436106102275760003560e01c8063850c176811610130578063b440983e116100b8578063e985e9c51161007c578063e985e9c514610720578063f851a44014610750578063fbca9e851461076e578063fdb5f9df1461079e578063fef03da3146107ce57610227565b8063b440983e14610644578063b771600714610674578063b88d4fde146106a4578063c87b56dd146106c0578063c962f634146106f057610227565b806395d89b41116100ff57806395d89b41146105b4578063a0bdb003146105d2578063a22cb465146105f0578063b1466d1d1461060c578063b40d35e61461062857610227565b8063850c1768146105025780638da5cb5b1461053657806390ab95cb14610554578063947ff3241461058457610227565b806349e27a17116101b35780636352211e116101825780636352211e1461042657806370a082311461045657806373ae3899146104865780637a8ee24b146104b65780638096373e146104e657610227565b806349e27a171461037a57806351640fee146103aa57806360c000d4146103da57806362812a39146103f657610227565b806323b872dd116101fa57806323b872dd146102c657806331ba1966146102e2578063359412731461031257806335e841741461032e57806342842e0e1461035e57610227565b806301ffc9a71461022c57806306fdde031461025c578063081812fc1461027a578063095ea7b3146102aa575b600080fd5b610246600480360381019061024191906167d5565b6107fe565b604051610253919061681d565b60405180910390f35b61026461085f565b60405161027191906168c8565b60405180910390f35b610294600480360381019061028f9190616920565b6108f1565b6040516102a1919061698e565b60405180910390f35b6102c460048036038101906102bf91906169d5565b610937565b005b6102e060048036038101906102db9190616a15565b610a4e565b005b6102fc60048036038101906102f79190616a68565b610aae565b604051610309919061681d565b60405180910390f35b61032c60048036038101906103279190616c00565b610e4c565b005b61034860048036038101906103439190616c81565b610f6a565b6040516103559190616d55565b60405180910390f35b61037860048036038101906103739190616a15565b61204b565b005b610394600480360381019061038f9190616920565b61206b565b6040516103a1919061681d565b60405180910390f35b6103c460048036038101906103bf9190616920565b612278565b6040516103d19190616f87565b60405180910390f35b6103f460048036038101906103ef9190616a68565b6126c6565b005b610410600480360381019061040b9190616a68565b612abe565b60405161041d91906170af565b60405180910390f35b610440600480360381019061043b9190616920565b612db4565b60405161044d919061698e565b60405180910390f35b610470600480360381019061046b9190616a68565b612e3a565b60405161047d9190616d55565b60405180910390f35b6104a0600480360381019061049b91906169d5565b612ef1565b6040516104ad9190616d55565b60405180910390f35b6104d060048036038101906104cb9190616a68565b612f22565b6040516104dd9190617140565b60405180910390f35b61050060048036038101906104fb9190617162565b612ff5565b005b61051c60048036038101906105179190617209565b6133d3565b60405161052d959493929190617245565b60405180910390f35b61053e6135f7565b60405161054b919061698e565b60405180910390f35b61056e60048036038101906105699190617209565b61365d565b60405161057b9190616f87565b60405180910390f35b61059e600480360381019061059991906169d5565b613785565b6040516105ab9190616d55565b60405180910390f35b6105bc6137b6565b6040516105c991906168c8565b60405180910390f35b6105da613848565b6040516105e79190616d55565b60405180910390f35b61060a600480360381019061060591906172c4565b61384e565b005b61062660048036038101906106219190617304565b613864565b005b610642600480360381019061063d9190617385565b613d6a565b005b61065e60048036038101906106599190617209565b6141d1565b60405161066b919061681d565b60405180910390f35b61068e60048036038101906106899190616a68565b614237565b60405161069b9190617140565b60405180910390f35b6106be60048036038101906106b99190617466565b61430a565b005b6106da60048036038101906106d59190616920565b61436c565b6040516106e791906168c8565b60405180910390f35b61070a60048036038101906107059190616920565b61447e565b604051610717919061754c565b60405180910390f35b61073a6004803603810190610735919061756e565b6146a8565b604051610747919061681d565b60405180910390f35b61075861473c565b604051610765919061698e565b60405180910390f35b6107886004803603810190610783919061781a565b614762565b6040516107959190617140565b60405180910390f35b6107b860048036038101906107b39190616920565b614b9f565b6040516107c5919061681d565b60405180910390f35b6107e860048036038101906107e39190616a68565b614fc8565b6040516107f59190617a06565b60405180910390f35b6000634906490660e01b7bffffffffffffffffffffffffffffffffffffffffffffffffffffffff1916827bffffffffffffffffffffffffffffffffffffffffffffffffffffffff191614806108585750610857826153ea565b5b9050919050565b60606000805461086e90617a57565b80601f016020809104026020016040519081016040528092919081815260200182805461089a90617a57565b80156108e75780601f106108bc576101008083540402835291602001916108e7565b820191906000526020600020905b8154815290600101906020018083116108ca57829003601f168201915b5050505050905090565b60006108fc826154cc565b6004600083815260200190815260200160002060009054906101000a900473ffffffffffffffffffffffffffffffffffffffff169050919050565b600061094282612db4565b90508073ffffffffffffffffffffffffffffffffffffffff168373ffffffffffffffffffffffffffffffffffffffff16036109b2576040517f08c379a00000000000000000000000000000000000000000000000000000000081526004016109a990617afa565b60405180910390fd5b8073ffffffffffffffffffffffffffffffffffffffff166109d1615517565b73ffffffffffffffffffffffffffffffffffffffff161480610a0057506109ff816109fa615517565b6146a8565b5b610a3f576040517f08c379a0000000000000000000000000000000000000000000000000000000008152600401610a3690617b8c565b60405180910390fd5b610a49838361551f565b505050565b610a5f610a59615517565b826155d8565b610a9e576040517f08c379a0000000000000000000000000000000000000000000000000000000008152600401610a9590617c1e565b60405180910390fd5b610aa983838361566d565b505050565b6000610ac467ac6df66b1eb6c01760c01b615966565b610ad867db67bccfaa108f9e60c01b615966565b610aec671a80f5f0a4409ed060c01b615966565b6000600c60008473ffffffffffffffffffffffffffffffffffffffff1673ffffffffffffffffffffffffffffffffffffffff1681526020019081526020016000206040518060e00160405290816000820160009054906101000a900473ffffffffffffffffffffffffffffffffffffffff1673ffffffffffffffffffffffffffffffffffffffff1673ffffffffffffffffffffffffffffffffffffffff168152602001600182018054610b9e90617a57565b80601f0160208091040260200160405190810160405280929190818152602001828054610bca90617a57565b8015610c175780601f10610bec57610100808354040283529160200191610c17565b820191906000526020600020905b815481529060010190602001808311610bfa57829003601f168201915b50505050508152602001600282018054610c3090617a57565b80601f0160208091040260200160405190810160405280929190818152602001828054610c5c90617a57565b8015610ca95780601f10610c7e57610100808354040283529160200191610ca9565b820191906000526020600020905b815481529060010190602001808311610c8c57829003601f168201915b50505050508152602001600382018054610cc290617a57565b80601f0160208091040260200160405190810160405280929190818152602001828054610cee90617a57565b8015610d3b5780601f10610d1057610100808354040283529160200191610d3b565b820191906000526020600020905b815481529060010190602001808311610d1e57829003601f168201915b50505050508152602001600482015481526020016005820160009054906101000a900460ff166002811115610d7357610d72616d9d565b5b6002811115610d8557610d84616d9d565b5b81526020016005820160019054906101000a900460ff1615151515815250509050610dba6725e9c9a99f5056c160c01b615966565b610dce6754c24ed8a9f3d3cc60c01b615966565b600073ffffffffffffffffffffffffffffffffffffffff16816000015173ffffffffffffffffffffffffffffffffffffffff1614158015610e1057508060c001515b8015610e44575060006002811115610e2b57610e2a616d9d565b5b8160a001516002811115610e4257610e41616d9d565b5b145b915050919050565b610e6067e99528b478db819760c01b615966565b610e7467981cbb34d30fe94a60c01b615966565b610e8867f812c170ae7658c060c01b615966565b6000600b6000848152602001908152602001600020549050610eb4672596ea0df700c07660c01b615966565b610ec86724b4169ca1d4dc5360c01b615966565b610edc67f9efaf3217b66a3c60c01b615966565b60008103610f1f576040517f08c379a0000000000000000000000000000000000000000000000000000000008152600401610f1690617c8a565b60405180910390fd5b610f3367b346a0c0fbd9904960c01b615966565b610f4767211bcabd1a152d9460c01b615966565b610f5b67cb9d3d897890b0cd60c01b615966565b610f658183613864565b505050565b6000610f8067cf60f511b55b5d0660c01b615966565b610f946741294c28535e6f2b60c01b615966565b610fa867b99b056bc902e5de60c01b615966565b610fbc67eeb696a652a6a3b760c01b615966565b610fd067bb5c4622874b315d60c01b615966565b610fd933610aae565b611018576040517f08c379a000000000000000000000000000000000000000000000000000000000815260040161100f90617cf6565b60405180910390fd5b61102c67997eaa5a8339b48c60c01b615966565b611040678cfc172e79ba764160c01b615966565b61105467e835362c4371ca1260c01b615966565b611068674da49a59af1c696c60c01b615966565b61107c67b796675ac98088c260c01b615966565b61109067a3bfde706a89a3cb60c01b615966565b6000600c60003373ffffffffffffffffffffffffffffffffffffffff1673ffffffffffffffffffffffffffffffffffffffff1681526020019081526020016000206040518060e00160405290816000820160009054906101000a900473ffffffffffffffffffffffffffffffffffffffff1673ffffffffffffffffffffffffffffffffffffffff1673ffffffffffffffffffffffffffffffffffffffff16815260200160018201805461114290617a57565b80601f016020809104026020016040519081016040528092919081815260200182805461116e90617a57565b80156111bb5780601f10611190576101008083540402835291602001916111bb565b820191906000526020600020905b81548152906001019060200180831161119e57829003601f168201915b505050505081526020016002820180546111d490617a57565b80601f016020809104026020016040519081016040528092919081815260200182805461120090617a57565b801561124d5780601f106112225761010080835404028352916020019161124d565b820191906000526020600020905b81548152906001019060200180831161123057829003601f168201915b5050505050815260200160038201805461126690617a57565b80601f016020809104026020016040519081016040528092919081815260200182805461129290617a57565b80156112df5780601f106112b4576101008083540402835291602001916112df565b820191906000526020600020905b8154815290600101906020018083116112c257829003601f168201915b50505050508152602001600482015481526020016005820160009054906101000a900460ff16600281111561131757611316616d9d565b5b600281111561132957611328616d9d565b5b81526020016005820160019054906101000a900460ff161515151581525050905061135e677cb506e7d2f5739e60c01b615966565b6113726791e069ac071dcde460c01b615966565b61138667b4caec0d29552c4160c01b615966565b600073ffffffffffffffffffffffffffffffffffffffff16816000015173ffffffffffffffffffffffffffffffffffffffff16036113f9576040517f08c379a00000000000000000000000000000000000000000000000000000000081526004016113f090617d62565b60405180910390fd5b61140d67d473b299977421ca60c01b615966565b61142167bdbca81da9f4105860c01b615966565b6114356764136fe38ced2be860c01b615966565b61144967f4171bb8def4777460c01b615966565b6000600281111561145d5761145c616d9d565b5b8160a00151600281111561147457611473616d9d565b5b146114b4576040517f08c379a00000000000000000000000000000000000000000000000000000000081526004016114ab90617dce565b60405180910390fd5b6114c8671a0965ce03ae489960c01b615966565b6114dc67370fb97832ae38a560c01b615966565b6114f067058f5ab8a7fab54d60c01b615966565b611504676abb7a579ef4482460c01b615966565b8060c00151611548576040517f08c379a000000000000000000000000000000000000000000000000000000000815260040161153f90617e3a565b60405180910390fd5b61155c67f8d78306001730f960c01b615966565b61157067edd26be726a0b9ab60c01b615966565b61158467f42b8f7e8e34766160c01b615966565b611598673eb07f82bc65f85d60c01b615966565b600073ffffffffffffffffffffffffffffffffffffffff168773ffffffffffffffffffffffffffffffffffffffff1603611607576040517f08c379a00000000000000000000000000000000000000000000000000000000081526004016115fe90617ea6565b60405180910390fd5b61161b675f79bf21391fda8660c01b615966565b61162f67a5d9e0df2863f08660c01b615966565b61164266974390677c8b5760c01b615966565b6116566734bec01af93463ae60c01b615966565b6000801b880361169b576040517f08c379a000000000000000000000000000000000000000000000000000000000815260040161169290617f12565b60405180910390fd5b6116af67a145709a90a659f160c01b615966565b6116c367fb7f939b7097926060c01b615966565b6116d76757b7d7ea463d568260c01b615966565b6116eb67e3c13f2e76b3172560c01b615966565b6009600089815260200190815260200160002060009054906101000a900460ff161561174c576040517f08c379a000000000000000000000000000000000000000000000000000000000815260040161174390617f7e565b60405180910390fd5b611760677d304ddb20f4ca5e60c01b615966565b61177467a0febf5a21239fff60c01b615966565b6117886760401342b6c8eb5060c01b615966565b61179c671f45ec3e637a8ea960c01b615966565b60008551116117e0576040517f08c379a00000000000000000000000000000000000000000000000000000000081526004016117d790617fea565b60405180910390fd5b6117f4671e945686019a275b60c01b615966565b611808676addff413d3082d860c01b615966565b61181c67220f71a8f3aaf07a60c01b615966565b61183067649657e58712d4ee60c01b615966565b600084148015611850575061184f67057838b54e8bda9560c01b615969565b5b80611876575042841180156118755750611874673a96cbe13982c10260c01b615969565b5b5b6118b5576040517f08c379a00000000000000000000000000000000000000000000000000000000081526004016118ac90618056565b60405180910390fd5b6118c96746a01a214e8d3fe060c01b615966565b6118dd672319386483f0079560c01b615966565b6118f167447c13c882f57a2b60c01b615966565b6000600854905061190c67e3fc67d02e6632f860c01b615966565b6040518061014001604052808281526020018a81526020013373ffffffffffffffffffffffffffffffffffffffff1681526020018973ffffffffffffffffffffffffffffffffffffffff16815260200188600581111561196f5761196e616d9d565b5b81526020018781526020014281526020018681526020016000600281111561199a57611999616d9d565b5b815260200185815250600a6000838152602001908152602001600020600082015181600001556020820151816001015560408201518160020160006101000a81548173ffffffffffffffffffffffffffffffffffffffff021916908373ffffffffffffffffffffffffffffffffffffffff16021790555060608201518160030160006101000a81548173ffffffffffffffffffffffffffffffffffffffff021916908373ffffffffffffffffffffffffffffffffffffffff16021790555060808201518160030160146101000a81548160ff02191690836005811115611a8357611a82616d9d565b5b021790555060a0820151816004019081611a9d9190618222565b5060c0820151816005015560e082015181600601556101008201518160070160006101000a81548160ff02191690836002811115611ade57611add616d9d565b5b0217905550610120820151816008019081611af99190618222565b50905050611b116726fbd90fbdb1fd0960c01b615966565b6001600960008b815260200190815260200160002060006101000a81548160ff021916908315150217905550611b516739f528932805fb8560c01b615966565b80600b60008b815260200190815260200160002081905550611b7d675edb2f6b6d689e3260c01b615966565b611b9167155a0cc9e982f14160c01b615966565b611b9b8882615974565b611baf67d6589064e49177e260c01b615966565b611bc3677e34e1bb35b3668860c01b615966565b611bcd8185615992565b611be167a79c8d85c78e104b60c01b615966565b611bf567b9b53684fea8acea60c01b615966565b600f60003373ffffffffffffffffffffffffffffffffffffffff1673ffffffffffffffffffffffffffffffffffffffff168152602001908152602001600020819080600181540180825580915050600190039060005260206000200160009091909190915055611c6f675158d3501d51ea9e60c01b615966565b611c8367836801feeea1209d60c01b615966565b601060008973ffffffffffffffffffffffffffffffffffffffff1673ffffffffffffffffffffffffffffffffffffffff168152602001908152602001600020819080600181540180825580915050600190039060005260206000200160009091909190915055611cfd673ba24318247d55b360c01b615966565b611d1167f5e5e2005b9927a660c01b615966565b600073ffffffffffffffffffffffffffffffffffffffff16600d60008a73ffffffffffffffffffffffffffffffffffffffff1673ffffffffffffffffffffffffffffffffffffffff16815260200190815260200160002060000160009054906101000a900473ffffffffffffffffffffffffffffffffffffffff1673ffffffffffffffffffffffffffffffffffffffff1603611ec857611dbb6734492cec947c468a60c01b615966565b611dcf6728603e12d3d626e460c01b615966565b87600d60008a73ffffffffffffffffffffffffffffffffffffffff1673ffffffffffffffffffffffffffffffffffffffff16815260200190815260200160002060000160006101000a81548173ffffffffffffffffffffffffffffffffffffffff021916908373ffffffffffffffffffffffffffffffffffffffff160217905550611e6467e4bac4307f521ee160c01b615966565b60405180602001604052806000815250600d60008a73ffffffffffffffffffffffffffffffffffffffff1673ffffffffffffffffffffffffffffffffffffffff1681526020019081526020016000206001019081611ec29190618222565b50611edd565b611edc67b29cf3dd00ce99ac60c01b615966565b5b611ef167e070879011876fb760c01b615966565b611f0567bbda15393b29c03f60c01b615966565b600d60008973ffffffffffffffffffffffffffffffffffffffff1673ffffffffffffffffffffffffffffffffffffffff168152602001908152602001600020600201819080600181540180825580915050600190039060005260206000200160009091909190915055611f82677d791f751f8a791260c01b615966565b600160086000828254611f959190618323565b92505081905550611fb067606605f40d2fea6d60c01b615966565b611fc46714eec00cf472c10760c01b615966565b8773ffffffffffffffffffffffffffffffffffffffff1689827f5cd3483a845d61325922be1e70bf5cd2fda2daa33669bb584aa69764d444eb583360405161200c919061698e565b60405180910390a461202867771ca8237d811cec60c01b615966565b61203c6756c778a5c270509660c01b615966565b80925050509695505050505050565b6120668383836040518060200160405280600081525061430a565b505050565b6000612081673f425d9b3fd1c53860c01b615966565b8161209667a9429c4c31aea92a60c01b615966565b6120aa67ae8aedde8ca5578a60c01b615966565b6120be67d5e12970a551021260c01b615966565b6120d267522fc24560608ac260c01b615966565b6000600a6000838152602001908152602001600020600001540361212b576040517f08c379a000000000000000000000000000000000000000000000000000000000815260040161212290617c8a565b60405180910390fd5b61213f6788d531b5375b9f7f60c01b615966565b61215367da12b9df51dc367860c01b615966565b612167672ab3b267b1bd347660c01b615966565b61217b67a915329f14c0b25960c01b615966565b61218f67ce4edcde208a51e160c01b615966565b6121a367684b4ec27d14fb6a60c01b615966565b60006121ae84612278565b90506121c467d5c52430c9551fee60c01b615966565b6121d867814965c1a3ea1e2d60c01b615966565b60006121e382615a36565b90506121f967a0a3c0f5ec49ed2e60c01b615966565b61220d6773896113fb4d4b9260c01b615966565b847fd7c96d6fc66839b1626cff5f8eccbacfa07b17981e577e09f16310f5fca240a83360405161223d919061698e565b60405180910390a261225967d9307bd13efb8fb160c01b615966565b61226d67950e3806780b729b60c01b615966565b809350505050919050565b6122806165e7565b61229467ea1307a17cfd2c5f60c01b615966565b816122a967a9429c4c31aea92a60c01b615966565b6122bd67ae8aedde8ca5578a60c01b615966565b6122d167d5e12970a551021260c01b615966565b6122e567522fc24560608ac260c01b615966565b6000600a6000838152602001908152602001600020600001540361233e576040517f08c379a000000000000000000000000000000000000000000000000000000000815260040161233590617c8a565b60405180910390fd5b6123526788d531b5375b9f7f60c01b615966565b61236667da12b9df51dc367860c01b615966565b61237a677289a9d4435af43560c01b615966565b61238e673586c1bd04e306b360c01b615966565b6123a2673675216fd887dc8060c01b615966565b6123b6670cf6cf2f5a12ecd960c01b615966565b6000600a60008581526020019081526020016000206040518061014001604052908160008201548152602001600182015481526020016002820160009054906101000a900473ffffffffffffffffffffffffffffffffffffffff1673ffffffffffffffffffffffffffffffffffffffff1673ffffffffffffffffffffffffffffffffffffffff1681526020016003820160009054906101000a900473ffffffffffffffffffffffffffffffffffffffff1673ffffffffffffffffffffffffffffffffffffffff1673ffffffffffffffffffffffffffffffffffffffff1681526020016003820160149054906101000a900460ff1660058111156124bc576124bb616d9d565b5b60058111156124ce576124cd616d9d565b5b81526020016004820180546124e290617a57565b80601f016020809104026020016040519081016040528092919081815260200182805461250e90617a57565b801561255b5780601f106125305761010080835404028352916020019161255b565b820191906000526020600020905b81548152906001019060200180831161253e57829003601f168201915b5050505050815260200160058201548152602001600682015481526020016007820160009054906101000a900460ff16600281111561259d5761259c616d9d565b5b60028111156125af576125ae616d9d565b5b81526020016008820180546125c390617a57565b80601f01602080910402602001604051908101604052809291908181526020018280546125ef90617a57565b801561263c5780601f106126115761010080835404028352916020019161263c565b820191906000526020600020905b81548152906001019060200180831161261f57829003601f168201915b505050505081525050905061265b67f7e51b4469bd6e7e60c01b615966565b61266481615ad1565b816101000190600281111561267c5761267b616d9d565b5b908160028111156126905761268f616d9d565b5b815250506126a86742886b54afd37a5660c01b615966565b6126bc6737e1d4e78b07646260c01b615966565b8092505050919050565b6126da67635cb82dfa4cb38c60c01b615966565b6126ee67a990f19939b89b7860c01b615966565b6127026737229fcd49615b8060c01b615966565b612716677e02fc2cbc85c15c60c01b615966565b61272a6707297b57abde506260c01b615966565b600760009054906101000a900473ffffffffffffffffffffffffffffffffffffffff1673ffffffffffffffffffffffffffffffffffffffff163373ffffffffffffffffffffffffffffffffffffffff16146127ba576040517f08c379a00000000000000000000000000000000000000000000000000000000081526004016127b1906183a3565b60405180910390fd5b6127ce67167c98f87015725e60c01b615966565b6127e267f7a8f321f64f4e8260c01b615966565b6127f667dc2c54d13ed556d360c01b615966565b61280a677e9a6c1f100352f560c01b615966565b61281e67d8bc4c8e6c89f75960c01b615966565b61283166e38c0623be071860c01b615966565b6000600c60008373ffffffffffffffffffffffffffffffffffffffff1673ffffffffffffffffffffffffffffffffffffffff1681526020019081526020016000209050612888679feb6571a97996c460c01b615966565b61289b6658e47a5ba1982660c01b615966565b6128af67ef81ee079542a82460c01b615966565b600073ffffffffffffffffffffffffffffffffffffffff168160000160009054906101000a900473ffffffffffffffffffffffffffffffffffffffff1673ffffffffffffffffffffffffffffffffffffffff1603612942576040517f08c379a000000000000000000000000000000000000000000000000000000000815260040161293990617d62565b60405180910390fd5b612956676a947a01581caeb860c01b615966565b61296a673e594ec38d1db6df60c01b615966565b61297e673d6d0ae81cef05bb60c01b615966565b612992670c650e33a693644460c01b615966565b600060028111156129a6576129a5616d9d565b5b8160050160009054906101000a900460ff1660028111156129ca576129c9616d9d565b5b14612a0a576040517f08c379a0000000000000000000000000000000000000000000000000000000008152600401612a0190617dce565b60405180910390fd5b612a1e67f1efb79a451a790c60c01b615966565b612a32679d22a70863b344b360c01b615966565b60018160050160016101000a81548160ff021916908315150217905550612a63676c4e838e4bc7b2e860c01b615966565b612a7767a4da2890fb19abcc60c01b615966565b8173ffffffffffffffffffffffffffffffffffffffff167f9cca3a5e0aa799ca2019cf1c56ffac790a8440945b75295db5cdffb2f7284be260405160405180910390a25050565b612ac661668d565b612ada6777cadae0698b8cc860c01b615966565b612aee67c7ddf72abea5266e60c01b615966565b612b0267b18c9d1a03c4e96660c01b615966565b612b1667dd550cdf57e999a160c01b615966565b600073ffffffffffffffffffffffffffffffffffffffff16600d60008473ffffffffffffffffffffffffffffffffffffffff1673ffffffffffffffffffffffffffffffffffffffff16815260200190815260200160002060000160009054906101000a900473ffffffffffffffffffffffffffffffffffffffff1673ffffffffffffffffffffffffffffffffffffffff1603612be7576040517f08c379a0000000000000000000000000000000000000000000000000000000008152600401612bde9061840f565b60405180910390fd5b612bfb674f48b3caecdf4d5760c01b615966565b612c0f6729248703e7b635ef60c01b615966565b612c23670305b727bfe47cff60c01b615966565b600d60008373ffffffffffffffffffffffffffffffffffffffff1673ffffffffffffffffffffffffffffffffffffffff1681526020019081526020016000206040518060600160405290816000820160009054906101000a900473ffffffffffffffffffffffffffffffffffffffff1673ffffffffffffffffffffffffffffffffffffffff1673ffffffffffffffffffffffffffffffffffffffff168152602001600182018054612cd390617a57565b80601f0160208091040260200160405190810160405280929190818152602001828054612cff90617a57565b8015612d4c5780601f10612d2157610100808354040283529160200191612d4c565b820191906000526020600020905b815481529060010190602001808311612d2f57829003601f168201915b5050505050815260200160028201805480602002602001604051908101604052809291908181526020018280548015612da457602002820191906000526020600020905b815481526020019060010190808311612d90575b5050505050815250509050919050565b600080612dc083615c69565b9050600073ffffffffffffffffffffffffffffffffffffffff168173ffffffffffffffffffffffffffffffffffffffff1603612e31576040517f08c379a0000000000000000000000000000000000000000000000000000000008152600401612e289061847b565b60405180910390fd5b80915050919050565b60008073ffffffffffffffffffffffffffffffffffffffff168273ffffffffffffffffffffffffffffffffffffffff1603612eaa576040517f08c379a0000000000000000000000000000000000000000000000000000000008152600401612ea19061850d565b60405180910390fd5b600360008373ffffffffffffffffffffffffffffffffffffffff1673ffffffffffffffffffffffffffffffffffffffff168152602001908152602001600020549050919050565b60106020528160005260406000208181548110612f0d57600080fd5b90600052602060002001600091509150505481565b6060612f38676af7e74b39f9fe4360c01b615966565b612f4c6757ff0e1bc62ab49f60c01b615966565b612f606797aafba1365ab00c60c01b615966565b600f60008373ffffffffffffffffffffffffffffffffffffffff1673ffffffffffffffffffffffffffffffffffffffff168152602001908152602001600020805480602002602001604051908101604052809291908181526020018280548015612fe957602002820191906000526020600020905b815481526020019060010190808311612fd5575b50505050509050919050565b613009671b617bc9c613d34760c01b615966565b61301d670503f81de6d3bf0960c01b615966565b61303167136709d22a2a57e760c01b615966565b61304567fcf37a583277824360c01b615966565b6000835111613089576040517f08c379a000000000000000000000000000000000000000000000000000000000815260040161308090618579565b60405180910390fd5b61309d679fa06a77f11ae92360c01b615966565b6130b1670d23ce4a04ef078060c01b615966565b6130c56757fb57da304b1eda60c01b615966565b6130d967beda050a2ce55a1c60c01b615966565b600073ffffffffffffffffffffffffffffffffffffffff16600c60003373ffffffffffffffffffffffffffffffffffffffff1673ffffffffffffffffffffffffffffffffffffffff16815260200190815260200160002060000160009054906101000a900473ffffffffffffffffffffffffffffffffffffffff1673ffffffffffffffffffffffffffffffffffffffff16146131aa576040517f08c379a00000000000000000000000000000000000000000000000000000000081526004016131a1906185e5565b60405180910390fd5b6131be67af5664478e5494cd60c01b615966565b6131d267ca586a81b778fb2760c01b615966565b6040518060e001604052803373ffffffffffffffffffffffffffffffffffffffff1681526020018481526020018381526020018281526020014281526020016000600281111561322557613224616d9d565b5b815260200160001515815250600c60003373ffffffffffffffffffffffffffffffffffffffff1673ffffffffffffffffffffffffffffffffffffffff16815260200190815260200160002060008201518160000160006101000a81548173ffffffffffffffffffffffffffffffffffffffff021916908373ffffffffffffffffffffffffffffffffffffffff16021790555060208201518160010190816132cc9190618222565b5060408201518160020190816132e29190618222565b5060608201518160030190816132f89190618222565b506080820151816004015560a08201518160050160006101000a81548160ff0219169083600281111561332e5761332d616d9d565b5b021790555060c08201518160050160016101000a81548160ff02191690831515021790555090505061336a67cd7172c9fefa95bd60c01b615966565b61337e672d43c44d6cdb8e3860c01b615966565b3373ffffffffffffffffffffffffffffffffffffffff167f2b062b4e0857383c98aacd16bcd2714030d81ad54eb91dd1885634442438665184846040516133c6929190618605565b60405180910390a2505050565b60008060008060006133ef67e92b366965dd6b3860c01b615966565b613403675d64a69e0218730560c01b615966565b61341767cf82b5cd27991d5b60c01b615966565b6000600b600088815260200190815260200160002054905061344367ca27a0b51bfe25e660c01b615966565b613457673a0b1b2ad0a5404360c01b615966565b600081036135195761347367957015594a08b78f60c01b615966565b61348767b67fe0385b9e0f8960c01b615966565b6000955061349f6781d9a334f5da5eb560c01b615966565b600094506134b76781e6ca406a0e7cbb60c01b615966565b600093506134cf67376ff6099bf599d660c01b615966565b600092506134e7677ee21f704619e5fa60c01b615966565b600091506134ff67d09323ba4bdd28ab60c01b615966565b61351367293baf3f874fc70660c01b615966565b506135ee565b61352d678c2ce589f47c8ad360c01b615966565b6135416745e5e986b983d4c260c01b615966565b61355567f8e62a99f2cab25960c01b615966565b600061356082612278565b905061357667dd05f3e7a1babe2a60c01b615966565b6001965061358e6753a231e9fcce13ba60c01b615966565b80610100015194506135aa676ec57ffd7842ba3e60c01b615966565b806040015193506135c5674f4227fb145c1d7060c01b615966565b806060015192506135e0677a5ab2655b30dc4a60c01b615966565b6135e981615a36565b955050505b91939590929450565b600061360d67afd5594fe66ad25460c01b615966565b6136216709fe805864c19e5e60c01b615966565b61363567f9dccc3e8f6ce38360c01b615966565b600760009054906101000a900473ffffffffffffffffffffffffffffffffffffffff16905090565b6136656165e7565b6136796747fe1b8678588ef660c01b615966565b61368d671cfb1f1638d979c060c01b615966565b6136a167a2380b17f085af7460c01b615966565b6000600b60008481526020019081526020016000205490506136cd67a78bfd3a80a7640f60c01b615966565b6136e1671bff501ac0ff566360c01b615966565b6136f567df2aa6d8a1f03cd860c01b615966565b60008103613738576040517f08c379a000000000000000000000000000000000000000000000000000000000815260040161372f90617c8a565b60405180910390fd5b61374c675a996be7355401c560c01b615966565b6137606706c7f6034e63f65660c01b615966565b61377467aa6e5f83e4710de260c01b615966565b61377d81612278565b915050919050565b600f60205281600052604060002081815481106137a157600080fd5b90600052602060002001600091509150505481565b6060600180546137c590617a57565b80601f01602080910402602001604051908101604052809291908181526020018280546137f190617a57565b801561383e5780601f106138135761010080835404028352916020019161383e565b820191906000526020600020905b81548152906001019060200180831161382157829003601f168201915b5050505050905090565b60085481565b613860613859615517565b8383615ca6565b5050565b61387867af83481922a1ffce60c01b615966565b8161388d67a9429c4c31aea92a60c01b615966565b6138a167ae8aedde8ca5578a60c01b615966565b6138b567d5e12970a551021260c01b615966565b6138c967522fc24560608ac260c01b615966565b6000600a60008381526020019081526020016000206000015403613922576040517f08c379a000000000000000000000000000000000000000000000000000000000815260040161391990617c8a565b60405180910390fd5b6139366788d531b5375b9f7f60c01b615966565b61394a67da12b9df51dc367860c01b615966565b61395e6727815ef522d48b1a60c01b615966565b61397267b07b6910a8b7cc2760c01b615966565b61398667821e948245792bd860c01b615966565b61399a67fa6059b24989121a60c01b615966565b6000600a600085815260200190815260200160002090506139c5670146c3f4a713341c60c01b615966565b6139d967aa9cf4e3437e6bf060c01b615966565b6139ed6713861306c582758b60c01b615966565b8060020160009054906101000a900473ffffffffffffffffffffffffffffffffffffffff1673ffffffffffffffffffffffffffffffffffffffff163373ffffffffffffffffffffffffffffffffffffffff1614613a7f576040517f08c379a0000000000000000000000000000000000000000000000000000000008152600401613a7690618688565b60405180910390fd5b613a93672bca3ee6eec52c5460c01b615966565b613aa7672d83965d10aa8c4060c01b615966565b613abb67673d82ec4b12cdd960c01b615966565b613acf679f2917effdc3ff7560c01b615966565b60016002811115613ae357613ae2616d9d565b5b8160070160009054906101000a900460ff166002811115613b0757613b06616d9d565b5b03613b47576040517f08c379a0000000000000000000000000000000000000000000000000000000008152600401613b3e906186f4565b60405180910390fd5b613b5b67d5342bb3c0387a9860c01b615966565b613b6f67886c99e3de7834a760c01b615966565b613b8367cd9907e438357eeb60c01b615966565b613b97673a2124224843d67460c01b615966565b6000835111613bdb576040517f08c379a0000000000000000000000000000000000000000000000000000000008152600401613bd290618760565b60405180910390fd5b613bef67220bf41f6c6deb8860c01b615966565b613c03676d27de681fbe48ea60c01b615966565b60018160070160006101000a81548160ff02191690836002811115613c2b57613c2a616d9d565b5b0217905550613c446779fab6f716b8d60060c01b615966565b60405180608001604052808581526020014281526020018481526020013373ffffffffffffffffffffffffffffffffffffffff16815250600e600086815260200190815260200160002060008201518160000155602082015181600101556040820151816002019081613cb79190618222565b5060608201518160030160006101000a81548173ffffffffffffffffffffffffffffffffffffffff021916908373ffffffffffffffffffffffffffffffffffffffff160217905550905050613d1667a57767b660b870bf60c01b615966565b613d2a6745ccb2281d79b0e060c01b615966565b837f81fc733e55f0f88552e092100207c0fafdc5f13b02a69962f50fb73dd01437928433604051613d5c929190618780565b60405180910390a250505050565b613d7e672195f0d74eb6eae360c01b615966565b613d9267a990f19939b89b7860c01b615966565b613da66737229fcd49615b8060c01b615966565b613dba677e02fc2cbc85c15c60c01b615966565b613dce6707297b57abde506260c01b615966565b600760009054906101000a900473ffffffffffffffffffffffffffffffffffffffff1673ffffffffffffffffffffffffffffffffffffffff163373ffffffffffffffffffffffffffffffffffffffff1614613e5e576040517f08c379a0000000000000000000000000000000000000000000000000000000008152600401613e55906183a3565b60405180910390fd5b613e7267167c98f87015725e60c01b615966565b613e8667f7a8f321f64f4e8260c01b615966565b613e9a67bd47dd27da8ef83460c01b615966565b613eae67673144725474709560c01b615966565b613ec2674b27bcd4038ef24d60c01b615966565b613ed667761ef247f33cbffa60c01b615966565b6000600c60008473ffffffffffffffffffffffffffffffffffffffff1673ffffffffffffffffffffffffffffffffffffffff1681526020019081526020016000209050613f2d670a9c3724a4b972c960c01b615966565b613f41678429799da55c0f0660c01b615966565b613f55676408ff924111a13460c01b615966565b600073ffffffffffffffffffffffffffffffffffffffff168160000160009054906101000a900473ffffffffffffffffffffffffffffffffffffffff1673ffffffffffffffffffffffffffffffffffffffff1603613fe8576040517f08c379a0000000000000000000000000000000000000000000000000000000008152600401613fdf90617d62565b60405180910390fd5b613ffc67e365f29fc77eeb3360c01b615966565b614010676c077e4de7b548b060c01b615966565b818160050160006101000a81548160ff0219169083600281111561403757614036616d9d565b5b0217905550614050670d030f746249433c60c01b615966565b6140646726097e588e6f127e60c01b615966565b6001600281111561407857614077616d9d565b5b82600281111561408b5761408a616d9d565b5b1480156140a857506140a76752f503f7f383692d60c01b615969565b5b806140f257506002808111156140c1576140c0616d9d565b5b8260028111156140d4576140d3616d9d565b5b1480156140f157506140f067f82be8dfde19c65860c01b615969565b5b5b156141415761410b673f960277fa58348860c01b615966565b61411f6705d29aea75ddea8760c01b615966565b60008160050160016101000a81548160ff021916908315150217905550614156565b6141556739352b5243f368c160c01b615966565b5b61416a674a24c9fe131ceb0d60c01b615966565b61417e67beff80f79f4b40dd60c01b615966565b8273ffffffffffffffffffffffffffffffffffffffff167fc7c771519b6518d9d0559b39bc4b46e540a23e374018fefdcff9e960142ed102836040516141c491906187bf565b60405180910390a2505050565b60006141e7678b9c341bc9b3da6160c01b615966565b6141fb6704363dc091e912ea60c01b615966565b61420f6782f841b10ee4b3d160c01b615966565b6009600083815260200190815260200160002060009054906101000a900460ff169050919050565b606061424d67c9908c062873a67860c01b615966565b61426167b117b7793c82cfec60c01b615966565b614275675781aa4a52a9172760c01b615966565b601060008373ffffffffffffffffffffffffffffffffffffffff1673ffffffffffffffffffffffffffffffffffffffff1681526020019081526020016000208054806020026020016040519081016040528092919081815260200182805480156142fe57602002820191906000526020600020905b8154815260200190600101908083116142ea575b50505050509050919050565b61431b614315615517565b836155d8565b61435a576040517f08c379a000000000000000000000000000000000000000000000000000000000815260040161435190617c1e565b60405180910390fd5b61436684848484615e12565b50505050565b6060614377826154cc565b600060066000848152602001908152602001600020805461439790617a57565b80601f01602080910402602001604051908101604052809291908181526020018280546143c390617a57565b80156144105780601f106143e557610100808354040283529160200191614410565b820191906000526020600020905b8154815290600101906020018083116143f357829003601f168201915b505050505090506000614421615e6e565b90506000815103614436578192505050614479565b60008251111561446b578082604051602001614453929190618816565b60405160208183030381529060405292505050614479565b61447484615e85565b925050505b919050565b6144866166c4565b61449a673939313f2f6f3c0960c01b615966565b6144ae678f34ce9c433403d160c01b615966565b6144c26779d238db89499fc860c01b615966565b6000600e6000848152602001908152602001600020604051806080016040529081600082015481526020016001820154815260200160028201805461450690617a57565b80601f016020809104026020016040519081016040528092919081815260200182805461453290617a57565b801561457f5780601f106145545761010080835404028352916020019161457f565b820191906000526020600020905b81548152906001019060200180831161456257829003601f168201915b505050505081526020016003820160009054906101000a900473ffffffffffffffffffffffffffffffffffffffff1673ffffffffffffffffffffffffffffffffffffffff1673ffffffffffffffffffffffffffffffffffffffff168152505090506145f467cec9ce138ddd599560c01b615966565b6146086737d3741e39da694e60c01b615966565b61461c67c233cf9d5e6f140160c01b615966565b6000816020015103614663576040517f08c379a000000000000000000000000000000000000000000000000000000000815260040161465a90618886565b60405180910390fd5b614677679f21c4fd7812f16160c01b615966565b61468b6739c6e2f9fe8cadd760c01b615966565b61469f6710194b95b6e9a58660c01b615966565b80915050919050565b6000600560008473ffffffffffffffffffffffffffffffffffffffff1673ffffffffffffffffffffffffffffffffffffffff16815260200190815260200160002060008373ffffffffffffffffffffffffffffffffffffffff1673ffffffffffffffffffffffffffffffffffffffff16815260200190815260200160002060009054906101000a900460ff16905092915050565b600760009054906101000a900473ffffffffffffffffffffffffffffffffffffffff1681565b60606147786780181e139965957660c01b615966565b61478c6741294c28535e6f2b60c01b615966565b6147a067b99b056bc902e5de60c01b615966565b6147b467eeb696a652a6a3b760c01b615966565b6147c867bb5c4622874b315d60c01b615966565b6147d133610aae565b614810576040517f08c379a000000000000000000000000000000000000000000000000000000000815260040161480790617cf6565b60405180910390fd5b61482467997eaa5a8339b48c60c01b615966565b614838678cfc172e79ba764160c01b615966565b61484c676fa6cf7447a6cae660c01b615966565b614860679b490574d24cfa7360c01b615966565b61487467b6dca0fac90a346e60c01b615966565b61488867ad7b79d9aba91e7460c01b615966565b61489c6724a2804b87d2a52a60c01b615966565b60008651116148e0576040517f08c379a00000000000000000000000000000000000000000000000000000000081526004016148d7906188f2565b60405180910390fd5b6148f467252ae2b28927207f60c01b615966565b61490867dc907f4f0175940a60c01b615966565b61491c670928862e83aadecc60c01b615966565b61493067ec6763040fa1831f60c01b615966565b8451865114614974576040517f08c379a000000000000000000000000000000000000000000000000000000000815260040161496b9061895e565b60405180910390fd5b61498867434ada174311332860c01b615966565b61499c6729e210f37f46584b60c01b615966565b6149b067cb913d36154a283160c01b615966565b6149c467b428f7005b7e511660c01b615966565b8151865114614a08576040517f08c379a00000000000000000000000000000000000000000000000000000000081526004016149ff9061895e565b60405180910390fd5b614a1c673e01e522f393c20260c01b615966565b614a3067e79847de8f48df4c60c01b615966565b614a44673d0c9a24d986f94c60c01b615966565b6000865167ffffffffffffffff811115614a6157614a60616ad5565b5b604051908082528060200260200182016040528015614a8f5781602001602082028036833780820191505090505b509050614aa6676e73e7807f6d139460c01b615966565b614aba673c56ae33ee55c0f760c01b615966565b60005b8751811015614b6957614ada67ae6c3c1a8b5b6fad60c01b615966565b614b37888281518110614af057614aef61897e565b5b6020026020010151888381518110614b0b57614b0a61897e565b5b602002602001015188886000898781518110614b2a57614b2961897e565b5b6020026020010151610f6a565b828281518110614b4a57614b4961897e565b5b6020026020010181815250508080614b61906189ad565b915050614abd565b50614b7e6779868454b8ccf4c060c01b615966565b614b92677deab35c5af77b6160c01b615966565b8091505095945050505050565b6000614bb567b571105e509846b860c01b615966565b81614bca67a9429c4c31aea92a60c01b615966565b614bde67ae8aedde8ca5578a60c01b615966565b614bf267d5e12970a551021260c01b615966565b614c0667522fc24560608ac260c01b615966565b6000600a60008381526020019081526020016000206000015403614c5f576040517f08c379a0000000000000000000000000000000000000000000000000000000008152600401614c5690617c8a565b60405180910390fd5b614c736788d531b5375b9f7f60c01b615966565b614c8767da12b9df51dc367860c01b615966565b614c9b67d135268008a5111260c01b615966565b614caf67109bb40494d286e660c01b615966565b614cc367868a2e210ad0acb960c01b615966565b614cd7674bd3f672f9b28a7c60c01b615966565b6000600a60008581526020019081526020016000206040518061014001604052908160008201548152602001600182015481526020016002820160009054906101000a900473ffffffffffffffffffffffffffffffffffffffff1673ffffffffffffffffffffffffffffffffffffffff1673ffffffffffffffffffffffffffffffffffffffff1681526020016003820160009054906101000a900473ffffffffffffffffffffffffffffffffffffffff1673ffffffffffffffffffffffffffffffffffffffff1673ffffffffffffffffffffffffffffffffffffffff1681526020016003820160149054906101000a900460ff166005811115614ddd57614ddc616d9d565b5b6005811115614def57614dee616d9d565b5b8152602001600482018054614e0390617a57565b80601f0160208091040260200160405190810160405280929190818152602001828054614e2f90617a57565b8015614e7c5780601f10614e5157610100808354040283529160200191614e7c565b820191906000526020600020905b815481529060010190602001808311614e5f57829003601f168201915b5050505050815260200160058201548152602001600682015481526020016007820160009054906101000a900460ff166002811115614ebe57614ebd616d9d565b5b6002811115614ed057614ecf616d9d565b5b8152602001600882018054614ee490617a57565b80601f0160208091040260200160405190810160405280929190818152602001828054614f1090617a57565b8015614f5d5780601f10614f3257610100808354040283529160200191614f5d565b820191906000526020600020905b815481529060010190602001808311614f4057829003601f168201915b5050505050815250509050614f7c678eb2a12cd12da6ee60c01b615966565b614f9067f205678a0c30ecb360c01b615966565b600280811115614fa357614fa2616d9d565b5b614fac82615ad1565b6002811115614fbe57614fbd616d9d565b5b1492505050919050565b614fd0616702565b614fe4674cb3b6e7ea28943460c01b615966565b614ff8670c9b12cd878bdd2560c01b615966565b61500c670bfa26d464ca5e3a60c01b615966565b61502067551901230591618e60c01b615966565b600073ffffffffffffffffffffffffffffffffffffffff16600c60008473ffffffffffffffffffffffffffffffffffffffff1673ffffffffffffffffffffffffffffffffffffffff16815260200190815260200160002060000160009054906101000a900473ffffffffffffffffffffffffffffffffffffffff1673ffffffffffffffffffffffffffffffffffffffff16036150f1576040517f08c379a00000000000000000000000000000000000000000000000000000000081526004016150e890617d62565b60405180910390fd5b6151056760259e6cb6267a3b60c01b615966565b61511967e6659831485f713260c01b615966565b61512d677fa668938ac0978b60c01b615966565b600c60008373ffffffffffffffffffffffffffffffffffffffff1673ffffffffffffffffffffffffffffffffffffffff1681526020019081526020016000206040518060e00160405290816000820160009054906101000a900473ffffffffffffffffffffffffffffffffffffffff1673ffffffffffffffffffffffffffffffffffffffff1673ffffffffffffffffffffffffffffffffffffffff1681526020016001820180546151dd90617a57565b80601f016020809104026020016040519081016040528092919081815260200182805461520990617a57565b80156152565780601f1061522b57610100808354040283529160200191615256565b820191906000526020600020905b81548152906001019060200180831161523957829003601f168201915b5050505050815260200160028201805461526f90617a57565b80601f016020809104026020016040519081016040528092919081815260200182805461529b90617a57565b80156152e85780601f106152bd576101008083540402835291602001916152e8565b820191906000526020600020905b8154815290600101906020018083116152cb57829003601f168201915b5050505050815260200160038201805461530190617a57565b80601f016020809104026020016040519081016040528092919081815260200182805461532d90617a57565b801561537a5780601f1061534f5761010080835404028352916020019161537a565b820191906000526020600020905b81548152906001019060200180831161535d57829003601f168201915b50505050508152602001600482015481526020016005820160009054906101000a900460ff1660028111156153b2576153b1616d9d565b5b60028111156153c4576153c3616d9d565b5b81526020016005820160019054906101000a900460ff1615151515815250509050919050565b60007f80ac58cd000000000000000000000000000000000000000000000000000000007bffffffffffffffffffffffffffffffffffffffffffffffffffffffff1916827bffffffffffffffffffffffffffffffffffffffffffffffffffffffff191614806154b557507f5b5e139f000000000000000000000000000000000000000000000000000000007bffffffffffffffffffffffffffffffffffffffffffffffffffffffff1916827bffffffffffffffffffffffffffffffffffffffffffffffffffffffff1916145b806154c557506154c482615eed565b5b9050919050565b6154d581615f57565b615514576040517f08c379a000000000000000000000000000000000000000000000000000000000815260040161550b9061847b565b60405180910390fd5b50565b600033905090565b816004600083815260200190815260200160002060006101000a81548173ffffffffffffffffffffffffffffffffffffffff021916908373ffffffffffffffffffffffffffffffffffffffff160217905550808273ffffffffffffffffffffffffffffffffffffffff1661559283612db4565b73ffffffffffffffffffffffffffffffffffffffff167f8c5be1e5ebec7d5bd14f71427d1e84f3dd0314c0f7b2291e5b200ac8c7c3b92560405160405180910390a45050565b6000806155e483612db4565b90508073ffffffffffffffffffffffffffffffffffffffff168473ffffffffffffffffffffffffffffffffffffffff161480615626575061562581856146a8565b5b8061566457508373ffffffffffffffffffffffffffffffffffffffff1661564c846108f1565b73ffffffffffffffffffffffffffffffffffffffff16145b91505092915050565b8273ffffffffffffffffffffffffffffffffffffffff1661568d82612db4565b73ffffffffffffffffffffffffffffffffffffffff16146156e3576040517f08c379a00000000000000000000000000000000000000000000000000000000081526004016156da90618a67565b60405180910390fd5b600073ffffffffffffffffffffffffffffffffffffffff168273ffffffffffffffffffffffffffffffffffffffff1603615752576040517f08c379a000000000000000000000000000000000000000000000000000000000815260040161574990618af9565b60405180910390fd5b61575f8383836001615f98565b8273ffffffffffffffffffffffffffffffffffffffff1661577f82612db4565b73ffffffffffffffffffffffffffffffffffffffff16146157d5576040517f08c379a00000000000000000000000000000000000000000000000000000000081526004016157cc90618a67565b60405180910390fd5b6004600082815260200190815260200160002060006101000a81549073ffffffffffffffffffffffffffffffffffffffff02191690556001600360008573ffffffffffffffffffffffffffffffffffffffff1673ffffffffffffffffffffffffffffffffffffffff168152602001908152602001600020600082825403925050819055506001600360008473ffffffffffffffffffffffffffffffffffffffff1673ffffffffffffffffffffffffffffffffffffffff16815260200190815260200160002060008282540192505081905550816002600083815260200190815260200160002060006101000a81548173ffffffffffffffffffffffffffffffffffffffff021916908373ffffffffffffffffffffffffffffffffffffffff160217905550808273ffffffffffffffffffffffffffffffffffffffff168473ffffffffffffffffffffffffffffffffffffffff167fddf252ad1be2c89b69c2b068fc378daa952ba7f163c4a11628f55a4df523b3ef60405160405180910390a46159618383836001615f9e565b505050565b50565b600060019050919050565b61598e828260405180602001604052806000815250615fa4565b5050565b61599b82615f57565b6159da576040517f08c379a00000000000000000000000000000000000000000000000000000000081526004016159d190618b8b565b60405180910390fd5b806006600084815260200190815260200160002090816159fa9190618222565b507ff8e1a15aba9398e019f0b49df1a4fde98ee17ae345cb5f6b5e2c27f5033e8ce782604051615a2a9190616d55565b60405180910390a15050565b6000615a4c67c72a1dccde59c73560c01b615966565b615a6067b0d7bd6cea7a0e9860c01b615966565b615a74677b975c16a71dc26960c01b615966565b6000826000015114158015615ab5575060006002811115615a9857615a97616d9d565b5b615aa183615ad1565b6002811115615ab357615ab2616d9d565b5b145b8015615aca5750615ac98260400151610aae565b5b9050919050565b6000615ae7679b1e832238b380ae60c01b615966565b615afb67ecd3dc78d0d2b6ec60c01b615966565b615b0f677c58abaf3fe1877260c01b615966565b60016002811115615b2357615b22616d9d565b5b8261010001516002811115615b3b57615b3a616d9d565b5b03615b8557615b5467aed8c11f0d33e19660c01b615966565b615b6867b035b31710cf6edd60c01b615966565b615b7c67defc95f4fcf9fafa60c01b615966565b60019050615c64565b615b99678c8b73d9f19bd04b60c01b615966565b615bad675549bf28db0ab55360c01b615966565b615bc1677298f6f9455578cb60c01b615966565b60008260e0015114158015615bd957508160e0015142115b15615c2357615bf26790a820048b92b2bb60c01b615966565b615c0667fa42fe8b0ebe954e60c01b615966565b615c1a67f5bee0fc860fb26160c01b615966565b60029050615c64565b615c3767549dd095cc51430360c01b615966565b615c4b678b85c969e5c3fbc560c01b615966565b615c5f67fcc9eb05d03cde0960c01b615966565b600090505b919050565b60006002600083815260200190815260200160002060009054906101000a900473ffffffffffffffffffffffffffffffffffffffff169050919050565b8173ffffffffffffffffffffffffffffffffffffffff168373ffffffffffffffffffffffffffffffffffffffff1603615d14576040517f08c379a0000000000000000000000000000000000000000000000000000000008152600401615d0b90618bf7565b60405180910390fd5b80600560008573ffffffffffffffffffffffffffffffffffffffff1673ffffffffffffffffffffffffffffffffffffffff16815260200190815260200160002060008473ffffffffffffffffffffffffffffffffffffffff1673ffffffffffffffffffffffffffffffffffffffff16815260200190815260200160002060006101000a81548160ff0219169083151502179055508173ffffffffffffffffffffffffffffffffffffffff168373ffffffffffffffffffffffffffffffffffffffff167f17307eab39ab6107e8899845ad3d59bd9653f200f220920489ca2b5937696c3183604051615e05919061681d565b60405180910390a3505050565b615e1d84848461566d565b615e2984848484615fff565b615e68576040517f08c379a0000000000000000000000000000000000000000000000000000000008152600401615e5f90618c89565b60405180910390fd5b50505050565b606060405180602001604052806000815250905090565b6060615e90826154cc565b6000615e9a615e6e565b90506000815111615eba5760405180602001604052806000815250615ee5565b80615ec484616186565b604051602001615ed5929190618816565b6040516020818303038152906040525b915050919050565b60007f01ffc9a7000000000000000000000000000000000000000000000000000000007bffffffffffffffffffffffffffffffffffffffffffffffffffffffff1916827bffffffffffffffffffffffffffffffffffffffffffffffffffffffff1916149050919050565b60008073ffffffffffffffffffffffffffffffffffffffff16615f7983615c69565b73ffffffffffffffffffffffffffffffffffffffff1614159050919050565b50505050565b50505050565b615fae8383616254565b615fbb6000848484615fff565b615ffa576040517f08c379a0000000000000000000000000000000000000000000000000000000008152600401615ff190618c89565b60405180910390fd5b505050565b60006160208473ffffffffffffffffffffffffffffffffffffffff16616471565b15616179578373ffffffffffffffffffffffffffffffffffffffff1663150b7a02616049615517565b8786866040518563ffffffff1660e01b815260040161606b9493929190618cfe565b6020604051808303816000875af19250505080156160a757506040513d601f19601f820116820180604052508101906160a49190618d5f565b60015b616129573d80600081146160d7576040519150601f19603f3d011682016040523d82523d6000602084013e6160dc565b606091505b506000815103616121576040517f08c379a000000000000000000000000000000000000000000000000000000000815260040161611890618c89565b60405180910390fd5b805181602001fd5b63150b7a0260e01b7bffffffffffffffffffffffffffffffffffffffffffffffffffffffff1916817bffffffffffffffffffffffffffffffffffffffffffffffffffffffff19161491505061617e565b600190505b949350505050565b60606000600161619584616494565b01905060008167ffffffffffffffff8111156161b4576161b3616ad5565b5b6040519080825280601f01601f1916602001820160405280156161e65781602001600182028036833780820191505090505b509050600082602001820190505b600115616249578080600190039150507f3031323334353637383961626364656600000000000000000000000000000000600a86061a8153600a858161623d5761623c618d8c565b5b049450600085036161f4575b819350505050919050565b600073ffffffffffffffffffffffffffffffffffffffff168273ffffffffffffffffffffffffffffffffffffffff16036162c3576040517f08c379a00000000000000000000000000000000000000000000000000000000081526004016162ba90618e07565b60405180910390fd5b6162cc81615f57565b1561630c576040517f08c379a000000000000000000000000000000000000000000000000000000000815260040161630390618e73565b60405180910390fd5b61631a600083836001615f98565b61632381615f57565b15616363576040517f08c379a000000000000000000000000000000000000000000000000000000000815260040161635a90618e73565b60405180910390fd5b6001600360008473ffffffffffffffffffffffffffffffffffffffff1673ffffffffffffffffffffffffffffffffffffffff16815260200190815260200160002060008282540192505081905550816002600083815260200190815260200160002060006101000a81548173ffffffffffffffffffffffffffffffffffffffff021916908373ffffffffffffffffffffffffffffffffffffffff160217905550808273ffffffffffffffffffffffffffffffffffffffff16600073ffffffffffffffffffffffffffffffffffffffff167fddf252ad1be2c89b69c2b068fc378daa952ba7f163c4a11628f55a4df523b3ef60405160405180910390a461646d600083836001615f9e565b5050565b6000808273ffffffffffffffffffffffffffffffffffffffff163b119050919050565b600080600090507a184f03e93ff9f4daa797ed6e38ed64bf6a1f01000000000000000083106164f2577a184f03e93ff9f4daa797ed6e38ed64bf6a1f01000000000000000083816164e8576164e7618d8c565b5b0492506040810190505b6d04ee2d6d415b85acef8100000000831061652f576d04ee2d6d415b85acef8100000000838161652557616524618d8c565b5b0492506020810190505b662386f26fc10000831061655e57662386f26fc10000838161655457616553618d8c565b5b0492506010810190505b6305f5e1008310616587576305f5e100838161657d5761657c618d8c565b5b0492506008810190505b61271083106165ac5761271083816165a2576165a1618d8c565b5b0492506004810190505b606483106165cf57606483816165c5576165c4618d8c565b5b0492506002810190505b600a83106165de576001810190505b80915050919050565b6040518061014001604052806000815260200160008019168152602001600073ffffffffffffffffffffffffffffffffffffffff168152602001600073ffffffffffffffffffffffffffffffffffffffff1681526020016000600581111561665257616651616d9d565b5b8152602001606081526020016000815260200160008152602001600060028111156166805761667f616d9d565b5b8152602001606081525090565b6040518060600160405280600073ffffffffffffffffffffffffffffffffffffffff16815260200160608152602001606081525090565b6040518060800160405280600081526020016000815260200160608152602001600073ffffffffffffffffffffffffffffffffffffffff1681525090565b6040518060e00160405280600073ffffffffffffffffffffffffffffffffffffffff168152602001606081526020016060815260200160608152602001600081526020016000600281111561675a57616759616d9d565b5b81526020016000151581525090565b6000604051905090565b600080fd5b600080fd5b60007fffffffff0000000000000000000000000000000000000000000000000000000082169050919050565b6167b28161677d565b81146167bd57600080fd5b50565b6000813590506167cf816167a9565b92915050565b6000602082840312156167eb576167ea616773565b5b60006167f9848285016167c0565b91505092915050565b60008115159050919050565b61681781616802565b82525050565b6000602082019050616832600083018461680e565b92915050565b600081519050919050565b600082825260208201905092915050565b60005b83811015616872578082015181840152602081019050616857565b60008484015250505050565b6000601f19601f8301169050919050565b600061689a82616838565b6168a48185616843565b93506168b4818560208601616854565b6168bd8161687e565b840191505092915050565b600060208201905081810360008301526168e2818461688f565b905092915050565b6000819050919050565b6168fd816168ea565b811461690857600080fd5b50565b60008135905061691a816168f4565b92915050565b60006020828403121561693657616935616773565b5b60006169448482850161690b565b91505092915050565b600073ffffffffffffffffffffffffffffffffffffffff82169050919050565b60006169788261694d565b9050919050565b6169888161696d565b82525050565b60006020820190506169a3600083018461697f565b92915050565b6169b28161696d565b81146169bd57600080fd5b50565b6000813590506169cf816169a9565b92915050565b600080604083850312156169ec576169eb616773565b5b60006169fa858286016169c0565b9250506020616a0b8582860161690b565b9150509250929050565b600080600060608486031215616a2e57616a2d616773565b5b6000616a3c868287016169c0565b9350506020616a4d868287016169c0565b9250506040616a5e8682870161690b565b9150509250925092565b600060208284031215616a7e57616a7d616773565b5b6000616a8c848285016169c0565b91505092915050565b6000819050919050565b616aa881616a95565b8114616ab357600080fd5b50565b600081359050616ac581616a9f565b92915050565b600080fd5b600080fd5b7f4e487b7100000000000000000000000000000000000000000000000000000000600052604160045260246000fd5b616b0d8261687e565b810181811067ffffffffffffffff82111715616b2c57616b2b616ad5565b5b80604052505050565b6000616b3f616769565b9050616b4b8282616b04565b919050565b600067ffffffffffffffff821115616b6b57616b6a616ad5565b5b616b748261687e565b9050602081019050919050565b82818337600083830152505050565b6000616ba3616b9e84616b50565b616b35565b905082815260208101848484011115616bbf57616bbe616ad0565b5b616bca848285616b81565b509392505050565b600082601f830112616be757616be6616acb565b5b8135616bf7848260208601616b90565b91505092915050565b60008060408385031215616c1757616c16616773565b5b6000616c2585828601616ab6565b925050602083013567ffffffffffffffff811115616c4657616c45616778565b5b616c5285828601616bd2565b9150509250929050565b60068110616c6957600080fd5b50565b600081359050616c7b81616c5c565b92915050565b60008060008060008060c08789031215616c9e57616c9d616773565b5b6000616cac89828a01616ab6565b9650506020616cbd89828a016169c0565b9550506040616cce89828a01616c6c565b945050606087013567ffffffffffffffff811115616cef57616cee616778565b5b616cfb89828a01616bd2565b9350506080616d0c89828a0161690b565b92505060a087013567ffffffffffffffff811115616d2d57616d2c616778565b5b616d3989828a01616bd2565b9150509295509295509295565b616d4f816168ea565b82525050565b6000602082019050616d6a6000830184616d46565b92915050565b616d79816168ea565b82525050565b616d8881616a95565b82525050565b616d978161696d565b82525050565b7f4e487b7100000000000000000000000000000000000000000000000000000000600052602160045260246000fd5b60068110616ddd57616ddc616d9d565b5b50565b6000819050616dee82616dcc565b919050565b6000616dfe82616de0565b9050919050565b616e0e81616df3565b82525050565b600082825260208201905092915050565b6000616e3082616838565b616e3a8185616e14565b9350616e4a818560208601616854565b616e538161687e565b840191505092915050565b60038110616e6f57616e6e616d9d565b5b50565b6000819050616e8082616e5e565b919050565b6000616e9082616e72565b9050919050565b616ea081616e85565b82525050565b600061014083016000830151616ebf6000860182616d70565b506020830151616ed26020860182616d7f565b506040830151616ee56040860182616d8e565b506060830151616ef86060860182616d8e565b506080830151616f0b6080860182616e05565b5060a083015184820360a0860152616f238282616e25565b91505060c0830151616f3860c0860182616d70565b5060e0830151616f4b60e0860182616d70565b50610100830151616f60610100860182616e97565b50610120830151848203610120860152616f7a8282616e25565b9150508091505092915050565b60006020820190508181036000830152616fa18184616ea6565b905092915050565b600081519050919050565b600082825260208201905092915050565b6000819050602082019050919050565b6000616fe18383616d70565b60208301905092915050565b6000602082019050919050565b600061700582616fa9565b61700f8185616fb4565b935061701a83616fc5565b8060005b8381101561704b5781516170328882616fd5565b975061703d83616fed565b92505060018101905061701e565b5085935050505092915050565b60006060830160008301516170706000860182616d8e565b50602083015184820360208601526170888282616e25565b915050604083015184820360408601526170a28282616ffa565b9150508091505092915050565b600060208201905081810360008301526170c98184617058565b905092915050565b600082825260208201905092915050565b60006170ed82616fa9565b6170f781856170d1565b935061710283616fc5565b8060005b8381101561713357815161711a8882616fd5565b975061712583616fed565b925050600181019050617106565b5085935050505092915050565b6000602082019050818103600083015261715a81846170e2565b905092915050565b60008060006060848603121561717b5761717a616773565b5b600084013567ffffffffffffffff81111561719957617198616778565b5b6171a586828701616bd2565b935050602084013567ffffffffffffffff8111156171c6576171c5616778565b5b6171d286828701616bd2565b925050604084013567ffffffffffffffff8111156171f3576171f2616778565b5b6171ff86828701616bd2565b9150509250925092565b60006020828403121561721f5761721e616773565b5b600061722d84828501616ab6565b91505092915050565b61723f81616e85565b82525050565b600060a08201905061725a600083018861680e565b617267602083018761680e565b6172746040830186617236565b617281606083018561697f565b61728e608083018461697f565b9695505050505050565b6172a181616802565b81146172ac57600080fd5b50565b6000813590506172be81617298565b92915050565b600080604083850312156172db576172da616773565b5b60006172e9858286016169c0565b92505060206172fa858286016172af565b9150509250929050565b6000806040838503121561731b5761731a616773565b5b60006173298582860161690b565b925050602083013567ffffffffffffffff81111561734a57617349616778565b5b61735685828601616bd2565b9150509250929050565b6003811061736d57600080fd5b50565b60008135905061737f81617360565b92915050565b6000806040838503121561739c5761739b616773565b5b60006173aa858286016169c0565b92505060206173bb85828601617370565b9150509250929050565b600067ffffffffffffffff8211156173e0576173df616ad5565b5b6173e98261687e565b9050602081019050919050565b6000617409617404846173c5565b616b35565b90508281526020810184848401111561742557617424616ad0565b5b617430848285616b81565b509392505050565b600082601f83011261744d5761744c616acb565b5b813561745d8482602086016173f6565b91505092915050565b600080600080608085870312156174805761747f616773565b5b600061748e878288016169c0565b945050602061749f878288016169c0565b93505060406174b08782880161690b565b925050606085013567ffffffffffffffff8111156174d1576174d0616778565b5b6174dd87828801617438565b91505092959194509250565b60006080830160008301516175016000860182616d70565b5060208301516175146020860182616d70565b506040830151848203604086015261752c8282616e25565b91505060608301516175416060860182616d8e565b508091505092915050565b6000602082019050818103600083015261756681846174e9565b905092915050565b6000806040838503121561758557617584616773565b5b6000617593858286016169c0565b92505060206175a4858286016169c0565b9150509250929050565b600067ffffffffffffffff8211156175c9576175c8616ad5565b5b602082029050602081019050919050565b600080fd5b60006175f26175ed846175ae565b616b35565b90508083825260208201905060208402830185811115617615576176146175da565b5b835b8181101561763e578061762a8882616ab6565b845260208401935050602081019050617617565b5050509392505050565b600082601f83011261765d5761765c616acb565b5b813561766d8482602086016175df565b91505092915050565b600067ffffffffffffffff82111561769157617690616ad5565b5b602082029050602081019050919050565b60006176b56176b084617676565b616b35565b905080838252602082019050602084028301858111156176d8576176d76175da565b5b835b8181101561770157806176ed88826169c0565b8452602084019350506020810190506176da565b5050509392505050565b600082601f8301126177205761771f616acb565b5b81356177308482602086016176a2565b91505092915050565b600067ffffffffffffffff82111561775457617753616ad5565b5b602082029050602081019050919050565b600061777861777384617739565b616b35565b9050808382526020820190506020840283018581111561779b5761779a6175da565b5b835b818110156177e257803567ffffffffffffffff8111156177c0576177bf616acb565b5b8086016177cd8982616bd2565b8552602085019450505060208101905061779d565b5050509392505050565b600082601f83011261780157617800616acb565b5b8135617811848260208601617765565b91505092915050565b600080600080600060a0868803121561783657617835616773565b5b600086013567ffffffffffffffff81111561785457617853616778565b5b61786088828901617648565b955050602086013567ffffffffffffffff81111561788157617880616778565b5b61788d8882890161770b565b945050604061789e88828901616c6c565b935050606086013567ffffffffffffffff8111156178bf576178be616778565b5b6178cb88828901616bd2565b925050608086013567ffffffffffffffff8111156178ec576178eb616778565b5b6178f8888289016177ec565b9150509295509295909350565b6003811061791657617915616d9d565b5b50565b600081905061792782617905565b919050565b600061793782617919565b9050919050565b6179478161792c565b82525050565b61795681616802565b82525050565b600060e0830160008301516179746000860182616d8e565b506020830151848203602086015261798c8282616e25565b915050604083015184820360408601526179a68282616e25565b915050606083015184820360608601526179c08282616e25565b91505060808301516179d56080860182616d70565b5060a08301516179e860a086018261793e565b5060c08301516179fb60c086018261794d565b508091505092915050565b60006020820190508181036000830152617a20818461795c565b905092915050565b7f4e487b7100000000000000000000000000000000000000000000000000000000600052602260045260246000fd5b60006002820490506001821680617a6f57607f821691505b602082108103617a8257617a81617a28565b5b50919050565b7f4552433732313a20617070726f76616c20746f2063757272656e74206f776e6560008201527f7200000000000000000000000000000000000000000000000000000000000000602082015250565b6000617ae4602183616843565b9150617aef82617a88565b604082019050919050565b60006020820190508181036000830152617b1381617ad7565b9050919050565b7f4552433732313a20617070726f76652063616c6c6572206973206e6f7420746f60008201527f6b656e206f776e6572206f7220617070726f76656420666f7220616c6c000000602082015250565b6000617b76603d83616843565b9150617b8182617b1a565b604082019050919050565b60006020820190508181036000830152617ba581617b69565b9050919050565b7f4552433732313a2063616c6c6572206973206e6f7420746f6b656e206f776e6560008201527f72206f7220617070726f76656400000000000000000000000000000000000000602082015250565b6000617c08602d83616843565b9150617c1382617bac565b604082019050919050565b60006020820190508181036000830152617c3781617bfb565b9050919050565b7f4365727469666963617465206e6f7420666f756e640000000000000000000000600082015250565b6000617c74601583616843565b9150617c7f82617c3e565b602082019050919050565b60006020820190508181036000830152617ca381617c67565b9050919050565b7f497373756572206e6f7420617574686f72697a65640000000000000000000000600082015250565b6000617ce0601583616843565b9150617ceb82617caa565b602082019050919050565b60006020820190508181036000830152617d0f81617cd3565b9050919050565b7f497373756572206e6f7420666f756e6400000000000000000000000000000000600082015250565b6000617d4c601083616843565b9150617d5782617d16565b602082019050919050565b60006020820190508181036000830152617d7b81617d3f565b9050919050565b7f497373756572206e6f7420616374697665000000000000000000000000000000600082015250565b6000617db8601183616843565b9150617dc382617d82565b602082019050919050565b60006020820190508181036000830152617de781617dab565b9050919050565b7f497373756572206e6f7420766572696669656400000000000000000000000000600082015250565b6000617e24601383616843565b9150617e2f82617dee565b602082019050919050565b60006020820190508181036000830152617e5381617e17565b9050919050565b7f526563697069656e742072657175697265640000000000000000000000000000600082015250565b6000617e90601283616843565b9150617e9b82617e5a565b602082019050919050565b60006020820190508181036000830152617ebf81617e83565b9050919050565b7f4861736820726571756972656400000000000000000000000000000000000000600082015250565b6000617efc600d83616843565b9150617f0782617ec6565b602082019050919050565b60006020820190508181036000830152617f2b81617eef565b9050919050565b7f4861736820616c72656164792075736564000000000000000000000000000000600082015250565b6000617f68601183616843565b9150617f7382617f32565b602082019050919050565b60006020820190508181036000830152617f9781617f5b565b9050919050565b7f50726f6772616d20726571756972656400000000000000000000000000000000600082015250565b6000617fd4601083616843565b9150617fdf82617f9e565b602082019050919050565b6000602082019050818103600083015261800381617fc7565b9050919050565b7f496e76616c696420657870697279000000000000000000000000000000000000600082015250565b6000618040600e83616843565b915061804b8261800a565b602082019050919050565b6000602082019050818103600083015261806f81618033565b9050919050565b60008190508160005260206000209050919050565b60006020601f8301049050919050565b600082821b905092915050565b6000600883026180d87fffffffffffffffffffffffffffffffffffffffffffffffffffffffffffffffff8261809b565b6180e2868361809b565b95508019841693508086168417925050509392505050565b6000819050919050565b600061811f61811a618115846168ea565b6180fa565b6168ea565b9050919050565b6000819050919050565b61813983618104565b61814d61814582618126565b8484546180a8565b825550505050565b600090565b618162618155565b61816d818484618130565b505050565b5b818110156181915761818660008261815a565b600181019050618173565b5050565b601f8211156181d6576181a781618076565b6181b08461808b565b810160208510156181bf578190505b6181d36181cb8561808b565b830182618172565b50505b505050565b600082821c905092915050565b60006181f9600019846008026181db565b1980831691505092915050565b600061821283836181e8565b9150826002028217905092915050565b61822b82616838565b67ffffffffffffffff81111561824457618243616ad5565b5b61824e8254617a57565b618259828285618195565b600060209050601f83116001811461828c576000841561827a578287015190505b6182848582618206565b8655506182ec565b601f19841661829a86618076565b60005b828110156182c25784890151825560018201915060208501945060208101905061829d565b868310156182df57848901516182db601f8916826181e8565b8355505b6001600288020188555050505b505050505050565b7f4e487b7100000000000000000000000000000000000000000000000000000000600052601160045260246000fd5b600061832e826168ea565b9150618339836168ea565b9250828201905080821115618351576183506182f4565b5b92915050565b7f41646d696e206f6e6c7900000000000000000000000000000000000000000000600082015250565b600061838d600a83616843565b915061839882618357565b602082019050919050565b600060208201905081810360008301526183bc81618380565b9050919050565b7f526563697069656e74206e6f7420666f756e6400000000000000000000000000600082015250565b60006183f9601383616843565b9150618404826183c3565b602082019050919050565b60006020820190508181036000830152618428816183ec565b9050919050565b7f4552433732313a20696e76616c696420746f6b656e2049440000000000000000600082015250565b6000618465601883616843565b91506184708261842f565b602082019050919050565b6000602082019050818103600083015261849481618458565b9050919050565b7f4552433732313a2061646472657373207a65726f206973206e6f74206120766160008201527f6c6964206f776e65720000000000000000000000000000000000000000000000602082015250565b60006184f7602983616843565b91506185028261849b565b604082019050919050565b60006020820190508181036000830152618526816184ea565b9050919050565b7f4e616d6520726571756972656400000000000000000000000000000000000000600082015250565b6000618563600d83616843565b915061856e8261852d565b602082019050919050565b6000602082019050818103600083015261859281618556565b9050919050565b7f416c726561647920726567697374657265640000000000000000000000000000600082015250565b60006185cf601283616843565b91506185da82618599565b602082019050919050565b600060208201905081810360008301526185fe816185c2565b9050919050565b6000604082019050818103600083015261861f818561688f565b90508181036020830152618633818461688f565b90509392505050565b7f4f6e6c792069737375696e67206973737565722063616e207265766f6b650000600082015250565b6000618672601e83616843565b915061867d8261863c565b602082019050919050565b600060208201905081810360008301526186a181618665565b9050919050565b7f416c7265616479207265766f6b65640000000000000000000000000000000000600082015250565b60006186de600f83616843565b91506186e9826186a8565b602082019050919050565b6000602082019050818103600083015261870d816186d1565b9050919050565b7f526561736f6e2072657175697265640000000000000000000000000000000000600082015250565b600061874a600f83616843565b915061875582618714565b602082019050919050565b600060208201905081810360008301526187798161873d565b9050919050565b6000604082019050818103600083015261879a818561688f565b90506187a9602083018461697f565b9392505050565b6187b98161792c565b82525050565b60006020820190506187d460008301846187b0565b92915050565b600081905092915050565b60006187f082616838565b6187fa81856187da565b935061880a818560208601616854565b80840191505092915050565b600061882282856187e5565b915061882e82846187e5565b91508190509392505050565b7f4e6f74207265766f6b6564000000000000000000000000000000000000000000600082015250565b6000618870600b83616843565b915061887b8261883a565b602082019050919050565b6000602082019050818103600083015261889f81618863565b9050919050565b7f456d707479206261746368000000000000000000000000000000000000000000600082015250565b60006188dc600b83616843565b91506188e7826188a6565b602082019050919050565b6000602082019050818103600083015261890b816188cf565b9050919050565b7f4c656e677468206d69736d617463680000000000000000000000000000000000600082015250565b6000618948600f83616843565b915061895382618912565b602082019050919050565b600060208201905081810360008301526189778161893b565b9050919050565b7f4e487b7100000000000000000000000000000000000000000000000000000000600052603260045260246000fd5b60006189b8826168ea565b91507fffffffffffffffffffffffffffffffffffffffffffffffffffffffffffffffff82036189ea576189e96182f4565b5b600182019050919050565b7f4552433732313a207472616e736665722066726f6d20696e636f72726563742060008201527f6f776e6572000000000000000000000000000000000000000000000000000000602082015250565b6000618a51602583616843565b9150618a5c826189f5565b604082019050919050565b60006020820190508181036000830152618a8081618a44565b9050919050565b7f4552433732313a207472616e7366657220746f20746865207a65726f2061646460008201527f7265737300000000000000000000000000000000000000000000000000000000602082015250565b6000618ae3602483616843565b9150618aee82618a87565b604082019050919050565b60006020820190508181036000830152618b1281618ad6565b9050919050565b7f45524337323155524953746f726167653a2055524920736574206f66206e6f6e60008201527f6578697374656e7420746f6b656e000000000000000000000000000000000000602082015250565b6000618b75602e83616843565b9150618b8082618b19565b604082019050919050565b60006020820190508181036000830152618ba481618b68565b9050919050565b7f4552433732313a20617070726f766520746f2063616c6c657200000000000000600082015250565b6000618be1601983616843565b9150618bec82618bab565b602082019050919050565b60006020820190508181036000830152618c1081618bd4565b9050919050565b7f4552433732313a207472616e7366657220746f206e6f6e20455243373231526560008201527f63656976657220696d706c656d656e7465720000000000000000000000000000602082015250565b6000618c73603283616843565b9150618c7e82618c17565b604082019050919050565b60006020820190508181036000830152618ca281618c66565b9050919050565b600081519050919050565b600082825260208201905092915050565b6000618cd082618ca9565b618cda8185618cb4565b9350618cea818560208601616854565b618cf38161687e565b840191505092915050565b6000608082019050618d13600083018761697f565b618d20602083018661697f565b618d2d6040830185616d46565b8181036060830152618d3f8184618cc5565b905095945050505050565b600081519050618d59816167a9565b92915050565b600060208284031215618d7557618d74616773565b5b6000618d8384828501618d4a565b91505092915050565b7f4e487b7100000000000000000000000000000000000000000000000000000000600052601260045260246000fd5b7f4552433732313a206d696e7420746f20746865207a65726f2061646472657373600082015250565b6000618df1602083616843565b9150618dfc82618dbb565b602082019050919050565b60006020820190508181036000830152618e2081618de4565b9050919050565b7f4552433732313a20746f6b656e20616c7265616479206d696e74656400000000600082015250565b6000618e5d601c83616843565b9150618e6882618e27565b602082019050919050565b60006020820190508181036000830152618e8c81618e50565b905091905056fea2646970667358221220a943462df3992b0dd1da2cc87c5915ef9f634f6534a036c324be557cef8bf47764736f6c63430008150033","opcodes":"PUSH1 0x80 PUSH1 0x40 MSTORE PUSH1 0x1 PUSH1 0x8 SSTORE CALLVALUE DUP1 ISZERO PUSH3 0x16 JUMPI PUSH1 0x0 DUP1 REVERT JUMPDEST POP PUSH1 0x40 MLOAD DUP1 PUSH1 0x40 ADD PUSH1 0x40 MSTORE DUP1 PUSH1 0x15 DUP2 MSTORE PUSH1 0x20 ADD PUSH32 0x41636164656D696343657274696669636174696F6E0000000000000000000000 DUP2 MSTORE POP PUSH1 0x40 MLOAD DUP1 PUSH1 0x40 ADD PUSH1 0x40 MSTORE DUP1 PUSH1 0x8 DUP2 MSTORE PUSH1 0x20 ADD PUSH32 0x4143414443455254000000000000000000000000000000000000000000000000 DUP2 MSTORE POP DUP2 PUSH1 0x0 SWAP1 DUP2 PUSH3 0x94 SWAP2 SWAP1 PUSH3 0x442 JUMP JUMPDEST POP DUP1 PUSH1 0x1 SWAP1 DUP2 PUSH3 0xA6 SWAP2 SWAP1 PUSH3 0x442 JUMP JUMPDEST POP POP POP PUSH3 0xC5 PUSH8 0x4A95FD0472F9D99F PUSH1 0xC0 SHL PUSH3 0x1C5 PUSH1 0x20 SHL PUSH1 0x20 SHR JUMP JUMPDEST PUSH3 0xE1 PUSH8 0x93C05CE3558137E0 PUSH1 0xC0 SHL PUSH3 0x1C5 PUSH1 0x20 SHL PUSH1 0x20 SHR JUMP JUMPDEST CALLER PUSH1 0x7 PUSH1 0x0 PUSH2 0x100 EXP DUP2 SLOAD DUP2 PUSH20 0xFFFFFFFFFFFFFFFFFFFFFFFFFFFFFFFFFFFFFFFF MUL NOT AND SWAP1 DUP4 PUSH20 0xFFFFFFFFFFFFFFFFFFFFFFFFFFFFFFFFFFFFFFFF AND MUL OR SWAP1 SSTORE POP PUSH3 0x13E PUSH8 0x979194A92A5CA3F2 PUSH1 0xC0 SHL PUSH3 0x1C5 PUSH1 0x20 SHL PUSH1 0x20 SHR JUMP JUMPDEST PUSH3 0x15A PUSH8 0xEC3FF2A7720D66EB PUSH1 0xC0 SHL PUSH3 0x1C5 PUSH1 0x20 SHL PUSH1 0x20 SHR JUMP JUMPDEST PUSH1 0x7 PUSH1 0x0 SWAP1 SLOAD SWAP1 PUSH2 0x100 EXP SWAP1 DIV PUSH20 0xFFFFFFFFFFFFFFFFFFFFFFFFFFFFFFFFFFFFFFFF AND PUSH20 0xFFFFFFFFFFFFFFFFFFFFFFFFFFFFFFFFFFFFFFFF AND PUSH32 0xB8BB5A08C752924168166E254455CA6708EF2AC4CFD39BBA39EB5A5B89F0CBD6 PUSH1 0x40 MLOAD PUSH1 0x40 MLOAD DUP1 SWAP2 SUB SWAP1 LOG2 PUSH3 0x529 JUMP JUMPDEST POP JUMP JUMPDEST PUSH1 0x0 DUP2 MLOAD SWAP1 POP SWAP2 SWAP1 POP JUMP JUMPDEST PUSH32 0x4E487B7100000000000000000000000000000000000000000000000000000000 PUSH1 0x0 MSTORE PUSH1 0x41 PUSH1 0x4 MSTORE PUSH1 0x24 PUSH1 0x0 REVERT JUMPDEST PUSH32 0x4E487B7100000000000000000000000000000000000000000000000000000000 PUSH1 0x0 MSTORE PUSH1 0x22 PUSH1 0x4 MSTORE PUSH1 0x24 PUSH1 0x0 REVERT JUMPDEST PUSH1 0x0 PUSH1 0x2 DUP3 DIV SWAP1 POP PUSH1 0x1 DUP3 AND DUP1 PUSH3 0x24A JUMPI PUSH1 0x7F DUP3 AND SWAP2 POP JUMPDEST PUSH1 0x20 DUP3 LT DUP2 SUB PUSH3 0x260 JUMPI PUSH3 0x25F PUSH3 0x202 JUMP JUMPDEST JUMPDEST POP SWAP2 SWAP1 POP JUMP JUMPDEST PUSH1 0x0 DUP2 SWAP1 POP DUP2 PUSH1 0x0 MSTORE PUSH1 0x20 PUSH1 0x0 KECCAK256 SWAP1 POP SWAP2 SWAP1 POP JUMP JUMPDEST PUSH1 0x0 PUSH1 0x20 PUSH1 0x1F DUP4 ADD DIV SWAP1 POP SWAP2 SWAP1 POP JUMP JUMPDEST PUSH1 0x0 DUP3 DUP3 SHL SWAP1 POP SWAP3 SWAP2 POP POP JUMP JUMPDEST PUSH1 0x0 PUSH1 0x8 DUP4 MUL PUSH3 0x2CA PUSH32 0xFFFFFFFFFFFFFFFFFFFFFFFFFFFFFFFFFFFFFFFFFFFFFFFFFFFFFFFFFFFFFFFF DUP3 PUSH3 0x28B JUMP JUMPDEST PUSH3 0x2D6 DUP7 DUP4 PUSH3 0x28B JUMP JUMPDEST SWAP6 POP DUP1 NOT DUP5 AND SWAP4 POP DUP1 DUP7 AND DUP5 OR SWAP3 POP POP POP SWAP4 SWAP3 POP POP POP JUMP JUMPDEST PUSH1 0x0 DUP2 SWAP1 POP SWAP2 SWAP1 POP JUMP JUMPDEST PUSH1 0x0 DUP2 SWAP1 POP SWAP2 SWAP1 POP JUMP JUMPDEST PUSH1 0x0 PUSH3 0x323 PUSH3 0x31D PUSH3 0x317 DUP5 PUSH3 0x2EE JUMP JUMPDEST PUSH3 0x2F8 JUMP JUMPDEST PUSH3 0x2EE JUMP JUMPDEST SWAP1 POP SWAP2 SWAP1 POP JUMP JUMPDEST PUSH1 0x0 DUP2 SWAP1 POP SWAP2 SWAP1 POP JUMP JUMPDEST PUSH3 0x33F DUP4 PUSH3 0x302 JUMP JUMPDEST PUSH3 0x357 PUSH3 0x34E DUP3 PUSH3 0x32A JUMP JUMPDEST DUP5 DUP5 SLOAD PUSH3 0x298 JUMP JUMPDEST DUP3 SSTORE POP POP POP POP JUMP JUMPDEST PUSH1 0x0 SWAP1 JUMP JUMPDEST PUSH3 0x36E PUSH3 0x35F JUMP JUMPDEST PUSH3 0x37B DUP2 DUP5 DUP5 PUSH3 0x334 JUMP JUMPDEST POP POP POP JUMP JUMPDEST JUMPDEST DUP2 DUP2 LT ISZERO PUSH3 0x3A3 JUMPI PUSH3 0x397 PUSH1 0x0 DUP3 PUSH3 0x364 JUMP JUMPDEST PUSH1 0x1 DUP2 ADD SWAP1 POP PUSH3 0x381 JUMP JUMPDEST POP POP JUMP JUMPDEST PUSH1 0x1F DUP3 GT ISZERO PUSH3 0x3F2 JUMPI PUSH3 0x3BC DUP2 PUSH3 0x266 JUMP JUMPDEST PUSH3 0x3C7 DUP5 PUSH3 0x27B JUMP JUMPDEST DUP2 ADD PUSH1 0x20 DUP6 LT ISZERO PUSH3 0x3D7 JUMPI DUP2 SWAP1 POP JUMPDEST PUSH3 0x3EF PUSH3 0x3E6 DUP6 PUSH3 0x27B JUMP JUMPDEST DUP4 ADD DUP3 PUSH3 0x380 JUMP JUMPDEST POP POP JUMPDEST POP POP POP JUMP JUMPDEST PUSH1 0x0 DUP3 DUP3 SHR SWAP1 POP SWAP3 SWAP2 POP POP JUMP JUMPDEST PUSH1 0x0 PUSH3 0x417 PUSH1 0x0 NOT DUP5 PUSH1 0x8 MUL PUSH3 0x3F7 JUMP JUMPDEST NOT DUP1 DUP4 AND SWAP2 POP POP SWAP3 SWAP2 POP POP JUMP JUMPDEST PUSH1 0x0 PUSH3 0x432 DUP4 DUP4 PUSH3 0x404 JUMP JUMPDEST SWAP2 POP DUP3 PUSH1 0x2 MUL DUP3 OR SWAP1 POP SWAP3 SWAP2 POP POP JUMP JUMPDEST PUSH3 0x44D DUP3 PUSH3 0x1C8 JUMP JUMPDEST PUSH8 0xFFFFFFFFFFFFFFFF DUP2 GT ISZERO PUSH3 0x469 JUMPI PUSH3 0x468 PUSH3 0x1D3 JUMP JUMPDEST JUMPDEST PUSH3 0x475 DUP3 SLOAD PUSH3 0x231 JUMP JUMPDEST PUSH3 0x482 DUP3 DUP3 DUP6 PUSH3 0x3A7 JUMP JUMPDEST PUSH1 0x0 PUSH1 0x20 SWAP1 POP PUSH1 0x1F DUP4 GT PUSH1 0x1 DUP2 EQ PUSH3 0x4BA JUMPI PUSH1 0x0 DUP5 ISZERO PUSH3 0x4A5 JUMPI DUP3 DUP8 ADD MLOAD SWAP1 POP JUMPDEST PUSH3 0x4B1 DUP6 DUP3 PUSH3 0x424 JUMP JUMPDEST DUP7 SSTORE POP PUSH3 0x521 JUMP JUMPDEST PUSH1 0x1F NOT DUP5 AND PUSH3 0x4CA DUP7 PUSH3 0x266 JUMP JUMPDEST PUSH1 0x0 JUMPDEST DUP3 DUP2 LT ISZERO PUSH3 0x4F4 JUMPI DUP5 DUP10 ADD MLOAD DUP3 SSTORE PUSH1 0x1 DUP3 ADD SWAP2 POP PUSH1 0x20 DUP6 ADD SWAP5 POP PUSH1 0x20 DUP2 ADD SWAP1 POP PUSH3 0x4CD JUMP JUMPDEST DUP7 DUP4 LT ISZERO PUSH3 0x514 JUMPI DUP5 DUP10 ADD MLOAD PUSH3 0x510 PUSH1 0x1F DUP10 AND DUP3 PUSH3 0x404 JUMP JUMPDEST DUP4 SSTORE POP JUMPDEST PUSH1 0x1 PUSH1 0x2 DUP9 MUL ADD DUP9 SSTORE POP POP POP JUMPDEST POP POP POP POP POP POP JUMP JUMPDEST PUSH2 0x8EC9 DUP1 PUSH3 0x539 PUSH1 0x0 CODECOPY PUSH1 0x0 RETURN INVALID PUSH1 0x80 PUSH1 0x40 MSTORE CALLVALUE DUP1 ISZERO PUSH2 0x10 JUMPI PUSH1 0x0 DUP1 REVERT JUMPDEST POP PUSH1 0x4 CALLDATASIZE LT PUSH2 0x227 JUMPI PUSH1 0x0 CALLDATALOAD PUSH1 0xE0 SHR DUP1 PUSH4 0x850C1768 GT PUSH2 0x130 JUMPI DUP1 PUSH4 0xB440983E GT PUSH2 0xB8 JUMPI DUP1 PUSH4 0xE985E9C5 GT PUSH2 0x7C JUMPI DUP1 PUSH4 0xE985E9C5 EQ PUSH2 0x720 JUMPI DUP1 PUSH4 0xF851A440 EQ PUSH2 0x750 JUMPI DUP1 PUSH4 0xFBCA9E85 EQ PUSH2 0x76E JUMPI DUP1 PUSH4 0xFDB5F9DF EQ PUSH2 0x79E JUMPI DUP1 PUSH4 0xFEF03DA3 EQ PUSH2 0x7CE JUMPI PUSH2 0x227 JUMP JUMPDEST DUP1 PUSH4 0xB440983E EQ PUSH2 0x644 JUMPI DUP1 PUSH4 0xB7716007 EQ PUSH2 0x674 JUMPI DUP1 PUSH4 0xB88D4FDE EQ PUSH2 0x6A4 JUMPI DUP1 PUSH4 0xC87B56DD EQ PUSH2 0x6C0 JUMPI DUP1 PUSH4 0xC962F634 EQ PUSH2 0x6F0 JUMPI PUSH2 0x227 JUMP JUMPDEST DUP1 PUSH4 0x95D89B41 GT PUSH2 0xFF JUMPI DUP1 PUSH4 0x95D89B41 EQ PUSH2 0x5B4 JUMPI DUP1 PUSH4 0xA0BDB003 EQ PUSH2 0x5D2 JUMPI DUP1 PUSH4 0xA22CB465 EQ PUSH2 0x5F0 JUMPI DUP1 PUSH4 0xB1466D1D EQ PUSH2 0x60C JUMPI DUP1 PUSH4 0xB40D35E6 EQ PUSH2 0x628 JUMPI PUSH2 0x227 JUMP JUMPDEST DUP1 PUSH4 0x850C1768 EQ PUSH2 0x502 JUMPI DUP1 PUSH4 0x8DA5CB5B EQ PUSH2 0x536 JUMPI DUP1 PUSH4 0x90AB95CB EQ PUSH2 0x554 JUMPI DUP1 PUSH4 0x947FF324 EQ PUSH2 0x584 JUMPI PUSH2 0x227 JUMP JUMPDEST DUP1 PUSH4 0x49E27A17 GT PUSH2 0x1B3 JUMPI DUP1 PUSH4 0x6352211E GT PUSH2 0x182 JUMPI DUP1 PUSH4 0x6352211E EQ PUSH2 0x426 JUMPI DUP1 PUSH4 0x70A08231 EQ PUSH2 0x456 JUMPI DUP1 PUSH4 0x73AE3899 EQ PUSH2 0x486 JUMPI DUP1 PUSH4 0x7A8EE24B EQ PUSH2 0x4B6 JUMPI DUP1 PUSH4 0x8096373E EQ PUSH2 0x4E6 JUMPI PUSH2 0x227 JUMP JUMPDEST DUP1 PUSH4 0x49E27A17 EQ PUSH2 0x37A JUMPI DUP1 PUSH4 0x51640FEE EQ PUSH2 0x3AA JUMPI DUP1 PUSH4 0x60C000D4 EQ PUSH2 0x3DA JUMPI DUP1 PUSH4 0x62812A39 EQ PUSH2 0x3F6 JUMPI PUSH2 0x227 JUMP JUMPDEST DUP1 PUSH4 0x23B872DD GT PUSH2 0x1FA JUMPI DUP1 PUSH4 0x23B872DD EQ PUSH2 0x2C6 JUMPI DUP1 PUSH4 0x31BA1966 EQ PUSH2 0x2E2 JUMPI DUP1 PUSH4 0x35941273 EQ PUSH2 0x312 JUMPI DUP1 PUSH4 0x35E84174 EQ PUSH2 0x32E JUMPI DUP1 PUSH4 0x42842E0E EQ PUSH2 0x35E JUMPI PUSH2 0x227 JUMP JUMPDEST DUP1 PUSH4 0x1FFC9A7 EQ PUSH2 0x22C JUMPI DUP1 PUSH4 0x6FDDE03 EQ PUSH2 0x25C JUMPI DUP1 PUSH4 0x81812FC EQ PUSH2 0x27A JUMPI DUP1 PUSH4 0x95EA7B3 EQ PUSH2 0x2AA JUMPI JUMPDEST PUSH1 0x0 DUP1 REVERT JUMPDEST PUSH2 0x246 PUSH1 0x4 DUP1 CALLDATASIZE SUB DUP2 ADD SWAP1 PUSH2 0x241 SWAP2 SWAP1 PUSH2 0x67D5 JUMP JUMPDEST PUSH2 0x7FE JUMP JUMPDEST PUSH1 0x40 MLOAD PUSH2 0x253 SWAP2 SWAP1 PUSH2 0x681D JUMP JUMPDEST PUSH1 0x40 MLOAD DUP1 SWAP2 SUB SWAP1 RETURN JUMPDEST PUSH2 0x264 PUSH2 0x85F JUMP JUMPDEST PUSH1 0x40 MLOAD PUSH2 0x271 SWAP2 SWAP1 PUSH2 0x68C8 JUMP JUMPDEST PUSH1 0x40 MLOAD DUP1 SWAP2 SUB SWAP1 RETURN JUMPDEST PUSH2 0x294 PUSH1 0x4 DUP1 CALLDATASIZE SUB DUP2 ADD SWAP1 PUSH2 0x28F SWAP2 SWAP1 PUSH2 0x6920 JUMP JUMPDEST PUSH2 0x8F1 JUMP JUMPDEST PUSH1 0x40 MLOAD PUSH2 0x2A1 SWAP2 SWAP1 PUSH2 0x698E JUMP JUMPDEST PUSH1 0x40 MLOAD DUP1 SWAP2 SUB SWAP1 RETURN JUMPDEST PUSH2 0x2C4 PUSH1 0x4 DUP1 CALLDATASIZE SUB DUP2 ADD SWAP1 PUSH2 0x2BF SWAP2 SWAP1 PUSH2 0x69D5 JUMP JUMPDEST PUSH2 0x937 JUMP JUMPDEST STOP JUMPDEST PUSH2 0x2E0 PUSH1 0x4 DUP1 CALLDATASIZE SUB DUP2 ADD SWAP1 PUSH2 0x2DB SWAP2 SWAP1 PUSH2 0x6A15 JUMP JUMPDEST PUSH2 0xA4E JUMP JUMPDEST STOP JUMPDEST PUSH2 0x2FC PUSH1 0x4 DUP1 CALLDATASIZE SUB DUP2 ADD SWAP1 PUSH2 0x2F7 SWAP2 SWAP1 PUSH2 0x6A68 JUMP JUMPDEST PUSH2 0xAAE JUMP JUMPDEST PUSH1 0x40 MLOAD PUSH2 0x309 SWAP2 SWAP1 PUSH2 0x681D JUMP JUMPDEST PUSH1 0x40 MLOAD DUP1 SWAP2 SUB SWAP1 RETURN JUMPDEST PUSH2 0x32C PUSH1 0x4 DUP1 CALLDATASIZE SUB DUP2 ADD SWAP1 PUSH2 0x327 SWAP2 SWAP1 PUSH2 0x6C00 JUMP JUMPDEST PUSH2 0xE4C JUMP JUMPDEST STOP JUMPDEST PUSH2 0x348 PUSH1 0x4 DUP1 CALLDATASIZE SUB DUP2 ADD SWAP1 PUSH2 0x343 SWAP2 SWAP1 PUSH2 0x6C81 JUMP JUMPDEST PUSH2 0xF6A JUMP JUMPDEST PUSH1 0x40 MLOAD PUSH2 0x355 SWAP2 SWAP1 PUSH2 0x6D55 JUMP JUMPDEST PUSH1 0x40 MLOAD DUP1 SWAP2 SUB SWAP1 RETURN JUMPDEST PUSH2 0x378 PUSH1 0x4 DUP1 CALLDATASIZE SUB DUP2 ADD SWAP1 PUSH2 0x373 SWAP2 SWAP1 PUSH2 0x6A15 JUMP JUMPDEST PUSH2 0x204B JUMP JUMPDEST STOP JUMPDEST PUSH2 0x394 PUSH1 0x4 DUP1 CALLDATASIZE SUB DUP2 ADD SWAP1 PUSH2 0x38F SWAP2 SWAP1 PUSH2 0x6920 JUMP JUMPDEST PUSH2 0x206B JUMP JUMPDEST PUSH1 0x40 MLOAD PUSH2 0x3A1 SWAP2 SWAP1 PUSH2 0x681D JUMP JUMPDEST PUSH1 0x40 MLOAD DUP1 SWAP2 SUB SWAP1 RETURN JUMPDEST PUSH2 0x3C4 PUSH1 0x4 DUP1 CALLDATASIZE SUB DUP2 ADD SWAP1 PUSH2 0x3BF SWAP2 SWAP1 PUSH2 0x6920 JUMP JUMPDEST PUSH2 0x2278 JUMP JUMPDEST PUSH1 0x40 MLOAD PUSH2 0x3D1 SWAP2 SWAP1 PUSH2 0x6F87 JUMP JUMPDEST PUSH1 0x40 MLOAD DUP1 SWAP2 SUB SWAP1 RETURN JUMPDEST PUSH2 0x3F4 PUSH1 0x4 DUP1 CALLDATASIZE SUB DUP2 ADD SWAP1 PUSH2 0x3EF SWAP2 SWAP1 PUSH2 0x6A68 JUMP JUMPDEST PUSH2 0x26C6 JUMP JUMPDEST STOP JUMPDEST PUSH2 0x410 PUSH1 0x4 DUP1 CALLDATASIZE SUB DUP2 ADD SWAP1 PUSH2 0x40B SWAP2 SWAP1 PUSH2 0x6A68 JUMP JUMPDEST PUSH2 0x2ABE JUMP JUMPDEST PUSH1 0x40 MLOAD PUSH2 0x41D SWAP2 SWAP1 PUSH2 0x70AF JUMP JUMPDEST PUSH1 0x40 MLOAD DUP1 SWAP2 SUB SWAP1 RETURN JUMPDEST PUSH2 0x440 PUSH1 0x4 DUP1 CALLDATASIZE SUB DUP2 ADD SWAP1 PUSH2 0x43B SWAP2 SWAP1 PUSH2 0x6920 JUMP JUMPDEST PUSH2 0x2DB4 JUMP JUMPDEST PUSH1 0x40 MLOAD PUSH2 0x44D SWAP2 SWAP1 PUSH2 0x698E JUMP JUMPDEST PUSH1 0x40 MLOAD DUP1 SWAP2 SUB SWAP1 RETURN JUMPDEST PUSH2 0x470 PUSH1 0x4 DUP1 CALLDATASIZE SUB DUP2 ADD SWAP1 PUSH2 0x46B SWAP2 SWAP1 PUSH2 0x6A68 JUMP JUMPDEST PUSH2 0x2E3A JUMP JUMPDEST PUSH1 0x40 MLOAD PUSH2 0x47D SWAP2 SWAP1 PUSH2 0x6D55 JUMP JUMPDEST PUSH1 0x40 MLOAD DUP1 SWAP2 SUB SWAP1 RETURN JUMPDEST PUSH2 0x4A0 PUSH1 0x4 DUP1 CALLDATASIZE SUB DUP2 ADD SWAP1 PUSH2 0x49B SWAP2 SWAP1 PUSH2 0x69D5 JUMP JUMPDEST PUSH2 0x2EF1 JUMP JUMPDEST PUSH1 0x40 MLOAD PUSH2 0x4AD SWAP2 SWAP1 PUSH2 0x6D55 JUMP JUMPDEST PUSH1 0x40 MLOAD DUP1 SWAP2 SUB SWAP1 RETURN JUMPDEST PUSH2 0x4D0 PUSH1 0x4 DUP1 CALLDATASIZE SUB DUP2 ADD SWAP1 PUSH2 0x4CB SWAP2 SWAP1 PUSH2 0x6A68 JUMP JUMPDEST PUSH2 0x2F22 JUMP JUMPDEST PUSH1 0x40 MLOAD PUSH2 0x4DD SWAP2 SWAP1 PUSH2 0x7140 JUMP JUMPDEST PUSH1 0x40 MLOAD DUP1 SWAP2 SUB SWAP1 RETURN JUMPDEST PUSH2 0x500 PUSH1 0x4 DUP1 CALLDATASIZE SUB DUP2 ADD SWAP1 PUSH2 0x4FB SWAP2 SWAP1 PUSH2 0x7162 JUMP JUMPDEST PUSH2 0x2FF5 JUMP JUMPDEST STOP JUMPDEST PUSH2 0x51C PUSH1 0x4 DUP1 CALLDATASIZE SUB DUP2 ADD SWAP1 PUSH2 0x517 SWAP2 SWAP1 PUSH2 0x7209 JUMP JUMPDEST PUSH2 0x33D3 JUMP JUMPDEST PUSH1 0x40 MLOAD PUSH2 0x52D SWAP6 SWAP5 SWAP4 SWAP3 SWAP2 SWAP1 PUSH2 0x7245 JUMP JUMPDEST PUSH1 0x40 MLOAD DUP1 SWAP2 SUB SWAP1 RETURN JUMPDEST PUSH2 0x53E PUSH2 0x35F7 JUMP JUMPDEST PUSH1 0x40 MLOAD PUSH2 0x54B SWAP2 SWAP1 PUSH2 0x698E JUMP JUMPDEST PUSH1 0x40 MLOAD DUP1 SWAP2 SUB SWAP1 RETURN JUMPDEST PUSH2 0x56E PUSH1 0x4 DUP1 CALLDATASIZE SUB DUP2 ADD SWAP1 PUSH2 0x569 SWAP2 SWAP1 PUSH2 0x7209 JUMP JUMPDEST PUSH2 0x365D JUMP JUMPDEST PUSH1 0x40 MLOAD PUSH2 0x57B SWAP2 SWAP1 PUSH2 0x6F87 JUMP JUMPDEST PUSH1 0x40 MLOAD DUP1 SWAP2 SUB SWAP1 RETURN JUMPDEST PUSH2 0x59E PUSH1 0x4 DUP1 CALLDATASIZE SUB DUP2 ADD SWAP1 PUSH2 0x599 SWAP2 SWAP1 PUSH2 0x69D5 JUMP JUMPDEST PUSH2 0x3785 JUMP JUMPDEST PUSH1 0x40 MLOAD PUSH2 0x5AB SWAP2 SWAP1 PUSH2 0x6D55 JUMP JUMPDEST PUSH1 0x40 MLOAD DUP1 SWAP2 SUB SWAP1 RETURN JUMPDEST PUSH2 0x5BC PUSH2 0x37B6 JUMP JUMPDEST PUSH1 0x40 MLOAD PUSH2 0x5C9 SWAP2 SWAP1 PUSH2 0x68C8 JUMP JUMPDEST PUSH1 0x40 MLOAD DUP1 SWAP2 SUB SWAP1 RETURN JUMPDEST PUSH2 0x5DA PUSH2 0x3848 JUMP JUMPDEST PUSH1 0x40 MLOAD PUSH2 0x5E7 SWAP2 SWAP1 PUSH2 0x6D55 JUMP JUMPDEST PUSH1 0x40 MLOAD DUP1 SWAP2 SUB SWAP1 RETURN JUMPDEST PUSH2 0x60A PUSH1 0x4 DUP1 CALLDATASIZE SUB DUP2 ADD SWAP1 PUSH2 0x605 SWAP2 SWAP1 PUSH2 0x72C4 JUMP JUMPDEST PUSH2 0x384E JUMP JUMPDEST STOP JUMPDEST PUSH2 0x626 PUSH1 0x4 DUP1 CALLDATASIZE SUB DUP2 ADD SWAP1 PUSH2 0x621 SWAP2 SWAP1 PUSH2 0x7304 JUMP JUMPDEST PUSH2 0x3864 JUMP JUMPDEST STOP JUMPDEST PUSH2 0x642 PUSH1 0x4 DUP1 CALLDATASIZE SUB DUP2 ADD SWAP1 PUSH2 0x63D SWAP2 SWAP1 PUSH2 0x7385 JUMP JUMPDEST PUSH2 0x3D6A JUMP JUMPDEST STOP JUMPDEST PUSH2 0x65E PUSH1 0x4 DUP1 CALLDATASIZE SUB DUP2 ADD SWAP1 PUSH2 0x659 SWAP2 SWAP1 PUSH2 0x7209 JUMP JUMPDEST PUSH2 0x41D1 JUMP JUMPDEST PUSH1 0x40 MLOAD PUSH2 0x66B SWAP2 SWAP1 PUSH2 0x681D JUMP JUMPDEST PUSH1 0x40 MLOAD DUP1 SWAP2 SUB SWAP1 RETURN JUMPDEST PUSH2 0x68E PUSH1 0x4 DUP1 CALLDATASIZE SUB DUP2 ADD SWAP1 PUSH2 0x689 SWAP2 SWAP1 PUSH2 0x6A68 JUMP JUMPDEST PUSH2 0x4237 JUMP JUMPDEST PUSH1 0x40 MLOAD PUSH2 0x69B SWAP2 SWAP1 PUSH2 0x7140 JUMP JUMPDEST PUSH1 0x40 MLOAD DUP1 SWAP2 SUB SWAP1 RETURN JUMPDEST PUSH2 0x6BE PUSH1 0x4 DUP1 CALLDATASIZE SUB DUP2 ADD SWAP1 PUSH2 0x6B9 SWAP2 SWAP1 PUSH2 0x7466 JUMP JUMPDEST PUSH2 0x430A JUMP JUMPDEST STOP JUMPDEST PUSH2 0x6DA PUSH1 0x4 DUP1 CALLDATASIZE SUB DUP2 ADD SWAP1 PUSH2 0x6D5 SWAP2 SWAP1 PUSH2 0x6920 JUMP JUMPDEST PUSH2 0x436C JUMP JUMPDEST PUSH1 0x40 MLOAD PUSH2 0x6E7 SWAP2 SWAP1 PUSH2 0x68C8 JUMP JUMPDEST PUSH1 0x40 MLOAD DUP1 SWAP2 SUB SWAP1 RETURN JUMPDEST PUSH2 0x70A PUSH1 0x4 DUP1 CALLDATASIZE SUB DUP2 ADD SWAP1 PUSH2 0x705 SWAP2 SWAP1 PUSH2 0x6920 JUMP JUMPDEST PUSH2 0x447E JUMP JUMPDEST PUSH1 0x40 MLOAD PUSH2 0x717 SWAP2 SWAP1 PUSH2 0x754C JUMP JUMPDEST PUSH1 0x40 MLOAD DUP1 SWAP2 SUB SWAP1 RETURN JUMPDEST PUSH2 0x73A PUSH1 0x4 DUP1 CALLDATASIZE SUB DUP2 ADD SWAP1 PUSH2 0x735 SWAP2 SWAP1 PUSH2 0x756E JUMP JUMPDEST PUSH2 0x46A8 JUMP JUMPDEST PUSH1 0x40 MLOAD PUSH2 0x747 SWAP2 SWAP1 PUSH2 0x681D JUMP JUMPDEST PUSH1 0x40 MLOAD DUP1 SWAP2 SUB SWAP1 RETURN JUMPDEST PUSH2 0x758 PUSH2 0x473C JUMP JUMPDEST PUSH1 0x40 MLOAD PUSH2 0x765 SWAP2 SWAP1 PUSH2 0x698E JUMP JUMPDEST PUSH1 0x40 MLOAD DUP1 SWAP2 SUB SWAP1 RETURN JUMPDEST PUSH2 0x788 PUSH1 0x4 DUP1 CALLDATASIZE SUB DUP2 ADD SWAP1 PUSH2 0x783 SWAP2 SWAP1 PUSH2 0x781A JUMP JUMPDEST PUSH2 0x4762 JUMP JUMPDEST PUSH1 0x40 MLOAD PUSH2 0x795 SWAP2 SWAP1 PUSH2 0x7140 JUMP JUMPDEST PUSH1 0x40 MLOAD DUP1 SWAP2 SUB SWAP1 RETURN JUMPDEST PUSH2 0x7B8 PUSH1 0x4 DUP1 CALLDATASIZE SUB DUP2 ADD SWAP1 PUSH2 0x7B3 SWAP2 SWAP1 PUSH2 0x6920 JUMP JUMPDEST PUSH2 0x4B9F JUMP JUMPDEST PUSH1 0x40 MLOAD PUSH2 0x7C5 SWAP2 SWAP1 PUSH2 0x681D JUMP JUMPDEST PUSH1 0x40 MLOAD DUP1 SWAP2 SUB SWAP1 RETURN JUMPDEST PUSH2 0x7E8 PUSH1 0x4 DUP1 CALLDATASIZE SUB DUP2 ADD SWAP1 PUSH2 0x7E3 SWAP2 SWAP1 PUSH2 0x6A68 JUMP JUMPDEST PUSH2 0x4FC8 JUMP JUMPDEST PUSH1 0x40 MLOAD PUSH2 0x7F5 SWAP2 SWAP1 PUSH2 0x7A06 JUMP JUMPDEST PUSH1 0x40 MLOAD DUP1 SWAP2 SUB SWAP1 RETURN JUMPDEST PUSH1 0x0 PUSH4 0x49064906 PUSH1 0xE0 SHL PUSH28 0xFFFFFFFFFFFFFFFFFFFFFFFFFFFFFFFFFFFFFFFFFFFFFFFFFFFFFFFF NOT AND DUP3 PUSH28 0xFFFFFFFFFFFFFFFFFFFFFFFFFFFFFFFFFFFFFFFFFFFFFFFFFFFFFFFF NOT AND EQ DUP1 PUSH2 0x858 JUMPI POP PUSH2 0x857 DUP3 PUSH2 0x53EA JUMP JUMPDEST JUMPDEST SWAP1 POP SWAP2 SWAP1 POP JUMP JUMPDEST PUSH1 0x60 PUSH1 0x0 DUP1 SLOAD PUSH2 0x86E SWAP1 PUSH2 0x7A57 JUMP JUMPDEST DUP1 PUSH1 0x1F ADD PUSH1 0x20 DUP1 SWAP2 DIV MUL PUSH1 0x20 ADD PUSH1 0x40 MLOAD SWAP1 DUP2 ADD PUSH1 0x40 MSTORE DUP1 SWAP3 SWAP2 SWAP1 DUP2 DUP2 MSTORE PUSH1 0x20 ADD DUP3 DUP1 SLOAD PUSH2 0x89A SWAP1 PUSH2 0x7A57 JUMP JUMPDEST DUP1 ISZERO PUSH2 0x8E7 JUMPI DUP1 PUSH1 0x1F LT PUSH2 0x8BC JUMPI PUSH2 0x100 DUP1 DUP4 SLOAD DIV MUL DUP4 MSTORE SWAP2 PUSH1 0x20 ADD SWAP2 PUSH2 0x8E7 JUMP JUMPDEST DUP3 ADD SWAP2 SWAP1 PUSH1 0x0 MSTORE PUSH1 0x20 PUSH1 0x0 KECCAK256 SWAP1 JUMPDEST DUP2 SLOAD DUP2 MSTORE SWAP1 PUSH1 0x1 ADD SWAP1 PUSH1 0x20 ADD DUP1 DUP4 GT PUSH2 0x8CA JUMPI DUP3 SWAP1 SUB PUSH1 0x1F AND DUP3 ADD SWAP2 JUMPDEST POP POP POP POP POP SWAP1 POP SWAP1 JUMP JUMPDEST PUSH1 0x0 PUSH2 0x8FC DUP3 PUSH2 0x54CC JUMP JUMPDEST PUSH1 0x4 PUSH1 0x0 DUP4 DUP2 MSTORE PUSH1 0x20 ADD SWAP1 DUP2 MSTORE PUSH1 0x20 ADD PUSH1 0x0 KECCAK256 PUSH1 0x0 SWAP1 SLOAD SWAP1 PUSH2 0x100 EXP SWAP1 DIV PUSH20 0xFFFFFFFFFFFFFFFFFFFFFFFFFFFFFFFFFFFFFFFF AND SWAP1 POP SWAP2 SWAP1 POP JUMP JUMPDEST PUSH1 0x0 PUSH2 0x942 DUP3 PUSH2 0x2DB4 JUMP JUMPDEST SWAP1 POP DUP1 PUSH20 0xFFFFFFFFFFFFFFFFFFFFFFFFFFFFFFFFFFFFFFFF AND DUP4 PUSH20 0xFFFFFFFFFFFFFFFFFFFFFFFFFFFFFFFFFFFFFFFF AND SUB PUSH2 0x9B2 JUMPI PUSH1 0x40 MLOAD PUSH32 0x8C379A000000000000000000000000000000000000000000000000000000000 DUP2 MSTORE PUSH1 0x4 ADD PUSH2 0x9A9 SWAP1 PUSH2 0x7AFA JUMP JUMPDEST PUSH1 0x40 MLOAD DUP1 SWAP2 SUB SWAP1 REVERT JUMPDEST DUP1 PUSH20 0xFFFFFFFFFFFFFFFFFFFFFFFFFFFFFFFFFFFFFFFF AND PUSH2 0x9D1 PUSH2 0x5517 JUMP JUMPDEST PUSH20 0xFFFFFFFFFFFFFFFFFFFFFFFFFFFFFFFFFFFFFFFF AND EQ DUP1 PUSH2 0xA00 JUMPI POP PUSH2 0x9FF DUP2 PUSH2 0x9FA PUSH2 0x5517 JUMP JUMPDEST PUSH2 0x46A8 JUMP JUMPDEST JUMPDEST PUSH2 0xA3F JUMPI PUSH1 0x40 MLOAD PUSH32 0x8C379A000000000000000000000000000000000000000000000000000000000 DUP2 MSTORE PUSH1 0x4 ADD PUSH2 0xA36 SWAP1 PUSH2 0x7B8C JUMP JUMPDEST PUSH1 0x40 MLOAD DUP1 SWAP2 SUB SWAP1 REVERT JUMPDEST PUSH2 0xA49 DUP4 DUP4 PUSH2 0x551F JUMP JUMPDEST POP POP POP JUMP JUMPDEST PUSH2 0xA5F PUSH2 0xA59 PUSH2 0x5517 JUMP JUMPDEST DUP3 PUSH2 0x55D8 JUMP JUMPDEST PUSH2 0xA9E JUMPI PUSH1 0x40 MLOAD PUSH32 0x8C379A000000000000000000000000000000000000000000000000000000000 DUP2 MSTORE PUSH1 0x4 ADD PUSH2 0xA95 SWAP1 PUSH2 0x7C1E JUMP JUMPDEST PUSH1 0x40 MLOAD DUP1 SWAP2 SUB SWAP1 REVERT JUMPDEST PUSH2 0xAA9 DUP4 DUP4 DUP4 PUSH2 0x566D JUMP JUMPDEST POP POP POP JUMP JUMPDEST PUSH1 0x0 PUSH2 0xAC4 PUSH8 0xAC6DF66B1EB6C017 PUSH1 0xC0 SHL PUSH2 0x5966 JUMP JUMPDEST PUSH2 0xAD8 PUSH8 0xDB67BCCFAA108F9E PUSH1 0xC0 SHL PUSH2 0x5966 JUMP JUMPDEST PUSH2 0xAEC PUSH8 0x1A80F5F0A4409ED0 PUSH1 0xC0 SHL PUSH2 0x5966 JUMP JUMPDEST PUSH1 0x0 PUSH1 0xC PUSH1 0x0 DUP5 PUSH20 0xFFFFFFFFFFFFFFFFFFFFFFFFFFFFFFFFFFFFFFFF AND PUSH20 0xFFFFFFFFFFFFFFFFFFFFFFFFFFFFFFFFFFFFFFFF AND DUP2 MSTORE PUSH1 0x20 ADD SWAP1 DUP2 MSTORE PUSH1 0x20 ADD PUSH1 0x0 KECCAK256 PUSH1 0x40 MLOAD DUP1 PUSH1 0xE0 ADD PUSH1 0x40 MSTORE SWAP1 DUP2 PUSH1 0x0 DUP3 ADD PUSH1 0x0 SWAP1 SLOAD SWAP1 PUSH2 0x100 EXP SWAP1 DIV PUSH20 0xFFFFFFFFFFFFFFFFFFFFFFFFFFFFFFFFFFFFFFFF AND PUSH20 0xFFFFFFFFFFFFFFFFFFFFFFFFFFFFFFFFFFFFFFFF AND PUSH20 0xFFFFFFFFFFFFFFFFFFFFFFFFFFFFFFFFFFFFFFFF AND DUP2 MSTORE PUSH1 0x20 ADD PUSH1 0x1 DUP3 ADD DUP1 SLOAD PUSH2 0xB9E SWAP1 PUSH2 0x7A57 JUMP JUMPDEST DUP1 PUSH1 0x1F ADD PUSH1 0x20 DUP1 SWAP2 DIV MUL PUSH1 0x20 ADD PUSH1 0x40 MLOAD SWAP1 DUP2 ADD PUSH1 0x40 MSTORE DUP1 SWAP3 SWAP2 SWAP1 DUP2 DUP2 MSTORE PUSH1 0x20 ADD DUP3 DUP1 SLOAD PUSH2 0xBCA SWAP1 PUSH2 0x7A57 JUMP JUMPDEST DUP1 ISZERO PUSH2 0xC17 JUMPI DUP1 PUSH1 0x1F LT PUSH2 0xBEC JUMPI PUSH2 0x100 DUP1 DUP4 SLOAD DIV MUL DUP4 MSTORE SWAP2 PUSH1 0x20 ADD SWAP2 PUSH2 0xC17 JUMP JUMPDEST DUP3 ADD SWAP2 SWAP1 PUSH1 0x0 MSTORE PUSH1 0x20 PUSH1 0x0 KECCAK256 SWAP1 JUMPDEST DUP2 SLOAD DUP2 MSTORE SWAP1 PUSH1 0x1 ADD SWAP1 PUSH1 0x20 ADD DUP1 DUP4 GT PUSH2 0xBFA JUMPI DUP3 SWAP1 SUB PUSH1 0x1F AND DUP3 ADD SWAP2 JUMPDEST POP POP POP POP POP DUP2 MSTORE PUSH1 0x20 ADD PUSH1 0x2 DUP3 ADD DUP1 SLOAD PUSH2 0xC30 SWAP1 PUSH2 0x7A57 JUMP JUMPDEST DUP1 PUSH1 0x1F ADD PUSH1 0x20 DUP1 SWAP2 DIV MUL PUSH1 0x20 ADD PUSH1 0x40 MLOAD SWAP1 DUP2 ADD PUSH1 0x40 MSTORE DUP1 SWAP3 SWAP2 SWAP1 DUP2 DUP2 MSTORE PUSH1 0x20 ADD DUP3 DUP1 SLOAD PUSH2 0xC5C SWAP1 PUSH2 0x7A57 JUMP JUMPDEST DUP1 ISZERO PUSH2 0xCA9 JUMPI DUP1 PUSH1 0x1F LT PUSH2 0xC7E JUMPI PUSH2 0x100 DUP1 DUP4 SLOAD DIV MUL DUP4 MSTORE SWAP2 PUSH1 0x20 ADD SWAP2 PUSH2 0xCA9 JUMP JUMPDEST DUP3 ADD SWAP2 SWAP1 PUSH1 0x0 MSTORE PUSH1 0x20 PUSH1 0x0 KECCAK256 SWAP1 JUMPDEST DUP2 SLOAD DUP2 MSTORE SWAP1 PUSH1 0x1 ADD SWAP1 PUSH1 0x20 ADD DUP1 DUP4 GT PUSH2 0xC8C JUMPI DUP3 SWAP1 SUB PUSH1 0x1F AND DUP3 ADD SWAP2 JUMPDEST POP POP POP POP POP DUP2 MSTORE PUSH1 0x20 ADD PUSH1 0x3 DUP3 ADD DUP1 SLOAD PUSH2 0xCC2 SWAP1 PUSH2 0x7A57 JUMP JUMPDEST DUP1 PUSH1 0x1F ADD PUSH1 0x20 DUP1 SWAP2 DIV MUL PUSH1 0x20 ADD PUSH1 0x40 MLOAD SWAP1 DUP2 ADD PUSH1 0x40 MSTORE DUP1 SWAP3 SWAP2 SWAP1 DUP2 DUP2 MSTORE PUSH1 0x20 ADD DUP3 DUP1 SLOAD PUSH2 0xCEE SWAP1 PUSH2 0x7A57 JUMP JUMPDEST DUP1 ISZERO PUSH2 0xD3B JUMPI DUP1 PUSH1 0x1F LT PUSH2 0xD10 JUMPI PUSH2 0x100 DUP1 DUP4 SLOAD DIV MUL DUP4 MSTORE SWAP2 PUSH1 0x20 ADD SWAP2 PUSH2 0xD3B JUMP JUMPDEST DUP3 ADD SWAP2 SWAP1 PUSH1 0x0 MSTORE PUSH1 0x20 PUSH1 0x0 KECCAK256 SWAP1 JUMPDEST DUP2 SLOAD DUP2 MSTORE SWAP1 PUSH1 0x1 ADD SWAP1 PUSH1 0x20 ADD DUP1 DUP4 GT PUSH2 0xD1E JUMPI DUP3 SWAP1 SUB PUSH1 0x1F AND DUP3 ADD SWAP2 JUMPDEST POP POP POP POP POP DUP2 MSTORE PUSH1 0x20 ADD PUSH1 0x4 DUP3 ADD SLOAD DUP2 MSTORE PUSH1 0x20 ADD PUSH1 0x5 DUP3 ADD PUSH1 0x0 SWAP1 SLOAD SWAP1 PUSH2 0x100 EXP SWAP1 DIV PUSH1 0xFF AND PUSH1 0x2 DUP2 GT ISZERO PUSH2 0xD73 JUMPI PUSH2 0xD72 PUSH2 0x6D9D JUMP JUMPDEST JUMPDEST PUSH1 0x2 DUP2 GT ISZERO PUSH2 0xD85 JUMPI PUSH2 0xD84 PUSH2 0x6D9D JUMP JUMPDEST JUMPDEST DUP2 MSTORE PUSH1 0x20 ADD PUSH1 0x5 DUP3 ADD PUSH1 0x1 SWAP1 SLOAD SWAP1 PUSH2 0x100 EXP SWAP1 DIV PUSH1 0xFF AND ISZERO ISZERO ISZERO ISZERO DUP2 MSTORE POP POP SWAP1 POP PUSH2 0xDBA PUSH8 0x25E9C9A99F5056C1 PUSH1 0xC0 SHL PUSH2 0x5966 JUMP JUMPDEST PUSH2 0xDCE PUSH8 0x54C24ED8A9F3D3CC PUSH1 0xC0 SHL PUSH2 0x5966 JUMP JUMPDEST PUSH1 0x0 PUSH20 0xFFFFFFFFFFFFFFFFFFFFFFFFFFFFFFFFFFFFFFFF AND DUP2 PUSH1 0x0 ADD MLOAD PUSH20 0xFFFFFFFFFFFFFFFFFFFFFFFFFFFFFFFFFFFFFFFF AND EQ ISZERO DUP1 ISZERO PUSH2 0xE10 JUMPI POP DUP1 PUSH1 0xC0 ADD MLOAD JUMPDEST DUP1 ISZERO PUSH2 0xE44 JUMPI POP PUSH1 0x0 PUSH1 0x2 DUP2 GT ISZERO PUSH2 0xE2B JUMPI PUSH2 0xE2A PUSH2 0x6D9D JUMP JUMPDEST JUMPDEST DUP2 PUSH1 0xA0 ADD MLOAD PUSH1 0x2 DUP2 GT ISZERO PUSH2 0xE42 JUMPI PUSH2 0xE41 PUSH2 0x6D9D JUMP JUMPDEST JUMPDEST EQ JUMPDEST SWAP2 POP POP SWAP2 SWAP1 POP JUMP JUMPDEST PUSH2 0xE60 PUSH8 0xE99528B478DB8197 PUSH1 0xC0 SHL PUSH2 0x5966 JUMP JUMPDEST PUSH2 0xE74 PUSH8 0x981CBB34D30FE94A PUSH1 0xC0 SHL PUSH2 0x5966 JUMP JUMPDEST PUSH2 0xE88 PUSH8 0xF812C170AE7658C0 PUSH1 0xC0 SHL PUSH2 0x5966 JUMP JUMPDEST PUSH1 0x0 PUSH1 0xB PUSH1 0x0 DUP5 DUP2 MSTORE PUSH1 0x20 ADD SWAP1 DUP2 MSTORE PUSH1 0x20 ADD PUSH1 0x0 KECCAK256 SLOAD SWAP1 POP PUSH2 0xEB4 PUSH8 0x2596EA0DF700C076 PUSH1 0xC0 SHL PUSH2 0x5966 JUMP JUMPDEST PUSH2 0xEC8 PUSH8 0x24B4169CA1D4DC53 PUSH1 0xC0 SHL PUSH2 0x5966 JUMP JUMPDEST PUSH2 0xEDC PUSH8 0xF9EFAF3217B66A3C PUSH1 0xC0 SHL PUSH2 0x5966 JUMP JUMPDEST PUSH1 0x0 DUP2 SUB PUSH2 0xF1F JUMPI PUSH1 0x40 MLOAD PUSH32 0x8C379A000000000000000000000000000000000000000000000000000000000 DUP2 MSTORE PUSH1 0x4 ADD PUSH2 0xF16 SWAP1 PUSH2 0x7C8A JUMP JUMPDEST PUSH1 0x40 MLOAD DUP1 SWAP2 SUB SWAP1 REVERT JUMPDEST PUSH2 0xF33 PUSH8 0xB346A0C0FBD99049 PUSH1 0xC0 SHL PUSH2 0x5966 JUMP JUMPDEST PUSH2 0xF47 PUSH8 0x211BCABD1A152D94 PUSH1 0xC0 SHL PUSH2 0x5966 JUMP JUMPDEST PUSH2 0xF5B PUSH8 0xCB9D3D897890B0CD PUSH1 0xC0 SHL PUSH2 0x5966 JUMP JUMPDEST PUSH2 0xF65 DUP2 DUP4 PUSH2 0x3864 JUMP JUMPDEST POP POP POP JUMP JUMPDEST PUSH1 0x0 PUSH2 0xF80 PUSH8 0xCF60F511B55B5D06 PUSH1 0xC0 SHL PUSH2 0x5966 JUMP JUMPDEST PUSH2 0xF94 PUSH8 0x41294C28535E6F2B PUSH1 0xC0 SHL PUSH2 0x5966 JUMP JUMPDEST PUSH2 0xFA8 PUSH8 0xB99B056BC902E5DE PUSH1 0xC0 SHL PUSH2 0x5966 JUMP JUMPDEST PUSH2 0xFBC PUSH8 0xEEB696A652A6A3B7 PUSH1 0xC0 SHL PUSH2 0x5966 JUMP JUMPDEST PUSH2 0xFD0 PUSH8 0xBB5C4622874B315D PUSH1 0xC0 SHL PUSH2 0x5966 JUMP JUMPDEST PUSH2 0xFD9 CALLER PUSH2 0xAAE JUMP JUMPDEST PUSH2 0x1018 JUMPI PUSH1 0x40 MLOAD PUSH32 0x8C379A000000000000000000000000000000000000000000000000000000000 DUP2 MSTORE PUSH1 0x4 ADD PUSH2 0x100F SWAP1 PUSH2 0x7CF6 JUMP JUMPDEST PUSH1 0x40 MLOAD DUP1 SWAP2 SUB SWAP1 REVERT JUMPDEST PUSH2 0x102C PUSH8 0x997EAA5A8339B48C PUSH1 0xC0 SHL PUSH2 0x5966 JUMP JUMPDEST PUSH2 0x1040 PUSH8 0x8CFC172E79BA7641 PUSH1 0xC0 SHL PUSH2 0x5966 JUMP JUMPDEST PUSH2 0x1054 PUSH8 0xE835362C4371CA12 PUSH1 0xC0 SHL PUSH2 0x5966 JUMP JUMPDEST PUSH2 0x1068 PUSH8 0x4DA49A59AF1C696C PUSH1 0xC0 SHL PUSH2 0x5966 JUMP JUMPDEST PUSH2 0x107C PUSH8 0xB796675AC98088C2 PUSH1 0xC0 SHL PUSH2 0x5966 JUMP JUMPDEST PUSH2 0x1090 PUSH8 0xA3BFDE706A89A3CB PUSH1 0xC0 SHL PUSH2 0x5966 JUMP JUMPDEST PUSH1 0x0 PUSH1 0xC PUSH1 0x0 CALLER PUSH20 0xFFFFFFFFFFFFFFFFFFFFFFFFFFFFFFFFFFFFFFFF AND PUSH20 0xFFFFFFFFFFFFFFFFFFFFFFFFFFFFFFFFFFFFFFFF AND DUP2 MSTORE PUSH1 0x20 ADD SWAP1 DUP2 MSTORE PUSH1 0x20 ADD PUSH1 0x0 KECCAK256 PUSH1 0x40 MLOAD DUP1 PUSH1 0xE0 ADD PUSH1 0x40 MSTORE SWAP1 DUP2 PUSH1 0x0 DUP3 ADD PUSH1 0x0 SWAP1 SLOAD SWAP1 PUSH2 0x100 EXP SWAP1 DIV PUSH20 0xFFFFFFFFFFFFFFFFFFFFFFFFFFFFFFFFFFFFFFFF AND PUSH20 0xFFFFFFFFFFFFFFFFFFFFFFFFFFFFFFFFFFFFFFFF AND PUSH20 0xFFFFFFFFFFFFFFFFFFFFFFFFFFFFFFFFFFFFFFFF AND DUP2 MSTORE PUSH1 0x20 ADD PUSH1 0x1 DUP3 ADD DUP1 SLOAD PUSH2 0x1142 SWAP1 PUSH2 0x7A57 JUMP JUMPDEST DUP1 PUSH1 0x1F ADD PUSH1 0x20 DUP1 SWAP2 DIV MUL PUSH1 0x20 ADD PUSH1 0x40 MLOAD SWAP1 DUP2 ADD PUSH1 0x40 MSTORE DUP1 SWAP3 SWAP2 SWAP1 DUP2 DUP2 MSTORE PUSH1 0x20 ADD DUP3 DUP1 SLOAD PUSH2 0x116E SWAP1 PUSH2 0x7A57 JUMP JUMPDEST DUP1 ISZERO PUSH2 0x11BB JUMPI DUP1 PUSH1 0x1F LT PUSH2 0x1190 JUMPI PUSH2 0x100 DUP1 DUP4 SLOAD DIV MUL DUP4 MSTORE SWAP2 PUSH1 0x20 ADD SWAP2 PUSH2 0x11BB JUMP JUMPDEST DUP3 ADD SWAP2 SWAP1 PUSH1 0x0 MSTORE PUSH1 0x20 PUSH1 0x0 KECCAK256 SWAP1 JUMPDEST DUP2 SLOAD DUP2 MSTORE SWAP1 PUSH1 0x1 ADD SWAP1 PUSH1 0x20 ADD DUP1 DUP4 GT PUSH2 0x119E JUMPI DUP3 SWAP1 SUB PUSH1 0x1F AND DUP3 ADD SWAP2 JUMPDEST POP POP POP POP POP DUP2 MSTORE PUSH1 0x20 ADD PUSH1 0x2 DUP3 ADD DUP1 SLOAD PUSH2 0x11D4 SWAP1 PUSH2 0x7A57 JUMP JUMPDEST DUP1 PUSH1 0x1F ADD PUSH1 0x20 DUP1 SWAP2 DIV MUL PUSH1 0x20 ADD PUSH1 0x40 MLOAD SWAP1 DUP2 ADD PUSH1 0x40 MSTORE DUP1 SWAP3 SWAP2 SWAP1 DUP2 DUP2 MSTORE PUSH1 0x20 ADD DUP3 DUP1 SLOAD PUSH2 0x1200 SWAP1 PUSH2 0x7A57 JUMP JUMPDEST DUP1 ISZERO PUSH2 0x124D JUMPI DUP1 PUSH1 0x1F LT PUSH2 0x1222 JUMPI PUSH2 0x100 DUP1 DUP4 SLOAD DIV MUL DUP4 MSTORE SWAP2 PUSH1 0x20 ADD SWAP2 PUSH2 0x124D JUMP JUMPDEST DUP3 ADD SWAP2 SWAP1 PUSH1 0x0 MSTORE PUSH1 0x20 PUSH1 0x0 KECCAK256 SWAP1 JUMPDEST DUP2 SLOAD DUP2 MSTORE SWAP1 PUSH1 0x1 ADD SWAP1 PUSH1 0x20 ADD DUP1 DUP4 GT PUSH2 0x1230 JUMPI DUP3 SWAP1 SUB PUSH1 0x1F AND DUP3 ADD SWAP2 JUMPDEST POP POP POP POP POP DUP2 MSTORE PUSH1 0x20 ADD PUSH1 0x3 DUP3 ADD DUP1 SLOAD PUSH2 0x1266 SWAP1 PUSH2 0x7A57 JUMP JUMPDEST DUP1 PUSH1 0x1F ADD PUSH1 0x20 DUP1 SWAP2 DIV MUL PUSH1 0x20 ADD PUSH1 0x40 MLOAD SWAP1 DUP2 ADD PUSH1 0x40 MSTORE DUP1 SWAP3 SWAP2 SWAP1 DUP2 DUP2 MSTORE PUSH1 0x20 ADD DUP3 DUP1 SLOAD PUSH2 0x1292 SWAP1 PUSH2 0x7A57 JUMP JUMPDEST DUP1 ISZERO PUSH2 0x12DF JUMPI DUP1 PUSH1 0x1F LT PUSH2 0x12B4 JUMPI PUSH2 0x100 DUP1 DUP4 SLOAD DIV MUL DUP4 MSTORE SWAP2 PUSH1 0x20 ADD SWAP2 PUSH2 0x12DF JUMP JUMPDEST DUP3 ADD SWAP2 SWAP1 PUSH1 0x0 MSTORE PUSH1 0x20 PUSH1 0x0 KECCAK256 SWAP1 JUMPDEST DUP2 SLOAD DUP2 MSTORE SWAP1 PUSH1 0x1 ADD SWAP1 PUSH1 0x20 ADD DUP1 DUP4 GT PUSH2 0x12C2 JUMPI DUP3 SWAP1 SUB PUSH1 0x1F AND DUP3 ADD SWAP2 JUMPDEST POP POP POP POP POP DUP2 MSTORE PUSH1 0x20 ADD PUSH1 0x4 DUP3 ADD SLOAD DUP2 MSTORE PUSH1 0x20 ADD PUSH1 0x5 DUP3 ADD PUSH1 0x0 SWAP1 SLOAD SWAP1 PUSH2 0x100 EXP SWAP1 DIV PUSH1 0xFF AND PUSH1 0x2 DUP2 GT ISZERO PUSH2 0x1317 JUMPI PUSH2 0x1316 PUSH2 0x6D9D JUMP JUMPDEST JUMPDEST PUSH1 0x2 DUP2 GT ISZERO PUSH2 0x1329 JUMPI PUSH2 0x1328 PUSH2 0x6D9D JUMP JUMPDEST JUMPDEST DUP2 MSTORE PUSH1 0x20 ADD PUSH1 0x5 DUP3 ADD PUSH1 0x1 SWAP1 SLOAD SWAP1 PUSH2 0x100 EXP SWAP1 DIV PUSH1 0xFF AND ISZERO ISZERO ISZERO ISZERO DUP2 MSTORE POP POP SWAP1 POP PUSH2 0x135E PUSH8 0x7CB506E7D2F5739E PUSH1 0xC0 SHL PUSH2 0x5966 JUMP JUMPDEST PUSH2 0x1372 PUSH8 0x91E069AC071DCDE4 PUSH1 0xC0 SHL PUSH2 0x5966 JUMP JUMPDEST PUSH2 0x1386 PUSH8 0xB4CAEC0D29552C41 PUSH1 0xC0 SHL PUSH2 0x5966 JUMP JUMPDEST PUSH1 0x0 PUSH20 0xFFFFFFFFFFFFFFFFFFFFFFFFFFFFFFFFFFFFFFFF AND DUP2 PUSH1 0x0 ADD MLOAD PUSH20 0xFFFFFFFFFFFFFFFFFFFFFFFFFFFFFFFFFFFFFFFF AND SUB PUSH2 0x13F9 JUMPI PUSH1 0x40 MLOAD PUSH32 0x8C379A000000000000000000000000000000000000000000000000000000000 DUP2 MSTORE PUSH1 0x4 ADD PUSH2 0x13F0 SWAP1 PUSH2 0x7D62 JUMP JUMPDEST PUSH1 0x40 MLOAD DUP1 SWAP2 SUB SWAP1 REVERT JUMPDEST PUSH2 0x140D PUSH8 0xD473B299977421CA PUSH1 0xC0 SHL PUSH2 0x5966 JUMP JUMPDEST PUSH2 0x1421 PUSH8 0xBDBCA81DA9F41058 PUSH1 0xC0 SHL PUSH2 0x5966 JUMP JUMPDEST PUSH2 0x1435 PUSH8 0x64136FE38CED2BE8 PUSH1 0xC0 SHL PUSH2 0x5966 JUMP JUMPDEST PUSH2 0x1449 PUSH8 0xF4171BB8DEF47774 PUSH1 0xC0 SHL PUSH2 0x5966 JUMP JUMPDEST PUSH1 0x0 PUSH1 0x2 DUP2 GT ISZERO PUSH2 0x145D JUMPI PUSH2 0x145C PUSH2 0x6D9D JUMP JUMPDEST JUMPDEST DUP2 PUSH1 0xA0 ADD MLOAD PUSH1 0x2 DUP2 GT ISZERO PUSH2 0x1474 JUMPI PUSH2 0x1473 PUSH2 0x6D9D JUMP JUMPDEST JUMPDEST EQ PUSH2 0x14B4 JUMPI PUSH1 0x40 MLOAD PUSH32 0x8C379A000000000000000000000000000000000000000000000000000000000 DUP2 MSTORE PUSH1 0x4 ADD PUSH2 0x14AB SWAP1 PUSH2 0x7DCE JUMP JUMPDEST PUSH1 0x40 MLOAD DUP1 SWAP2 SUB SWAP1 REVERT JUMPDEST PUSH2 0x14C8 PUSH8 0x1A0965CE03AE4899 PUSH1 0xC0 SHL PUSH2 0x5966 JUMP JUMPDEST PUSH2 0x14DC PUSH8 0x370FB97832AE38A5 PUSH1 0xC0 SHL PUSH2 0x5966 JUMP JUMPDEST PUSH2 0x14F0 PUSH8 0x58F5AB8A7FAB54D PUSH1 0xC0 SHL PUSH2 0x5966 JUMP JUMPDEST PUSH2 0x1504 PUSH8 0x6ABB7A579EF44824 PUSH1 0xC0 SHL PUSH2 0x5966 JUMP JUMPDEST DUP1 PUSH1 0xC0 ADD MLOAD PUSH2 0x1548 JUMPI PUSH1 0x40 MLOAD PUSH32 0x8C379A000000000000000000000000000000000000000000000000000000000 DUP2 MSTORE PUSH1 0x4 ADD PUSH2 0x153F SWAP1 PUSH2 0x7E3A JUMP JUMPDEST PUSH1 0x40 MLOAD DUP1 SWAP2 SUB SWAP1 REVERT JUMPDEST PUSH2 0x155C PUSH8 0xF8D78306001730F9 PUSH1 0xC0 SHL PUSH2 0x5966 JUMP JUMPDEST PUSH2 0x1570 PUSH8 0xEDD26BE726A0B9AB PUSH1 0xC0 SHL PUSH2 0x5966 JUMP JUMPDEST PUSH2 0x1584 PUSH8 0xF42B8F7E8E347661 PUSH1 0xC0 SHL PUSH2 0x5966 JUMP JUMPDEST PUSH2 0x1598 PUSH8 0x3EB07F82BC65F85D PUSH1 0xC0 SHL PUSH2 0x5966 JUMP JUMPDEST PUSH1 0x0 PUSH20 0xFFFFFFFFFFFFFFFFFFFFFFFFFFFFFFFFFFFFFFFF AND DUP8 PUSH20 0xFFFFFFFFFFFFFFFFFFFFFFFFFFFFFFFFFFFFFFFF AND SUB PUSH2 0x1607 JUMPI PUSH1 0x40 MLOAD PUSH32 0x8C379A000000000000000000000000000000000000000000000000000000000 DUP2 MSTORE PUSH1 0x4 ADD PUSH2 0x15FE SWAP1 PUSH2 0x7EA6 JUMP JUMPDEST PUSH1 0x40 MLOAD DUP1 SWAP2 SUB SWAP1 REVERT JUMPDEST PUSH2 0x161B PUSH8 0x5F79BF21391FDA86 PUSH1 0xC0 SHL PUSH2 0x5966 JUMP JUMPDEST PUSH2 0x162F PUSH8 0xA5D9E0DF2863F086 PUSH1 0xC0 SHL PUSH2 0x5966 JUMP JUMPDEST PUSH2 0x1642 PUSH7 0x974390677C8B57 PUSH1 0xC0 SHL PUSH2 0x5966 JUMP JUMPDEST PUSH2 0x1656 PUSH8 0x34BEC01AF93463AE PUSH1 0xC0 SHL PUSH2 0x5966 JUMP JUMPDEST PUSH1 0x0 DUP1 SHL DUP9 SUB PUSH2 0x169B JUMPI PUSH1 0x40 MLOAD PUSH32 0x8C379A000000000000000000000000000000000000000000000000000000000 DUP2 MSTORE PUSH1 0x4 ADD PUSH2 0x1692 SWAP1 PUSH2 0x7F12 JUMP JUMPDEST PUSH1 0x40 MLOAD DUP1 SWAP2 SUB SWAP1 REVERT JUMPDEST PUSH2 0x16AF PUSH8 0xA145709A90A659F1 PUSH1 0xC0 SHL PUSH2 0x5966 JUMP JUMPDEST PUSH2 0x16C3 PUSH8 0xFB7F939B70979260 PUSH1 0xC0 SHL PUSH2 0x5966 JUMP JUMPDEST PUSH2 0x16D7 PUSH8 0x57B7D7EA463D5682 PUSH1 0xC0 SHL PUSH2 0x5966 JUMP JUMPDEST PUSH2 0x16EB PUSH8 0xE3C13F2E76B31725 PUSH1 0xC0 SHL PUSH2 0x5966 JUMP JUMPDEST PUSH1 0x9 PUSH1 0x0 DUP10 DUP2 MSTORE PUSH1 0x20 ADD SWAP1 DUP2 MSTORE PUSH1 0x20 ADD PUSH1 0x0 KECCAK256 PUSH1 0x0 SWAP1 SLOAD SWAP1 PUSH2 0x100 EXP SWAP1 DIV PUSH1 0xFF AND ISZERO PUSH2 0x174C JUMPI PUSH1 0x40 MLOAD PUSH32 0x8C379A000000000000000000000000000000000000000000000000000000000 DUP2 MSTORE PUSH1 0x4 ADD PUSH2 0x1743 SWAP1 PUSH2 0x7F7E JUMP JUMPDEST PUSH1 0x40 MLOAD DUP1 SWAP2 SUB SWAP1 REVERT JUMPDEST PUSH2 0x1760 PUSH8 0x7D304DDB20F4CA5E PUSH1 0xC0 SHL PUSH2 0x5966 JUMP JUMPDEST PUSH2 0x1774 PUSH8 0xA0FEBF5A21239FFF PUSH1 0xC0 SHL PUSH2 0x5966 JUMP JUMPDEST PUSH2 0x1788 PUSH8 0x60401342B6C8EB50 PUSH1 0xC0 SHL PUSH2 0x5966 JUMP JUMPDEST PUSH2 0x179C PUSH8 0x1F45EC3E637A8EA9 PUSH1 0xC0 SHL PUSH2 0x5966 JUMP JUMPDEST PUSH1 0x0 DUP6 MLOAD GT PUSH2 0x17E0 JUMPI PUSH1 0x40 MLOAD PUSH32 0x8C379A000000000000000000000000000000000000000000000000000000000 DUP2 MSTORE PUSH1 0x4 ADD PUSH2 0x17D7 SWAP1 PUSH2 0x7FEA JUMP JUMPDEST PUSH1 0x40 MLOAD DUP1 SWAP2 SUB SWAP1 REVERT JUMPDEST PUSH2 0x17F4 PUSH8 0x1E945686019A275B PUSH1 0xC0 SHL PUSH2 0x5966 JUMP JUMPDEST PUSH2 0x1808 PUSH8 0x6ADDFF413D3082D8 PUSH1 0xC0 SHL PUSH2 0x5966 JUMP JUMPDEST PUSH2 0x181C PUSH8 0x220F71A8F3AAF07A PUSH1 0xC0 SHL PUSH2 0x5966 JUMP JUMPDEST PUSH2 0x1830 PUSH8 0x649657E58712D4EE PUSH1 0xC0 SHL PUSH2 0x5966 JUMP JUMPDEST PUSH1 0x0 DUP5 EQ DUP1 ISZERO PUSH2 0x1850 JUMPI POP PUSH2 0x184F PUSH8 0x57838B54E8BDA95 PUSH1 0xC0 SHL PUSH2 0x5969 JUMP JUMPDEST JUMPDEST DUP1 PUSH2 0x1876 JUMPI POP TIMESTAMP DUP5 GT DUP1 ISZERO PUSH2 0x1875 JUMPI POP PUSH2 0x1874 PUSH8 0x3A96CBE13982C102 PUSH1 0xC0 SHL PUSH2 0x5969 JUMP JUMPDEST JUMPDEST JUMPDEST PUSH2 0x18B5 JUMPI PUSH1 0x40 MLOAD PUSH32 0x8C379A000000000000000000000000000000000000000000000000000000000 DUP2 MSTORE PUSH1 0x4 ADD PUSH2 0x18AC SWAP1 PUSH2 0x8056 JUMP JUMPDEST PUSH1 0x40 MLOAD DUP1 SWAP2 SUB SWAP1 REVERT JUMPDEST PUSH2 0x18C9 PUSH8 0x46A01A214E8D3FE0 PUSH1 0xC0 SHL PUSH2 0x5966 JUMP JUMPDEST PUSH2 0x18DD PUSH8 0x2319386483F00795 PUSH1 0xC0 SHL PUSH2 0x5966 JUMP JUMPDEST PUSH2 0x18F1 PUSH8 0x447C13C882F57A2B PUSH1 0xC0 SHL PUSH2 0x5966 JUMP JUMPDEST PUSH1 0x0 PUSH1 0x8 SLOAD SWAP1 POP PUSH2 0x190C PUSH8 0xE3FC67D02E6632F8 PUSH1 0xC0 SHL PUSH2 0x5966 JUMP JUMPDEST PUSH1 0x40 MLOAD DUP1 PUSH2 0x140 ADD PUSH1 0x40 MSTORE DUP1 DUP3 DUP2 MSTORE PUSH1 0x20 ADD DUP11 DUP2 MSTORE PUSH1 0x20 ADD CALLER PUSH20 0xFFFFFFFFFFFFFFFFFFFFFFFFFFFFFFFFFFFFFFFF AND DUP2 MSTORE PUSH1 0x20 ADD DUP10 PUSH20 0xFFFFFFFFFFFFFFFFFFFFFFFFFFFFFFFFFFFFFFFF AND DUP2 MSTORE PUSH1 0x20 ADD DUP9 PUSH1 0x5 DUP2 GT ISZERO PUSH2 0x196F JUMPI PUSH2 0x196E PUSH2 0x6D9D JUMP JUMPDEST JUMPDEST DUP2 MSTORE PUSH1 0x20 ADD DUP8 DUP2 MSTORE PUSH1 0x20 ADD TIMESTAMP DUP2 MSTORE PUSH1 0x20 ADD DUP7 DUP2 MSTORE PUSH1 0x20 ADD PUSH1 0x0 PUSH1 0x2 DUP2 GT ISZERO PUSH2 0x199A JUMPI PUSH2 0x1999 PUSH2 0x6D9D JUMP JUMPDEST JUMPDEST DUP2 MSTORE PUSH1 0x20 ADD DUP6 DUP2 MSTORE POP PUSH1 0xA PUSH1 0x0 DUP4 DUP2 MSTORE PUSH1 0x20 ADD SWAP1 DUP2 MSTORE PUSH1 0x20 ADD PUSH1 0x0 KECCAK256 PUSH1 0x0 DUP3 ADD MLOAD DUP2 PUSH1 0x0 ADD SSTORE PUSH1 0x20 DUP3 ADD MLOAD DUP2 PUSH1 0x1 ADD SSTORE PUSH1 0x40 DUP3 ADD MLOAD DUP2 PUSH1 0x2 ADD PUSH1 0x0 PUSH2 0x100 EXP DUP2 SLOAD DUP2 PUSH20 0xFFFFFFFFFFFFFFFFFFFFFFFFFFFFFFFFFFFFFFFF MUL NOT AND SWAP1 DUP4 PUSH20 0xFFFFFFFFFFFFFFFFFFFFFFFFFFFFFFFFFFFFFFFF AND MUL OR SWAP1 SSTORE POP PUSH1 0x60 DUP3 ADD MLOAD DUP2 PUSH1 0x3 ADD PUSH1 0x0 PUSH2 0x100 EXP DUP2 SLOAD DUP2 PUSH20 0xFFFFFFFFFFFFFFFFFFFFFFFFFFFFFFFFFFFFFFFF MUL NOT AND SWAP1 DUP4 PUSH20 0xFFFFFFFFFFFFFFFFFFFFFFFFFFFFFFFFFFFFFFFF AND MUL OR SWAP1 SSTORE POP PUSH1 0x80 DUP3 ADD MLOAD DUP2 PUSH1 0x3 ADD PUSH1 0x14 PUSH2 0x100 EXP DUP2 SLOAD DUP2 PUSH1 0xFF MUL NOT AND SWAP1 DUP4 PUSH1 0x5 DUP2 GT ISZERO PUSH2 0x1A83 JUMPI PUSH2 0x1A82 PUSH2 0x6D9D JUMP JUMPDEST JUMPDEST MUL OR SWAP1 SSTORE POP PUSH1 0xA0 DUP3 ADD MLOAD DUP2 PUSH1 0x4 ADD SWAP1 DUP2 PUSH2 0x1A9D SWAP2 SWAP1 PUSH2 0x8222 JUMP JUMPDEST POP PUSH1 0xC0 DUP3 ADD MLOAD DUP2 PUSH1 0x5 ADD SSTORE PUSH1 0xE0 DUP3 ADD MLOAD DUP2 PUSH1 0x6 ADD SSTORE PUSH2 0x100 DUP3 ADD MLOAD DUP2 PUSH1 0x7 ADD PUSH1 0x0 PUSH2 0x100 EXP DUP2 SLOAD DUP2 PUSH1 0xFF MUL NOT AND SWAP1 DUP4 PUSH1 0x2 DUP2 GT ISZERO PUSH2 0x1ADE JUMPI PUSH2 0x1ADD PUSH2 0x6D9D JUMP JUMPDEST JUMPDEST MUL OR SWAP1 SSTORE POP PUSH2 0x120 DUP3 ADD MLOAD DUP2 PUSH1 0x8 ADD SWAP1 DUP2 PUSH2 0x1AF9 SWAP2 SWAP1 PUSH2 0x8222 JUMP JUMPDEST POP SWAP1 POP POP PUSH2 0x1B11 PUSH8 0x26FBD90FBDB1FD09 PUSH1 0xC0 SHL PUSH2 0x5966 JUMP JUMPDEST PUSH1 0x1 PUSH1 0x9 PUSH1 0x0 DUP12 DUP2 MSTORE PUSH1 0x20 ADD SWAP1 DUP2 MSTORE PUSH1 0x20 ADD PUSH1 0x0 KECCAK256 PUSH1 0x0 PUSH2 0x100 EXP DUP2 SLOAD DUP2 PUSH1 0xFF MUL NOT AND SWAP1 DUP4 ISZERO ISZERO MUL OR SWAP1 SSTORE POP PUSH2 0x1B51 PUSH8 0x39F528932805FB85 PUSH1 0xC0 SHL PUSH2 0x5966 JUMP JUMPDEST DUP1 PUSH1 0xB PUSH1 0x0 DUP12 DUP2 MSTORE PUSH1 0x20 ADD SWAP1 DUP2 MSTORE PUSH1 0x20 ADD PUSH1 0x0 KECCAK256 DUP2 SWAP1 SSTORE POP PUSH2 0x1B7D PUSH8 0x5EDB2F6B6D689E32 PUSH1 0xC0 SHL PUSH2 0x5966 JUMP JUMPDEST PUSH2 0x1B91 PUSH8 0x155A0CC9E982F141 PUSH1 0xC0 SHL PUSH2 0x5966 JUMP JUMPDEST PUSH2 0x1B9B DUP9 DUP3 PUSH2 0x5974 JUMP JUMPDEST PUSH2 0x1BAF PUSH8 0xD6589064E49177E2 PUSH1 0xC0 SHL PUSH2 0x5966 JUMP JUMPDEST PUSH2 0x1BC3 PUSH8 0x7E34E1BB35B36688 PUSH1 0xC0 SHL PUSH2 0x5966 JUMP JUMPDEST PUSH2 0x1BCD DUP2 DUP6 PUSH2 0x5992 JUMP JUMPDEST PUSH2 0x1BE1 PUSH8 0xA79C8D85C78E104B PUSH1 0xC0 SHL PUSH2 0x5966 JUMP JUMPDEST PUSH2 0x1BF5 PUSH8 0xB9B53684FEA8ACEA PUSH1 0xC0 SHL PUSH2 0x5966 JUMP JUMPDEST PUSH1 0xF PUSH1 0x0 CALLER PUSH20 0xFFFFFFFFFFFFFFFFFFFFFFFFFFFFFFFFFFFFFFFF AND PUSH20 0xFFFFFFFFFFFFFFFFFFFFFFFFFFFFFFFFFFFFFFFF AND DUP2 MSTORE PUSH1 0x20 ADD SWAP1 DUP2 MSTORE PUSH1 0x20 ADD PUSH1 0x0 KECCAK256 DUP2 SWAP1 DUP1 PUSH1 0x1 DUP2 SLOAD ADD DUP1 DUP3 SSTORE DUP1 SWAP2 POP POP PUSH1 0x1 SWAP1 SUB SWAP1 PUSH1 0x0 MSTORE PUSH1 0x20 PUSH1 0x0 KECCAK256 ADD PUSH1 0x0 SWAP1 SWAP2 SWAP1 SWAP2 SWAP1 SWAP2 POP SSTORE PUSH2 0x1C6F PUSH8 0x5158D3501D51EA9E PUSH1 0xC0 SHL PUSH2 0x5966 JUMP JUMPDEST PUSH2 0x1C83 PUSH8 0x836801FEEEA1209D PUSH1 0xC0 SHL PUSH2 0x5966 JUMP JUMPDEST PUSH1 0x10 PUSH1 0x0 DUP10 PUSH20 0xFFFFFFFFFFFFFFFFFFFFFFFFFFFFFFFFFFFFFFFF AND PUSH20 0xFFFFFFFFFFFFFFFFFFFFFFFFFFFFFFFFFFFFFFFF AND DUP2 MSTORE PUSH1 0x20 ADD SWAP1 DUP2 MSTORE PUSH1 0x20 ADD PUSH1 0x0 KECCAK256 DUP2 SWAP1 DUP1 PUSH1 0x1 DUP2 SLOAD ADD DUP1 DUP3 SSTORE DUP1 SWAP2 POP POP PUSH1 0x1 SWAP1 SUB SWAP1 PUSH1 0x0 MSTORE PUSH1 0x20 PUSH1 0x0 KECCAK256 ADD PUSH1 0x0 SWAP1 SWAP2 SWAP1 SWAP2 SWAP1 SWAP2 POP SSTORE PUSH2 0x1CFD PUSH8 0x3BA24318247D55B3 PUSH1 0xC0 SHL PUSH2 0x5966 JUMP JUMPDEST PUSH2 0x1D11 PUSH8 0xF5E5E2005B9927A6 PUSH1 0xC0 SHL PUSH2 0x5966 JUMP JUMPDEST PUSH1 0x0 PUSH20 0xFFFFFFFFFFFFFFFFFFFFFFFFFFFFFFFFFFFFFFFF AND PUSH1 0xD PUSH1 0x0 DUP11 PUSH20 0xFFFFFFFFFFFFFFFFFFFFFFFFFFFFFFFFFFFFFFFF AND PUSH20 0xFFFFFFFFFFFFFFFFFFFFFFFFFFFFFFFFFFFFFFFF AND DUP2 MSTORE PUSH1 0x20 ADD SWAP1 DUP2 MSTORE PUSH1 0x20 ADD PUSH1 0x0 KECCAK256 PUSH1 0x0 ADD PUSH1 0x0 SWAP1 SLOAD SWAP1 PUSH2 0x100 EXP SWAP1 DIV PUSH20 0xFFFFFFFFFFFFFFFFFFFFFFFFFFFFFFFFFFFFFFFF AND PUSH20 0xFFFFFFFFFFFFFFFFFFFFFFFFFFFFFFFFFFFFFFFF AND SUB PUSH2 0x1EC8 JUMPI PUSH2 0x1DBB PUSH8 0x34492CEC947C468A PUSH1 0xC0 SHL PUSH2 0x5966 JUMP JUMPDEST PUSH2 0x1DCF PUSH8 0x28603E12D3D626E4 PUSH1 0xC0 SHL PUSH2 0x5966 JUMP JUMPDEST DUP8 PUSH1 0xD PUSH1 0x0 DUP11 PUSH20 0xFFFFFFFFFFFFFFFFFFFFFFFFFFFFFFFFFFFFFFFF AND PUSH20 0xFFFFFFFFFFFFFFFFFFFFFFFFFFFFFFFFFFFFFFFF AND DUP2 MSTORE PUSH1 0x20 ADD SWAP1 DUP2 MSTORE PUSH1 0x20 ADD PUSH1 0x0 KECCAK256 PUSH1 0x0 ADD PUSH1 0x0 PUSH2 0x100 EXP DUP2 SLOAD DUP2 PUSH20 0xFFFFFFFFFFFFFFFFFFFFFFFFFFFFFFFFFFFFFFFF MUL NOT AND SWAP1 DUP4 PUSH20 0xFFFFFFFFFFFFFFFFFFFFFFFFFFFFFFFFFFFFFFFF AND MUL OR SWAP1 SSTORE POP PUSH2 0x1E64 PUSH8 0xE4BAC4307F521EE1 PUSH1 0xC0 SHL PUSH2 0x5966 JUMP JUMPDEST PUSH1 0x40 MLOAD DUP1 PUSH1 0x20 ADD PUSH1 0x40 MSTORE DUP1 PUSH1 0x0 DUP2 MSTORE POP PUSH1 0xD PUSH1 0x0 DUP11 PUSH20 0xFFFFFFFFFFFFFFFFFFFFFFFFFFFFFFFFFFFFFFFF AND PUSH20 0xFFFFFFFFFFFFFFFFFFFFFFFFFFFFFFFFFFFFFFFF AND DUP2 MSTORE PUSH1 0x20 ADD SWAP1 DUP2 MSTORE PUSH1 0x20 ADD PUSH1 0x0 KECCAK256 PUSH1 0x1 ADD SWAP1 DUP2 PUSH2 0x1EC2 SWAP2 SWAP1 PUSH2 0x8222 JUMP JUMPDEST POP PUSH2 0x1EDD JUMP JUMPDEST PUSH2 0x1EDC PUSH8 0xB29CF3DD00CE99AC PUSH1 0xC0 SHL PUSH2 0x5966 JUMP JUMPDEST JUMPDEST PUSH2 0x1EF1 PUSH8 0xE070879011876FB7 PUSH1 0xC0 SHL PUSH2 0x5966 JUMP JUMPDEST PUSH2 0x1F05 PUSH8 0xBBDA15393B29C03F PUSH1 0xC0 SHL PUSH2 0x5966 JUMP JUMPDEST PUSH1 0xD PUSH1 0x0 DUP10 PUSH20 0xFFFFFFFFFFFFFFFFFFFFFFFFFFFFFFFFFFFFFFFF AND PUSH20 0xFFFFFFFFFFFFFFFFFFFFFFFFFFFFFFFFFFFFFFFF AND DUP2 MSTORE PUSH1 0x20 ADD SWAP1 DUP2 MSTORE PUSH1 0x20 ADD PUSH1 0x0 KECCAK256 PUSH1 0x2 ADD DUP2 SWAP1 DUP1 PUSH1 0x1 DUP2 SLOAD ADD DUP1 DUP3 SSTORE DUP1 SWAP2 POP POP PUSH1 0x1 SWAP1 SUB SWAP1 PUSH1 0x0 MSTORE PUSH1 0x20 PUSH1 0x0 KECCAK256 ADD PUSH1 0x0 SWAP1 SWAP2 SWAP1 SWAP2 SWAP1 SWAP2 POP SSTORE PUSH2 0x1F82 PUSH8 0x7D791F751F8A7912 PUSH1 0xC0 SHL PUSH2 0x5966 JUMP JUMPDEST PUSH1 0x1 PUSH1 0x8 PUSH1 0x0 DUP3 DUP3 SLOAD PUSH2 0x1F95 SWAP2 SWAP1 PUSH2 0x8323 JUMP JUMPDEST SWAP3 POP POP DUP2 SWAP1 SSTORE POP PUSH2 0x1FB0 PUSH8 0x606605F40D2FEA6D PUSH1 0xC0 SHL PUSH2 0x5966 JUMP JUMPDEST PUSH2 0x1FC4 PUSH8 0x14EEC00CF472C107 PUSH1 0xC0 SHL PUSH2 0x5966 JUMP JUMPDEST DUP8 PUSH20 0xFFFFFFFFFFFFFFFFFFFFFFFFFFFFFFFFFFFFFFFF AND DUP10 DUP3 PUSH32 0x5CD3483A845D61325922BE1E70BF5CD2FDA2DAA33669BB584AA69764D444EB58 CALLER PUSH1 0x40 MLOAD PUSH2 0x200C SWAP2 SWAP1 PUSH2 0x698E JUMP JUMPDEST PUSH1 0x40 MLOAD DUP1 SWAP2 SUB SWAP1 LOG4 PUSH2 0x2028 PUSH8 0x771CA8237D811CEC PUSH1 0xC0 SHL PUSH2 0x5966 JUMP JUMPDEST PUSH2 0x203C PUSH8 0x56C778A5C2705096 PUSH1 0xC0 SHL PUSH2 0x5966 JUMP JUMPDEST DUP1 SWAP3 POP POP POP SWAP7 SWAP6 POP POP POP POP POP POP JUMP JUMPDEST PUSH2 0x2066 DUP4 DUP4 DUP4 PUSH1 0x40 MLOAD DUP1 PUSH1 0x20 ADD PUSH1 0x40 MSTORE DUP1 PUSH1 0x0 DUP2 MSTORE POP PUSH2 0x430A JUMP JUMPDEST POP POP POP JUMP JUMPDEST PUSH1 0x0 PUSH2 0x2081 PUSH8 0x3F425D9B3FD1C538 PUSH1 0xC0 SHL PUSH2 0x5966 JUMP JUMPDEST DUP2 PUSH2 0x2096 PUSH8 0xA9429C4C31AEA92A PUSH1 0xC0 SHL PUSH2 0x5966 JUMP JUMPDEST PUSH2 0x20AA PUSH8 0xAE8AEDDE8CA5578A PUSH1 0xC0 SHL PUSH2 0x5966 JUMP JUMPDEST PUSH2 0x20BE PUSH8 0xD5E12970A5510212 PUSH1 0xC0 SHL PUSH2 0x5966 JUMP JUMPDEST PUSH2 0x20D2 PUSH8 0x522FC24560608AC2 PUSH1 0xC0 SHL PUSH2 0x5966 JUMP JUMPDEST PUSH1 0x0 PUSH1 0xA PUSH1 0x0 DUP4 DUP2 MSTORE PUSH1 0x20 ADD SWAP1 DUP2 MSTORE PUSH1 0x20 ADD PUSH1 0x0 KECCAK256 PUSH1 0x0 ADD SLOAD SUB PUSH2 0x212B JUMPI PUSH1 0x40 MLOAD PUSH32 0x8C379A000000000000000000000000000000000000000000000000000000000 DUP2 MSTORE PUSH1 0x4 ADD PUSH2 0x2122 SWAP1 PUSH2 0x7C8A JUMP JUMPDEST PUSH1 0x40 MLOAD DUP1 SWAP2 SUB SWAP1 REVERT JUMPDEST PUSH2 0x213F PUSH8 0x88D531B5375B9F7F PUSH1 0xC0 SHL PUSH2 0x5966 JUMP JUMPDEST PUSH2 0x2153 PUSH8 0xDA12B9DF51DC3678 PUSH1 0xC0 SHL PUSH2 0x5966 JUMP JUMPDEST PUSH2 0x2167 PUSH8 0x2AB3B267B1BD3476 PUSH1 0xC0 SHL PUSH2 0x5966 JUMP JUMPDEST PUSH2 0x217B PUSH8 0xA915329F14C0B259 PUSH1 0xC0 SHL PUSH2 0x5966 JUMP JUMPDEST PUSH2 0x218F PUSH8 0xCE4EDCDE208A51E1 PUSH1 0xC0 SHL PUSH2 0x5966 JUMP JUMPDEST PUSH2 0x21A3 PUSH8 0x684B4EC27D14FB6A PUSH1 0xC0 SHL PUSH2 0x5966 JUMP JUMPDEST PUSH1 0x0 PUSH2 0x21AE DUP5 PUSH2 0x2278 JUMP JUMPDEST SWAP1 POP PUSH2 0x21C4 PUSH8 0xD5C52430C9551FEE PUSH1 0xC0 SHL PUSH2 0x5966 JUMP JUMPDEST PUSH2 0x21D8 PUSH8 0x814965C1A3EA1E2D PUSH1 0xC0 SHL PUSH2 0x5966 JUMP JUMPDEST PUSH1 0x0 PUSH2 0x21E3 DUP3 PUSH2 0x5A36 JUMP JUMPDEST SWAP1 POP PUSH2 0x21F9 PUSH8 0xA0A3C0F5EC49ED2E PUSH1 0xC0 SHL PUSH2 0x5966 JUMP JUMPDEST PUSH2 0x220D PUSH8 0x73896113FB4D4B92 PUSH1 0xC0 SHL PUSH2 0x5966 JUMP JUMPDEST DUP5 PUSH32 0xD7C96D6FC66839B1626CFF5F8ECCBACFA07B17981E577E09F16310F5FCA240A8 CALLER PUSH1 0x40 MLOAD PUSH2 0x223D SWAP2 SWAP1 PUSH2 0x698E JUMP JUMPDEST PUSH1 0x40 MLOAD DUP1 SWAP2 SUB SWAP1 LOG2 PUSH2 0x2259 PUSH8 0xD9307BD13EFB8FB1 PUSH1 0xC0 SHL PUSH2 0x5966 JUMP JUMPDEST PUSH2 0x226D PUSH8 0x950E3806780B729B PUSH1 0xC0 SHL PUSH2 0x5966 JUMP JUMPDEST DUP1 SWAP4 POP POP POP POP SWAP2 SWAP1 POP JUMP JUMPDEST PUSH2 0x2280 PUSH2 0x65E7 JUMP JUMPDEST PUSH2 0x2294 PUSH8 0xEA1307A17CFD2C5F PUSH1 0xC0 SHL PUSH2 0x5966 JUMP JUMPDEST DUP2 PUSH2 0x22A9 PUSH8 0xA9429C4C31AEA92A PUSH1 0xC0 SHL PUSH2 0x5966 JUMP JUMPDEST PUSH2 0x22BD PUSH8 0xAE8AEDDE8CA5578A PUSH1 0xC0 SHL PUSH2 0x5966 JUMP JUMPDEST PUSH2 0x22D1 PUSH8 0xD5E12970A5510212 PUSH1 0xC0 SHL PUSH2 0x5966 JUMP JUMPDEST PUSH2 0x22E5 PUSH8 0x522FC24560608AC2 PUSH1 0xC0 SHL PUSH2 0x5966 JUMP JUMPDEST PUSH1 0x0 PUSH1 0xA PUSH1 0x0 DUP4 DUP2 MSTORE PUSH1 0x20 ADD SWAP1 DUP2 MSTORE PUSH1 0x20 ADD PUSH1 0x0 KECCAK256 PUSH1 0x0 ADD SLOAD SUB PUSH2 0x233E JUMPI PUSH1 0x40 MLOAD PUSH32 0x8C379A000000000000000000000000000000000000000000000000000000000 DUP2 MSTORE PUSH1 0x4 ADD PUSH2 0x2335 SWAP1 PUSH2 0x7C8A JUMP JUMPDEST PUSH1 0x40 MLOAD DUP1 SWAP2 SUB SWAP1 REVERT JUMPDEST PUSH2 0x2352 PUSH8 0x88D531B5375B9F7F PUSH1 0xC0 SHL PUSH2 0x5966 JUMP JUMPDEST PUSH2 0x2366 PUSH8 0xDA12B9DF51DC3678 PUSH1 0xC0 SHL PUSH2 0x5966 JUMP JUMPDEST PUSH2 0x237A PUSH8 0x7289A9D4435AF435 PUSH1 0xC0 SHL PUSH2 0x5966 JUMP JUMPDEST PUSH2 0x238E PUSH8 0x3586C1BD04E306B3 PUSH1 0xC0 SHL PUSH2 0x5966 JUMP JUMPDEST PUSH2 0x23A2 PUSH8 0x3675216FD887DC80 PUSH1 0xC0 SHL PUSH2 0x5966 JUMP JUMPDEST PUSH2 0x23B6 PUSH8 0xCF6CF2F5A12ECD9 PUSH1 0xC0 SHL PUSH2 0x5966 JUMP JUMPDEST PUSH1 0x0 PUSH1 0xA PUSH1 0x0 DUP6 DUP2 MSTORE PUSH1 0x20 ADD SWAP1 DUP2 MSTORE PUSH1 0x20 ADD PUSH1 0x0 KECCAK256 PUSH1 0x40 MLOAD DUP1 PUSH2 0x140 ADD PUSH1 0x40 MSTORE SWAP1 DUP2 PUSH1 0x0 DUP3 ADD SLOAD DUP2 MSTORE PUSH1 0x20 ADD PUSH1 0x1 DUP3 ADD SLOAD DUP2 MSTORE PUSH1 0x20 ADD PUSH1 0x2 DUP3 ADD PUSH1 0x0 SWAP1 SLOAD SWAP1 PUSH2 0x100 EXP SWAP1 DIV PUSH20 0xFFFFFFFFFFFFFFFFFFFFFFFFFFFFFFFFFFFFFFFF AND PUSH20 0xFFFFFFFFFFFFFFFFFFFFFFFFFFFFFFFFFFFFFFFF AND PUSH20 0xFFFFFFFFFFFFFFFFFFFFFFFFFFFFFFFFFFFFFFFF AND DUP2 MSTORE PUSH1 0x20 ADD PUSH1 0x3 DUP3 ADD PUSH1 0x0 SWAP1 SLOAD SWAP1 PUSH2 0x100 EXP SWAP1 DIV PUSH20 0xFFFFFFFFFFFFFFFFFFFFFFFFFFFFFFFFFFFFFFFF AND PUSH20 0xFFFFFFFFFFFFFFFFFFFFFFFFFFFFFFFFFFFFFFFF AND PUSH20 0xFFFFFFFFFFFFFFFFFFFFFFFFFFFFFFFFFFFFFFFF AND DUP2 MSTORE PUSH1 0x20 ADD PUSH1 0x3 DUP3 ADD PUSH1 0x14 SWAP1 SLOAD SWAP1 PUSH2 0x100 EXP SWAP1 DIV PUSH1 0xFF AND PUSH1 0x5 DUP2 GT ISZERO PUSH2 0x24BC JUMPI PUSH2 0x24BB PUSH2 0x6D9D JUMP JUMPDEST JUMPDEST PUSH1 0x5 DUP2 GT ISZERO PUSH2 0x24CE JUMPI PUSH2 0x24CD PUSH2 0x6D9D JUMP JUMPDEST JUMPDEST DUP2 MSTORE PUSH1 0x20 ADD PUSH1 0x4 DUP3 ADD DUP1 SLOAD PUSH2 0x24E2 SWAP1 PUSH2 0x7A57 JUMP JUMPDEST DUP1 PUSH1 0x1F ADD PUSH1 0x20 DUP1 SWAP2 DIV MUL PUSH1 0x20 ADD PUSH1 0x40 MLOAD SWAP1 DUP2 ADD PUSH1 0x40 MSTORE DUP1 SWAP3 SWAP2 SWAP1 DUP2 DUP2 MSTORE PUSH1 0x20 ADD DUP3 DUP1 SLOAD PUSH2 0x250E SWAP1 PUSH2 0x7A57 JUMP JUMPDEST DUP1 ISZERO PUSH2 0x255B JUMPI DUP1 PUSH1 0x1F LT PUSH2 0x2530 JUMPI PUSH2 0x100 DUP1 DUP4 SLOAD DIV MUL DUP4 MSTORE SWAP2 PUSH1 0x20 ADD SWAP2 PUSH2 0x255B JUMP JUMPDEST DUP3 ADD SWAP2 SWAP1 PUSH1 0x0 MSTORE PUSH1 0x20 PUSH1 0x0 KECCAK256 SWAP1 JUMPDEST DUP2 SLOAD DUP2 MSTORE SWAP1 PUSH1 0x1 ADD SWAP1 PUSH1 0x20 ADD DUP1 DUP4 GT PUSH2 0x253E JUMPI DUP3 SWAP1 SUB PUSH1 0x1F AND DUP3 ADD SWAP2 JUMPDEST POP POP POP POP POP DUP2 MSTORE PUSH1 0x20 ADD PUSH1 0x5 DUP3 ADD SLOAD DUP2 MSTORE PUSH1 0x20 ADD PUSH1 0x6 DUP3 ADD SLOAD DUP2 MSTORE PUSH1 0x20 ADD PUSH1 0x7 DUP3 ADD PUSH1 0x0 SWAP1 SLOAD SWAP1 PUSH2 0x100 EXP SWAP1 DIV PUSH1 0xFF AND PUSH1 0x2 DUP2 GT ISZERO PUSH2 0x259D JUMPI PUSH2 0x259C PUSH2 0x6D9D JUMP JUMPDEST JUMPDEST PUSH1 0x2 DUP2 GT ISZERO PUSH2 0x25AF JUMPI PUSH2 0x25AE PUSH2 0x6D9D JUMP JUMPDEST JUMPDEST DUP2 MSTORE PUSH1 0x20 ADD PUSH1 0x8 DUP3 ADD DUP1 SLOAD PUSH2 0x25C3 SWAP1 PUSH2 0x7A57 JUMP JUMPDEST DUP1 PUSH1 0x1F ADD PUSH1 0x20 DUP1 SWAP2 DIV MUL PUSH1 0x20 ADD PUSH1 0x40 MLOAD SWAP1 DUP2 ADD PUSH1 0x40 MSTORE DUP1 SWAP3 SWAP2 SWAP1 DUP2 DUP2 MSTORE PUSH1 0x20 ADD DUP3 DUP1 SLOAD PUSH2 0x25EF SWAP1 PUSH2 0x7A57 JUMP JUMPDEST DUP1 ISZERO PUSH2 0x263C JUMPI DUP1 PUSH1 0x1F LT PUSH2 0x2611 JUMPI PUSH2 0x100 DUP1 DUP4 SLOAD DIV MUL DUP4 MSTORE SWAP2 PUSH1 0x20 ADD SWAP2 PUSH2 0x263C JUMP JUMPDEST DUP3 ADD SWAP2 SWAP1 PUSH1 0x0 MSTORE PUSH1 0x20 PUSH1 0x0 KECCAK256 SWAP1 JUMPDEST DUP2 SLOAD DUP2 MSTORE SWAP1 PUSH1 0x1 ADD SWAP1 PUSH1 0x20 ADD DUP1 DUP4 GT PUSH2 0x261F JUMPI DUP3 SWAP1 SUB PUSH1 0x1F AND DUP3 ADD SWAP2 JUMPDEST POP POP POP POP POP DUP2 MSTORE POP POP SWAP1 POP PUSH2 0x265B PUSH8 0xF7E51B4469BD6E7E PUSH1 0xC0 SHL PUSH2 0x5966 JUMP JUMPDEST PUSH2 0x2664 DUP2 PUSH2 0x5AD1 JUMP JUMPDEST DUP2 PUSH2 0x100 ADD SWAP1 PUSH1 0x2 DUP2 GT ISZERO PUSH2 0x267C JUMPI PUSH2 0x267B PUSH2 0x6D9D JUMP JUMPDEST JUMPDEST SWAP1 DUP2 PUSH1 0x2 DUP2 GT ISZERO PUSH2 0x2690 JUMPI PUSH2 0x268F PUSH2 0x6D9D JUMP JUMPDEST JUMPDEST DUP2 MSTORE POP POP PUSH2 0x26A8 PUSH8 0x42886B54AFD37A56 PUSH1 0xC0 SHL PUSH2 0x5966 JUMP JUMPDEST PUSH2 0x26BC PUSH8 0x37E1D4E78B076462 PUSH1 0xC0 SHL PUSH2 0x5966 JUMP JUMPDEST DUP1 SWAP3 POP POP POP SWAP2 SWAP1 POP JUMP JUMPDEST PUSH2 0x26DA PUSH8 0x635CB82DFA4CB38C PUSH1 0xC0 SHL PUSH2 0x5966 JUMP JUMPDEST PUSH2 0x26EE PUSH8 0xA990F19939B89B78 PUSH1 0xC0 SHL PUSH2 0x5966 JUMP JUMPDEST PUSH2 0x2702 PUSH8 0x37229FCD49615B80 PUSH1 0xC0 SHL PUSH2 0x5966 JUMP JUMPDEST PUSH2 0x2716 PUSH8 0x7E02FC2CBC85C15C PUSH1 0xC0 SHL PUSH2 0x5966 JUMP JUMPDEST PUSH2 0x272A PUSH8 0x7297B57ABDE5062 PUSH1 0xC0 SHL PUSH2 0x5966 JUMP JUMPDEST PUSH1 0x7 PUSH1 0x0 SWAP1 SLOAD SWAP1 PUSH2 0x100 EXP SWAP1 DIV PUSH20 0xFFFFFFFFFFFFFFFFFFFFFFFFFFFFFFFFFFFFFFFF AND PUSH20 0xFFFFFFFFFFFFFFFFFFFFFFFFFFFFFFFFFFFFFFFF AND CALLER PUSH20 0xFFFFFFFFFFFFFFFFFFFFFFFFFFFFFFFFFFFFFFFF AND EQ PUSH2 0x27BA JUMPI PUSH1 0x40 MLOAD PUSH32 0x8C379A000000000000000000000000000000000000000000000000000000000 DUP2 MSTORE PUSH1 0x4 ADD PUSH2 0x27B1 SWAP1 PUSH2 0x83A3 JUMP JUMPDEST PUSH1 0x40 MLOAD DUP1 SWAP2 SUB SWAP1 REVERT JUMPDEST PUSH2 0x27CE PUSH8 0x167C98F87015725E PUSH1 0xC0 SHL PUSH2 0x5966 JUMP JUMPDEST PUSH2 0x27E2 PUSH8 0xF7A8F321F64F4E82 PUSH1 0xC0 SHL PUSH2 0x5966 JUMP JUMPDEST PUSH2 0x27F6 PUSH8 0xDC2C54D13ED556D3 PUSH1 0xC0 SHL PUSH2 0x5966 JUMP JUMPDEST PUSH2 0x280A PUSH8 0x7E9A6C1F100352F5 PUSH1 0xC0 SHL PUSH2 0x5966 JUMP JUMPDEST PUSH2 0x281E PUSH8 0xD8BC4C8E6C89F759 PUSH1 0xC0 SHL PUSH2 0x5966 JUMP JUMPDEST PUSH2 0x2831 PUSH7 0xE38C0623BE0718 PUSH1 0xC0 SHL PUSH2 0x5966 JUMP JUMPDEST PUSH1 0x0 PUSH1 0xC PUSH1 0x0 DUP4 PUSH20 0xFFFFFFFFFFFFFFFFFFFFFFFFFFFFFFFFFFFFFFFF AND PUSH20 0xFFFFFFFFFFFFFFFFFFFFFFFFFFFFFFFFFFFFFFFF AND DUP2 MSTORE PUSH1 0x20 ADD SWAP1 DUP2 MSTORE PUSH1 0x20 ADD PUSH1 0x0 KECCAK256 SWAP1 POP PUSH2 0x2888 PUSH8 0x9FEB6571A97996C4 PUSH1 0xC0 SHL PUSH2 0x5966 JUMP JUMPDEST PUSH2 0x289B PUSH7 0x58E47A5BA19826 PUSH1 0xC0 SHL PUSH2 0x5966 JUMP JUMPDEST PUSH2 0x28AF PUSH8 0xEF81EE079542A824 PUSH1 0xC0 SHL PUSH2 0x5966 JUMP JUMPDEST PUSH1 0x0 PUSH20 0xFFFFFFFFFFFFFFFFFFFFFFFFFFFFFFFFFFFFFFFF AND DUP2 PUSH1 0x0 ADD PUSH1 0x0 SWAP1 SLOAD SWAP1 PUSH2 0x100 EXP SWAP1 DIV PUSH20 0xFFFFFFFFFFFFFFFFFFFFFFFFFFFFFFFFFFFFFFFF AND PUSH20 0xFFFFFFFFFFFFFFFFFFFFFFFFFFFFFFFFFFFFFFFF AND SUB PUSH2 0x2942 JUMPI PUSH1 0x40 MLOAD PUSH32 0x8C379A000000000000000000000000000000000000000000000000000000000 DUP2 MSTORE PUSH1 0x4 ADD PUSH2 0x2939 SWAP1 PUSH2 0x7D62 JUMP JUMPDEST PUSH1 0x40 MLOAD DUP1 SWAP2 SUB SWAP1 REVERT JUMPDEST PUSH2 0x2956 PUSH8 0x6A947A01581CAEB8 PUSH1 0xC0 SHL PUSH2 0x5966 JUMP JUMPDEST PUSH2 0x296A PUSH8 0x3E594EC38D1DB6DF PUSH1 0xC0 SHL PUSH2 0x5966 JUMP JUMPDEST PUSH2 0x297E PUSH8 0x3D6D0AE81CEF05BB PUSH1 0xC0 SHL PUSH2 0x5966 JUMP JUMPDEST PUSH2 0x2992 PUSH8 0xC650E33A6936444 PUSH1 0xC0 SHL PUSH2 0x5966 JUMP JUMPDEST PUSH1 0x0 PUSH1 0x2 DUP2 GT ISZERO PUSH2 0x29A6 JUMPI PUSH2 0x29A5 PUSH2 0x6D9D JUMP JUMPDEST JUMPDEST DUP2 PUSH1 0x5 ADD PUSH1 0x0 SWAP1 SLOAD SWAP1 PUSH2 0x100 EXP SWAP1 DIV PUSH1 0xFF AND PUSH1 0x2 DUP2 GT ISZERO PUSH2 0x29CA JUMPI PUSH2 0x29C9 PUSH2 0x6D9D JUMP JUMPDEST JUMPDEST EQ PUSH2 0x2A0A JUMPI PUSH1 0x40 MLOAD PUSH32 0x8C379A000000000000000000000000000000000000000000000000000000000 DUP2 MSTORE PUSH1 0x4 ADD PUSH2 0x2A01 SWAP1 PUSH2 0x7DCE JUMP JUMPDEST PUSH1 0x40 MLOAD DUP1 SWAP2 SUB SWAP1 REVERT JUMPDEST PUSH2 0x2A1E PUSH8 0xF1EFB79A451A790C PUSH1 0xC0 SHL PUSH2 0x5966 JUMP JUMPDEST PUSH2 0x2A32 PUSH8 0x9D22A70863B344B3 PUSH1 0xC0 SHL PUSH2 0x5966 JUMP JUMPDEST PUSH1 0x1 DUP2 PUSH1 0x5 ADD PUSH1 0x1 PUSH2 0x100 EXP DUP2 SLOAD DUP2 PUSH1 0xFF MUL NOT AND SWAP1 DUP4 ISZERO ISZERO MUL OR SWAP1 SSTORE POP PUSH2 0x2A63 PUSH8 0x6C4E838E4BC7B2E8 PUSH1 0xC0 SHL PUSH2 0x5966 JUMP JUMPDEST PUSH2 0x2A77 PUSH8 0xA4DA2890FB19ABCC PUSH1 0xC0 SHL PUSH2 0x5966 JUMP JUMPDEST DUP2 PUSH20 0xFFFFFFFFFFFFFFFFFFFFFFFFFFFFFFFFFFFFFFFF AND PUSH32 0x9CCA3A5E0AA799CA2019CF1C56FFAC790A8440945B75295DB5CDFFB2F7284BE2 PUSH1 0x40 MLOAD PUSH1 0x40 MLOAD DUP1 SWAP2 SUB SWAP1 LOG2 POP POP JUMP JUMPDEST PUSH2 0x2AC6 PUSH2 0x668D JUMP JUMPDEST PUSH2 0x2ADA PUSH8 0x77CADAE0698B8CC8 PUSH1 0xC0 SHL PUSH2 0x5966 JUMP JUMPDEST PUSH2 0x2AEE PUSH8 0xC7DDF72ABEA5266E PUSH1 0xC0 SHL PUSH2 0x5966 JUMP JUMPDEST PUSH2 0x2B02 PUSH8 0xB18C9D1A03C4E966 PUSH1 0xC0 SHL PUSH2 0x5966 JUMP JUMPDEST PUSH2 0x2B16 PUSH8 0xDD550CDF57E999A1 PUSH1 0xC0 SHL PUSH2 0x5966 JUMP JUMPDEST PUSH1 0x0 PUSH20 0xFFFFFFFFFFFFFFFFFFFFFFFFFFFFFFFFFFFFFFFF AND PUSH1 0xD PUSH1 0x0 DUP5 PUSH20 0xFFFFFFFFFFFFFFFFFFFFFFFFFFFFFFFFFFFFFFFF AND PUSH20 0xFFFFFFFFFFFFFFFFFFFFFFFFFFFFFFFFFFFFFFFF AND DUP2 MSTORE PUSH1 0x20 ADD SWAP1 DUP2 MSTORE PUSH1 0x20 ADD PUSH1 0x0 KECCAK256 PUSH1 0x0 ADD PUSH1 0x0 SWAP1 SLOAD SWAP1 PUSH2 0x100 EXP SWAP1 DIV PUSH20 0xFFFFFFFFFFFFFFFFFFFFFFFFFFFFFFFFFFFFFFFF AND PUSH20 0xFFFFFFFFFFFFFFFFFFFFFFFFFFFFFFFFFFFFFFFF AND SUB PUSH2 0x2BE7 JUMPI PUSH1 0x40 MLOAD PUSH32 0x8C379A000000000000000000000000000000000000000000000000000000000 DUP2 MSTORE PUSH1 0x4 ADD PUSH2 0x2BDE SWAP1 PUSH2 0x840F JUMP JUMPDEST PUSH1 0x40 MLOAD DUP1 SWAP2 SUB SWAP1 REVERT JUMPDEST PUSH2 0x2BFB PUSH8 0x4F48B3CAECDF4D57 PUSH1 0xC0 SHL PUSH2 0x5966 JUMP JUMPDEST PUSH2 0x2C0F PUSH8 0x29248703E7B635EF PUSH1 0xC0 SHL PUSH2 0x5966 JUMP JUMPDEST PUSH2 0x2C23 PUSH8 0x305B727BFE47CFF PUSH1 0xC0 SHL PUSH2 0x5966 JUMP JUMPDEST PUSH1 0xD PUSH1 0x0 DUP4 PUSH20 0xFFFFFFFFFFFFFFFFFFFFFFFFFFFFFFFFFFFFFFFF AND PUSH20 0xFFFFFFFFFFFFFFFFFFFFFFFFFFFFFFFFFFFFFFFF AND DUP2 MSTORE PUSH1 0x20 ADD SWAP1 DUP2 MSTORE PUSH1 0x20 ADD PUSH1 0x0 KECCAK256 PUSH1 0x40 MLOAD DUP1 PUSH1 0x60 ADD PUSH1 0x40 MSTORE SWAP1 DUP2 PUSH1 0x0 DUP3 ADD PUSH1 0x0 SWAP1 SLOAD SWAP1 PUSH2 0x100 EXP SWAP1 DIV PUSH20 0xFFFFFFFFFFFFFFFFFFFFFFFFFFFFFFFFFFFFFFFF AND PUSH20 0xFFFFFFFFFFFFFFFFFFFFFFFFFFFFFFFFFFFFFFFF AND PUSH20 0xFFFFFFFFFFFFFFFFFFFFFFFFFFFFFFFFFFFFFFFF AND DUP2 MSTORE PUSH1 0x20 ADD PUSH1 0x1 DUP3 ADD DUP1 SLOAD PUSH2 0x2CD3 SWAP1 PUSH2 0x7A57 JUMP JUMPDEST DUP1 PUSH1 0x1F ADD PUSH1 0x20 DUP1 SWAP2 DIV MUL PUSH1 0x20 ADD PUSH1 0x40 MLOAD SWAP1 DUP2 ADD PUSH1 0x40 MSTORE DUP1 SWAP3 SWAP2 SWAP1 DUP2 DUP2 MSTORE PUSH1 0x20 ADD DUP3 DUP1 SLOAD PUSH2 0x2CFF SWAP1 PUSH2 0x7A57 JUMP JUMPDEST DUP1 ISZERO PUSH2 0x2D4C JUMPI DUP1 PUSH1 0x1F LT PUSH2 0x2D21 JUMPI PUSH2 0x100 DUP1 DUP4 SLOAD DIV MUL DUP4 MSTORE SWAP2 PUSH1 0x20 ADD SWAP2 PUSH2 0x2D4C JUMP JUMPDEST DUP3 ADD SWAP2 SWAP1 PUSH1 0x0 MSTORE PUSH1 0x20 PUSH1 0x0 KECCAK256 SWAP1 JUMPDEST DUP2 SLOAD DUP2 MSTORE SWAP1 PUSH1 0x1 ADD SWAP1 PUSH1 0x20 ADD DUP1 DUP4 GT PUSH2 0x2D2F JUMPI DUP3 SWAP1 SUB PUSH1 0x1F AND DUP3 ADD SWAP2 JUMPDEST POP POP POP POP POP DUP2 MSTORE PUSH1 0x20 ADD PUSH1 0x2 DUP3 ADD DUP1 SLOAD DUP1 PUSH1 0x20 MUL PUSH1 0x20 ADD PUSH1 0x40 MLOAD SWAP1 DUP2 ADD PUSH1 0x40 MSTORE DUP1 SWAP3 SWAP2 SWAP1 DUP2 DUP2 MSTORE PUSH1 0x20 ADD DUP3 DUP1 SLOAD DUP1 ISZERO PUSH2 0x2DA4 JUMPI PUSH1 0x20 MUL DUP3 ADD SWAP2 SWAP1 PUSH1 0x0 MSTORE PUSH1 0x20 PUSH1 0x0 KECCAK256 SWAP1 JUMPDEST DUP2 SLOAD DUP2 MSTORE PUSH1 0x20 ADD SWAP1 PUSH1 0x1 ADD SWAP1 DUP1 DUP4 GT PUSH2 0x2D90 JUMPI JUMPDEST POP POP POP POP POP DUP2 MSTORE POP POP SWAP1 POP SWAP2 SWAP1 POP JUMP JUMPDEST PUSH1 0x0 DUP1 PUSH2 0x2DC0 DUP4 PUSH2 0x5C69 JUMP JUMPDEST SWAP1 POP PUSH1 0x0 PUSH20 0xFFFFFFFFFFFFFFFFFFFFFFFFFFFFFFFFFFFFFFFF AND DUP2 PUSH20 0xFFFFFFFFFFFFFFFFFFFFFFFFFFFFFFFFFFFFFFFF AND SUB PUSH2 0x2E31 JUMPI PUSH1 0x40 MLOAD PUSH32 0x8C379A000000000000000000000000000000000000000000000000000000000 DUP2 MSTORE PUSH1 0x4 ADD PUSH2 0x2E28 SWAP1 PUSH2 0x847B JUMP JUMPDEST PUSH1 0x40 MLOAD DUP1 SWAP2 SUB SWAP1 REVERT JUMPDEST DUP1 SWAP2 POP POP SWAP2 SWAP1 POP JUMP JUMPDEST PUSH1 0x0 DUP1 PUSH20 0xFFFFFFFFFFFFFFFFFFFFFFFFFFFFFFFFFFFFFFFF AND DUP3 PUSH20 0xFFFFFFFFFFFFFFFFFFFFFFFFFFFFFFFFFFFFFFFF AND SUB PUSH2 0x2EAA JUMPI PUSH1 0x40 MLOAD PUSH32 0x8C379A000000000000000000000000000000000000000000000000000000000 DUP2 MSTORE PUSH1 0x4 ADD PUSH2 0x2EA1 SWAP1 PUSH2 0x850D JUMP JUMPDEST PUSH1 0x40 MLOAD DUP1 SWAP2 SUB SWAP1 REVERT JUMPDEST PUSH1 0x3 PUSH1 0x0 DUP4 PUSH20 0xFFFFFFFFFFFFFFFFFFFFFFFFFFFFFFFFFFFFFFFF AND PUSH20 0xFFFFFFFFFFFFFFFFFFFFFFFFFFFFFFFFFFFFFFFF AND DUP2 MSTORE PUSH1 0x20 ADD SWAP1 DUP2 MSTORE PUSH1 0x20 ADD PUSH1 0x0 KECCAK256 SLOAD SWAP1 POP SWAP2 SWAP1 POP JUMP JUMPDEST PUSH1 0x10 PUSH1 0x20 MSTORE DUP2 PUSH1 0x0 MSTORE PUSH1 0x40 PUSH1 0x0 KECCAK256 DUP2 DUP2 SLOAD DUP2 LT PUSH2 0x2F0D JUMPI PUSH1 0x0 DUP1 REVERT JUMPDEST SWAP1 PUSH1 0x0 MSTORE PUSH1 0x20 PUSH1 0x0 KECCAK256 ADD PUSH1 0x0 SWAP2 POP SWAP2 POP POP SLOAD DUP2 JUMP JUMPDEST PUSH1 0x60 PUSH2 0x2F38 PUSH8 0x6AF7E74B39F9FE43 PUSH1 0xC0 SHL PUSH2 0x5966 JUMP JUMPDEST PUSH2 0x2F4C PUSH8 0x57FF0E1BC62AB49F PUSH1 0xC0 SHL PUSH2 0x5966 JUMP JUMPDEST PUSH2 0x2F60 PUSH8 0x97AAFBA1365AB00C PUSH1 0xC0 SHL PUSH2 0x5966 JUMP JUMPDEST PUSH1 0xF PUSH1 0x0 DUP4 PUSH20 0xFFFFFFFFFFFFFFFFFFFFFFFFFFFFFFFFFFFFFFFF AND PUSH20 0xFFFFFFFFFFFFFFFFFFFFFFFFFFFFFFFFFFFFFFFF AND DUP2 MSTORE PUSH1 0x20 ADD SWAP1 DUP2 MSTORE PUSH1 0x20 ADD PUSH1 0x0 KECCAK256 DUP1 SLOAD DUP1 PUSH1 0x20 MUL PUSH1 0x20 ADD PUSH1 0x40 MLOAD SWAP1 DUP2 ADD PUSH1 0x40 MSTORE DUP1 SWAP3 SWAP2 SWAP1 DUP2 DUP2 MSTORE PUSH1 0x20 ADD DUP3 DUP1 SLOAD DUP1 ISZERO PUSH2 0x2FE9 JUMPI PUSH1 0x20 MUL DUP3 ADD SWAP2 SWAP1 PUSH1 0x0 MSTORE PUSH1 0x20 PUSH1 0x0 KECCAK256 SWAP1 JUMPDEST DUP2 SLOAD DUP2 MSTORE PUSH1 0x20 ADD SWAP1 PUSH1 0x1 ADD SWAP1 DUP1 DUP4 GT PUSH2 0x2FD5 JUMPI JUMPDEST POP POP POP POP POP SWAP1 POP SWAP2 SWAP1 POP JUMP JUMPDEST PUSH2 0x3009 PUSH8 0x1B617BC9C613D347 PUSH1 0xC0 SHL PUSH2 0x5966 JUMP JUMPDEST PUSH2 0x301D PUSH8 0x503F81DE6D3BF09 PUSH1 0xC0 SHL PUSH2 0x5966 JUMP JUMPDEST PUSH2 0x3031 PUSH8 0x136709D22A2A57E7 PUSH1 0xC0 SHL PUSH2 0x5966 JUMP JUMPDEST PUSH2 0x3045 PUSH8 0xFCF37A5832778243 PUSH1 0xC0 SHL PUSH2 0x5966 JUMP JUMPDEST PUSH1 0x0 DUP4 MLOAD GT PUSH2 0x3089 JUMPI PUSH1 0x40 MLOAD PUSH32 0x8C379A000000000000000000000000000000000000000000000000000000000 DUP2 MSTORE PUSH1 0x4 ADD PUSH2 0x3080 SWAP1 PUSH2 0x8579 JUMP JUMPDEST PUSH1 0x40 MLOAD DUP1 SWAP2 SUB SWAP1 REVERT JUMPDEST PUSH2 0x309D PUSH8 0x9FA06A77F11AE923 PUSH1 0xC0 SHL PUSH2 0x5966 JUMP JUMPDEST PUSH2 0x30B1 PUSH8 0xD23CE4A04EF0780 PUSH1 0xC0 SHL PUSH2 0x5966 JUMP JUMPDEST PUSH2 0x30C5 PUSH8 0x57FB57DA304B1EDA PUSH1 0xC0 SHL PUSH2 0x5966 JUMP JUMPDEST PUSH2 0x30D9 PUSH8 0xBEDA050A2CE55A1C PUSH1 0xC0 SHL PUSH2 0x5966 JUMP JUMPDEST PUSH1 0x0 PUSH20 0xFFFFFFFFFFFFFFFFFFFFFFFFFFFFFFFFFFFFFFFF AND PUSH1 0xC PUSH1 0x0 CALLER PUSH20 0xFFFFFFFFFFFFFFFFFFFFFFFFFFFFFFFFFFFFFFFF AND PUSH20 0xFFFFFFFFFFFFFFFFFFFFFFFFFFFFFFFFFFFFFFFF AND DUP2 MSTORE PUSH1 0x20 ADD SWAP1 DUP2 MSTORE PUSH1 0x20 ADD PUSH1 0x0 KECCAK256 PUSH1 0x0 ADD PUSH1 0x0 SWAP1 SLOAD SWAP1 PUSH2 0x100 EXP SWAP1 DIV PUSH20 0xFFFFFFFFFFFFFFFFFFFFFFFFFFFFFFFFFFFFFFFF AND PUSH20 0xFFFFFFFFFFFFFFFFFFFFFFFFFFFFFFFFFFFFFFFF AND EQ PUSH2 0x31AA JUMPI PUSH1 0x40 MLOAD PUSH32 0x8C379A000000000000000000000000000000000000000000000000000000000 DUP2 MSTORE PUSH1 0x4 ADD PUSH2 0x31A1 SWAP1 PUSH2 0x85E5 JUMP JUMPDEST PUSH1 0x40 MLOAD DUP1 SWAP2 SUB SWAP1 REVERT JUMPDEST PUSH2 0x31BE PUSH8 0xAF5664478E5494CD PUSH1 0xC0 SHL PUSH2 0x5966 JUMP JUMPDEST PUSH2 0x31D2 PUSH8 0xCA586A81B778FB27 PUSH1 0xC0 SHL PUSH2 0x5966 JUMP JUMPDEST PUSH1 0x40 MLOAD DUP1 PUSH1 0xE0 ADD PUSH1 0x40 MSTORE DUP1 CALLER PUSH20 0xFFFFFFFFFFFFFFFFFFFFFFFFFFFFFFFFFFFFFFFF AND DUP2 MSTORE PUSH1 0x20 ADD DUP5 DUP2 MSTORE PUSH1 0x20 ADD DUP4 DUP2 MSTORE PUSH1 0x20 ADD DUP3 DUP2 MSTORE PUSH1 0x20 ADD TIMESTAMP DUP2 MSTORE PUSH1 0x20 ADD PUSH1 0x0 PUSH1 0x2 DUP2 GT ISZERO PUSH2 0x3225 JUMPI PUSH2 0x3224 PUSH2 0x6D9D JUMP JUMPDEST JUMPDEST DUP2 MSTORE PUSH1 0x20 ADD PUSH1 0x0 ISZERO ISZERO DUP2 MSTORE POP PUSH1 0xC PUSH1 0x0 CALLER PUSH20 0xFFFFFFFFFFFFFFFFFFFFFFFFFFFFFFFFFFFFFFFF AND PUSH20 0xFFFFFFFFFFFFFFFFFFFFFFFFFFFFFFFFFFFFFFFF AND DUP2 MSTORE PUSH1 0x20 ADD SWAP1 DUP2 MSTORE PUSH1 0x20 ADD PUSH1 0x0 KECCAK256 PUSH1 0x0 DUP3 ADD MLOAD DUP2 PUSH1 0x0 ADD PUSH1 0x0 PUSH2 0x100 EXP DUP2 SLOAD DUP2 PUSH20 0xFFFFFFFFFFFFFFFFFFFFFFFFFFFFFFFFFFFFFFFF MUL NOT AND SWAP1 DUP4 PUSH20 0xFFFFFFFFFFFFFFFFFFFFFFFFFFFFFFFFFFFFFFFF AND MUL OR SWAP1 SSTORE POP PUSH1 0x20 DUP3 ADD MLOAD DUP2 PUSH1 0x1 ADD SWAP1 DUP2 PUSH2 0x32CC SWAP2 SWAP1 PUSH2 0x8222 JUMP JUMPDEST POP PUSH1 0x40 DUP3 ADD MLOAD DUP2 PUSH1 0x2 ADD SWAP1 DUP2 PUSH2 0x32E2 SWAP2 SWAP1 PUSH2 0x8222 JUMP JUMPDEST POP PUSH1 0x60 DUP3 ADD MLOAD DUP2 PUSH1 0x3 ADD SWAP1 DUP2 PUSH2 0x32F8 SWAP2 SWAP1 PUSH2 0x8222 JUMP JUMPDEST POP PUSH1 0x80 DUP3 ADD MLOAD DUP2 PUSH1 0x4 ADD SSTORE PUSH1 0xA0 DUP3 ADD MLOAD DUP2 PUSH1 0x5 ADD PUSH1 0x0 PUSH2 0x100 EXP DUP2 SLOAD DUP2 PUSH1 0xFF MUL NOT AND SWAP1 DUP4 PUSH1 0x2 DUP2 GT ISZERO PUSH2 0x332E JUMPI PUSH2 0x332D PUSH2 0x6D9D JUMP JUMPDEST JUMPDEST MUL OR SWAP1 SSTORE POP PUSH1 0xC0 DUP3 ADD MLOAD DUP2 PUSH1 0x5 ADD PUSH1 0x1 PUSH2 0x100 EXP DUP2 SLOAD DUP2 PUSH1 0xFF MUL NOT AND SWAP1 DUP4 ISZERO ISZERO MUL OR SWAP1 SSTORE POP SWAP1 POP POP PUSH2 0x336A PUSH8 0xCD7172C9FEFA95BD PUSH1 0xC0 SHL PUSH2 0x5966 JUMP JUMPDEST PUSH2 0x337E PUSH8 0x2D43C44D6CDB8E38 PUSH1 0xC0 SHL PUSH2 0x5966 JUMP JUMPDEST CALLER PUSH20 0xFFFFFFFFFFFFFFFFFFFFFFFFFFFFFFFFFFFFFFFF AND PUSH32 0x2B062B4E0857383C98AACD16BCD2714030D81AD54EB91DD18856344424386651 DUP5 DUP5 PUSH1 0x40 MLOAD PUSH2 0x33C6 SWAP3 SWAP2 SWAP1 PUSH2 0x8605 JUMP JUMPDEST PUSH1 0x40 MLOAD DUP1 SWAP2 SUB SWAP1 LOG2 POP POP POP JUMP JUMPDEST PUSH1 0x0 DUP1 PUSH1 0x0 DUP1 PUSH1 0x0 PUSH2 0x33EF PUSH8 0xE92B366965DD6B38 PUSH1 0xC0 SHL PUSH2 0x5966 JUMP JUMPDEST PUSH2 0x3403 PUSH8 0x5D64A69E02187305 PUSH1 0xC0 SHL PUSH2 0x5966 JUMP JUMPDEST PUSH2 0x3417 PUSH8 0xCF82B5CD27991D5B PUSH1 0xC0 SHL PUSH2 0x5966 JUMP JUMPDEST PUSH1 0x0 PUSH1 0xB PUSH1 0x0 DUP9 DUP2 MSTORE PUSH1 0x20 ADD SWAP1 DUP2 MSTORE PUSH1 0x20 ADD PUSH1 0x0 KECCAK256 SLOAD SWAP1 POP PUSH2 0x3443 PUSH8 0xCA27A0B51BFE25E6 PUSH1 0xC0 SHL PUSH2 0x5966 JUMP JUMPDEST PUSH2 0x3457 PUSH8 0x3A0B1B2AD0A54043 PUSH1 0xC0 SHL PUSH2 0x5966 JUMP JUMPDEST PUSH1 0x0 DUP2 SUB PUSH2 0x3519 JUMPI PUSH2 0x3473 PUSH8 0x957015594A08B78F PUSH1 0xC0 SHL PUSH2 0x5966 JUMP JUMPDEST PUSH2 0x3487 PUSH8 0xB67FE0385B9E0F89 PUSH1 0xC0 SHL PUSH2 0x5966 JUMP JUMPDEST PUSH1 0x0 SWAP6 POP PUSH2 0x349F PUSH8 0x81D9A334F5DA5EB5 PUSH1 0xC0 SHL PUSH2 0x5966 JUMP JUMPDEST PUSH1 0x0 SWAP5 POP PUSH2 0x34B7 PUSH8 0x81E6CA406A0E7CBB PUSH1 0xC0 SHL PUSH2 0x5966 JUMP JUMPDEST PUSH1 0x0 SWAP4 POP PUSH2 0x34CF PUSH8 0x376FF6099BF599D6 PUSH1 0xC0 SHL PUSH2 0x5966 JUMP JUMPDEST PUSH1 0x0 SWAP3 POP PUSH2 0x34E7 PUSH8 0x7EE21F704619E5FA PUSH1 0xC0 SHL PUSH2 0x5966 JUMP JUMPDEST PUSH1 0x0 SWAP2 POP PUSH2 0x34FF PUSH8 0xD09323BA4BDD28AB PUSH1 0xC0 SHL PUSH2 0x5966 JUMP JUMPDEST PUSH2 0x3513 PUSH8 0x293BAF3F874FC706 PUSH1 0xC0 SHL PUSH2 0x5966 JUMP JUMPDEST POP PUSH2 0x35EE JUMP JUMPDEST PUSH2 0x352D PUSH8 0x8C2CE589F47C8AD3 PUSH1 0xC0 SHL PUSH2 0x5966 JUMP JUMPDEST PUSH2 0x3541 PUSH8 0x45E5E986B983D4C2 PUSH1 0xC0 SHL PUSH2 0x5966 JUMP JUMPDEST PUSH2 0x3555 PUSH8 0xF8E62A99F2CAB259 PUSH1 0xC0 SHL PUSH2 0x5966 JUMP JUMPDEST PUSH1 0x0 PUSH2 0x3560 DUP3 PUSH2 0x2278 JUMP JUMPDEST SWAP1 POP PUSH2 0x3576 PUSH8 0xDD05F3E7A1BABE2A PUSH1 0xC0 SHL PUSH2 0x5966 JUMP JUMPDEST PUSH1 0x1 SWAP7 POP PUSH2 0x358E PUSH8 0x53A231E9FCCE13BA PUSH1 0xC0 SHL PUSH2 0x5966 JUMP JUMPDEST DUP1 PUSH2 0x100 ADD MLOAD SWAP5 POP PUSH2 0x35AA PUSH8 0x6EC57FFD7842BA3E PUSH1 0xC0 SHL PUSH2 0x5966 JUMP JUMPDEST DUP1 PUSH1 0x40 ADD MLOAD SWAP4 POP PUSH2 0x35C5 PUSH8 0x4F4227FB145C1D70 PUSH1 0xC0 SHL PUSH2 0x5966 JUMP JUMPDEST DUP1 PUSH1 0x60 ADD MLOAD SWAP3 POP PUSH2 0x35E0 PUSH8 0x7A5AB2655B30DC4A PUSH1 0xC0 SHL PUSH2 0x5966 JUMP JUMPDEST PUSH2 0x35E9 DUP2 PUSH2 0x5A36 JUMP JUMPDEST SWAP6 POP POP POP JUMPDEST SWAP2 SWAP4 SWAP6 SWAP1 SWAP3 SWAP5 POP JUMP JUMPDEST PUSH1 0x0 PUSH2 0x360D PUSH8 0xAFD5594FE66AD254 PUSH1 0xC0 SHL PUSH2 0x5966 JUMP JUMPDEST PUSH2 0x3621 PUSH8 0x9FE805864C19E5E PUSH1 0xC0 SHL PUSH2 0x5966 JUMP JUMPDEST PUSH2 0x3635 PUSH8 0xF9DCCC3E8F6CE383 PUSH1 0xC0 SHL PUSH2 0x5966 JUMP JUMPDEST PUSH1 0x7 PUSH1 0x0 SWAP1 SLOAD SWAP1 PUSH2 0x100 EXP SWAP1 DIV PUSH20 0xFFFFFFFFFFFFFFFFFFFFFFFFFFFFFFFFFFFFFFFF AND SWAP1 POP SWAP1 JUMP JUMPDEST PUSH2 0x3665 PUSH2 0x65E7 JUMP JUMPDEST PUSH2 0x3679 PUSH8 0x47FE1B8678588EF6 PUSH1 0xC0 SHL PUSH2 0x5966 JUMP JUMPDEST PUSH2 0x368D PUSH8 0x1CFB1F1638D979C0 PUSH1 0xC0 SHL PUSH2 0x5966 JUMP JUMPDEST PUSH2 0x36A1 PUSH8 0xA2380B17F085AF74 PUSH1 0xC0 SHL PUSH2 0x5966 JUMP JUMPDEST PUSH1 0x0 PUSH1 0xB PUSH1 0x0 DUP5 DUP2 MSTORE PUSH1 0x20 ADD SWAP1 DUP2 MSTORE PUSH1 0x20 ADD PUSH1 0x0 KECCAK256 SLOAD SWAP1 POP PUSH2 0x36CD PUSH8 0xA78BFD3A80A7640F PUSH1 0xC0 SHL PUSH2 0x5966 JUMP JUMPDEST PUSH2 0x36E1 PUSH8 0x1BFF501AC0FF5663 PUSH1 0xC0 SHL PUSH2 0x5966 JUMP JUMPDEST PUSH2 0x36F5 PUSH8 0xDF2AA6D8A1F03CD8 PUSH1 0xC0 SHL PUSH2 0x5966 JUMP JUMPDEST PUSH1 0x0 DUP2 SUB PUSH2 0x3738 JUMPI PUSH1 0x40 MLOAD PUSH32 0x8C379A000000000000000000000000000000000000000000000000000000000 DUP2 MSTORE PUSH1 0x4 ADD PUSH2 0x372F SWAP1 PUSH2 0x7C8A JUMP JUMPDEST PUSH1 0x40 MLOAD DUP1 SWAP2 SUB SWAP1 REVERT JUMPDEST PUSH2 0x374C PUSH8 0x5A996BE7355401C5 PUSH1 0xC0 SHL PUSH2 0x5966 JUMP JUMPDEST PUSH2 0x3760 PUSH8 0x6C7F6034E63F656 PUSH1 0xC0 SHL PUSH2 0x5966 JUMP JUMPDEST PUSH2 0x3774 PUSH8 0xAA6E5F83E4710DE2 PUSH1 0xC0 SHL PUSH2 0x5966 JUMP JUMPDEST PUSH2 0x377D DUP2 PUSH2 0x2278 JUMP JUMPDEST SWAP2 POP POP SWAP2 SWAP1 POP JUMP JUMPDEST PUSH1 0xF PUSH1 0x20 MSTORE DUP2 PUSH1 0x0 MSTORE PUSH1 0x40 PUSH1 0x0 KECCAK256 DUP2 DUP2 SLOAD DUP2 LT PUSH2 0x37A1 JUMPI PUSH1 0x0 DUP1 REVERT JUMPDEST SWAP1 PUSH1 0x0 MSTORE PUSH1 0x20 PUSH1 0x0 KECCAK256 ADD PUSH1 0x0 SWAP2 POP SWAP2 POP POP SLOAD DUP2 JUMP JUMPDEST PUSH1 0x60 PUSH1 0x1 DUP1 SLOAD PUSH2 0x37C5 SWAP1 PUSH2 0x7A57 JUMP JUMPDEST DUP1 PUSH1 0x1F ADD PUSH1 0x20 DUP1 SWAP2 DIV MUL PUSH1 0x20 ADD PUSH1 0x40 MLOAD SWAP1 DUP2 ADD PUSH1 0x40 MSTORE DUP1 SWAP3 SWAP2 SWAP1 DUP2 DUP2 MSTORE PUSH1 0x20 ADD DUP3 DUP1 SLOAD PUSH2 0x37F1 SWAP1 PUSH2 0x7A57 JUMP JUMPDEST DUP1 ISZERO PUSH2 0x383E JUMPI DUP1 PUSH1 0x1F LT PUSH2 0x3813 JUMPI PUSH2 0x100 DUP1 DUP4 SLOAD DIV MUL DUP4 MSTORE SWAP2 PUSH1 0x20 ADD SWAP2 PUSH2 0x383E JUMP JUMPDEST DUP3 ADD SWAP2 SWAP1 PUSH1 0x0 MSTORE PUSH1 0x20 PUSH1 0x0 KECCAK256 SWAP1 JUMPDEST DUP2 SLOAD DUP2 MSTORE SWAP1 PUSH1 0x1 ADD SWAP1 PUSH1 0x20 ADD DUP1 DUP4 GT PUSH2 0x3821 JUMPI DUP3 SWAP1 SUB PUSH1 0x1F AND DUP3 ADD SWAP2 JUMPDEST POP POP POP POP POP SWAP1 POP SWAP1 JUMP JUMPDEST PUSH1 0x8 SLOAD DUP2 JUMP JUMPDEST PUSH2 0x3860 PUSH2 0x3859 PUSH2 0x5517 JUMP JUMPDEST DUP4 DUP4 PUSH2 0x5CA6 JUMP JUMPDEST POP POP JUMP JUMPDEST PUSH2 0x3878 PUSH8 0xAF83481922A1FFCE PUSH1 0xC0 SHL PUSH2 0x5966 JUMP JUMPDEST DUP2 PUSH2 0x388D PUSH8 0xA9429C4C31AEA92A PUSH1 0xC0 SHL PUSH2 0x5966 JUMP JUMPDEST PUSH2 0x38A1 PUSH8 0xAE8AEDDE8CA5578A PUSH1 0xC0 SHL PUSH2 0x5966 JUMP JUMPDEST PUSH2 0x38B5 PUSH8 0xD5E12970A5510212 PUSH1 0xC0 SHL PUSH2 0x5966 JUMP JUMPDEST PUSH2 0x38C9 PUSH8 0x522FC24560608AC2 PUSH1 0xC0 SHL PUSH2 0x5966 JUMP JUMPDEST PUSH1 0x0 PUSH1 0xA PUSH1 0x0 DUP4 DUP2 MSTORE PUSH1 0x20 ADD SWAP1 DUP2 MSTORE PUSH1 0x20 ADD PUSH1 0x0 KECCAK256 PUSH1 0x0 ADD SLOAD SUB PUSH2 0x3922 JUMPI PUSH1 0x40 MLOAD PUSH32 0x8C379A000000000000000000000000000000000000000000000000000000000 DUP2 MSTORE PUSH1 0x4 ADD PUSH2 0x3919 SWAP1 PUSH2 0x7C8A JUMP JUMPDEST PUSH1 0x40 MLOAD DUP1 SWAP2 SUB SWAP1 REVERT JUMPDEST PUSH2 0x3936 PUSH8 0x88D531B5375B9F7F PUSH1 0xC0 SHL PUSH2 0x5966 JUMP JUMPDEST PUSH2 0x394A PUSH8 0xDA12B9DF51DC3678 PUSH1 0xC0 SHL PUSH2 0x5966 JUMP JUMPDEST PUSH2 0x395E PUSH8 0x27815EF522D48B1A PUSH1 0xC0 SHL PUSH2 0x5966 JUMP JUMPDEST PUSH2 0x3972 PUSH8 0xB07B6910A8B7CC27 PUSH1 0xC0 SHL PUSH2 0x5966 JUMP JUMPDEST PUSH2 0x3986 PUSH8 0x821E948245792BD8 PUSH1 0xC0 SHL PUSH2 0x5966 JUMP JUMPDEST PUSH2 0x399A PUSH8 0xFA6059B24989121A PUSH1 0xC0 SHL PUSH2 0x5966 JUMP JUMPDEST PUSH1 0x0 PUSH1 0xA PUSH1 0x0 DUP6 DUP2 MSTORE PUSH1 0x20 ADD SWAP1 DUP2 MSTORE PUSH1 0x20 ADD PUSH1 0x0 KECCAK256 SWAP1 POP PUSH2 0x39C5 PUSH8 0x146C3F4A713341C PUSH1 0xC0 SHL PUSH2 0x5966 JUMP JUMPDEST PUSH2 0x39D9 PUSH8 0xAA9CF4E3437E6BF0 PUSH1 0xC0 SHL PUSH2 0x5966 JUMP JUMPDEST PUSH2 0x39ED PUSH8 0x13861306C582758B PUSH1 0xC0 SHL PUSH2 0x5966 JUMP JUMPDEST DUP1 PUSH1 0x2 ADD PUSH1 0x0 SWAP1 SLOAD SWAP1 PUSH2 0x100 EXP SWAP1 DIV PUSH20 0xFFFFFFFFFFFFFFFFFFFFFFFFFFFFFFFFFFFFFFFF AND PUSH20 0xFFFFFFFFFFFFFFFFFFFFFFFFFFFFFFFFFFFFFFFF AND CALLER PUSH20 0xFFFFFFFFFFFFFFFFFFFFFFFFFFFFFFFFFFFFFFFF AND EQ PUSH2 0x3A7F JUMPI PUSH1 0x40 MLOAD PUSH32 0x8C379A000000000000000000000000000000000000000000000000000000000 DUP2 MSTORE PUSH1 0x4 ADD PUSH2 0x3A76 SWAP1 PUSH2 0x8688 JUMP JUMPDEST PUSH1 0x40 MLOAD DUP1 SWAP2 SUB SWAP1 REVERT JUMPDEST PUSH2 0x3A93 PUSH8 0x2BCA3EE6EEC52C54 PUSH1 0xC0 SHL PUSH2 0x5966 JUMP JUMPDEST PUSH2 0x3AA7 PUSH8 0x2D83965D10AA8C40 PUSH1 0xC0 SHL PUSH2 0x5966 JUMP JUMPDEST PUSH2 0x3ABB PUSH8 0x673D82EC4B12CDD9 PUSH1 0xC0 SHL PUSH2 0x5966 JUMP JUMPDEST PUSH2 0x3ACF PUSH8 0x9F2917EFFDC3FF75 PUSH1 0xC0 SHL PUSH2 0x5966 JUMP JUMPDEST PUSH1 0x1 PUSH1 0x2 DUP2 GT ISZERO PUSH2 0x3AE3 JUMPI PUSH2 0x3AE2 PUSH2 0x6D9D JUMP JUMPDEST JUMPDEST DUP2 PUSH1 0x7 ADD PUSH1 0x0 SWAP1 SLOAD SWAP1 PUSH2 0x100 EXP SWAP1 DIV PUSH1 0xFF AND PUSH1 0x2 DUP2 GT ISZERO PUSH2 0x3B07 JUMPI PUSH2 0x3B06 PUSH2 0x6D9D JUMP JUMPDEST JUMPDEST SUB PUSH2 0x3B47 JUMPI PUSH1 0x40 MLOAD PUSH32 0x8C379A000000000000000000000000000000000000000000000000000000000 DUP2 MSTORE PUSH1 0x4 ADD PUSH2 0x3B3E SWAP1 PUSH2 0x86F4 JUMP JUMPDEST PUSH1 0x40 MLOAD DUP1 SWAP2 SUB SWAP1 REVERT JUMPDEST PUSH2 0x3B5B PUSH8 0xD5342BB3C0387A98 PUSH1 0xC0 SHL PUSH2 0x5966 JUMP JUMPDEST PUSH2 0x3B6F PUSH8 0x886C99E3DE7834A7 PUSH1 0xC0 SHL PUSH2 0x5966 JUMP JUMPDEST PUSH2 0x3B83 PUSH8 0xCD9907E438357EEB PUSH1 0xC0 SHL PUSH2 0x5966 JUMP JUMPDEST PUSH2 0x3B97 PUSH8 0x3A2124224843D674 PUSH1 0xC0 SHL PUSH2 0x5966 JUMP JUMPDEST PUSH1 0x0 DUP4 MLOAD GT PUSH2 0x3BDB JUMPI PUSH1 0x40 MLOAD PUSH32 0x8C379A000000000000000000000000000000000000000000000000000000000 DUP2 MSTORE PUSH1 0x4 ADD PUSH2 0x3BD2 SWAP1 PUSH2 0x8760 JUMP JUMPDEST PUSH1 0x40 MLOAD DUP1 SWAP2 SUB SWAP1 REVERT JUMPDEST PUSH2 0x3BEF PUSH8 0x220BF41F6C6DEB88 PUSH1 0xC0 SHL PUSH2 0x5966 JUMP JUMPDEST PUSH2 0x3C03 PUSH8 0x6D27DE681FBE48EA PUSH1 0xC0 SHL PUSH2 0x5966 JUMP JUMPDEST PUSH1 0x1 DUP2 PUSH1 0x7 ADD PUSH1 0x0 PUSH2 0x100 EXP DUP2 SLOAD DUP2 PUSH1 0xFF MUL NOT AND SWAP1 DUP4 PUSH1 0x2 DUP2 GT ISZERO PUSH2 0x3C2B JUMPI PUSH2 0x3C2A PUSH2 0x6D9D JUMP JUMPDEST JUMPDEST MUL OR SWAP1 SSTORE POP PUSH2 0x3C44 PUSH8 0x79FAB6F716B8D600 PUSH1 0xC0 SHL PUSH2 0x5966 JUMP JUMPDEST PUSH1 0x40 MLOAD DUP1 PUSH1 0x80 ADD PUSH1 0x40 MSTORE DUP1 DUP6 DUP2 MSTORE PUSH1 0x20 ADD TIMESTAMP DUP2 MSTORE PUSH1 0x20 ADD DUP5 DUP2 MSTORE PUSH1 0x20 ADD CALLER PUSH20 0xFFFFFFFFFFFFFFFFFFFFFFFFFFFFFFFFFFFFFFFF AND DUP2 MSTORE POP PUSH1 0xE PUSH1 0x0 DUP7 DUP2 MSTORE PUSH1 0x20 ADD SWAP1 DUP2 MSTORE PUSH1 0x20 ADD PUSH1 0x0 KECCAK256 PUSH1 0x0 DUP3 ADD MLOAD DUP2 PUSH1 0x0 ADD SSTORE PUSH1 0x20 DUP3 ADD MLOAD DUP2 PUSH1 0x1 ADD SSTORE PUSH1 0x40 DUP3 ADD MLOAD DUP2 PUSH1 0x2 ADD SWAP1 DUP2 PUSH2 0x3CB7 SWAP2 SWAP1 PUSH2 0x8222 JUMP JUMPDEST POP PUSH1 0x60 DUP3 ADD MLOAD DUP2 PUSH1 0x3 ADD PUSH1 0x0 PUSH2 0x100 EXP DUP2 SLOAD DUP2 PUSH20 0xFFFFFFFFFFFFFFFFFFFFFFFFFFFFFFFFFFFFFFFF MUL NOT AND SWAP1 DUP4 PUSH20 0xFFFFFFFFFFFFFFFFFFFFFFFFFFFFFFFFFFFFFFFF AND MUL OR SWAP1 SSTORE POP SWAP1 POP POP PUSH2 0x3D16 PUSH8 0xA57767B660B870BF PUSH1 0xC0 SHL PUSH2 0x5966 JUMP JUMPDEST PUSH2 0x3D2A PUSH8 0x45CCB2281D79B0E0 PUSH1 0xC0 SHL PUSH2 0x5966 JUMP JUMPDEST DUP4 PUSH32 0x81FC733E55F0F88552E092100207C0FAFDC5F13B02A69962F50FB73DD0143792 DUP5 CALLER PUSH1 0x40 MLOAD PUSH2 0x3D5C SWAP3 SWAP2 SWAP1 PUSH2 0x8780 JUMP JUMPDEST PUSH1 0x40 MLOAD DUP1 SWAP2 SUB SWAP1 LOG2 POP POP POP POP JUMP JUMPDEST PUSH2 0x3D7E PUSH8 0x2195F0D74EB6EAE3 PUSH1 0xC0 SHL PUSH2 0x5966 JUMP JUMPDEST PUSH2 0x3D92 PUSH8 0xA990F19939B89B78 PUSH1 0xC0 SHL PUSH2 0x5966 JUMP JUMPDEST PUSH2 0x3DA6 PUSH8 0x37229FCD49615B80 PUSH1 0xC0 SHL PUSH2 0x5966 JUMP JUMPDEST PUSH2 0x3DBA PUSH8 0x7E02FC2CBC85C15C PUSH1 0xC0 SHL PUSH2 0x5966 JUMP JUMPDEST PUSH2 0x3DCE PUSH8 0x7297B57ABDE5062 PUSH1 0xC0 SHL PUSH2 0x5966 JUMP JUMPDEST PUSH1 0x7 PUSH1 0x0 SWAP1 SLOAD SWAP1 PUSH2 0x100 EXP SWAP1 DIV PUSH20 0xFFFFFFFFFFFFFFFFFFFFFFFFFFFFFFFFFFFFFFFF AND PUSH20 0xFFFFFFFFFFFFFFFFFFFFFFFFFFFFFFFFFFFFFFFF AND CALLER PUSH20 0xFFFFFFFFFFFFFFFFFFFFFFFFFFFFFFFFFFFFFFFF AND EQ PUSH2 0x3E5E JUMPI PUSH1 0x40 MLOAD PUSH32 0x8C379A000000000000000000000000000000000000000000000000000000000 DUP2 MSTORE PUSH1 0x4 ADD PUSH2 0x3E55 SWAP1 PUSH2 0x83A3 JUMP JUMPDEST PUSH1 0x40 MLOAD DUP1 SWAP2 SUB SWAP1 REVERT JUMPDEST PUSH2 0x3E72 PUSH8 0x167C98F87015725E PUSH1 0xC0 SHL PUSH2 0x5966 JUMP JUMPDEST PUSH2 0x3E86 PUSH8 0xF7A8F321F64F4E82 PUSH1 0xC0 SHL PUSH2 0x5966 JUMP JUMPDEST PUSH2 0x3E9A PUSH8 0xBD47DD27DA8EF834 PUSH1 0xC0 SHL PUSH2 0x5966 JUMP JUMPDEST PUSH2 0x3EAE PUSH8 0x6731447254747095 PUSH1 0xC0 SHL PUSH2 0x5966 JUMP JUMPDEST PUSH2 0x3EC2 PUSH8 0x4B27BCD4038EF24D PUSH1 0xC0 SHL PUSH2 0x5966 JUMP JUMPDEST PUSH2 0x3ED6 PUSH8 0x761EF247F33CBFFA PUSH1 0xC0 SHL PUSH2 0x5966 JUMP JUMPDEST PUSH1 0x0 PUSH1 0xC PUSH1 0x0 DUP5 PUSH20 0xFFFFFFFFFFFFFFFFFFFFFFFFFFFFFFFFFFFFFFFF AND PUSH20 0xFFFFFFFFFFFFFFFFFFFFFFFFFFFFFFFFFFFFFFFF AND DUP2 MSTORE PUSH1 0x20 ADD SWAP1 DUP2 MSTORE PUSH1 0x20 ADD PUSH1 0x0 KECCAK256 SWAP1 POP PUSH2 0x3F2D PUSH8 0xA9C3724A4B972C9 PUSH1 0xC0 SHL PUSH2 0x5966 JUMP JUMPDEST PUSH2 0x3F41 PUSH8 0x8429799DA55C0F06 PUSH1 0xC0 SHL PUSH2 0x5966 JUMP JUMPDEST PUSH2 0x3F55 PUSH8 0x6408FF924111A134 PUSH1 0xC0 SHL PUSH2 0x5966 JUMP JUMPDEST PUSH1 0x0 PUSH20 0xFFFFFFFFFFFFFFFFFFFFFFFFFFFFFFFFFFFFFFFF AND DUP2 PUSH1 0x0 ADD PUSH1 0x0 SWAP1 SLOAD SWAP1 PUSH2 0x100 EXP SWAP1 DIV PUSH20 0xFFFFFFFFFFFFFFFFFFFFFFFFFFFFFFFFFFFFFFFF AND PUSH20 0xFFFFFFFFFFFFFFFFFFFFFFFFFFFFFFFFFFFFFFFF AND SUB PUSH2 0x3FE8 JUMPI PUSH1 0x40 MLOAD PUSH32 0x8C379A000000000000000000000000000000000000000000000000000000000 DUP2 MSTORE PUSH1 0x4 ADD PUSH2 0x3FDF SWAP1 PUSH2 0x7D62 JUMP JUMPDEST PUSH1 0x40 MLOAD DUP1 SWAP2 SUB SWAP1 REVERT JUMPDEST PUSH2 0x3FFC PUSH8 0xE365F29FC77EEB33 PUSH1 0xC0 SHL PUSH2 0x5966 JUMP JUMPDEST PUSH2 0x4010 PUSH8 0x6C077E4DE7B548B0 PUSH1 0xC0 SHL PUSH2 0x5966 JUMP JUMPDEST DUP2 DUP2 PUSH1 0x5 ADD PUSH1 0x0 PUSH2 0x100 EXP DUP2 SLOAD DUP2 PUSH1 0xFF MUL NOT AND SWAP1 DUP4 PUSH1 0x2 DUP2 GT ISZERO PUSH2 0x4037 JUMPI PUSH2 0x4036 PUSH2 0x6D9D JUMP JUMPDEST JUMPDEST MUL OR SWAP1 SSTORE POP PUSH2 0x4050 PUSH8 0xD030F746249433C PUSH1 0xC0 SHL PUSH2 0x5966 JUMP JUMPDEST PUSH2 0x4064 PUSH8 0x26097E588E6F127E PUSH1 0xC0 SHL PUSH2 0x5966 JUMP JUMPDEST PUSH1 0x1 PUSH1 0x2 DUP2 GT ISZERO PUSH2 0x4078 JUMPI PUSH2 0x4077 PUSH2 0x6D9D JUMP JUMPDEST JUMPDEST DUP3 PUSH1 0x2 DUP2 GT ISZERO PUSH2 0x408B JUMPI PUSH2 0x408A PUSH2 0x6D9D JUMP JUMPDEST JUMPDEST EQ DUP1 ISZERO PUSH2 0x40A8 JUMPI POP PUSH2 0x40A7 PUSH8 0x52F503F7F383692D PUSH1 0xC0 SHL PUSH2 0x5969 JUMP JUMPDEST JUMPDEST DUP1 PUSH2 0x40F2 JUMPI POP PUSH1 0x2 DUP1 DUP2 GT ISZERO PUSH2 0x40C1 JUMPI PUSH2 0x40C0 PUSH2 0x6D9D JUMP JUMPDEST JUMPDEST DUP3 PUSH1 0x2 DUP2 GT ISZERO PUSH2 0x40D4 JUMPI PUSH2 0x40D3 PUSH2 0x6D9D JUMP JUMPDEST JUMPDEST EQ DUP1 ISZERO PUSH2 0x40F1 JUMPI POP PUSH2 0x40F0 PUSH8 0xF82BE8DFDE19C658 PUSH1 0xC0 SHL PUSH2 0x5969 JUMP JUMPDEST JUMPDEST JUMPDEST ISZERO PUSH2 0x4141 JUMPI PUSH2 0x410B PUSH8 0x3F960277FA583488 PUSH1 0xC0 SHL PUSH2 0x5966 JUMP JUMPDEST PUSH2 0x411F PUSH8 0x5D29AEA75DDEA87 PUSH1 0xC0 SHL PUSH2 0x5966 JUMP JUMPDEST PUSH1 0x0 DUP2 PUSH1 0x5 ADD PUSH1 0x1 PUSH2 0x100 EXP DUP2 SLOAD DUP2 PUSH1 0xFF MUL NOT AND SWAP1 DUP4 ISZERO ISZERO MUL OR SWAP1 SSTORE POP PUSH2 0x4156 JUMP JUMPDEST PUSH2 0x4155 PUSH8 0x39352B5243F368C1 PUSH1 0xC0 SHL PUSH2 0x5966 JUMP JUMPDEST JUMPDEST PUSH2 0x416A PUSH8 0x4A24C9FE131CEB0D PUSH1 0xC0 SHL PUSH2 0x5966 JUMP JUMPDEST PUSH2 0x417E PUSH8 0xBEFF80F79F4B40DD PUSH1 0xC0 SHL PUSH2 0x5966 JUMP JUMPDEST DUP3 PUSH20 0xFFFFFFFFFFFFFFFFFFFFFFFFFFFFFFFFFFFFFFFF AND PUSH32 0xC7C771519B6518D9D0559B39BC4B46E540A23E374018FEFDCFF9E960142ED102 DUP4 PUSH1 0x40 MLOAD PUSH2 0x41C4 SWAP2 SWAP1 PUSH2 0x87BF JUMP JUMPDEST PUSH1 0x40 MLOAD DUP1 SWAP2 SUB SWAP1 LOG2 POP POP POP JUMP JUMPDEST PUSH1 0x0 PUSH2 0x41E7 PUSH8 0x8B9C341BC9B3DA61 PUSH1 0xC0 SHL PUSH2 0x5966 JUMP JUMPDEST PUSH2 0x41FB PUSH8 0x4363DC091E912EA PUSH1 0xC0 SHL PUSH2 0x5966 JUMP JUMPDEST PUSH2 0x420F PUSH8 0x82F841B10EE4B3D1 PUSH1 0xC0 SHL PUSH2 0x5966 JUMP JUMPDEST PUSH1 0x9 PUSH1 0x0 DUP4 DUP2 MSTORE PUSH1 0x20 ADD SWAP1 DUP2 MSTORE PUSH1 0x20 ADD PUSH1 0x0 KECCAK256 PUSH1 0x0 SWAP1 SLOAD SWAP1 PUSH2 0x100 EXP SWAP1 DIV PUSH1 0xFF AND SWAP1 POP SWAP2 SWAP1 POP JUMP JUMPDEST PUSH1 0x60 PUSH2 0x424D PUSH8 0xC9908C062873A678 PUSH1 0xC0 SHL PUSH2 0x5966 JUMP JUMPDEST PUSH2 0x4261 PUSH8 0xB117B7793C82CFEC PUSH1 0xC0 SHL PUSH2 0x5966 JUMP JUMPDEST PUSH2 0x4275 PUSH8 0x5781AA4A52A91727 PUSH1 0xC0 SHL PUSH2 0x5966 JUMP JUMPDEST PUSH1 0x10 PUSH1 0x0 DUP4 PUSH20 0xFFFFFFFFFFFFFFFFFFFFFFFFFFFFFFFFFFFFFFFF AND PUSH20 0xFFFFFFFFFFFFFFFFFFFFFFFFFFFFFFFFFFFFFFFF AND DUP2 MSTORE PUSH1 0x20 ADD SWAP1 DUP2 MSTORE PUSH1 0x20 ADD PUSH1 0x0 KECCAK256 DUP1 SLOAD DUP1 PUSH1 0x20 MUL PUSH1 0x20 ADD PUSH1 0x40 MLOAD SWAP1 DUP2 ADD PUSH1 0x40 MSTORE DUP1 SWAP3 SWAP2 SWAP1 DUP2 DUP2 MSTORE PUSH1 0x20 ADD DUP3 DUP1 SLOAD DUP1 ISZERO PUSH2 0x42FE JUMPI PUSH1 0x20 MUL DUP3 ADD SWAP2 SWAP1 PUSH1 0x0 MSTORE PUSH1 0x20 PUSH1 0x0 KECCAK256 SWAP1 JUMPDEST DUP2 SLOAD DUP2 MSTORE PUSH1 0x20 ADD SWAP1 PUSH1 0x1 ADD SWAP1 DUP1 DUP4 GT PUSH2 0x42EA JUMPI JUMPDEST POP POP POP POP POP SWAP1 POP SWAP2 SWAP1 POP JUMP JUMPDEST PUSH2 0x431B PUSH2 0x4315 PUSH2 0x5517 JUMP JUMPDEST DUP4 PUSH2 0x55D8 JUMP JUMPDEST PUSH2 0x435A JUMPI PUSH1 0x40 MLOAD PUSH32 0x8C379A000000000000000000000000000000000000000000000000000000000 DUP2 MSTORE PUSH1 0x4 ADD PUSH2 0x4351 SWAP1 PUSH2 0x7C1E JUMP JUMPDEST PUSH1 0x40 MLOAD DUP1 SWAP2 SUB SWAP1 REVERT JUMPDEST PUSH2 0x4366 DUP5 DUP5 DUP5 DUP5 PUSH2 0x5E12 JUMP JUMPDEST POP POP POP POP JUMP JUMPDEST PUSH1 0x60 PUSH2 0x4377 DUP3 PUSH2 0x54CC JUMP JUMPDEST PUSH1 0x0 PUSH1 0x6 PUSH1 0x0 DUP5 DUP2 MSTORE PUSH1 0x20 ADD SWAP1 DUP2 MSTORE PUSH1 0x20 ADD PUSH1 0x0 KECCAK256 DUP1 SLOAD PUSH2 0x4397 SWAP1 PUSH2 0x7A57 JUMP JUMPDEST DUP1 PUSH1 0x1F ADD PUSH1 0x20 DUP1 SWAP2 DIV MUL PUSH1 0x20 ADD PUSH1 0x40 MLOAD SWAP1 DUP2 ADD PUSH1 0x40 MSTORE DUP1 SWAP3 SWAP2 SWAP1 DUP2 DUP2 MSTORE PUSH1 0x20 ADD DUP3 DUP1 SLOAD PUSH2 0x43C3 SWAP1 PUSH2 0x7A57 JUMP JUMPDEST DUP1 ISZERO PUSH2 0x4410 JUMPI DUP1 PUSH1 0x1F LT PUSH2 0x43E5 JUMPI PUSH2 0x100 DUP1 DUP4 SLOAD DIV MUL DUP4 MSTORE SWAP2 PUSH1 0x20 ADD SWAP2 PUSH2 0x4410 JUMP JUMPDEST DUP3 ADD SWAP2 SWAP1 PUSH1 0x0 MSTORE PUSH1 0x20 PUSH1 0x0 KECCAK256 SWAP1 JUMPDEST DUP2 SLOAD DUP2 MSTORE SWAP1 PUSH1 0x1 ADD SWAP1 PUSH1 0x20 ADD DUP1 DUP4 GT PUSH2 0x43F3 JUMPI DUP3 SWAP1 SUB PUSH1 0x1F AND DUP3 ADD SWAP2 JUMPDEST POP POP POP POP POP SWAP1 POP PUSH1 0x0 PUSH2 0x4421 PUSH2 0x5E6E JUMP JUMPDEST SWAP1 POP PUSH1 0x0 DUP2 MLOAD SUB PUSH2 0x4436 JUMPI DUP2 SWAP3 POP POP POP PUSH2 0x4479 JUMP JUMPDEST PUSH1 0x0 DUP3 MLOAD GT ISZERO PUSH2 0x446B JUMPI DUP1 DUP3 PUSH1 0x40 MLOAD PUSH1 0x20 ADD PUSH2 0x4453 SWAP3 SWAP2 SWAP1 PUSH2 0x8816 JUMP JUMPDEST PUSH1 0x40 MLOAD PUSH1 0x20 DUP2 DUP4 SUB SUB DUP2 MSTORE SWAP1 PUSH1 0x40 MSTORE SWAP3 POP POP POP PUSH2 0x4479 JUMP JUMPDEST PUSH2 0x4474 DUP5 PUSH2 0x5E85 JUMP JUMPDEST SWAP3 POP POP POP JUMPDEST SWAP2 SWAP1 POP JUMP JUMPDEST PUSH2 0x4486 PUSH2 0x66C4 JUMP JUMPDEST PUSH2 0x449A PUSH8 0x3939313F2F6F3C09 PUSH1 0xC0 SHL PUSH2 0x5966 JUMP JUMPDEST PUSH2 0x44AE PUSH8 0x8F34CE9C433403D1 PUSH1 0xC0 SHL PUSH2 0x5966 JUMP JUMPDEST PUSH2 0x44C2 PUSH8 0x79D238DB89499FC8 PUSH1 0xC0 SHL PUSH2 0x5966 JUMP JUMPDEST PUSH1 0x0 PUSH1 0xE PUSH1 0x0 DUP5 DUP2 MSTORE PUSH1 0x20 ADD SWAP1 DUP2 MSTORE PUSH1 0x20 ADD PUSH1 0x0 KECCAK256 PUSH1 0x40 MLOAD DUP1 PUSH1 0x80 ADD PUSH1 0x40 MSTORE SWAP1 DUP2 PUSH1 0x0 DUP3 ADD SLOAD DUP2 MSTORE PUSH1 0x20 ADD PUSH1 0x1 DUP3 ADD SLOAD DUP2 MSTORE PUSH1 0x20 ADD PUSH1 0x2 DUP3 ADD DUP1 SLOAD PUSH2 0x4506 SWAP1 PUSH2 0x7A57 JUMP JUMPDEST DUP1 PUSH1 0x1F ADD PUSH1 0x20 DUP1 SWAP2 DIV MUL PUSH1 0x20 ADD PUSH1 0x40 MLOAD SWAP1 DUP2 ADD PUSH1 0x40 MSTORE DUP1 SWAP3 SWAP2 SWAP1 DUP2 DUP2 MSTORE PUSH1 0x20 ADD DUP3 DUP1 SLOAD PUSH2 0x4532 SWAP1 PUSH2 0x7A57 JUMP JUMPDEST DUP1 ISZERO PUSH2 0x457F JUMPI DUP1 PUSH1 0x1F LT PUSH2 0x4554 JUMPI PUSH2 0x100 DUP1 DUP4 SLOAD DIV MUL DUP4 MSTORE SWAP2 PUSH1 0x20 ADD SWAP2 PUSH2 0x457F JUMP JUMPDEST DUP3 ADD SWAP2 SWAP1 PUSH1 0x0 MSTORE PUSH1 0x20 PUSH1 0x0 KECCAK256 SWAP1 JUMPDEST DUP2 SLOAD DUP2 MSTORE SWAP1 PUSH1 0x1 ADD SWAP1 PUSH1 0x20 ADD DUP1 DUP4 GT PUSH2 0x4562 JUMPI DUP3 SWAP1 SUB PUSH1 0x1F AND DUP3 ADD SWAP2 JUMPDEST POP POP POP POP POP DUP2 MSTORE PUSH1 0x20 ADD PUSH1 0x3 DUP3 ADD PUSH1 0x0 SWAP1 SLOAD SWAP1 PUSH2 0x100 EXP SWAP1 DIV PUSH20 0xFFFFFFFFFFFFFFFFFFFFFFFFFFFFFFFFFFFFFFFF AND PUSH20 0xFFFFFFFFFFFFFFFFFFFFFFFFFFFFFFFFFFFFFFFF AND PUSH20 0xFFFFFFFFFFFFFFFFFFFFFFFFFFFFFFFFFFFFFFFF AND DUP2 MSTORE POP POP SWAP1 POP PUSH2 0x45F4 PUSH8 0xCEC9CE138DDD5995 PUSH1 0xC0 SHL PUSH2 0x5966 JUMP JUMPDEST PUSH2 0x4608 PUSH8 0x37D3741E39DA694E PUSH1 0xC0 SHL PUSH2 0x5966 JUMP JUMPDEST PUSH2 0x461C PUSH8 0xC233CF9D5E6F1401 PUSH1 0xC0 SHL PUSH2 0x5966 JUMP JUMPDEST PUSH1 0x0 DUP2 PUSH1 0x20 ADD MLOAD SUB PUSH2 0x4663 JUMPI PUSH1 0x40 MLOAD PUSH32 0x8C379A000000000000000000000000000000000000000000000000000000000 DUP2 MSTORE PUSH1 0x4 ADD PUSH2 0x465A SWAP1 PUSH2 0x8886 JUMP JUMPDEST PUSH1 0x40 MLOAD DUP1 SWAP2 SUB SWAP1 REVERT JUMPDEST PUSH2 0x4677 PUSH8 0x9F21C4FD7812F161 PUSH1 0xC0 SHL PUSH2 0x5966 JUMP JUMPDEST PUSH2 0x468B PUSH8 0x39C6E2F9FE8CADD7 PUSH1 0xC0 SHL PUSH2 0x5966 JUMP JUMPDEST PUSH2 0x469F PUSH8 0x10194B95B6E9A586 PUSH1 0xC0 SHL PUSH2 0x5966 JUMP JUMPDEST DUP1 SWAP2 POP POP SWAP2 SWAP1 POP JUMP JUMPDEST PUSH1 0x0 PUSH1 0x5 PUSH1 0x0 DUP5 PUSH20 0xFFFFFFFFFFFFFFFFFFFFFFFFFFFFFFFFFFFFFFFF AND PUSH20 0xFFFFFFFFFFFFFFFFFFFFFFFFFFFFFFFFFFFFFFFF AND DUP2 MSTORE PUSH1 0x20 ADD SWAP1 DUP2 MSTORE PUSH1 0x20 ADD PUSH1 0x0 KECCAK256 PUSH1 0x0 DUP4 PUSH20 0xFFFFFFFFFFFFFFFFFFFFFFFFFFFFFFFFFFFFFFFF AND PUSH20 0xFFFFFFFFFFFFFFFFFFFFFFFFFFFFFFFFFFFFFFFF AND DUP2 MSTORE PUSH1 0x20 ADD SWAP1 DUP2 MSTORE PUSH1 0x20 ADD PUSH1 0x0 KECCAK256 PUSH1 0x0 SWAP1 SLOAD SWAP1 PUSH2 0x100 EXP SWAP1 DIV PUSH1 0xFF AND SWAP1 POP SWAP3 SWAP2 POP POP JUMP JUMPDEST PUSH1 0x7 PUSH1 0x0 SWAP1 SLOAD SWAP1 PUSH2 0x100 EXP SWAP1 DIV PUSH20 0xFFFFFFFFFFFFFFFFFFFFFFFFFFFFFFFFFFFFFFFF AND DUP2 JUMP JUMPDEST PUSH1 0x60 PUSH2 0x4778 PUSH8 0x80181E1399659576 PUSH1 0xC0 SHL PUSH2 0x5966 JUMP JUMPDEST PUSH2 0x478C PUSH8 0x41294C28535E6F2B PUSH1 0xC0 SHL PUSH2 0x5966 JUMP JUMPDEST PUSH2 0x47A0 PUSH8 0xB99B056BC902E5DE PUSH1 0xC0 SHL PUSH2 0x5966 JUMP JUMPDEST PUSH2 0x47B4 PUSH8 0xEEB696A652A6A3B7 PUSH1 0xC0 SHL PUSH2 0x5966 JUMP JUMPDEST PUSH2 0x47C8 PUSH8 0xBB5C4622874B315D PUSH1 0xC0 SHL PUSH2 0x5966 JUMP JUMPDEST PUSH2 0x47D1 CALLER PUSH2 0xAAE JUMP JUMPDEST PUSH2 0x4810 JUMPI PUSH1 0x40 MLOAD PUSH32 0x8C379A000000000000000000000000000000000000000000000000000000000 DUP2 MSTORE PUSH1 0x4 ADD PUSH2 0x4807 SWAP1 PUSH2 0x7CF6 JUMP JUMPDEST PUSH1 0x40 MLOAD DUP1 SWAP2 SUB SWAP1 REVERT JUMPDEST PUSH2 0x4824 PUSH8 0x997EAA5A8339B48C PUSH1 0xC0 SHL PUSH2 0x5966 JUMP JUMPDEST PUSH2 0x4838 PUSH8 0x8CFC172E79BA7641 PUSH1 0xC0 SHL PUSH2 0x5966 JUMP JUMPDEST PUSH2 0x484C PUSH8 0x6FA6CF7447A6CAE6 PUSH1 0xC0 SHL PUSH2 0x5966 JUMP JUMPDEST PUSH2 0x4860 PUSH8 0x9B490574D24CFA73 PUSH1 0xC0 SHL PUSH2 0x5966 JUMP JUMPDEST PUSH2 0x4874 PUSH8 0xB6DCA0FAC90A346E PUSH1 0xC0 SHL PUSH2 0x5966 JUMP JUMPDEST PUSH2 0x4888 PUSH8 0xAD7B79D9ABA91E74 PUSH1 0xC0 SHL PUSH2 0x5966 JUMP JUMPDEST PUSH2 0x489C PUSH8 0x24A2804B87D2A52A PUSH1 0xC0 SHL PUSH2 0x5966 JUMP JUMPDEST PUSH1 0x0 DUP7 MLOAD GT PUSH2 0x48E0 JUMPI PUSH1 0x40 MLOAD PUSH32 0x8C379A000000000000000000000000000000000000000000000000000000000 DUP2 MSTORE PUSH1 0x4 ADD PUSH2 0x48D7 SWAP1 PUSH2 0x88F2 JUMP JUMPDEST PUSH1 0x40 MLOAD DUP1 SWAP2 SUB SWAP1 REVERT JUMPDEST PUSH2 0x48F4 PUSH8 0x252AE2B28927207F PUSH1 0xC0 SHL PUSH2 0x5966 JUMP JUMPDEST PUSH2 0x4908 PUSH8 0xDC907F4F0175940A PUSH1 0xC0 SHL PUSH2 0x5966 JUMP JUMPDEST PUSH2 0x491C PUSH8 0x928862E83AADECC PUSH1 0xC0 SHL PUSH2 0x5966 JUMP JUMPDEST PUSH2 0x4930 PUSH8 0xEC6763040FA1831F PUSH1 0xC0 SHL PUSH2 0x5966 JUMP JUMPDEST DUP5 MLOAD DUP7 MLOAD EQ PUSH2 0x4974 JUMPI PUSH1 0x40 MLOAD PUSH32 0x8C379A000000000000000000000000000000000000000000000000000000000 DUP2 MSTORE PUSH1 0x4 ADD PUSH2 0x496B SWAP1 PUSH2 0x895E JUMP JUMPDEST PUSH1 0x40 MLOAD DUP1 SWAP2 SUB SWAP1 REVERT JUMPDEST PUSH2 0x4988 PUSH8 0x434ADA1743113328 PUSH1 0xC0 SHL PUSH2 0x5966 JUMP JUMPDEST PUSH2 0x499C PUSH8 0x29E210F37F46584B PUSH1 0xC0 SHL PUSH2 0x5966 JUMP JUMPDEST PUSH2 0x49B0 PUSH8 0xCB913D36154A2831 PUSH1 0xC0 SHL PUSH2 0x5966 JUMP JUMPDEST PUSH2 0x49C4 PUSH8 0xB428F7005B7E5116 PUSH1 0xC0 SHL PUSH2 0x5966 JUMP JUMPDEST DUP2 MLOAD DUP7 MLOAD EQ PUSH2 0x4A08 JUMPI PUSH1 0x40 MLOAD PUSH32 0x8C379A000000000000000000000000000000000000000000000000000000000 DUP2 MSTORE PUSH1 0x4 ADD PUSH2 0x49FF SWAP1 PUSH2 0x895E JUMP JUMPDEST PUSH1 0x40 MLOAD DUP1 SWAP2 SUB SWAP1 REVERT JUMPDEST PUSH2 0x4A1C PUSH8 0x3E01E522F393C202 PUSH1 0xC0 SHL PUSH2 0x5966 JUMP JUMPDEST PUSH2 0x4A30 PUSH8 0xE79847DE8F48DF4C PUSH1 0xC0 SHL PUSH2 0x5966 JUMP JUMPDEST PUSH2 0x4A44 PUSH8 0x3D0C9A24D986F94C PUSH1 0xC0 SHL PUSH2 0x5966 JUMP JUMPDEST PUSH1 0x0 DUP7 MLOAD PUSH8 0xFFFFFFFFFFFFFFFF DUP2 GT ISZERO PUSH2 0x4A61 JUMPI PUSH2 0x4A60 PUSH2 0x6AD5 JUMP JUMPDEST JUMPDEST PUSH1 0x40 MLOAD SWAP1 DUP1 DUP3 MSTORE DUP1 PUSH1 0x20 MUL PUSH1 0x20 ADD DUP3 ADD PUSH1 0x40 MSTORE DUP1 ISZERO PUSH2 0x4A8F JUMPI DUP2 PUSH1 0x20 ADD PUSH1 0x20 DUP3 MUL DUP1 CALLDATASIZE DUP4 CALLDATACOPY DUP1 DUP3 ADD SWAP2 POP POP SWAP1 POP JUMPDEST POP SWAP1 POP PUSH2 0x4AA6 PUSH8 0x6E73E7807F6D1394 PUSH1 0xC0 SHL PUSH2 0x5966 JUMP JUMPDEST PUSH2 0x4ABA PUSH8 0x3C56AE33EE55C0F7 PUSH1 0xC0 SHL PUSH2 0x5966 JUMP JUMPDEST PUSH1 0x0 JUMPDEST DUP8 MLOAD DUP2 LT ISZERO PUSH2 0x4B69 JUMPI PUSH2 0x4ADA PUSH8 0xAE6C3C1A8B5B6FAD PUSH1 0xC0 SHL PUSH2 0x5966 JUMP JUMPDEST PUSH2 0x4B37 DUP9 DUP3 DUP2 MLOAD DUP2 LT PUSH2 0x4AF0 JUMPI PUSH2 0x4AEF PUSH2 0x897E JUMP JUMPDEST JUMPDEST PUSH1 0x20 MUL PUSH1 0x20 ADD ADD MLOAD DUP9 DUP4 DUP2 MLOAD DUP2 LT PUSH2 0x4B0B JUMPI PUSH2 0x4B0A PUSH2 0x897E JUMP JUMPDEST JUMPDEST PUSH1 0x20 MUL PUSH1 0x20 ADD ADD MLOAD DUP9 DUP9 PUSH1 0x0 DUP10 DUP8 DUP2 MLOAD DUP2 LT PUSH2 0x4B2A JUMPI PUSH2 0x4B29 PUSH2 0x897E JUMP JUMPDEST JUMPDEST PUSH1 0x20 MUL PUSH1 0x20 ADD ADD MLOAD PUSH2 0xF6A JUMP JUMPDEST DUP3 DUP3 DUP2 MLOAD DUP2 LT PUSH2 0x4B4A JUMPI PUSH2 0x4B49 PUSH2 0x897E JUMP JUMPDEST JUMPDEST PUSH1 0x20 MUL PUSH1 0x20 ADD ADD DUP2 DUP2 MSTORE POP POP DUP1 DUP1 PUSH2 0x4B61 SWAP1 PUSH2 0x89AD JUMP JUMPDEST SWAP2 POP POP PUSH2 0x4ABD JUMP JUMPDEST POP PUSH2 0x4B7E PUSH8 0x79868454B8CCF4C0 PUSH1 0xC0 SHL PUSH2 0x5966 JUMP JUMPDEST PUSH2 0x4B92 PUSH8 0x7DEAB35C5AF77B61 PUSH1 0xC0 SHL PUSH2 0x5966 JUMP JUMPDEST DUP1 SWAP2 POP POP SWAP6 SWAP5 POP POP POP POP POP JUMP JUMPDEST PUSH1 0x0 PUSH2 0x4BB5 PUSH8 0xB571105E509846B8 PUSH1 0xC0 SHL PUSH2 0x5966 JUMP JUMPDEST DUP2 PUSH2 0x4BCA PUSH8 0xA9429C4C31AEA92A PUSH1 0xC0 SHL PUSH2 0x5966 JUMP JUMPDEST PUSH2 0x4BDE PUSH8 0xAE8AEDDE8CA5578A PUSH1 0xC0 SHL PUSH2 0x5966 JUMP JUMPDEST PUSH2 0x4BF2 PUSH8 0xD5E12970A5510212 PUSH1 0xC0 SHL PUSH2 0x5966 JUMP JUMPDEST PUSH2 0x4C06 PUSH8 0x522FC24560608AC2 PUSH1 0xC0 SHL PUSH2 0x5966 JUMP JUMPDEST PUSH1 0x0 PUSH1 0xA PUSH1 0x0 DUP4 DUP2 MSTORE PUSH1 0x20 ADD SWAP1 DUP2 MSTORE PUSH1 0x20 ADD PUSH1 0x0 KECCAK256 PUSH1 0x0 ADD SLOAD SUB PUSH2 0x4C5F JUMPI PUSH1 0x40 MLOAD PUSH32 0x8C379A000000000000000000000000000000000000000000000000000000000 DUP2 MSTORE PUSH1 0x4 ADD PUSH2 0x4C56 SWAP1 PUSH2 0x7C8A JUMP JUMPDEST PUSH1 0x40 MLOAD DUP1 SWAP2 SUB SWAP1 REVERT JUMPDEST PUSH2 0x4C73 PUSH8 0x88D531B5375B9F7F PUSH1 0xC0 SHL PUSH2 0x5966 JUMP JUMPDEST PUSH2 0x4C87 PUSH8 0xDA12B9DF51DC3678 PUSH1 0xC0 SHL PUSH2 0x5966 JUMP JUMPDEST PUSH2 0x4C9B PUSH8 0xD135268008A51112 PUSH1 0xC0 SHL PUSH2 0x5966 JUMP JUMPDEST PUSH2 0x4CAF PUSH8 0x109BB40494D286E6 PUSH1 0xC0 SHL PUSH2 0x5966 JUMP JUMPDEST PUSH2 0x4CC3 PUSH8 0x868A2E210AD0ACB9 PUSH1 0xC0 SHL PUSH2 0x5966 JUMP JUMPDEST PUSH2 0x4CD7 PUSH8 0x4BD3F672F9B28A7C PUSH1 0xC0 SHL PUSH2 0x5966 JUMP JUMPDEST PUSH1 0x0 PUSH1 0xA PUSH1 0x0 DUP6 DUP2 MSTORE PUSH1 0x20 ADD SWAP1 DUP2 MSTORE PUSH1 0x20 ADD PUSH1 0x0 KECCAK256 PUSH1 0x40 MLOAD DUP1 PUSH2 0x140 ADD PUSH1 0x40 MSTORE SWAP1 DUP2 PUSH1 0x0 DUP3 ADD SLOAD DUP2 MSTORE PUSH1 0x20 ADD PUSH1 0x1 DUP3 ADD SLOAD DUP2 MSTORE PUSH1 0x20 ADD PUSH1 0x2 DUP3 ADD PUSH1 0x0 SWAP1 SLOAD SWAP1 PUSH2 0x100 EXP SWAP1 DIV PUSH20 0xFFFFFFFFFFFFFFFFFFFFFFFFFFFFFFFFFFFFFFFF AND PUSH20 0xFFFFFFFFFFFFFFFFFFFFFFFFFFFFFFFFFFFFFFFF AND PUSH20 0xFFFFFFFFFFFFFFFFFFFFFFFFFFFFFFFFFFFFFFFF AND DUP2 MSTORE PUSH1 0x20 ADD PUSH1 0x3 DUP3 ADD PUSH1 0x0 SWAP1 SLOAD SWAP1 PUSH2 0x100 EXP SWAP1 DIV PUSH20 0xFFFFFFFFFFFFFFFFFFFFFFFFFFFFFFFFFFFFFFFF AND PUSH20 0xFFFFFFFFFFFFFFFFFFFFFFFFFFFFFFFFFFFFFFFF AND PUSH20 0xFFFFFFFFFFFFFFFFFFFFFFFFFFFFFFFFFFFFFFFF AND DUP2 MSTORE PUSH1 0x20 ADD PUSH1 0x3 DUP3 ADD PUSH1 0x14 SWAP1 SLOAD SWAP1 PUSH2 0x100 EXP SWAP1 DIV PUSH1 0xFF AND PUSH1 0x5 DUP2 GT ISZERO PUSH2 0x4DDD JUMPI PUSH2 0x4DDC PUSH2 0x6D9D JUMP JUMPDEST JUMPDEST PUSH1 0x5 DUP2 GT ISZERO PUSH2 0x4DEF JUMPI PUSH2 0x4DEE PUSH2 0x6D9D JUMP JUMPDEST JUMPDEST DUP2 MSTORE PUSH1 0x20 ADD PUSH1 0x4 DUP3 ADD DUP1 SLOAD PUSH2 0x4E03 SWAP1 PUSH2 0x7A57 JUMP JUMPDEST DUP1 PUSH1 0x1F ADD PUSH1 0x20 DUP1 SWAP2 DIV MUL PUSH1 0x20 ADD PUSH1 0x40 MLOAD SWAP1 DUP2 ADD PUSH1 0x40 MSTORE DUP1 SWAP3 SWAP2 SWAP1 DUP2 DUP2 MSTORE PUSH1 0x20 ADD DUP3 DUP1 SLOAD PUSH2 0x4E2F SWAP1 PUSH2 0x7A57 JUMP JUMPDEST DUP1 ISZERO PUSH2 0x4E7C JUMPI DUP1 PUSH1 0x1F LT PUSH2 0x4E51 JUMPI PUSH2 0x100 DUP1 DUP4 SLOAD DIV MUL DUP4 MSTORE SWAP2 PUSH1 0x20 ADD SWAP2 PUSH2 0x4E7C JUMP JUMPDEST DUP3 ADD SWAP2 SWAP1 PUSH1 0x0 MSTORE PUSH1 0x20 PUSH1 0x0 KECCAK256 SWAP1 JUMPDEST DUP2 SLOAD DUP2 MSTORE SWAP1 PUSH1 0x1 ADD SWAP1 PUSH1 0x20 ADD DUP1 DUP4 GT PUSH2 0x4E5F JUMPI DUP3 SWAP1 SUB PUSH1 0x1F AND DUP3 ADD SWAP2 JUMPDEST POP POP POP POP POP DUP2 MSTORE PUSH1 0x20 ADD PUSH1 0x5 DUP3 ADD SLOAD DUP2 MSTORE PUSH1 0x20 ADD PUSH1 0x6 DUP3 ADD SLOAD DUP2 MSTORE PUSH1 0x20 ADD PUSH1 0x7 DUP3 ADD PUSH1 0x0 SWAP1 SLOAD SWAP1 PUSH2 0x100 EXP SWAP1 DIV PUSH1 0xFF AND PUSH1 0x2 DUP2 GT ISZERO PUSH2 0x4EBE JUMPI PUSH2 0x4EBD PUSH2 0x6D9D JUMP JUMPDEST JUMPDEST PUSH1 0x2 DUP2 GT ISZERO PUSH2 0x4ED0 JUMPI PUSH2 0x4ECF PUSH2 0x6D9D JUMP JUMPDEST JUMPDEST DUP2 MSTORE PUSH1 0x20 ADD PUSH1 0x8 DUP3 ADD DUP1 SLOAD PUSH2 0x4EE4 SWAP1 PUSH2 0x7A57 JUMP JUMPDEST DUP1 PUSH1 0x1F ADD PUSH1 0x20 DUP1 SWAP2 DIV MUL PUSH1 0x20 ADD PUSH1 0x40 MLOAD SWAP1 DUP2 ADD PUSH1 0x40 MSTORE DUP1 SWAP3 SWAP2 SWAP1 DUP2 DUP2 MSTORE PUSH1 0x20 ADD DUP3 DUP1 SLOAD PUSH2 0x4F10 SWAP1 PUSH2 0x7A57 JUMP JUMPDEST DUP1 ISZERO PUSH2 0x4F5D JUMPI DUP1 PUSH1 0x1F LT PUSH2 0x4F32 JUMPI PUSH2 0x100 DUP1 DUP4 SLOAD DIV MUL DUP4 MSTORE SWAP2 PUSH1 0x20 ADD SWAP2 PUSH2 0x4F5D JUMP JUMPDEST DUP3 ADD SWAP2 SWAP1 PUSH1 0x0 MSTORE PUSH1 0x20 PUSH1 0x0 KECCAK256 SWAP1 JUMPDEST DUP2 SLOAD DUP2 MSTORE SWAP1 PUSH1 0x1 ADD SWAP1 PUSH1 0x20 ADD DUP1 DUP4 GT PUSH2 0x4F40 JUMPI DUP3 SWAP1 SUB PUSH1 0x1F AND DUP3 ADD SWAP2 JUMPDEST POP POP POP POP POP DUP2 MSTORE POP POP SWAP1 POP PUSH2 0x4F7C PUSH8 0x8EB2A12CD12DA6EE PUSH1 0xC0 SHL PUSH2 0x5966 JUMP JUMPDEST PUSH2 0x4F90 PUSH8 0xF205678A0C30ECB3 PUSH1 0xC0 SHL PUSH2 0x5966 JUMP JUMPDEST PUSH1 0x2 DUP1 DUP2 GT ISZERO PUSH2 0x4FA3 JUMPI PUSH2 0x4FA2 PUSH2 0x6D9D JUMP JUMPDEST JUMPDEST PUSH2 0x4FAC DUP3 PUSH2 0x5AD1 JUMP JUMPDEST PUSH1 0x2 DUP2 GT ISZERO PUSH2 0x4FBE JUMPI PUSH2 0x4FBD PUSH2 0x6D9D JUMP JUMPDEST JUMPDEST EQ SWAP3 POP POP POP SWAP2 SWAP1 POP JUMP JUMPDEST PUSH2 0x4FD0 PUSH2 0x6702 JUMP JUMPDEST PUSH2 0x4FE4 PUSH8 0x4CB3B6E7EA289434 PUSH1 0xC0 SHL PUSH2 0x5966 JUMP JUMPDEST PUSH2 0x4FF8 PUSH8 0xC9B12CD878BDD25 PUSH1 0xC0 SHL PUSH2 0x5966 JUMP JUMPDEST PUSH2 0x500C PUSH8 0xBFA26D464CA5E3A PUSH1 0xC0 SHL PUSH2 0x5966 JUMP JUMPDEST PUSH2 0x5020 PUSH8 0x551901230591618E PUSH1 0xC0 SHL PUSH2 0x5966 JUMP JUMPDEST PUSH1 0x0 PUSH20 0xFFFFFFFFFFFFFFFFFFFFFFFFFFFFFFFFFFFFFFFF AND PUSH1 0xC PUSH1 0x0 DUP5 PUSH20 0xFFFFFFFFFFFFFFFFFFFFFFFFFFFFFFFFFFFFFFFF AND PUSH20 0xFFFFFFFFFFFFFFFFFFFFFFFFFFFFFFFFFFFFFFFF AND DUP2 MSTORE PUSH1 0x20 ADD SWAP1 DUP2 MSTORE PUSH1 0x20 ADD PUSH1 0x0 KECCAK256 PUSH1 0x0 ADD PUSH1 0x0 SWAP1 SLOAD SWAP1 PUSH2 0x100 EXP SWAP1 DIV PUSH20 0xFFFFFFFFFFFFFFFFFFFFFFFFFFFFFFFFFFFFFFFF AND PUSH20 0xFFFFFFFFFFFFFFFFFFFFFFFFFFFFFFFFFFFFFFFF AND SUB PUSH2 0x50F1 JUMPI PUSH1 0x40 MLOAD PUSH32 0x8C379A000000000000000000000000000000000000000000000000000000000 DUP2 MSTORE PUSH1 0x4 ADD PUSH2 0x50E8 SWAP1 PUSH2 0x7D62 JUMP JUMPDEST PUSH1 0x40 MLOAD DUP1 SWAP2 SUB SWAP1 REVERT JUMPDEST PUSH2 0x5105 PUSH8 0x60259E6CB6267A3B PUSH1 0xC0 SHL PUSH2 0x5966 JUMP JUMPDEST PUSH2 0x5119 PUSH8 0xE6659831485F7132 PUSH1 0xC0 SHL PUSH2 0x5966 JUMP JUMPDEST PUSH2 0x512D PUSH8 0x7FA668938AC0978B PUSH1 0xC0 SHL PUSH2 0x5966 JUMP JUMPDEST PUSH1 0xC PUSH1 0x0 DUP4 PUSH20 0xFFFFFFFFFFFFFFFFFFFFFFFFFFFFFFFFFFFFFFFF AND PUSH20 0xFFFFFFFFFFFFFFFFFFFFFFFFFFFFFFFFFFFFFFFF AND DUP2 MSTORE PUSH1 0x20 ADD SWAP1 DUP2 MSTORE PUSH1 0x20 ADD PUSH1 0x0 KECCAK256 PUSH1 0x40 MLOAD DUP1 PUSH1 0xE0 ADD PUSH1 0x40 MSTORE SWAP1 DUP2 PUSH1 0x0 DUP3 ADD PUSH1 0x0 SWAP1 SLOAD SWAP1 PUSH2 0x100 EXP SWAP1 DIV PUSH20 0xFFFFFFFFFFFFFFFFFFFFFFFFFFFFFFFFFFFFFFFF AND PUSH20 0xFFFFFFFFFFFFFFFFFFFFFFFFFFFFFFFFFFFFFFFF AND PUSH20 0xFFFFFFFFFFFFFFFFFFFFFFFFFFFFFFFFFFFFFFFF AND DUP2 MSTORE PUSH1 0x20 ADD PUSH1 0x1 DUP3 ADD DUP1 SLOAD PUSH2 0x51DD SWAP1 PUSH2 0x7A57 JUMP JUMPDEST DUP1 PUSH1 0x1F ADD PUSH1 0x20 DUP1 SWAP2 DIV MUL PUSH1 0x20 ADD PUSH1 0x40 MLOAD SWAP1 DUP2 ADD PUSH1 0x40 MSTORE DUP1 SWAP3 SWAP2 SWAP1 DUP2 DUP2 MSTORE PUSH1 0x20 ADD DUP3 DUP1 SLOAD PUSH2 0x5209 SWAP1 PUSH2 0x7A57 JUMP JUMPDEST DUP1 ISZERO PUSH2 0x5256 JUMPI DUP1 PUSH1 0x1F LT PUSH2 0x522B JUMPI PUSH2 0x100 DUP1 DUP4 SLOAD DIV MUL DUP4 MSTORE SWAP2 PUSH1 0x20 ADD SWAP2 PUSH2 0x5256 JUMP JUMPDEST DUP3 ADD SWAP2 SWAP1 PUSH1 0x0 MSTORE PUSH1 0x20 PUSH1 0x0 KECCAK256 SWAP1 JUMPDEST DUP2 SLOAD DUP2 MSTORE SWAP1 PUSH1 0x1 ADD SWAP1 PUSH1 0x20 ADD DUP1 DUP4 GT PUSH2 0x5239 JUMPI DUP3 SWAP1 SUB PUSH1 0x1F AND DUP3 ADD SWAP2 JUMPDEST POP POP POP POP POP DUP2 MSTORE PUSH1 0x20 ADD PUSH1 0x2 DUP3 ADD DUP1 SLOAD PUSH2 0x526F SWAP1 PUSH2 0x7A57 JUMP JUMPDEST DUP1 PUSH1 0x1F ADD PUSH1 0x20 DUP1 SWAP2 DIV MUL PUSH1 0x20 ADD PUSH1 0x40 MLOAD SWAP1 DUP2 ADD PUSH1 0x40 MSTORE DUP1 SWAP3 SWAP2 SWAP1 DUP2 DUP2 MSTORE PUSH1 0x20 ADD DUP3 DUP1 SLOAD PUSH2 0x529B SWAP1 PUSH2 0x7A57 JUMP JUMPDEST DUP1 ISZERO PUSH2 0x52E8 JUMPI DUP1 PUSH1 0x1F LT PUSH2 0x52BD JUMPI PUSH2 0x100 DUP1 DUP4 SLOAD DIV MUL DUP4 MSTORE SWAP2 PUSH1 0x20 ADD SWAP2 PUSH2 0x52E8 JUMP JUMPDEST DUP3 ADD SWAP2 SWAP1 PUSH1 0x0 MSTORE PUSH1 0x20 PUSH1 0x0 KECCAK256 SWAP1 JUMPDEST DUP2 SLOAD DUP2 MSTORE SWAP1 PUSH1 0x1 ADD SWAP1 PUSH1 0x20 ADD DUP1 DUP4 GT PUSH2 0x52CB JUMPI DUP3 SWAP1 SUB PUSH1 0x1F AND DUP3 ADD SWAP2 JUMPDEST POP POP POP POP POP DUP2 MSTORE PUSH1 0x20 ADD PUSH1 0x3 DUP3 ADD DUP1 SLOAD PUSH2 0x5301 SWAP1 PUSH2 0x7A57 JUMP JUMPDEST DUP1 PUSH1 0x1F ADD PUSH1 0x20 DUP1 SWAP2 DIV MUL PUSH1 0x20 ADD PUSH1 0x40 MLOAD SWAP1 DUP2 ADD PUSH1 0x40 MSTORE DUP1 SWAP3 SWAP2 SWAP1 DUP2 DUP2 MSTORE PUSH1 0x20 ADD DUP3 DUP1 SLOAD PUSH2 0x532D SWAP1 PUSH2 0x7A57 JUMP JUMPDEST DUP1 ISZERO PUSH2 0x537A JUMPI DUP1 PUSH1 0x1F LT PUSH2 0x534F JUMPI PUSH2 0x100 DUP1 DUP4 SLOAD DIV MUL DUP4 MSTORE SWAP2 PUSH1 0x20 ADD SWAP2 PUSH2 0x537A JUMP JUMPDEST DUP3 ADD SWAP2 SWAP1 PUSH1 0x0 MSTORE PUSH1 0x20 PUSH1 0x0 KECCAK256 SWAP1 JUMPDEST DUP2 SLOAD DUP2 MSTORE SWAP1 PUSH1 0x1 ADD SWAP1 PUSH1 0x20 ADD DUP1 DUP4 GT PUSH2 0x535D JUMPI DUP3 SWAP1 SUB PUSH1 0x1F AND DUP3 ADD SWAP2 JUMPDEST POP POP POP POP POP DUP2 MSTORE PUSH1 0x20 ADD PUSH1 0x4 DUP3 ADD SLOAD DUP2 MSTORE PUSH1 0x20 ADD PUSH1 0x5 DUP3 ADD PUSH1 0x0 SWAP1 SLOAD SWAP1 PUSH2 0x100 EXP SWAP1 DIV PUSH1 0xFF AND PUSH1 0x2 DUP2 GT ISZERO PUSH2 0x53B2 JUMPI PUSH2 0x53B1 PUSH2 0x6D9D JUMP JUMPDEST JUMPDEST PUSH1 0x2 DUP2 GT ISZERO PUSH2 0x53C4 JUMPI PUSH2 0x53C3 PUSH2 0x6D9D JUMP JUMPDEST JUMPDEST DUP2 MSTORE PUSH1 0x20 ADD PUSH1 0x5 DUP3 ADD PUSH1 0x1 SWAP1 SLOAD SWAP1 PUSH2 0x100 EXP SWAP1 DIV PUSH1 0xFF AND ISZERO ISZERO ISZERO ISZERO DUP2 MSTORE POP POP SWAP1 POP SWAP2 SWAP1 POP JUMP JUMPDEST PUSH1 0x0 PUSH32 0x80AC58CD00000000000000000000000000000000000000000000000000000000 PUSH28 0xFFFFFFFFFFFFFFFFFFFFFFFFFFFFFFFFFFFFFFFFFFFFFFFFFFFFFFFF NOT AND DUP3 PUSH28 0xFFFFFFFFFFFFFFFFFFFFFFFFFFFFFFFFFFFFFFFFFFFFFFFFFFFFFFFF NOT AND EQ DUP1 PUSH2 0x54B5 JUMPI POP PUSH32 0x5B5E139F00000000000000000000000000000000000000000000000000000000 PUSH28 0xFFFFFFFFFFFFFFFFFFFFFFFFFFFFFFFFFFFFFFFFFFFFFFFFFFFFFFFF NOT AND DUP3 PUSH28 0xFFFFFFFFFFFFFFFFFFFFFFFFFFFFFFFFFFFFFFFFFFFFFFFFFFFFFFFF NOT AND EQ JUMPDEST DUP1 PUSH2 0x54C5 JUMPI POP PUSH2 0x54C4 DUP3 PUSH2 0x5EED JUMP JUMPDEST JUMPDEST SWAP1 POP SWAP2 SWAP1 POP JUMP JUMPDEST PUSH2 0x54D5 DUP2 PUSH2 0x5F57 JUMP JUMPDEST PUSH2 0x5514 JUMPI PUSH1 0x40 MLOAD PUSH32 0x8C379A000000000000000000000000000000000000000000000000000000000 DUP2 MSTORE PUSH1 0x4 ADD PUSH2 0x550B SWAP1 PUSH2 0x847B JUMP JUMPDEST PUSH1 0x40 MLOAD DUP1 SWAP2 SUB SWAP1 REVERT JUMPDEST POP JUMP JUMPDEST PUSH1 0x0 CALLER SWAP1 POP SWAP1 JUMP JUMPDEST DUP2 PUSH1 0x4 PUSH1 0x0 DUP4 DUP2 MSTORE PUSH1 0x20 ADD SWAP1 DUP2 MSTORE PUSH1 0x20 ADD PUSH1 0x0 KECCAK256 PUSH1 0x0 PUSH2 0x100 EXP DUP2 SLOAD DUP2 PUSH20 0xFFFFFFFFFFFFFFFFFFFFFFFFFFFFFFFFFFFFFFFF MUL NOT AND SWAP1 DUP4 PUSH20 0xFFFFFFFFFFFFFFFFFFFFFFFFFFFFFFFFFFFFFFFF AND MUL OR SWAP1 SSTORE POP DUP1 DUP3 PUSH20 0xFFFFFFFFFFFFFFFFFFFFFFFFFFFFFFFFFFFFFFFF AND PUSH2 0x5592 DUP4 PUSH2 0x2DB4 JUMP JUMPDEST PUSH20 0xFFFFFFFFFFFFFFFFFFFFFFFFFFFFFFFFFFFFFFFF AND PUSH32 0x8C5BE1E5EBEC7D5BD14F71427D1E84F3DD0314C0F7B2291E5B200AC8C7C3B925 PUSH1 0x40 MLOAD PUSH1 0x40 MLOAD DUP1 SWAP2 SUB SWAP1 LOG4 POP POP JUMP JUMPDEST PUSH1 0x0 DUP1 PUSH2 0x55E4 DUP4 PUSH2 0x2DB4 JUMP JUMPDEST SWAP1 POP DUP1 PUSH20 0xFFFFFFFFFFFFFFFFFFFFFFFFFFFFFFFFFFFFFFFF AND DUP5 PUSH20 0xFFFFFFFFFFFFFFFFFFFFFFFFFFFFFFFFFFFFFFFF AND EQ DUP1 PUSH2 0x5626 JUMPI POP PUSH2 0x5625 DUP2 DUP6 PUSH2 0x46A8 JUMP JUMPDEST JUMPDEST DUP1 PUSH2 0x5664 JUMPI POP DUP4 PUSH20 0xFFFFFFFFFFFFFFFFFFFFFFFFFFFFFFFFFFFFFFFF AND PUSH2 0x564C DUP5 PUSH2 0x8F1 JUMP JUMPDEST PUSH20 0xFFFFFFFFFFFFFFFFFFFFFFFFFFFFFFFFFFFFFFFF AND EQ JUMPDEST SWAP2 POP POP SWAP3 SWAP2 POP POP JUMP JUMPDEST DUP3 PUSH20 0xFFFFFFFFFFFFFFFFFFFFFFFFFFFFFFFFFFFFFFFF AND PUSH2 0x568D DUP3 PUSH2 0x2DB4 JUMP JUMPDEST PUSH20 0xFFFFFFFFFFFFFFFFFFFFFFFFFFFFFFFFFFFFFFFF AND EQ PUSH2 0x56E3 JUMPI PUSH1 0x40 MLOAD PUSH32 0x8C379A000000000000000000000000000000000000000000000000000000000 DUP2 MSTORE PUSH1 0x4 ADD PUSH2 0x56DA SWAP1 PUSH2 0x8A67 JUMP JUMPDEST PUSH1 0x40 MLOAD DUP1 SWAP2 SUB SWAP1 REVERT JUMPDEST PUSH1 0x0 PUSH20 0xFFFFFFFFFFFFFFFFFFFFFFFFFFFFFFFFFFFFFFFF AND DUP3 PUSH20 0xFFFFFFFFFFFFFFFFFFFFFFFFFFFFFFFFFFFFFFFF AND SUB PUSH2 0x5752 JUMPI PUSH1 0x40 MLOAD PUSH32 0x8C379A000000000000000000000000000000000000000000000000000000000 DUP2 MSTORE PUSH1 0x4 ADD PUSH2 0x5749 SWAP1 PUSH2 0x8AF9 JUMP JUMPDEST PUSH1 0x40 MLOAD DUP1 SWAP2 SUB SWAP1 REVERT JUMPDEST PUSH2 0x575F DUP4 DUP4 DUP4 PUSH1 0x1 PUSH2 0x5F98 JUMP JUMPDEST DUP3 PUSH20 0xFFFFFFFFFFFFFFFFFFFFFFFFFFFFFFFFFFFFFFFF AND PUSH2 0x577F DUP3 PUSH2 0x2DB4 JUMP JUMPDEST PUSH20 0xFFFFFFFFFFFFFFFFFFFFFFFFFFFFFFFFFFFFFFFF AND EQ PUSH2 0x57D5 JUMPI PUSH1 0x40 MLOAD PUSH32 0x8C379A000000000000000000000000000000000000000000000000000000000 DUP2 MSTORE PUSH1 0x4 ADD PUSH2 0x57CC SWAP1 PUSH2 0x8A67 JUMP JUMPDEST PUSH1 0x40 MLOAD DUP1 SWAP2 SUB SWAP1 REVERT JUMPDEST PUSH1 0x4 PUSH1 0x0 DUP3 DUP2 MSTORE PUSH1 0x20 ADD SWAP1 DUP2 MSTORE PUSH1 0x20 ADD PUSH1 0x0 KECCAK256 PUSH1 0x0 PUSH2 0x100 EXP DUP2 SLOAD SWAP1 PUSH20 0xFFFFFFFFFFFFFFFFFFFFFFFFFFFFFFFFFFFFFFFF MUL NOT AND SWAP1 SSTORE PUSH1 0x1 PUSH1 0x3 PUSH1 0x0 DUP6 PUSH20 0xFFFFFFFFFFFFFFFFFFFFFFFFFFFFFFFFFFFFFFFF AND PUSH20 0xFFFFFFFFFFFFFFFFFFFFFFFFFFFFFFFFFFFFFFFF AND DUP2 MSTORE PUSH1 0x20 ADD SWAP1 DUP2 MSTORE PUSH1 0x20 ADD PUSH1 0x0 KECCAK256 PUSH1 0x0 DUP3 DUP3 SLOAD SUB SWAP3 POP POP DUP2 SWAP1 SSTORE POP PUSH1 0x1 PUSH1 0x3 PUSH1 0x0 DUP5 PUSH20 0xFFFFFFFFFFFFFFFFFFFFFFFFFFFFFFFFFFFFFFFF AND PUSH20 0xFFFFFFFFFFFFFFFFFFFFFFFFFFFFFFFFFFFFFFFF AND DUP2 MSTORE PUSH1 0x20 ADD SWAP1 DUP2 MSTORE PUSH1 0x20 ADD PUSH1 0x0 KECCAK256 PUSH1 0x0 DUP3 DUP3 SLOAD ADD SWAP3 POP POP DUP2 SWAP1 SSTORE POP DUP2 PUSH1 0x2 PUSH1 0x0 DUP4 DUP2 MSTORE PUSH1 0x20 ADD SWAP1 DUP2 MSTORE PUSH1 0x20 ADD PUSH1 0x0 KECCAK256 PUSH1 0x0 PUSH2 0x100 EXP DUP2 SLOAD DUP2 PUSH20 0xFFFFFFFFFFFFFFFFFFFFFFFFFFFFFFFFFFFFFFFF MUL NOT AND SWAP1 DUP4 PUSH20 0xFFFFFFFFFFFFFFFFFFFFFFFFFFFFFFFFFFFFFFFF AND MUL OR SWAP1 SSTORE POP DUP1 DUP3 PUSH20 0xFFFFFFFFFFFFFFFFFFFFFFFFFFFFFFFFFFFFFFFF AND DUP5 PUSH20 0xFFFFFFFFFFFFFFFFFFFFFFFFFFFFFFFFFFFFFFFF AND PUSH32 0xDDF252AD1BE2C89B69C2B068FC378DAA952BA7F163C4A11628F55A4DF523B3EF PUSH1 0x40 MLOAD PUSH1 0x40 MLOAD DUP1 SWAP2 SUB SWAP1 LOG4 PUSH2 0x5961 DUP4 DUP4 DUP4 PUSH1 0x1 PUSH2 0x5F9E JUMP JUMPDEST POP POP POP JUMP JUMPDEST POP JUMP JUMPDEST PUSH1 0x0 PUSH1 0x1 SWAP1 POP SWAP2 SWAP1 POP JUMP JUMPDEST PUSH2 0x598E DUP3 DUP3 PUSH1 0x40 MLOAD DUP1 PUSH1 0x20 ADD PUSH1 0x40 MSTORE DUP1 PUSH1 0x0 DUP2 MSTORE POP PUSH2 0x5FA4 JUMP JUMPDEST POP POP JUMP JUMPDEST PUSH2 0x599B DUP3 PUSH2 0x5F57 JUMP JUMPDEST PUSH2 0x59DA JUMPI PUSH1 0x40 MLOAD PUSH32 0x8C379A000000000000000000000000000000000000000000000000000000000 DUP2 MSTORE PUSH1 0x4 ADD PUSH2 0x59D1 SWAP1 PUSH2 0x8B8B JUMP JUMPDEST PUSH1 0x40 MLOAD DUP1 SWAP2 SUB SWAP1 REVERT JUMPDEST DUP1 PUSH1 0x6 PUSH1 0x0 DUP5 DUP2 MSTORE PUSH1 0x20 ADD SWAP1 DUP2 MSTORE PUSH1 0x20 ADD PUSH1 0x0 KECCAK256 SWAP1 DUP2 PUSH2 0x59FA SWAP2 SWAP1 PUSH2 0x8222 JUMP JUMPDEST POP PUSH32 0xF8E1A15ABA9398E019F0B49DF1A4FDE98EE17AE345CB5F6B5E2C27F5033E8CE7 DUP3 PUSH1 0x40 MLOAD PUSH2 0x5A2A SWAP2 SWAP1 PUSH2 0x6D55 JUMP JUMPDEST PUSH1 0x40 MLOAD DUP1 SWAP2 SUB SWAP1 LOG1 POP POP JUMP JUMPDEST PUSH1 0x0 PUSH2 0x5A4C PUSH8 0xC72A1DCCDE59C735 PUSH1 0xC0 SHL PUSH2 0x5966 JUMP JUMPDEST PUSH2 0x5A60 PUSH8 0xB0D7BD6CEA7A0E98 PUSH1 0xC0 SHL PUSH2 0x5966 JUMP JUMPDEST PUSH2 0x5A74 PUSH8 0x7B975C16A71DC269 PUSH1 0xC0 SHL PUSH2 0x5966 JUMP JUMPDEST PUSH1 0x0 DUP3 PUSH1 0x0 ADD MLOAD EQ ISZERO DUP1 ISZERO PUSH2 0x5AB5 JUMPI POP PUSH1 0x0 PUSH1 0x2 DUP2 GT ISZERO PUSH2 0x5A98 JUMPI PUSH2 0x5A97 PUSH2 0x6D9D JUMP JUMPDEST JUMPDEST PUSH2 0x5AA1 DUP4 PUSH2 0x5AD1 JUMP JUMPDEST PUSH1 0x2 DUP2 GT ISZERO PUSH2 0x5AB3 JUMPI PUSH2 0x5AB2 PUSH2 0x6D9D JUMP JUMPDEST JUMPDEST EQ JUMPDEST DUP1 ISZERO PUSH2 0x5ACA JUMPI POP PUSH2 0x5AC9 DUP3 PUSH1 0x40 ADD MLOAD PUSH2 0xAAE JUMP JUMPDEST JUMPDEST SWAP1 POP SWAP2 SWAP1 POP JUMP JUMPDEST PUSH1 0x0 PUSH2 0x5AE7 PUSH8 0x9B1E832238B380AE PUSH1 0xC0 SHL PUSH2 0x5966 JUMP JUMPDEST PUSH2 0x5AFB PUSH8 0xECD3DC78D0D2B6EC PUSH1 0xC0 SHL PUSH2 0x5966 JUMP JUMPDEST PUSH2 0x5B0F PUSH8 0x7C58ABAF3FE18772 PUSH1 0xC0 SHL PUSH2 0x5966 JUMP JUMPDEST PUSH1 0x1 PUSH1 0x2 DUP2 GT ISZERO PUSH2 0x5B23 JUMPI PUSH2 0x5B22 PUSH2 0x6D9D JUMP JUMPDEST JUMPDEST DUP3 PUSH2 0x100 ADD MLOAD PUSH1 0x2 DUP2 GT ISZERO PUSH2 0x5B3B JUMPI PUSH2 0x5B3A PUSH2 0x6D9D JUMP JUMPDEST JUMPDEST SUB PUSH2 0x5B85 JUMPI PUSH2 0x5B54 PUSH8 0xAED8C11F0D33E196 PUSH1 0xC0 SHL PUSH2 0x5966 JUMP JUMPDEST PUSH2 0x5B68 PUSH8 0xB035B31710CF6EDD PUSH1 0xC0 SHL PUSH2 0x5966 JUMP JUMPDEST PUSH2 0x5B7C PUSH8 0xDEFC95F4FCF9FAFA PUSH1 0xC0 SHL PUSH2 0x5966 JUMP JUMPDEST PUSH1 0x1 SWAP1 POP PUSH2 0x5C64 JUMP JUMPDEST PUSH2 0x5B99 PUSH8 0x8C8B73D9F19BD04B PUSH1 0xC0 SHL PUSH2 0x5966 JUMP JUMPDEST PUSH2 0x5BAD PUSH8 0x5549BF28DB0AB553 PUSH1 0xC0 SHL PUSH2 0x5966 JUMP JUMPDEST PUSH2 0x5BC1 PUSH8 0x7298F6F9455578CB PUSH1 0xC0 SHL PUSH2 0x5966 JUMP JUMPDEST PUSH1 0x0 DUP3 PUSH1 0xE0 ADD MLOAD EQ ISZERO DUP1 ISZERO PUSH2 0x5BD9 JUMPI POP DUP2 PUSH1 0xE0 ADD MLOAD TIMESTAMP GT JUMPDEST ISZERO PUSH2 0x5C23 JUMPI PUSH2 0x5BF2 PUSH8 0x90A820048B92B2BB PUSH1 0xC0 SHL PUSH2 0x5966 JUMP JUMPDEST PUSH2 0x5C06 PUSH8 0xFA42FE8B0EBE954E PUSH1 0xC0 SHL PUSH2 0x5966 JUMP JUMPDEST PUSH2 0x5C1A PUSH8 0xF5BEE0FC860FB261 PUSH1 0xC0 SHL PUSH2 0x5966 JUMP JUMPDEST PUSH1 0x2 SWAP1 POP PUSH2 0x5C64 JUMP JUMPDEST PUSH2 0x5C37 PUSH8 0x549DD095CC514303 PUSH1 0xC0 SHL PUSH2 0x5966 JUMP JUMPDEST PUSH2 0x5C4B PUSH8 0x8B85C969E5C3FBC5 PUSH1 0xC0 SHL PUSH2 0x5966 JUMP JUMPDEST PUSH2 0x5C5F PUSH8 0xFCC9EB05D03CDE09 PUSH1 0xC0 SHL PUSH2 0x5966 JUMP JUMPDEST PUSH1 0x0 SWAP1 POP JUMPDEST SWAP2 SWAP1 POP JUMP JUMPDEST PUSH1 0x0 PUSH1 0x2 PUSH1 0x0 DUP4 DUP2 MSTORE PUSH1 0x20 ADD SWAP1 DUP2 MSTORE PUSH1 0x20 ADD PUSH1 0x0 KECCAK256 PUSH1 0x0 SWAP1 SLOAD SWAP1 PUSH2 0x100 EXP SWAP1 DIV PUSH20 0xFFFFFFFFFFFFFFFFFFFFFFFFFFFFFFFFFFFFFFFF AND SWAP1 POP SWAP2 SWAP1 POP JUMP JUMPDEST DUP2 PUSH20 0xFFFFFFFFFFFFFFFFFFFFFFFFFFFFFFFFFFFFFFFF AND DUP4 PUSH20 0xFFFFFFFFFFFFFFFFFFFFFFFFFFFFFFFFFFFFFFFF AND SUB PUSH2 0x5D14 JUMPI PUSH1 0x40 MLOAD PUSH32 0x8C379A000000000000000000000000000000000000000000000000000000000 DUP2 MSTORE PUSH1 0x4 ADD PUSH2 0x5D0B SWAP1 PUSH2 0x8BF7 JUMP JUMPDEST PUSH1 0x40 MLOAD DUP1 SWAP2 SUB SWAP1 REVERT JUMPDEST DUP1 PUSH1 0x5 PUSH1 0x0 DUP6 PUSH20 0xFFFFFFFFFFFFFFFFFFFFFFFFFFFFFFFFFFFFFFFF AND PUSH20 0xFFFFFFFFFFFFFFFFFFFFFFFFFFFFFFFFFFFFFFFF AND DUP2 MSTORE PUSH1 0x20 ADD SWAP1 DUP2 MSTORE PUSH1 0x20 ADD PUSH1 0x0 KECCAK256 PUSH1 0x0 DUP5 PUSH20 0xFFFFFFFFFFFFFFFFFFFFFFFFFFFFFFFFFFFFFFFF AND PUSH20 0xFFFFFFFFFFFFFFFFFFFFFFFFFFFFFFFFFFFFFFFF AND DUP2 MSTORE PUSH1 0x20 ADD SWAP1 DUP2 MSTORE PUSH1 0x20 ADD PUSH1 0x0 KECCAK256 PUSH1 0x0 PUSH2 0x100 EXP DUP2 SLOAD DUP2 PUSH1 0xFF MUL NOT AND SWAP1 DUP4 ISZERO ISZERO MUL OR SWAP1 SSTORE POP DUP2 PUSH20 0xFFFFFFFFFFFFFFFFFFFFFFFFFFFFFFFFFFFFFFFF AND DUP4 PUSH20 0xFFFFFFFFFFFFFFFFFFFFFFFFFFFFFFFFFFFFFFFF AND PUSH32 0x17307EAB39AB6107E8899845AD3D59BD9653F200F220920489CA2B5937696C31 DUP4 PUSH1 0x40 MLOAD PUSH2 0x5E05 SWAP2 SWAP1 PUSH2 0x681D JUMP JUMPDEST PUSH1 0x40 MLOAD DUP1 SWAP2 SUB SWAP1 LOG3 POP POP POP JUMP JUMPDEST PUSH2 0x5E1D DUP5 DUP5 DUP5 PUSH2 0x566D JUMP JUMPDEST PUSH2 0x5E29 DUP5 DUP5 DUP5 DUP5 PUSH2 0x5FFF JUMP JUMPDEST PUSH2 0x5E68 JUMPI PUSH1 0x40 MLOAD PUSH32 0x8C379A000000000000000000000000000000000000000000000000000000000 DUP2 MSTORE PUSH1 0x4 ADD PUSH2 0x5E5F SWAP1 PUSH2 0x8C89 JUMP JUMPDEST PUSH1 0x40 MLOAD DUP1 SWAP2 SUB SWAP1 REVERT JUMPDEST POP POP POP POP JUMP JUMPDEST PUSH1 0x60 PUSH1 0x40 MLOAD DUP1 PUSH1 0x20 ADD PUSH1 0x40 MSTORE DUP1 PUSH1 0x0 DUP2 MSTORE POP SWAP1 POP SWAP1 JUMP JUMPDEST PUSH1 0x60 PUSH2 0x5E90 DUP3 PUSH2 0x54CC JUMP JUMPDEST PUSH1 0x0 PUSH2 0x5E9A PUSH2 0x5E6E JUMP JUMPDEST SWAP1 POP PUSH1 0x0 DUP2 MLOAD GT PUSH2 0x5EBA JUMPI PUSH1 0x40 MLOAD DUP1 PUSH1 0x20 ADD PUSH1 0x40 MSTORE DUP1 PUSH1 0x0 DUP2 MSTORE POP PUSH2 0x5EE5 JUMP JUMPDEST DUP1 PUSH2 0x5EC4 DUP5 PUSH2 0x6186 JUMP JUMPDEST PUSH1 0x40 MLOAD PUSH1 0x20 ADD PUSH2 0x5ED5 SWAP3 SWAP2 SWAP1 PUSH2 0x8816 JUMP JUMPDEST PUSH1 0x40 MLOAD PUSH1 0x20 DUP2 DUP4 SUB SUB DUP2 MSTORE SWAP1 PUSH1 0x40 MSTORE JUMPDEST SWAP2 POP POP SWAP2 SWAP1 POP JUMP JUMPDEST PUSH1 0x0 PUSH32 0x1FFC9A700000000000000000000000000000000000000000000000000000000 PUSH28 0xFFFFFFFFFFFFFFFFFFFFFFFFFFFFFFFFFFFFFFFFFFFFFFFFFFFFFFFF NOT AND DUP3 PUSH28 0xFFFFFFFFFFFFFFFFFFFFFFFFFFFFFFFFFFFFFFFFFFFFFFFFFFFFFFFF NOT AND EQ SWAP1 POP SWAP2 SWAP1 POP JUMP JUMPDEST PUSH1 0x0 DUP1 PUSH20 0xFFFFFFFFFFFFFFFFFFFFFFFFFFFFFFFFFFFFFFFF AND PUSH2 0x5F79 DUP4 PUSH2 0x5C69 JUMP JUMPDEST PUSH20 0xFFFFFFFFFFFFFFFFFFFFFFFFFFFFFFFFFFFFFFFF AND EQ ISZERO SWAP1 POP SWAP2 SWAP1 POP JUMP JUMPDEST POP POP POP POP JUMP JUMPDEST POP POP POP POP JUMP JUMPDEST PUSH2 0x5FAE DUP4 DUP4 PUSH2 0x6254 JUMP JUMPDEST PUSH2 0x5FBB PUSH1 0x0 DUP5 DUP5 DUP5 PUSH2 0x5FFF JUMP JUMPDEST PUSH2 0x5FFA JUMPI PUSH1 0x40 MLOAD PUSH32 0x8C379A000000000000000000000000000000000000000000000000000000000 DUP2 MSTORE PUSH1 0x4 ADD PUSH2 0x5FF1 SWAP1 PUSH2 0x8C89 JUMP JUMPDEST PUSH1 0x40 MLOAD DUP1 SWAP2 SUB SWAP1 REVERT JUMPDEST POP POP POP JUMP JUMPDEST PUSH1 0x0 PUSH2 0x6020 DUP5 PUSH20 0xFFFFFFFFFFFFFFFFFFFFFFFFFFFFFFFFFFFFFFFF AND PUSH2 0x6471 JUMP JUMPDEST ISZERO PUSH2 0x6179 JUMPI DUP4 PUSH20 0xFFFFFFFFFFFFFFFFFFFFFFFFFFFFFFFFFFFFFFFF AND PUSH4 0x150B7A02 PUSH2 0x6049 PUSH2 0x5517 JUMP JUMPDEST DUP8 DUP7 DUP7 PUSH1 0x40 MLOAD DUP6 PUSH4 0xFFFFFFFF AND PUSH1 0xE0 SHL DUP2 MSTORE PUSH1 0x4 ADD PUSH2 0x606B SWAP5 SWAP4 SWAP3 SWAP2 SWAP1 PUSH2 0x8CFE JUMP JUMPDEST PUSH1 0x20 PUSH1 0x40 MLOAD DUP1 DUP4 SUB DUP2 PUSH1 0x0 DUP8 GAS CALL SWAP3 POP POP POP DUP1 ISZERO PUSH2 0x60A7 JUMPI POP PUSH1 0x40 MLOAD RETURNDATASIZE PUSH1 0x1F NOT PUSH1 0x1F DUP3 ADD AND DUP3 ADD DUP1 PUSH1 0x40 MSTORE POP DUP2 ADD SWAP1 PUSH2 0x60A4 SWAP2 SWAP1 PUSH2 0x8D5F JUMP JUMPDEST PUSH1 0x1 JUMPDEST PUSH2 0x6129 JUMPI RETURNDATASIZE DUP1 PUSH1 0x0 DUP2 EQ PUSH2 0x60D7 JUMPI PUSH1 0x40 MLOAD SWAP2 POP PUSH1 0x1F NOT PUSH1 0x3F RETURNDATASIZE ADD AND DUP3 ADD PUSH1 0x40 MSTORE RETURNDATASIZE DUP3 MSTORE RETURNDATASIZE PUSH1 0x0 PUSH1 0x20 DUP5 ADD RETURNDATACOPY PUSH2 0x60DC JUMP JUMPDEST PUSH1 0x60 SWAP2 POP JUMPDEST POP PUSH1 0x0 DUP2 MLOAD SUB PUSH2 0x6121 JUMPI PUSH1 0x40 MLOAD PUSH32 0x8C379A000000000000000000000000000000000000000000000000000000000 DUP2 MSTORE PUSH1 0x4 ADD PUSH2 0x6118 SWAP1 PUSH2 0x8C89 JUMP JUMPDEST PUSH1 0x40 MLOAD DUP1 SWAP2 SUB SWAP1 REVERT JUMPDEST DUP1 MLOAD DUP2 PUSH1 0x20 ADD REVERT JUMPDEST PUSH4 0x150B7A02 PUSH1 0xE0 SHL PUSH28 0xFFFFFFFFFFFFFFFFFFFFFFFFFFFFFFFFFFFFFFFFFFFFFFFFFFFFFFFF NOT AND DUP2 PUSH28 0xFFFFFFFFFFFFFFFFFFFFFFFFFFFFFFFFFFFFFFFFFFFFFFFFFFFFFFFF NOT AND EQ SWAP2 POP POP PUSH2 0x617E JUMP JUMPDEST PUSH1 0x1 SWAP1 POP JUMPDEST SWAP5 SWAP4 POP POP POP POP JUMP JUMPDEST PUSH1 0x60 PUSH1 0x0 PUSH1 0x1 PUSH2 0x6195 DUP5 PUSH2 0x6494 JUMP JUMPDEST ADD SWAP1 POP PUSH1 0x0 DUP2 PUSH8 0xFFFFFFFFFFFFFFFF DUP2 GT ISZERO PUSH2 0x61B4 JUMPI PUSH2 0x61B3 PUSH2 0x6AD5 JUMP JUMPDEST JUMPDEST PUSH1 0x40 MLOAD SWAP1 DUP1 DUP3 MSTORE DUP1 PUSH1 0x1F ADD PUSH1 0x1F NOT AND PUSH1 0x20 ADD DUP3 ADD PUSH1 0x40 MSTORE DUP1 ISZERO PUSH2 0x61E6 JUMPI DUP2 PUSH1 0x20 ADD PUSH1 0x1 DUP3 MUL DUP1 CALLDATASIZE DUP4 CALLDATACOPY DUP1 DUP3 ADD SWAP2 POP POP SWAP1 POP JUMPDEST POP SWAP1 POP PUSH1 0x0 DUP3 PUSH1 0x20 ADD DUP3 ADD SWAP1 POP JUMPDEST PUSH1 0x1 ISZERO PUSH2 0x6249 JUMPI DUP1 DUP1 PUSH1 0x1 SWAP1 SUB SWAP2 POP POP PUSH32 0x3031323334353637383961626364656600000000000000000000000000000000 PUSH1 0xA DUP7 MOD BYTE DUP2 MSTORE8 PUSH1 0xA DUP6 DUP2 PUSH2 0x623D JUMPI PUSH2 0x623C PUSH2 0x8D8C JUMP JUMPDEST JUMPDEST DIV SWAP5 POP PUSH1 0x0 DUP6 SUB PUSH2 0x61F4 JUMPI JUMPDEST DUP2 SWAP4 POP POP POP POP SWAP2 SWAP1 POP JUMP JUMPDEST PUSH1 0x0 PUSH20 0xFFFFFFFFFFFFFFFFFFFFFFFFFFFFFFFFFFFFFFFF AND DUP3 PUSH20 0xFFFFFFFFFFFFFFFFFFFFFFFFFFFFFFFFFFFFFFFF AND SUB PUSH2 0x62C3 JUMPI PUSH1 0x40 MLOAD PUSH32 0x8C379A000000000000000000000000000000000000000000000000000000000 DUP2 MSTORE PUSH1 0x4 ADD PUSH2 0x62BA SWAP1 PUSH2 0x8E07 JUMP JUMPDEST PUSH1 0x40 MLOAD DUP1 SWAP2 SUB SWAP1 REVERT JUMPDEST PUSH2 0x62CC DUP2 PUSH2 0x5F57 JUMP JUMPDEST ISZERO PUSH2 0x630C JUMPI PUSH1 0x40 MLOAD PUSH32 0x8C379A000000000000000000000000000000000000000000000000000000000 DUP2 MSTORE PUSH1 0x4 ADD PUSH2 0x6303 SWAP1 PUSH2 0x8E73 JUMP JUMPDEST PUSH1 0x40 MLOAD DUP1 SWAP2 SUB SWAP1 REVERT JUMPDEST PUSH2 0x631A PUSH1 0x0 DUP4 DUP4 PUSH1 0x1 PUSH2 0x5F98 JUMP JUMPDEST PUSH2 0x6323 DUP2 PUSH2 0x5F57 JUMP JUMPDEST ISZERO PUSH2 0x6363 JUMPI PUSH1 0x40 MLOAD PUSH32 0x8C379A000000000000000000000000000000000000000000000000000000000 DUP2 MSTORE PUSH1 0x4 ADD PUSH2 0x635A SWAP1 PUSH2 0x8E73 JUMP JUMPDEST PUSH1 0x40 MLOAD DUP1 SWAP2 SUB SWAP1 REVERT JUMPDEST PUSH1 0x1 PUSH1 0x3 PUSH1 0x0 DUP5 PUSH20 0xFFFFFFFFFFFFFFFFFFFFFFFFFFFFFFFFFFFFFFFF AND PUSH20 0xFFFFFFFFFFFFFFFFFFFFFFFFFFFFFFFFFFFFFFFF AND DUP2 MSTORE PUSH1 0x20 ADD SWAP1 DUP2 MSTORE PUSH1 0x20 ADD PUSH1 0x0 KECCAK256 PUSH1 0x0 DUP3 DUP3 SLOAD ADD SWAP3 POP POP DUP2 SWAP1 SSTORE POP DUP2 PUSH1 0x2 PUSH1 0x0 DUP4 DUP2 MSTORE PUSH1 0x20 ADD SWAP1 DUP2 MSTORE PUSH1 0x20 ADD PUSH1 0x0 KECCAK256 PUSH1 0x0 PUSH2 0x100 EXP DUP2 SLOAD DUP2 PUSH20 0xFFFFFFFFFFFFFFFFFFFFFFFFFFFFFFFFFFFFFFFF MUL NOT AND SWAP1 DUP4 PUSH20 0xFFFFFFFFFFFFFFFFFFFFFFFFFFFFFFFFFFFFFFFF AND MUL OR SWAP1 SSTORE POP DUP1 DUP3 PUSH20 0xFFFFFFFFFFFFFFFFFFFFFFFFFFFFFFFFFFFFFFFF AND PUSH1 0x0 PUSH20 0xFFFFFFFFFFFFFFFFFFFFFFFFFFFFFFFFFFFFFFFF AND PUSH32 0xDDF252AD1BE2C89B69C2B068FC378DAA952BA7F163C4A11628F55A4DF523B3EF PUSH1 0x40 MLOAD PUSH1 0x40 MLOAD DUP1 SWAP2 SUB SWAP1 LOG4 PUSH2 0x646D PUSH1 0x0 DUP4 DUP4 PUSH1 0x1 PUSH2 0x5F9E JUMP JUMPDEST POP POP JUMP JUMPDEST PUSH1 0x0 DUP1 DUP3 PUSH20 0xFFFFFFFFFFFFFFFFFFFFFFFFFFFFFFFFFFFFFFFF AND EXTCODESIZE GT SWAP1 POP SWAP2 SWAP1 POP JUMP JUMPDEST PUSH1 0x0 DUP1 PUSH1 0x0 SWAP1 POP PUSH27 0x184F03E93FF9F4DAA797ED6E38ED64BF6A1F010000000000000000 DUP4 LT PUSH2 0x64F2 JUMPI PUSH27 0x184F03E93FF9F4DAA797ED6E38ED64BF6A1F010000000000000000 DUP4 DUP2 PUSH2 0x64E8 JUMPI PUSH2 0x64E7 PUSH2 0x8D8C JUMP JUMPDEST JUMPDEST DIV SWAP3 POP PUSH1 0x40 DUP2 ADD SWAP1 POP JUMPDEST PUSH14 0x4EE2D6D415B85ACEF8100000000 DUP4 LT PUSH2 0x652F JUMPI PUSH14 0x4EE2D6D415B85ACEF8100000000 DUP4 DUP2 PUSH2 0x6525 JUMPI PUSH2 0x6524 PUSH2 0x8D8C JUMP JUMPDEST JUMPDEST DIV SWAP3 POP PUSH1 0x20 DUP2 ADD SWAP1 POP JUMPDEST PUSH7 0x2386F26FC10000 DUP4 LT PUSH2 0x655E JUMPI PUSH7 0x2386F26FC10000 DUP4 DUP2 PUSH2 0x6554 JUMPI PUSH2 0x6553 PUSH2 0x8D8C JUMP JUMPDEST JUMPDEST DIV SWAP3 POP PUSH1 0x10 DUP2 ADD SWAP1 POP JUMPDEST PUSH4 0x5F5E100 DUP4 LT PUSH2 0x6587 JUMPI PUSH4 0x5F5E100 DUP4 DUP2 PUSH2 0x657D JUMPI PUSH2 0x657C PUSH2 0x8D8C JUMP JUMPDEST JUMPDEST DIV SWAP3 POP PUSH1 0x8 DUP2 ADD SWAP1 POP JUMPDEST PUSH2 0x2710 DUP4 LT PUSH2 0x65AC JUMPI PUSH2 0x2710 DUP4 DUP2 PUSH2 0x65A2 JUMPI PUSH2 0x65A1 PUSH2 0x8D8C JUMP JUMPDEST JUMPDEST DIV SWAP3 POP PUSH1 0x4 DUP2 ADD SWAP1 POP JUMPDEST PUSH1 0x64 DUP4 LT PUSH2 0x65CF JUMPI PUSH1 0x64 DUP4 DUP2 PUSH2 0x65C5 JUMPI PUSH2 0x65C4 PUSH2 0x8D8C JUMP JUMPDEST JUMPDEST DIV SWAP3 POP PUSH1 0x2 DUP2 ADD SWAP1 POP JUMPDEST PUSH1 0xA DUP4 LT PUSH2 0x65DE JUMPI PUSH1 0x1 DUP2 ADD SWAP1 POP JUMPDEST DUP1 SWAP2 POP POP SWAP2 SWAP1 POP JUMP JUMPDEST PUSH1 0x40 MLOAD DUP1 PUSH2 0x140 ADD PUSH1 0x40 MSTORE DUP1 PUSH1 0x0 DUP2 MSTORE PUSH1 0x20 ADD PUSH1 0x0 DUP1 NOT AND DUP2 MSTORE PUSH1 0x20 ADD PUSH1 0x0 PUSH20 0xFFFFFFFFFFFFFFFFFFFFFFFFFFFFFFFFFFFFFFFF AND DUP2 MSTORE PUSH1 0x20 ADD PUSH1 0x0 PUSH20 0xFFFFFFFFFFFFFFFFFFFFFFFFFFFFFFFFFFFFFFFF AND DUP2 MSTORE PUSH1 0x20 ADD PUSH1 0x0 PUSH1 0x5 DUP2 GT ISZERO PUSH2 0x6652 JUMPI PUSH2 0x6651 PUSH2 0x6D9D JUMP JUMPDEST JUMPDEST DUP2 MSTORE PUSH1 0x20 ADD PUSH1 0x60 DUP2 MSTORE PUSH1 0x20 ADD PUSH1 0x0 DUP2 MSTORE PUSH1 0x20 ADD PUSH1 0x0 DUP2 MSTORE PUSH1 0x20 ADD PUSH1 0x0 PUSH1 0x2 DUP2 GT ISZERO PUSH2 0x6680 JUMPI PUSH2 0x667F PUSH2 0x6D9D JUMP JUMPDEST JUMPDEST DUP2 MSTORE PUSH1 0x20 ADD PUSH1 0x60 DUP2 MSTORE POP SWAP1 JUMP JUMPDEST PUSH1 0x40 MLOAD DUP1 PUSH1 0x60 ADD PUSH1 0x40 MSTORE DUP1 PUSH1 0x0 PUSH20 0xFFFFFFFFFFFFFFFFFFFFFFFFFFFFFFFFFFFFFFFF AND DUP2 MSTORE PUSH1 0x20 ADD PUSH1 0x60 DUP2 MSTORE PUSH1 0x20 ADD PUSH1 0x60 DUP2 MSTORE POP SWAP1 JUMP JUMPDEST PUSH1 0x40 MLOAD DUP1 PUSH1 0x80 ADD PUSH1 0x40 MSTORE DUP1 PUSH1 0x0 DUP2 MSTORE PUSH1 0x20 ADD PUSH1 0x0 DUP2 MSTORE PUSH1 0x20 ADD PUSH1 0x60 DUP2 MSTORE PUSH1 0x20 ADD PUSH1 0x0 PUSH20 0xFFFFFFFFFFFFFFFFFFFFFFFFFFFFFFFFFFFFFFFF AND DUP2 MSTORE POP SWAP1 JUMP JUMPDEST PUSH1 0x40 MLOAD DUP1 PUSH1 0xE0 ADD PUSH1 0x40 MSTORE DUP1 PUSH1 0x0 PUSH20 0xFFFFFFFFFFFFFFFFFFFFFFFFFFFFFFFFFFFFFFFF AND DUP2 MSTORE PUSH1 0x20 ADD PUSH1 0x60 DUP2 MSTORE PUSH1 0x20 ADD PUSH1 0x60 DUP2 MSTORE PUSH1 0x20 ADD PUSH1 0x60 DUP2 MSTORE PUSH1 0x20 ADD PUSH1 0x0 DUP2 MSTORE PUSH1 0x20 ADD PUSH1 0x0 PUSH1 0x2 DUP2 GT ISZERO PUSH2 0x675A JUMPI PUSH2 0x6759 PUSH2 0x6D9D JUMP JUMPDEST JUMPDEST DUP2 MSTORE PUSH1 0x20 ADD PUSH1 0x0 ISZERO ISZERO DUP2 MSTORE POP SWAP1 JUMP JUMPDEST PUSH1 0x0 PUSH1 0x40 MLOAD SWAP1 POP SWAP1 JUMP JUMPDEST PUSH1 0x0 DUP1 REVERT JUMPDEST PUSH1 0x0 DUP1 REVERT JUMPDEST PUSH1 0x0 PUSH32 0xFFFFFFFF00000000000000000000000000000000000000000000000000000000 DUP3 AND SWAP1 POP SWAP2 SWAP1 POP JUMP JUMPDEST PUSH2 0x67B2 DUP2 PUSH2 0x677D JUMP JUMPDEST DUP2 EQ PUSH2 0x67BD JUMPI PUSH1 0x0 DUP1 REVERT JUMPDEST POP JUMP JUMPDEST PUSH1 0x0 DUP2 CALLDATALOAD SWAP1 POP PUSH2 0x67CF DUP2 PUSH2 0x67A9 JUMP JUMPDEST SWAP3 SWAP2 POP POP JUMP JUMPDEST PUSH1 0x0 PUSH1 0x20 DUP3 DUP5 SUB SLT ISZERO PUSH2 0x67EB JUMPI PUSH2 0x67EA PUSH2 0x6773 JUMP JUMPDEST JUMPDEST PUSH1 0x0 PUSH2 0x67F9 DUP5 DUP3 DUP6 ADD PUSH2 0x67C0 JUMP JUMPDEST SWAP2 POP POP SWAP3 SWAP2 POP POP JUMP JUMPDEST PUSH1 0x0 DUP2 ISZERO ISZERO SWAP1 POP SWAP2 SWAP1 POP JUMP JUMPDEST PUSH2 0x6817 DUP2 PUSH2 0x6802 JUMP JUMPDEST DUP3 MSTORE POP POP JUMP JUMPDEST PUSH1 0x0 PUSH1 0x20 DUP3 ADD SWAP1 POP PUSH2 0x6832 PUSH1 0x0 DUP4 ADD DUP5 PUSH2 0x680E JUMP JUMPDEST SWAP3 SWAP2 POP POP JUMP JUMPDEST PUSH1 0x0 DUP2 MLOAD SWAP1 POP SWAP2 SWAP1 POP JUMP JUMPDEST PUSH1 0x0 DUP3 DUP3 MSTORE PUSH1 0x20 DUP3 ADD SWAP1 POP SWAP3 SWAP2 POP POP JUMP JUMPDEST PUSH1 0x0 JUMPDEST DUP4 DUP2 LT ISZERO PUSH2 0x6872 JUMPI DUP1 DUP3 ADD MLOAD DUP2 DUP5 ADD MSTORE PUSH1 0x20 DUP2 ADD SWAP1 POP PUSH2 0x6857 JUMP JUMPDEST PUSH1 0x0 DUP5 DUP5 ADD MSTORE POP POP POP POP JUMP JUMPDEST PUSH1 0x0 PUSH1 0x1F NOT PUSH1 0x1F DUP4 ADD AND SWAP1 POP SWAP2 SWAP1 POP JUMP JUMPDEST PUSH1 0x0 PUSH2 0x689A DUP3 PUSH2 0x6838 JUMP JUMPDEST PUSH2 0x68A4 DUP2 DUP6 PUSH2 0x6843 JUMP JUMPDEST SWAP4 POP PUSH2 0x68B4 DUP2 DUP6 PUSH1 0x20 DUP7 ADD PUSH2 0x6854 JUMP JUMPDEST PUSH2 0x68BD DUP2 PUSH2 0x687E JUMP JUMPDEST DUP5 ADD SWAP2 POP POP SWAP3 SWAP2 POP POP JUMP JUMPDEST PUSH1 0x0 PUSH1 0x20 DUP3 ADD SWAP1 POP DUP2 DUP2 SUB PUSH1 0x0 DUP4 ADD MSTORE PUSH2 0x68E2 DUP2 DUP5 PUSH2 0x688F JUMP JUMPDEST SWAP1 POP SWAP3 SWAP2 POP POP JUMP JUMPDEST PUSH1 0x0 DUP2 SWAP1 POP SWAP2 SWAP1 POP JUMP JUMPDEST PUSH2 0x68FD DUP2 PUSH2 0x68EA JUMP JUMPDEST DUP2 EQ PUSH2 0x6908 JUMPI PUSH1 0x0 DUP1 REVERT JUMPDEST POP JUMP JUMPDEST PUSH1 0x0 DUP2 CALLDATALOAD SWAP1 POP PUSH2 0x691A DUP2 PUSH2 0x68F4 JUMP JUMPDEST SWAP3 SWAP2 POP POP JUMP JUMPDEST PUSH1 0x0 PUSH1 0x20 DUP3 DUP5 SUB SLT ISZERO PUSH2 0x6936 JUMPI PUSH2 0x6935 PUSH2 0x6773 JUMP JUMPDEST JUMPDEST PUSH1 0x0 PUSH2 0x6944 DUP5 DUP3 DUP6 ADD PUSH2 0x690B JUMP JUMPDEST SWAP2 POP POP SWAP3 SWAP2 POP POP JUMP JUMPDEST PUSH1 0x0 PUSH20 0xFFFFFFFFFFFFFFFFFFFFFFFFFFFFFFFFFFFFFFFF DUP3 AND SWAP1 POP SWAP2 SWAP1 POP JUMP JUMPDEST PUSH1 0x0 PUSH2 0x6978 DUP3 PUSH2 0x694D JUMP JUMPDEST SWAP1 POP SWAP2 SWAP1 POP JUMP JUMPDEST PUSH2 0x6988 DUP2 PUSH2 0x696D JUMP JUMPDEST DUP3 MSTORE POP POP JUMP JUMPDEST PUSH1 0x0 PUSH1 0x20 DUP3 ADD SWAP1 POP PUSH2 0x69A3 PUSH1 0x0 DUP4 ADD DUP5 PUSH2 0x697F JUMP JUMPDEST SWAP3 SWAP2 POP POP JUMP JUMPDEST PUSH2 0x69B2 DUP2 PUSH2 0x696D JUMP JUMPDEST DUP2 EQ PUSH2 0x69BD JUMPI PUSH1 0x0 DUP1 REVERT JUMPDEST POP JUMP JUMPDEST PUSH1 0x0 DUP2 CALLDATALOAD SWAP1 POP PUSH2 0x69CF DUP2 PUSH2 0x69A9 JUMP JUMPDEST SWAP3 SWAP2 POP POP JUMP JUMPDEST PUSH1 0x0 DUP1 PUSH1 0x40 DUP4 DUP6 SUB SLT ISZERO PUSH2 0x69EC JUMPI PUSH2 0x69EB PUSH2 0x6773 JUMP JUMPDEST JUMPDEST PUSH1 0x0 PUSH2 0x69FA DUP6 DUP3 DUP7 ADD PUSH2 0x69C0 JUMP JUMPDEST SWAP3 POP POP PUSH1 0x20 PUSH2 0x6A0B DUP6 DUP3 DUP7 ADD PUSH2 0x690B JUMP JUMPDEST SWAP2 POP POP SWAP3 POP SWAP3 SWAP1 POP JUMP JUMPDEST PUSH1 0x0 DUP1 PUSH1 0x0 PUSH1 0x60 DUP5 DUP7 SUB SLT ISZERO PUSH2 0x6A2E JUMPI PUSH2 0x6A2D PUSH2 0x6773 JUMP JUMPDEST JUMPDEST PUSH1 0x0 PUSH2 0x6A3C DUP7 DUP3 DUP8 ADD PUSH2 0x69C0 JUMP JUMPDEST SWAP4 POP POP PUSH1 0x20 PUSH2 0x6A4D DUP7 DUP3 DUP8 ADD PUSH2 0x69C0 JUMP JUMPDEST SWAP3 POP POP PUSH1 0x40 PUSH2 0x6A5E DUP7 DUP3 DUP8 ADD PUSH2 0x690B JUMP JUMPDEST SWAP2 POP POP SWAP3 POP SWAP3 POP SWAP3 JUMP JUMPDEST PUSH1 0x0 PUSH1 0x20 DUP3 DUP5 SUB SLT ISZERO PUSH2 0x6A7E JUMPI PUSH2 0x6A7D PUSH2 0x6773 JUMP JUMPDEST JUMPDEST PUSH1 0x0 PUSH2 0x6A8C DUP5 DUP3 DUP6 ADD PUSH2 0x69C0 JUMP JUMPDEST SWAP2 POP POP SWAP3 SWAP2 POP POP JUMP JUMPDEST PUSH1 0x0 DUP2 SWAP1 POP SWAP2 SWAP1 POP JUMP JUMPDEST PUSH2 0x6AA8 DUP2 PUSH2 0x6A95 JUMP JUMPDEST DUP2 EQ PUSH2 0x6AB3 JUMPI PUSH1 0x0 DUP1 REVERT JUMPDEST POP JUMP JUMPDEST PUSH1 0x0 DUP2 CALLDATALOAD SWAP1 POP PUSH2 0x6AC5 DUP2 PUSH2 0x6A9F JUMP JUMPDEST SWAP3 SWAP2 POP POP JUMP JUMPDEST PUSH1 0x0 DUP1 REVERT JUMPDEST PUSH1 0x0 DUP1 REVERT JUMPDEST PUSH32 0x4E487B7100000000000000000000000000000000000000000000000000000000 PUSH1 0x0 MSTORE PUSH1 0x41 PUSH1 0x4 MSTORE PUSH1 0x24 PUSH1 0x0 REVERT JUMPDEST PUSH2 0x6B0D DUP3 PUSH2 0x687E JUMP JUMPDEST DUP2 ADD DUP2 DUP2 LT PUSH8 0xFFFFFFFFFFFFFFFF DUP3 GT OR ISZERO PUSH2 0x6B2C JUMPI PUSH2 0x6B2B PUSH2 0x6AD5 JUMP JUMPDEST JUMPDEST DUP1 PUSH1 0x40 MSTORE POP POP POP JUMP JUMPDEST PUSH1 0x0 PUSH2 0x6B3F PUSH2 0x6769 JUMP JUMPDEST SWAP1 POP PUSH2 0x6B4B DUP3 DUP3 PUSH2 0x6B04 JUMP JUMPDEST SWAP2 SWAP1 POP JUMP JUMPDEST PUSH1 0x0 PUSH8 0xFFFFFFFFFFFFFFFF DUP3 GT ISZERO PUSH2 0x6B6B JUMPI PUSH2 0x6B6A PUSH2 0x6AD5 JUMP JUMPDEST JUMPDEST PUSH2 0x6B74 DUP3 PUSH2 0x687E JUMP JUMPDEST SWAP1 POP PUSH1 0x20 DUP2 ADD SWAP1 POP SWAP2 SWAP1 POP JUMP JUMPDEST DUP3 DUP2 DUP4 CALLDATACOPY PUSH1 0x0 DUP4 DUP4 ADD MSTORE POP POP POP JUMP JUMPDEST PUSH1 0x0 PUSH2 0x6BA3 PUSH2 0x6B9E DUP5 PUSH2 0x6B50 JUMP JUMPDEST PUSH2 0x6B35 JUMP JUMPDEST SWAP1 POP DUP3 DUP2 MSTORE PUSH1 0x20 DUP2 ADD DUP5 DUP5 DUP5 ADD GT ISZERO PUSH2 0x6BBF JUMPI PUSH2 0x6BBE PUSH2 0x6AD0 JUMP JUMPDEST JUMPDEST PUSH2 0x6BCA DUP5 DUP3 DUP6 PUSH2 0x6B81 JUMP JUMPDEST POP SWAP4 SWAP3 POP POP POP JUMP JUMPDEST PUSH1 0x0 DUP3 PUSH1 0x1F DUP4 ADD SLT PUSH2 0x6BE7 JUMPI PUSH2 0x6BE6 PUSH2 0x6ACB JUMP JUMPDEST JUMPDEST DUP2 CALLDATALOAD PUSH2 0x6BF7 DUP5 DUP3 PUSH1 0x20 DUP7 ADD PUSH2 0x6B90 JUMP JUMPDEST SWAP2 POP POP SWAP3 SWAP2 POP POP JUMP JUMPDEST PUSH1 0x0 DUP1 PUSH1 0x40 DUP4 DUP6 SUB SLT ISZERO PUSH2 0x6C17 JUMPI PUSH2 0x6C16 PUSH2 0x6773 JUMP JUMPDEST JUMPDEST PUSH1 0x0 PUSH2 0x6C25 DUP6 DUP3 DUP7 ADD PUSH2 0x6AB6 JUMP JUMPDEST SWAP3 POP POP PUSH1 0x20 DUP4 ADD CALLDATALOAD PUSH8 0xFFFFFFFFFFFFFFFF DUP2 GT ISZERO PUSH2 0x6C46 JUMPI PUSH2 0x6C45 PUSH2 0x6778 JUMP JUMPDEST JUMPDEST PUSH2 0x6C52 DUP6 DUP3 DUP7 ADD PUSH2 0x6BD2 JUMP JUMPDEST SWAP2 POP POP SWAP3 POP SWAP3 SWAP1 POP JUMP JUMPDEST PUSH1 0x6 DUP2 LT PUSH2 0x6C69 JUMPI PUSH1 0x0 DUP1 REVERT JUMPDEST POP JUMP JUMPDEST PUSH1 0x0 DUP2 CALLDATALOAD SWAP1 POP PUSH2 0x6C7B DUP2 PUSH2 0x6C5C JUMP JUMPDEST SWAP3 SWAP2 POP POP JUMP JUMPDEST PUSH1 0x0 DUP1 PUSH1 0x0 DUP1 PUSH1 0x0 DUP1 PUSH1 0xC0 DUP8 DUP10 SUB SLT ISZERO PUSH2 0x6C9E JUMPI PUSH2 0x6C9D PUSH2 0x6773 JUMP JUMPDEST JUMPDEST PUSH1 0x0 PUSH2 0x6CAC DUP10 DUP3 DUP11 ADD PUSH2 0x6AB6 JUMP JUMPDEST SWAP7 POP POP PUSH1 0x20 PUSH2 0x6CBD DUP10 DUP3 DUP11 ADD PUSH2 0x69C0 JUMP JUMPDEST SWAP6 POP POP PUSH1 0x40 PUSH2 0x6CCE DUP10 DUP3 DUP11 ADD PUSH2 0x6C6C JUMP JUMPDEST SWAP5 POP POP PUSH1 0x60 DUP8 ADD CALLDATALOAD PUSH8 0xFFFFFFFFFFFFFFFF DUP2 GT ISZERO PUSH2 0x6CEF JUMPI PUSH2 0x6CEE PUSH2 0x6778 JUMP JUMPDEST JUMPDEST PUSH2 0x6CFB DUP10 DUP3 DUP11 ADD PUSH2 0x6BD2 JUMP JUMPDEST SWAP4 POP POP PUSH1 0x80 PUSH2 0x6D0C DUP10 DUP3 DUP11 ADD PUSH2 0x690B JUMP JUMPDEST SWAP3 POP POP PUSH1 0xA0 DUP8 ADD CALLDATALOAD PUSH8 0xFFFFFFFFFFFFFFFF DUP2 GT ISZERO PUSH2 0x6D2D JUMPI PUSH2 0x6D2C PUSH2 0x6778 JUMP JUMPDEST JUMPDEST PUSH2 0x6D39 DUP10 DUP3 DUP11 ADD PUSH2 0x6BD2 JUMP JUMPDEST SWAP2 POP POP SWAP3 SWAP6 POP SWAP3 SWAP6 POP SWAP3 SWAP6 JUMP JUMPDEST PUSH2 0x6D4F DUP2 PUSH2 0x68EA JUMP JUMPDEST DUP3 MSTORE POP POP JUMP JUMPDEST PUSH1 0x0 PUSH1 0x20 DUP3 ADD SWAP1 POP PUSH2 0x6D6A PUSH1 0x0 DUP4 ADD DUP5 PUSH2 0x6D46 JUMP JUMPDEST SWAP3 SWAP2 POP POP JUMP JUMPDEST PUSH2 0x6D79 DUP2 PUSH2 0x68EA JUMP JUMPDEST DUP3 MSTORE POP POP JUMP JUMPDEST PUSH2 0x6D88 DUP2 PUSH2 0x6A95 JUMP JUMPDEST DUP3 MSTORE POP POP JUMP JUMPDEST PUSH2 0x6D97 DUP2 PUSH2 0x696D JUMP JUMPDEST DUP3 MSTORE POP POP JUMP JUMPDEST PUSH32 0x4E487B7100000000000000000000000000000000000000000000000000000000 PUSH1 0x0 MSTORE PUSH1 0x21 PUSH1 0x4 MSTORE PUSH1 0x24 PUSH1 0x0 REVERT JUMPDEST PUSH1 0x6 DUP2 LT PUSH2 0x6DDD JUMPI PUSH2 0x6DDC PUSH2 0x6D9D JUMP JUMPDEST JUMPDEST POP JUMP JUMPDEST PUSH1 0x0 DUP2 SWAP1 POP PUSH2 0x6DEE DUP3 PUSH2 0x6DCC JUMP JUMPDEST SWAP2 SWAP1 POP JUMP JUMPDEST PUSH1 0x0 PUSH2 0x6DFE DUP3 PUSH2 0x6DE0 JUMP JUMPDEST SWAP1 POP SWAP2 SWAP1 POP JUMP JUMPDEST PUSH2 0x6E0E DUP2 PUSH2 0x6DF3 JUMP JUMPDEST DUP3 MSTORE POP POP JUMP JUMPDEST PUSH1 0x0 DUP3 DUP3 MSTORE PUSH1 0x20 DUP3 ADD SWAP1 POP SWAP3 SWAP2 POP POP JUMP JUMPDEST PUSH1 0x0 PUSH2 0x6E30 DUP3 PUSH2 0x6838 JUMP JUMPDEST PUSH2 0x6E3A DUP2 DUP6 PUSH2 0x6E14 JUMP JUMPDEST SWAP4 POP PUSH2 0x6E4A DUP2 DUP6 PUSH1 0x20 DUP7 ADD PUSH2 0x6854 JUMP JUMPDEST PUSH2 0x6E53 DUP2 PUSH2 0x687E JUMP JUMPDEST DUP5 ADD SWAP2 POP POP SWAP3 SWAP2 POP POP JUMP JUMPDEST PUSH1 0x3 DUP2 LT PUSH2 0x6E6F JUMPI PUSH2 0x6E6E PUSH2 0x6D9D JUMP JUMPDEST JUMPDEST POP JUMP JUMPDEST PUSH1 0x0 DUP2 SWAP1 POP PUSH2 0x6E80 DUP3 PUSH2 0x6E5E JUMP JUMPDEST SWAP2 SWAP1 POP JUMP JUMPDEST PUSH1 0x0 PUSH2 0x6E90 DUP3 PUSH2 0x6E72 JUMP JUMPDEST SWAP1 POP SWAP2 SWAP1 POP JUMP JUMPDEST PUSH2 0x6EA0 DUP2 PUSH2 0x6E85 JUMP JUMPDEST DUP3 MSTORE POP POP JUMP JUMPDEST PUSH1 0x0 PUSH2 0x140 DUP4 ADD PUSH1 0x0 DUP4 ADD MLOAD PUSH2 0x6EBF PUSH1 0x0 DUP7 ADD DUP3 PUSH2 0x6D70 JUMP JUMPDEST POP PUSH1 0x20 DUP4 ADD MLOAD PUSH2 0x6ED2 PUSH1 0x20 DUP7 ADD DUP3 PUSH2 0x6D7F JUMP JUMPDEST POP PUSH1 0x40 DUP4 ADD MLOAD PUSH2 0x6EE5 PUSH1 0x40 DUP7 ADD DUP3 PUSH2 0x6D8E JUMP JUMPDEST POP PUSH1 0x60 DUP4 ADD MLOAD PUSH2 0x6EF8 PUSH1 0x60 DUP7 ADD DUP3 PUSH2 0x6D8E JUMP JUMPDEST POP PUSH1 0x80 DUP4 ADD MLOAD PUSH2 0x6F0B PUSH1 0x80 DUP7 ADD DUP3 PUSH2 0x6E05 JUMP JUMPDEST POP PUSH1 0xA0 DUP4 ADD MLOAD DUP5 DUP3 SUB PUSH1 0xA0 DUP7 ADD MSTORE PUSH2 0x6F23 DUP3 DUP3 PUSH2 0x6E25 JUMP JUMPDEST SWAP2 POP POP PUSH1 0xC0 DUP4 ADD MLOAD PUSH2 0x6F38 PUSH1 0xC0 DUP7 ADD DUP3 PUSH2 0x6D70 JUMP JUMPDEST POP PUSH1 0xE0 DUP4 ADD MLOAD PUSH2 0x6F4B PUSH1 0xE0 DUP7 ADD DUP3 PUSH2 0x6D70 JUMP JUMPDEST POP PUSH2 0x100 DUP4 ADD MLOAD PUSH2 0x6F60 PUSH2 0x100 DUP7 ADD DUP3 PUSH2 0x6E97 JUMP JUMPDEST POP PUSH2 0x120 DUP4 ADD MLOAD DUP5 DUP3 SUB PUSH2 0x120 DUP7 ADD MSTORE PUSH2 0x6F7A DUP3 DUP3 PUSH2 0x6E25 JUMP JUMPDEST SWAP2 POP POP DUP1 SWAP2 POP POP SWAP3 SWAP2 POP POP JUMP JUMPDEST PUSH1 0x0 PUSH1 0x20 DUP3 ADD SWAP1 POP DUP2 DUP2 SUB PUSH1 0x0 DUP4 ADD MSTORE PUSH2 0x6FA1 DUP2 DUP5 PUSH2 0x6EA6 JUMP JUMPDEST SWAP1 POP SWAP3 SWAP2 POP POP JUMP JUMPDEST PUSH1 0x0 DUP2 MLOAD SWAP1 POP SWAP2 SWAP1 POP JUMP JUMPDEST PUSH1 0x0 DUP3 DUP3 MSTORE PUSH1 0x20 DUP3 ADD SWAP1 POP SWAP3 SWAP2 POP POP JUMP JUMPDEST PUSH1 0x0 DUP2 SWAP1 POP PUSH1 0x20 DUP3 ADD SWAP1 POP SWAP2 SWAP1 POP JUMP JUMPDEST PUSH1 0x0 PUSH2 0x6FE1 DUP4 DUP4 PUSH2 0x6D70 JUMP JUMPDEST PUSH1 0x20 DUP4 ADD SWAP1 POP SWAP3 SWAP2 POP POP JUMP JUMPDEST PUSH1 0x0 PUSH1 0x20 DUP3 ADD SWAP1 POP SWAP2 SWAP1 POP JUMP JUMPDEST PUSH1 0x0 PUSH2 0x7005 DUP3 PUSH2 0x6FA9 JUMP JUMPDEST PUSH2 0x700F DUP2 DUP6 PUSH2 0x6FB4 JUMP JUMPDEST SWAP4 POP PUSH2 0x701A DUP4 PUSH2 0x6FC5 JUMP JUMPDEST DUP1 PUSH1 0x0 JUMPDEST DUP4 DUP2 LT ISZERO PUSH2 0x704B JUMPI DUP2 MLOAD PUSH2 0x7032 DUP9 DUP3 PUSH2 0x6FD5 JUMP JUMPDEST SWAP8 POP PUSH2 0x703D DUP4 PUSH2 0x6FED JUMP JUMPDEST SWAP3 POP POP PUSH1 0x1 DUP2 ADD SWAP1 POP PUSH2 0x701E JUMP JUMPDEST POP DUP6 SWAP4 POP POP POP POP SWAP3 SWAP2 POP POP JUMP JUMPDEST PUSH1 0x0 PUSH1 0x60 DUP4 ADD PUSH1 0x0 DUP4 ADD MLOAD PUSH2 0x7070 PUSH1 0x0 DUP7 ADD DUP3 PUSH2 0x6D8E JUMP JUMPDEST POP PUSH1 0x20 DUP4 ADD MLOAD DUP5 DUP3 SUB PUSH1 0x20 DUP7 ADD MSTORE PUSH2 0x7088 DUP3 DUP3 PUSH2 0x6E25 JUMP JUMPDEST SWAP2 POP POP PUSH1 0x40 DUP4 ADD MLOAD DUP5 DUP3 SUB PUSH1 0x40 DUP7 ADD MSTORE PUSH2 0x70A2 DUP3 DUP3 PUSH2 0x6FFA JUMP JUMPDEST SWAP2 POP POP DUP1 SWAP2 POP POP SWAP3 SWAP2 POP POP JUMP JUMPDEST PUSH1 0x0 PUSH1 0x20 DUP3 ADD SWAP1 POP DUP2 DUP2 SUB PUSH1 0x0 DUP4 ADD MSTORE PUSH2 0x70C9 DUP2 DUP5 PUSH2 0x7058 JUMP JUMPDEST SWAP1 POP SWAP3 SWAP2 POP POP JUMP JUMPDEST PUSH1 0x0 DUP3 DUP3 MSTORE PUSH1 0x20 DUP3 ADD SWAP1 POP SWAP3 SWAP2 POP POP JUMP JUMPDEST PUSH1 0x0 PUSH2 0x70ED DUP3 PUSH2 0x6FA9 JUMP JUMPDEST PUSH2 0x70F7 DUP2 DUP6 PUSH2 0x70D1 JUMP JUMPDEST SWAP4 POP PUSH2 0x7102 DUP4 PUSH2 0x6FC5 JUMP JUMPDEST DUP1 PUSH1 0x0 JUMPDEST DUP4 DUP2 LT ISZERO PUSH2 0x7133 JUMPI DUP2 MLOAD PUSH2 0x711A DUP9 DUP3 PUSH2 0x6FD5 JUMP JUMPDEST SWAP8 POP PUSH2 0x7125 DUP4 PUSH2 0x6FED JUMP JUMPDEST SWAP3 POP POP PUSH1 0x1 DUP2 ADD SWAP1 POP PUSH2 0x7106 JUMP JUMPDEST POP DUP6 SWAP4 POP POP POP POP SWAP3 SWAP2 POP POP JUMP JUMPDEST PUSH1 0x0 PUSH1 0x20 DUP3 ADD SWAP1 POP DUP2 DUP2 SUB PUSH1 0x0 DUP4 ADD MSTORE PUSH2 0x715A DUP2 DUP5 PUSH2 0x70E2 JUMP JUMPDEST SWAP1 POP SWAP3 SWAP2 POP POP JUMP JUMPDEST PUSH1 0x0 DUP1 PUSH1 0x0 PUSH1 0x60 DUP5 DUP7 SUB SLT ISZERO PUSH2 0x717B JUMPI PUSH2 0x717A PUSH2 0x6773 JUMP JUMPDEST JUMPDEST PUSH1 0x0 DUP5 ADD CALLDATALOAD PUSH8 0xFFFFFFFFFFFFFFFF DUP2 GT ISZERO PUSH2 0x7199 JUMPI PUSH2 0x7198 PUSH2 0x6778 JUMP JUMPDEST JUMPDEST PUSH2 0x71A5 DUP7 DUP3 DUP8 ADD PUSH2 0x6BD2 JUMP JUMPDEST SWAP4 POP POP PUSH1 0x20 DUP5 ADD CALLDATALOAD PUSH8 0xFFFFFFFFFFFFFFFF DUP2 GT ISZERO PUSH2 0x71C6 JUMPI PUSH2 0x71C5 PUSH2 0x6778 JUMP JUMPDEST JUMPDEST PUSH2 0x71D2 DUP7 DUP3 DUP8 ADD PUSH2 0x6BD2 JUMP JUMPDEST SWAP3 POP POP PUSH1 0x40 DUP5 ADD CALLDATALOAD PUSH8 0xFFFFFFFFFFFFFFFF DUP2 GT ISZERO PUSH2 0x71F3 JUMPI PUSH2 0x71F2 PUSH2 0x6778 JUMP JUMPDEST JUMPDEST PUSH2 0x71FF DUP7 DUP3 DUP8 ADD PUSH2 0x6BD2 JUMP JUMPDEST SWAP2 POP POP SWAP3 POP SWAP3 POP SWAP3 JUMP JUMPDEST PUSH1 0x0 PUSH1 0x20 DUP3 DUP5 SUB SLT ISZERO PUSH2 0x721F JUMPI PUSH2 0x721E PUSH2 0x6773 JUMP JUMPDEST JUMPDEST PUSH1 0x0 PUSH2 0x722D DUP5 DUP3 DUP6 ADD PUSH2 0x6AB6 JUMP JUMPDEST SWAP2 POP POP SWAP3 SWAP2 POP POP JUMP JUMPDEST PUSH2 0x723F DUP2 PUSH2 0x6E85 JUMP JUMPDEST DUP3 MSTORE POP POP JUMP JUMPDEST PUSH1 0x0 PUSH1 0xA0 DUP3 ADD SWAP1 POP PUSH2 0x725A PUSH1 0x0 DUP4 ADD DUP9 PUSH2 0x680E JUMP JUMPDEST PUSH2 0x7267 PUSH1 0x20 DUP4 ADD DUP8 PUSH2 0x680E JUMP JUMPDEST PUSH2 0x7274 PUSH1 0x40 DUP4 ADD DUP7 PUSH2 0x7236 JUMP JUMPDEST PUSH2 0x7281 PUSH1 0x60 DUP4 ADD DUP6 PUSH2 0x697F JUMP JUMPDEST PUSH2 0x728E PUSH1 0x80 DUP4 ADD DUP5 PUSH2 0x697F JUMP JUMPDEST SWAP7 SWAP6 POP POP POP POP POP POP JUMP JUMPDEST PUSH2 0x72A1 DUP2 PUSH2 0x6802 JUMP JUMPDEST DUP2 EQ PUSH2 0x72AC JUMPI PUSH1 0x0 DUP1 REVERT JUMPDEST POP JUMP JUMPDEST PUSH1 0x0 DUP2 CALLDATALOAD SWAP1 POP PUSH2 0x72BE DUP2 PUSH2 0x7298 JUMP JUMPDEST SWAP3 SWAP2 POP POP JUMP JUMPDEST PUSH1 0x0 DUP1 PUSH1 0x40 DUP4 DUP6 SUB SLT ISZERO PUSH2 0x72DB JUMPI PUSH2 0x72DA PUSH2 0x6773 JUMP JUMPDEST JUMPDEST PUSH1 0x0 PUSH2 0x72E9 DUP6 DUP3 DUP7 ADD PUSH2 0x69C0 JUMP JUMPDEST SWAP3 POP POP PUSH1 0x20 PUSH2 0x72FA DUP6 DUP3 DUP7 ADD PUSH2 0x72AF JUMP JUMPDEST SWAP2 POP POP SWAP3 POP SWAP3 SWAP1 POP JUMP JUMPDEST PUSH1 0x0 DUP1 PUSH1 0x40 DUP4 DUP6 SUB SLT ISZERO PUSH2 0x731B JUMPI PUSH2 0x731A PUSH2 0x6773 JUMP JUMPDEST JUMPDEST PUSH1 0x0 PUSH2 0x7329 DUP6 DUP3 DUP7 ADD PUSH2 0x690B JUMP JUMPDEST SWAP3 POP POP PUSH1 0x20 DUP4 ADD CALLDATALOAD PUSH8 0xFFFFFFFFFFFFFFFF DUP2 GT ISZERO PUSH2 0x734A JUMPI PUSH2 0x7349 PUSH2 0x6778 JUMP JUMPDEST JUMPDEST PUSH2 0x7356 DUP6 DUP3 DUP7 ADD PUSH2 0x6BD2 JUMP JUMPDEST SWAP2 POP POP SWAP3 POP SWAP3 SWAP1 POP JUMP JUMPDEST PUSH1 0x3 DUP2 LT PUSH2 0x736D JUMPI PUSH1 0x0 DUP1 REVERT JUMPDEST POP JUMP JUMPDEST PUSH1 0x0 DUP2 CALLDATALOAD SWAP1 POP PUSH2 0x737F DUP2 PUSH2 0x7360 JUMP JUMPDEST SWAP3 SWAP2 POP POP JUMP JUMPDEST PUSH1 0x0 DUP1 PUSH1 0x40 DUP4 DUP6 SUB SLT ISZERO PUSH2 0x739C JUMPI PUSH2 0x739B PUSH2 0x6773 JUMP JUMPDEST JUMPDEST PUSH1 0x0 PUSH2 0x73AA DUP6 DUP3 DUP7 ADD PUSH2 0x69C0 JUMP JUMPDEST SWAP3 POP POP PUSH1 0x20 PUSH2 0x73BB DUP6 DUP3 DUP7 ADD PUSH2 0x7370 JUMP JUMPDEST SWAP2 POP POP SWAP3 POP SWAP3 SWAP1 POP JUMP JUMPDEST PUSH1 0x0 PUSH8 0xFFFFFFFFFFFFFFFF DUP3 GT ISZERO PUSH2 0x73E0 JUMPI PUSH2 0x73DF PUSH2 0x6AD5 JUMP JUMPDEST JUMPDEST PUSH2 0x73E9 DUP3 PUSH2 0x687E JUMP JUMPDEST SWAP1 POP PUSH1 0x20 DUP2 ADD SWAP1 POP SWAP2 SWAP1 POP JUMP JUMPDEST PUSH1 0x0 PUSH2 0x7409 PUSH2 0x7404 DUP5 PUSH2 0x73C5 JUMP JUMPDEST PUSH2 0x6B35 JUMP JUMPDEST SWAP1 POP DUP3 DUP2 MSTORE PUSH1 0x20 DUP2 ADD DUP5 DUP5 DUP5 ADD GT ISZERO PUSH2 0x7425 JUMPI PUSH2 0x7424 PUSH2 0x6AD0 JUMP JUMPDEST JUMPDEST PUSH2 0x7430 DUP5 DUP3 DUP6 PUSH2 0x6B81 JUMP JUMPDEST POP SWAP4 SWAP3 POP POP POP JUMP JUMPDEST PUSH1 0x0 DUP3 PUSH1 0x1F DUP4 ADD SLT PUSH2 0x744D JUMPI PUSH2 0x744C PUSH2 0x6ACB JUMP JUMPDEST JUMPDEST DUP2 CALLDATALOAD PUSH2 0x745D DUP5 DUP3 PUSH1 0x20 DUP7 ADD PUSH2 0x73F6 JUMP JUMPDEST SWAP2 POP POP SWAP3 SWAP2 POP POP JUMP JUMPDEST PUSH1 0x0 DUP1 PUSH1 0x0 DUP1 PUSH1 0x80 DUP6 DUP8 SUB SLT ISZERO PUSH2 0x7480 JUMPI PUSH2 0x747F PUSH2 0x6773 JUMP JUMPDEST JUMPDEST PUSH1 0x0 PUSH2 0x748E DUP8 DUP3 DUP9 ADD PUSH2 0x69C0 JUMP JUMPDEST SWAP5 POP POP PUSH1 0x20 PUSH2 0x749F DUP8 DUP3 DUP9 ADD PUSH2 0x69C0 JUMP JUMPDEST SWAP4 POP POP PUSH1 0x40 PUSH2 0x74B0 DUP8 DUP3 DUP9 ADD PUSH2 0x690B JUMP JUMPDEST SWAP3 POP POP PUSH1 0x60 DUP6 ADD CALLDATALOAD PUSH8 0xFFFFFFFFFFFFFFFF DUP2 GT ISZERO PUSH2 0x74D1 JUMPI PUSH2 0x74D0 PUSH2 0x6778 JUMP JUMPDEST JUMPDEST PUSH2 0x74DD DUP8 DUP3 DUP9 ADD PUSH2 0x7438 JUMP JUMPDEST SWAP2 POP POP SWAP3 SWAP6 SWAP2 SWAP5 POP SWAP3 POP JUMP JUMPDEST PUSH1 0x0 PUSH1 0x80 DUP4 ADD PUSH1 0x0 DUP4 ADD MLOAD PUSH2 0x7501 PUSH1 0x0 DUP7 ADD DUP3 PUSH2 0x6D70 JUMP JUMPDEST POP PUSH1 0x20 DUP4 ADD MLOAD PUSH2 0x7514 PUSH1 0x20 DUP7 ADD DUP3 PUSH2 0x6D70 JUMP JUMPDEST POP PUSH1 0x40 DUP4 ADD MLOAD DUP5 DUP3 SUB PUSH1 0x40 DUP7 ADD MSTORE PUSH2 0x752C DUP3 DUP3 PUSH2 0x6E25 JUMP JUMPDEST SWAP2 POP POP PUSH1 0x60 DUP4 ADD MLOAD PUSH2 0x7541 PUSH1 0x60 DUP7 ADD DUP3 PUSH2 0x6D8E JUMP JUMPDEST POP DUP1 SWAP2 POP POP SWAP3 SWAP2 POP POP JUMP JUMPDEST PUSH1 0x0 PUSH1 0x20 DUP3 ADD SWAP1 POP DUP2 DUP2 SUB PUSH1 0x0 DUP4 ADD MSTORE PUSH2 0x7566 DUP2 DUP5 PUSH2 0x74E9 JUMP JUMPDEST SWAP1 POP SWAP3 SWAP2 POP POP JUMP JUMPDEST PUSH1 0x0 DUP1 PUSH1 0x40 DUP4 DUP6 SUB SLT ISZERO PUSH2 0x7585 JUMPI PUSH2 0x7584 PUSH2 0x6773 JUMP JUMPDEST JUMPDEST PUSH1 0x0 PUSH2 0x7593 DUP6 DUP3 DUP7 ADD PUSH2 0x69C0 JUMP JUMPDEST SWAP3 POP POP PUSH1 0x20 PUSH2 0x75A4 DUP6 DUP3 DUP7 ADD PUSH2 0x69C0 JUMP JUMPDEST SWAP2 POP POP SWAP3 POP SWAP3 SWAP1 POP JUMP JUMPDEST PUSH1 0x0 PUSH8 0xFFFFFFFFFFFFFFFF DUP3 GT ISZERO PUSH2 0x75C9 JUMPI PUSH2 0x75C8 PUSH2 0x6AD5 JUMP JUMPDEST JUMPDEST PUSH1 0x20 DUP3 MUL SWAP1 POP PUSH1 0x20 DUP2 ADD SWAP1 POP SWAP2 SWAP1 POP JUMP JUMPDEST PUSH1 0x0 DUP1 REVERT JUMPDEST PUSH1 0x0 PUSH2 0x75F2 PUSH2 0x75ED DUP5 PUSH2 0x75AE JUMP JUMPDEST PUSH2 0x6B35 JUMP JUMPDEST SWAP1 POP DUP1 DUP4 DUP3 MSTORE PUSH1 0x20 DUP3 ADD SWAP1 POP PUSH1 0x20 DUP5 MUL DUP4 ADD DUP6 DUP2 GT ISZERO PUSH2 0x7615 JUMPI PUSH2 0x7614 PUSH2 0x75DA JUMP JUMPDEST JUMPDEST DUP4 JUMPDEST DUP2 DUP2 LT ISZERO PUSH2 0x763E JUMPI DUP1 PUSH2 0x762A DUP9 DUP3 PUSH2 0x6AB6 JUMP JUMPDEST DUP5 MSTORE PUSH1 0x20 DUP5 ADD SWAP4 POP POP PUSH1 0x20 DUP2 ADD SWAP1 POP PUSH2 0x7617 JUMP JUMPDEST POP POP POP SWAP4 SWAP3 POP POP POP JUMP JUMPDEST PUSH1 0x0 DUP3 PUSH1 0x1F DUP4 ADD SLT PUSH2 0x765D JUMPI PUSH2 0x765C PUSH2 0x6ACB JUMP JUMPDEST JUMPDEST DUP2 CALLDATALOAD PUSH2 0x766D DUP5 DUP3 PUSH1 0x20 DUP7 ADD PUSH2 0x75DF JUMP JUMPDEST SWAP2 POP POP SWAP3 SWAP2 POP POP JUMP JUMPDEST PUSH1 0x0 PUSH8 0xFFFFFFFFFFFFFFFF DUP3 GT ISZERO PUSH2 0x7691 JUMPI PUSH2 0x7690 PUSH2 0x6AD5 JUMP JUMPDEST JUMPDEST PUSH1 0x20 DUP3 MUL SWAP1 POP PUSH1 0x20 DUP2 ADD SWAP1 POP SWAP2 SWAP1 POP JUMP JUMPDEST PUSH1 0x0 PUSH2 0x76B5 PUSH2 0x76B0 DUP5 PUSH2 0x7676 JUMP JUMPDEST PUSH2 0x6B35 JUMP JUMPDEST SWAP1 POP DUP1 DUP4 DUP3 MSTORE PUSH1 0x20 DUP3 ADD SWAP1 POP PUSH1 0x20 DUP5 MUL DUP4 ADD DUP6 DUP2 GT ISZERO PUSH2 0x76D8 JUMPI PUSH2 0x76D7 PUSH2 0x75DA JUMP JUMPDEST JUMPDEST DUP4 JUMPDEST DUP2 DUP2 LT ISZERO PUSH2 0x7701 JUMPI DUP1 PUSH2 0x76ED DUP9 DUP3 PUSH2 0x69C0 JUMP JUMPDEST DUP5 MSTORE PUSH1 0x20 DUP5 ADD SWAP4 POP POP PUSH1 0x20 DUP2 ADD SWAP1 POP PUSH2 0x76DA JUMP JUMPDEST POP POP POP SWAP4 SWAP3 POP POP POP JUMP JUMPDEST PUSH1 0x0 DUP3 PUSH1 0x1F DUP4 ADD SLT PUSH2 0x7720 JUMPI PUSH2 0x771F PUSH2 0x6ACB JUMP JUMPDEST JUMPDEST DUP2 CALLDATALOAD PUSH2 0x7730 DUP5 DUP3 PUSH1 0x20 DUP7 ADD PUSH2 0x76A2 JUMP JUMPDEST SWAP2 POP POP SWAP3 SWAP2 POP POP JUMP JUMPDEST PUSH1 0x0 PUSH8 0xFFFFFFFFFFFFFFFF DUP3 GT ISZERO PUSH2 0x7754 JUMPI PUSH2 0x7753 PUSH2 0x6AD5 JUMP JUMPDEST JUMPDEST PUSH1 0x20 DUP3 MUL SWAP1 POP PUSH1 0x20 DUP2 ADD SWAP1 POP SWAP2 SWAP1 POP JUMP JUMPDEST PUSH1 0x0 PUSH2 0x7778 PUSH2 0x7773 DUP5 PUSH2 0x7739 JUMP JUMPDEST PUSH2 0x6B35 JUMP JUMPDEST SWAP1 POP DUP1 DUP4 DUP3 MSTORE PUSH1 0x20 DUP3 ADD SWAP1 POP PUSH1 0x20 DUP5 MUL DUP4 ADD DUP6 DUP2 GT ISZERO PUSH2 0x779B JUMPI PUSH2 0x779A PUSH2 0x75DA JUMP JUMPDEST JUMPDEST DUP4 JUMPDEST DUP2 DUP2 LT ISZERO PUSH2 0x77E2 JUMPI DUP1 CALLDATALOAD PUSH8 0xFFFFFFFFFFFFFFFF DUP2 GT ISZERO PUSH2 0x77C0 JUMPI PUSH2 0x77BF PUSH2 0x6ACB JUMP JUMPDEST JUMPDEST DUP1 DUP7 ADD PUSH2 0x77CD DUP10 DUP3 PUSH2 0x6BD2 JUMP JUMPDEST DUP6 MSTORE PUSH1 0x20 DUP6 ADD SWAP5 POP POP POP PUSH1 0x20 DUP2 ADD SWAP1 POP PUSH2 0x779D JUMP JUMPDEST POP POP POP SWAP4 SWAP3 POP POP POP JUMP JUMPDEST PUSH1 0x0 DUP3 PUSH1 0x1F DUP4 ADD SLT PUSH2 0x7801 JUMPI PUSH2 0x7800 PUSH2 0x6ACB JUMP JUMPDEST JUMPDEST DUP2 CALLDATALOAD PUSH2 0x7811 DUP5 DUP3 PUSH1 0x20 DUP7 ADD PUSH2 0x7765 JUMP JUMPDEST SWAP2 POP POP SWAP3 SWAP2 POP POP JUMP JUMPDEST PUSH1 0x0 DUP1 PUSH1 0x0 DUP1 PUSH1 0x0 PUSH1 0xA0 DUP7 DUP9 SUB SLT ISZERO PUSH2 0x7836 JUMPI PUSH2 0x7835 PUSH2 0x6773 JUMP JUMPDEST JUMPDEST PUSH1 0x0 DUP7 ADD CALLDATALOAD PUSH8 0xFFFFFFFFFFFFFFFF DUP2 GT ISZERO PUSH2 0x7854 JUMPI PUSH2 0x7853 PUSH2 0x6778 JUMP JUMPDEST JUMPDEST PUSH2 0x7860 DUP9 DUP3 DUP10 ADD PUSH2 0x7648 JUMP JUMPDEST SWAP6 POP POP PUSH1 0x20 DUP7 ADD CALLDATALOAD PUSH8 0xFFFFFFFFFFFFFFFF DUP2 GT ISZERO PUSH2 0x7881 JUMPI PUSH2 0x7880 PUSH2 0x6778 JUMP JUMPDEST JUMPDEST PUSH2 0x788D DUP9 DUP3 DUP10 ADD PUSH2 0x770B JUMP JUMPDEST SWAP5 POP POP PUSH1 0x40 PUSH2 0x789E DUP9 DUP3 DUP10 ADD PUSH2 0x6C6C JUMP JUMPDEST SWAP4 POP POP PUSH1 0x60 DUP7 ADD CALLDATALOAD PUSH8 0xFFFFFFFFFFFFFFFF DUP2 GT ISZERO PUSH2 0x78BF JUMPI PUSH2 0x78BE PUSH2 0x6778 JUMP JUMPDEST JUMPDEST PUSH2 0x78CB DUP9 DUP3 DUP10 ADD PUSH2 0x6BD2 JUMP JUMPDEST SWAP3 POP POP PUSH1 0x80 DUP7 ADD CALLDATALOAD PUSH8 0xFFFFFFFFFFFFFFFF DUP2 GT ISZERO PUSH2 0x78EC JUMPI PUSH2 0x78EB PUSH2 0x6778 JUMP JUMPDEST JUMPDEST PUSH2 0x78F8 DUP9 DUP3 DUP10 ADD PUSH2 0x77EC JUMP JUMPDEST SWAP2 POP POP SWAP3 SWAP6 POP SWAP3 SWAP6 SWAP1 SWAP4 POP JUMP JUMPDEST PUSH1 0x3 DUP2 LT PUSH2 0x7916 JUMPI PUSH2 0x7915 PUSH2 0x6D9D JUMP JUMPDEST JUMPDEST POP JUMP JUMPDEST PUSH1 0x0 DUP2 SWAP1 POP PUSH2 0x7927 DUP3 PUSH2 0x7905 JUMP JUMPDEST SWAP2 SWAP1 POP JUMP JUMPDEST PUSH1 0x0 PUSH2 0x7937 DUP3 PUSH2 0x7919 JUMP JUMPDEST SWAP1 POP SWAP2 SWAP1 POP JUMP JUMPDEST PUSH2 0x7947 DUP2 PUSH2 0x792C JUMP JUMPDEST DUP3 MSTORE POP POP JUMP JUMPDEST PUSH2 0x7956 DUP2 PUSH2 0x6802 JUMP JUMPDEST DUP3 MSTORE POP POP JUMP JUMPDEST PUSH1 0x0 PUSH1 0xE0 DUP4 ADD PUSH1 0x0 DUP4 ADD MLOAD PUSH2 0x7974 PUSH1 0x0 DUP7 ADD DUP3 PUSH2 0x6D8E JUMP JUMPDEST POP PUSH1 0x20 DUP4 ADD MLOAD DUP5 DUP3 SUB PUSH1 0x20 DUP7 ADD MSTORE PUSH2 0x798C DUP3 DUP3 PUSH2 0x6E25 JUMP JUMPDEST SWAP2 POP POP PUSH1 0x40 DUP4 ADD MLOAD DUP5 DUP3 SUB PUSH1 0x40 DUP7 ADD MSTORE PUSH2 0x79A6 DUP3 DUP3 PUSH2 0x6E25 JUMP JUMPDEST SWAP2 POP POP PUSH1 0x60 DUP4 ADD MLOAD DUP5 DUP3 SUB PUSH1 0x60 DUP7 ADD MSTORE PUSH2 0x79C0 DUP3 DUP3 PUSH2 0x6E25 JUMP JUMPDEST SWAP2 POP POP PUSH1 0x80 DUP4 ADD MLOAD PUSH2 0x79D5 PUSH1 0x80 DUP7 ADD DUP3 PUSH2 0x6D70 JUMP JUMPDEST POP PUSH1 0xA0 DUP4 ADD MLOAD PUSH2 0x79E8 PUSH1 0xA0 DUP7 ADD DUP3 PUSH2 0x793E JUMP JUMPDEST POP PUSH1 0xC0 DUP4 ADD MLOAD PUSH2 0x79FB PUSH1 0xC0 DUP7 ADD DUP3 PUSH2 0x794D JUMP JUMPDEST POP DUP1 SWAP2 POP POP SWAP3 SWAP2 POP POP JUMP JUMPDEST PUSH1 0x0 PUSH1 0x20 DUP3 ADD SWAP1 POP DUP2 DUP2 SUB PUSH1 0x0 DUP4 ADD MSTORE PUSH2 0x7A20 DUP2 DUP5 PUSH2 0x795C JUMP JUMPDEST SWAP1 POP SWAP3 SWAP2 POP POP JUMP JUMPDEST PUSH32 0x4E487B7100000000000000000000000000000000000000000000000000000000 PUSH1 0x0 MSTORE PUSH1 0x22 PUSH1 0x4 MSTORE PUSH1 0x24 PUSH1 0x0 REVERT JUMPDEST PUSH1 0x0 PUSH1 0x2 DUP3 DIV SWAP1 POP PUSH1 0x1 DUP3 AND DUP1 PUSH2 0x7A6F JUMPI PUSH1 0x7F DUP3 AND SWAP2 POP JUMPDEST PUSH1 0x20 DUP3 LT DUP2 SUB PUSH2 0x7A82 JUMPI PUSH2 0x7A81 PUSH2 0x7A28 JUMP JUMPDEST JUMPDEST POP SWAP2 SWAP1 POP JUMP JUMPDEST PUSH32 0x4552433732313A20617070726F76616C20746F2063757272656E74206F776E65 PUSH1 0x0 DUP3 ADD MSTORE PUSH32 0x7200000000000000000000000000000000000000000000000000000000000000 PUSH1 0x20 DUP3 ADD MSTORE POP JUMP JUMPDEST PUSH1 0x0 PUSH2 0x7AE4 PUSH1 0x21 DUP4 PUSH2 0x6843 JUMP JUMPDEST SWAP2 POP PUSH2 0x7AEF DUP3 PUSH2 0x7A88 JUMP JUMPDEST PUSH1 0x40 DUP3 ADD SWAP1 POP SWAP2 SWAP1 POP JUMP JUMPDEST PUSH1 0x0 PUSH1 0x20 DUP3 ADD SWAP1 POP DUP2 DUP2 SUB PUSH1 0x0 DUP4 ADD MSTORE PUSH2 0x7B13 DUP2 PUSH2 0x7AD7 JUMP JUMPDEST SWAP1 POP SWAP2 SWAP1 POP JUMP JUMPDEST PUSH32 0x4552433732313A20617070726F76652063616C6C6572206973206E6F7420746F PUSH1 0x0 DUP3 ADD MSTORE PUSH32 0x6B656E206F776E6572206F7220617070726F76656420666F7220616C6C000000 PUSH1 0x20 DUP3 ADD MSTORE POP JUMP JUMPDEST PUSH1 0x0 PUSH2 0x7B76 PUSH1 0x3D DUP4 PUSH2 0x6843 JUMP JUMPDEST SWAP2 POP PUSH2 0x7B81 DUP3 PUSH2 0x7B1A JUMP JUMPDEST PUSH1 0x40 DUP3 ADD SWAP1 POP SWAP2 SWAP1 POP JUMP JUMPDEST PUSH1 0x0 PUSH1 0x20 DUP3 ADD SWAP1 POP DUP2 DUP2 SUB PUSH1 0x0 DUP4 ADD MSTORE PUSH2 0x7BA5 DUP2 PUSH2 0x7B69 JUMP JUMPDEST SWAP1 POP SWAP2 SWAP1 POP JUMP JUMPDEST PUSH32 0x4552433732313A2063616C6C6572206973206E6F7420746F6B656E206F776E65 PUSH1 0x0 DUP3 ADD MSTORE PUSH32 0x72206F7220617070726F76656400000000000000000000000000000000000000 PUSH1 0x20 DUP3 ADD MSTORE POP JUMP JUMPDEST PUSH1 0x0 PUSH2 0x7C08 PUSH1 0x2D DUP4 PUSH2 0x6843 JUMP JUMPDEST SWAP2 POP PUSH2 0x7C13 DUP3 PUSH2 0x7BAC JUMP JUMPDEST PUSH1 0x40 DUP3 ADD SWAP1 POP SWAP2 SWAP1 POP JUMP JUMPDEST PUSH1 0x0 PUSH1 0x20 DUP3 ADD SWAP1 POP DUP2 DUP2 SUB PUSH1 0x0 DUP4 ADD MSTORE PUSH2 0x7C37 DUP2 PUSH2 0x7BFB JUMP JUMPDEST SWAP1 POP SWAP2 SWAP1 POP JUMP JUMPDEST PUSH32 0x4365727469666963617465206E6F7420666F756E640000000000000000000000 PUSH1 0x0 DUP3 ADD MSTORE POP JUMP JUMPDEST PUSH1 0x0 PUSH2 0x7C74 PUSH1 0x15 DUP4 PUSH2 0x6843 JUMP JUMPDEST SWAP2 POP PUSH2 0x7C7F DUP3 PUSH2 0x7C3E JUMP JUMPDEST PUSH1 0x20 DUP3 ADD SWAP1 POP SWAP2 SWAP1 POP JUMP JUMPDEST PUSH1 0x0 PUSH1 0x20 DUP3 ADD SWAP1 POP DUP2 DUP2 SUB PUSH1 0x0 DUP4 ADD MSTORE PUSH2 0x7CA3 DUP2 PUSH2 0x7C67 JUMP JUMPDEST SWAP1 POP SWAP2 SWAP1 POP JUMP JUMPDEST PUSH32 0x497373756572206E6F7420617574686F72697A65640000000000000000000000 PUSH1 0x0 DUP3 ADD MSTORE POP JUMP JUMPDEST PUSH1 0x0 PUSH2 0x7CE0 PUSH1 0x15 DUP4 PUSH2 0x6843 JUMP JUMPDEST SWAP2 POP PUSH2 0x7CEB DUP3 PUSH2 0x7CAA JUMP JUMPDEST PUSH1 0x20 DUP3 ADD SWAP1 POP SWAP2 SWAP1 POP JUMP JUMPDEST PUSH1 0x0 PUSH1 0x20 DUP3 ADD SWAP1 POP DUP2 DUP2 SUB PUSH1 0x0 DUP4 ADD MSTORE PUSH2 0x7D0F DUP2 PUSH2 0x7CD3 JUMP JUMPDEST SWAP1 POP SWAP2 SWAP1 POP JUMP JUMPDEST PUSH32 0x497373756572206E6F7420666F756E6400000000000000000000000000000000 PUSH1 0x0 DUP3 ADD MSTORE POP JUMP JUMPDEST PUSH1 0x0 PUSH2 0x7D4C PUSH1 0x10 DUP4 PUSH2 0x6843 JUMP JUMPDEST SWAP2 POP PUSH2 0x7D57 DUP3 PUSH2 0x7D16 JUMP JUMPDEST PUSH1 0x20 DUP3 ADD SWAP1 POP SWAP2 SWAP1 POP JUMP JUMPDEST PUSH1 0x0 PUSH1 0x20 DUP3 ADD SWAP1 POP DUP2 DUP2 SUB PUSH1 0x0 DUP4 ADD MSTORE PUSH2 0x7D7B DUP2 PUSH2 0x7D3F JUMP JUMPDEST SWAP1 POP SWAP2 SWAP1 POP JUMP JUMPDEST PUSH32 0x497373756572206E6F7420616374697665000000000000000000000000000000 PUSH1 0x0 DUP3 ADD MSTORE POP JUMP JUMPDEST PUSH1 0x0 PUSH2 0x7DB8 PUSH1 0x11 DUP4 PUSH2 0x6843 JUMP JUMPDEST SWAP2 POP PUSH2 0x7DC3 DUP3 PUSH2 0x7D82 JUMP JUMPDEST PUSH1 0x20 DUP3 ADD SWAP1 POP SWAP2 SWAP1 POP JUMP JUMPDEST PUSH1 0x0 PUSH1 0x20 DUP3 ADD SWAP1 POP DUP2 DUP2 SUB PUSH1 0x0 DUP4 ADD MSTORE PUSH2 0x7DE7 DUP2 PUSH2 0x7DAB JUMP JUMPDEST SWAP1 POP SWAP2 SWAP1 POP JUMP JUMPDEST PUSH32 0x497373756572206E6F7420766572696669656400000000000000000000000000 PUSH1 0x0 DUP3 ADD MSTORE POP JUMP JUMPDEST PUSH1 0x0 PUSH2 0x7E24 PUSH1 0x13 DUP4 PUSH2 0x6843 JUMP JUMPDEST SWAP2 POP PUSH2 0x7E2F DUP3 PUSH2 0x7DEE JUMP JUMPDEST PUSH1 0x20 DUP3 ADD SWAP1 POP SWAP2 SWAP1 POP JUMP JUMPDEST PUSH1 0x0 PUSH1 0x20 DUP3 ADD SWAP1 POP DUP2 DUP2 SUB PUSH1 0x0 DUP4 ADD MSTORE PUSH2 0x7E53 DUP2 PUSH2 0x7E17 JUMP JUMPDEST SWAP1 POP SWAP2 SWAP1 POP JUMP JUMPDEST PUSH32 0x526563697069656E742072657175697265640000000000000000000000000000 PUSH1 0x0 DUP3 ADD MSTORE POP JUMP JUMPDEST PUSH1 0x0 PUSH2 0x7E90 PUSH1 0x12 DUP4 PUSH2 0x6843 JUMP JUMPDEST SWAP2 POP PUSH2 0x7E9B DUP3 PUSH2 0x7E5A JUMP JUMPDEST PUSH1 0x20 DUP3 ADD SWAP1 POP SWAP2 SWAP1 POP JUMP JUMPDEST PUSH1 0x0 PUSH1 0x20 DUP3 ADD SWAP1 POP DUP2 DUP2 SUB PUSH1 0x0 DUP4 ADD MSTORE PUSH2 0x7EBF DUP2 PUSH2 0x7E83 JUMP JUMPDEST SWAP1 POP SWAP2 SWAP1 POP JUMP JUMPDEST PUSH32 0x4861736820726571756972656400000000000000000000000000000000000000 PUSH1 0x0 DUP3 ADD MSTORE POP JUMP JUMPDEST PUSH1 0x0 PUSH2 0x7EFC PUSH1 0xD DUP4 PUSH2 0x6843 JUMP JUMPDEST SWAP2 POP PUSH2 0x7F07 DUP3 PUSH2 0x7EC6 JUMP JUMPDEST PUSH1 0x20 DUP3 ADD SWAP1 POP SWAP2 SWAP1 POP JUMP JUMPDEST PUSH1 0x0 PUSH1 0x20 DUP3 ADD SWAP1 POP DUP2 DUP2 SUB PUSH1 0x0 DUP4 ADD MSTORE PUSH2 0x7F2B DUP2 PUSH2 0x7EEF JUMP JUMPDEST SWAP1 POP SWAP2 SWAP1 POP JUMP JUMPDEST PUSH32 0x4861736820616C72656164792075736564000000000000000000000000000000 PUSH1 0x0 DUP3 ADD MSTORE POP JUMP JUMPDEST PUSH1 0x0 PUSH2 0x7F68 PUSH1 0x11 DUP4 PUSH2 0x6843 JUMP JUMPDEST SWAP2 POP PUSH2 0x7F73 DUP3 PUSH2 0x7F32 JUMP JUMPDEST PUSH1 0x20 DUP3 ADD SWAP1 POP SWAP2 SWAP1 POP JUMP JUMPDEST PUSH1 0x0 PUSH1 0x20 DUP3 ADD SWAP1 POP DUP2 DUP2 SUB PUSH1 0x0 DUP4 ADD MSTORE PUSH2 0x7F97 DUP2 PUSH2 0x7F5B JUMP JUMPDEST SWAP1 POP SWAP2 SWAP1 POP JUMP JUMPDEST PUSH32 0x50726F6772616D20726571756972656400000000000000000000000000000000 PUSH1 0x0 DUP3 ADD MSTORE POP JUMP JUMPDEST PUSH1 0x0 PUSH2 0x7FD4 PUSH1 0x10 DUP4 PUSH2 0x6843 JUMP JUMPDEST SWAP2 POP PUSH2 0x7FDF DUP3 PUSH2 0x7F9E JUMP JUMPDEST PUSH1 0x20 DUP3 ADD SWAP1 POP SWAP2 SWAP1 POP JUMP JUMPDEST PUSH1 0x0 PUSH1 0x20 DUP3 ADD SWAP1 POP DUP2 DUP2 SUB PUSH1 0x0 DUP4 ADD MSTORE PUSH2 0x8003 DUP2 PUSH2 0x7FC7 JUMP JUMPDEST SWAP1 POP SWAP2 SWAP1 POP JUMP JUMPDEST PUSH32 0x496E76616C696420657870697279000000000000000000000000000000000000 PUSH1 0x0 DUP3 ADD MSTORE POP JUMP JUMPDEST PUSH1 0x0 PUSH2 0x8040 PUSH1 0xE DUP4 PUSH2 0x6843 JUMP JUMPDEST SWAP2 POP PUSH2 0x804B DUP3 PUSH2 0x800A JUMP JUMPDEST PUSH1 0x20 DUP3 ADD SWAP1 POP SWAP2 SWAP1 POP JUMP JUMPDEST PUSH1 0x0 PUSH1 0x20 DUP3 ADD SWAP1 POP DUP2 DUP2 SUB PUSH1 0x0 DUP4 ADD MSTORE PUSH2 0x806F DUP2 PUSH2 0x8033 JUMP JUMPDEST SWAP1 POP SWAP2 SWAP1 POP JUMP JUMPDEST PUSH1 0x0 DUP2 SWAP1 POP DUP2 PUSH1 0x0 MSTORE PUSH1 0x20 PUSH1 0x0 KECCAK256 SWAP1 POP SWAP2 SWAP1 POP JUMP JUMPDEST PUSH1 0x0 PUSH1 0x20 PUSH1 0x1F DUP4 ADD DIV SWAP1 POP SWAP2 SWAP1 POP JUMP JUMPDEST PUSH1 0x0 DUP3 DUP3 SHL SWAP1 POP SWAP3 SWAP2 POP POP JUMP JUMPDEST PUSH1 0x0 PUSH1 0x8 DUP4 MUL PUSH2 0x80D8 PUSH32 0xFFFFFFFFFFFFFFFFFFFFFFFFFFFFFFFFFFFFFFFFFFFFFFFFFFFFFFFFFFFFFFFF DUP3 PUSH2 0x809B JUMP JUMPDEST PUSH2 0x80E2 DUP7 DUP4 PUSH2 0x809B JUMP JUMPDEST SWAP6 POP DUP1 NOT DUP5 AND SWAP4 POP DUP1 DUP7 AND DUP5 OR SWAP3 POP POP POP SWAP4 SWAP3 POP POP POP JUMP JUMPDEST PUSH1 0x0 DUP2 SWAP1 POP SWAP2 SWAP1 POP JUMP JUMPDEST PUSH1 0x0 PUSH2 0x811F PUSH2 0x811A PUSH2 0x8115 DUP5 PUSH2 0x68EA JUMP JUMPDEST PUSH2 0x80FA JUMP JUMPDEST PUSH2 0x68EA JUMP JUMPDEST SWAP1 POP SWAP2 SWAP1 POP JUMP JUMPDEST PUSH1 0x0 DUP2 SWAP1 POP SWAP2 SWAP1 POP JUMP JUMPDEST PUSH2 0x8139 DUP4 PUSH2 0x8104 JUMP JUMPDEST PUSH2 0x814D PUSH2 0x8145 DUP3 PUSH2 0x8126 JUMP JUMPDEST DUP5 DUP5 SLOAD PUSH2 0x80A8 JUMP JUMPDEST DUP3 SSTORE POP POP POP POP JUMP JUMPDEST PUSH1 0x0 SWAP1 JUMP JUMPDEST PUSH2 0x8162 PUSH2 0x8155 JUMP JUMPDEST PUSH2 0x816D DUP2 DUP5 DUP5 PUSH2 0x8130 JUMP JUMPDEST POP POP POP JUMP JUMPDEST JUMPDEST DUP2 DUP2 LT ISZERO PUSH2 0x8191 JUMPI PUSH2 0x8186 PUSH1 0x0 DUP3 PUSH2 0x815A JUMP JUMPDEST PUSH1 0x1 DUP2 ADD SWAP1 POP PUSH2 0x8173 JUMP JUMPDEST POP POP JUMP JUMPDEST PUSH1 0x1F DUP3 GT ISZERO PUSH2 0x81D6 JUMPI PUSH2 0x81A7 DUP2 PUSH2 0x8076 JUMP JUMPDEST PUSH2 0x81B0 DUP5 PUSH2 0x808B JUMP JUMPDEST DUP2 ADD PUSH1 0x20 DUP6 LT ISZERO PUSH2 0x81BF JUMPI DUP2 SWAP1 POP JUMPDEST PUSH2 0x81D3 PUSH2 0x81CB DUP6 PUSH2 0x808B JUMP JUMPDEST DUP4 ADD DUP3 PUSH2 0x8172 JUMP JUMPDEST POP POP JUMPDEST POP POP POP JUMP JUMPDEST PUSH1 0x0 DUP3 DUP3 SHR SWAP1 POP SWAP3 SWAP2 POP POP JUMP JUMPDEST PUSH1 0x0 PUSH2 0x81F9 PUSH1 0x0 NOT DUP5 PUSH1 0x8 MUL PUSH2 0x81DB JUMP JUMPDEST NOT DUP1 DUP4 AND SWAP2 POP POP SWAP3 SWAP2 POP POP JUMP JUMPDEST PUSH1 0x0 PUSH2 0x8212 DUP4 DUP4 PUSH2 0x81E8 JUMP JUMPDEST SWAP2 POP DUP3 PUSH1 0x2 MUL DUP3 OR SWAP1 POP SWAP3 SWAP2 POP POP JUMP JUMPDEST PUSH2 0x822B DUP3 PUSH2 0x6838 JUMP JUMPDEST PUSH8 0xFFFFFFFFFFFFFFFF DUP2 GT ISZERO PUSH2 0x8244 JUMPI PUSH2 0x8243 PUSH2 0x6AD5 JUMP JUMPDEST JUMPDEST PUSH2 0x824E DUP3 SLOAD PUSH2 0x7A57 JUMP JUMPDEST PUSH2 0x8259 DUP3 DUP3 DUP6 PUSH2 0x8195 JUMP JUMPDEST PUSH1 0x0 PUSH1 0x20 SWAP1 POP PUSH1 0x1F DUP4 GT PUSH1 0x1 DUP2 EQ PUSH2 0x828C JUMPI PUSH1 0x0 DUP5 ISZERO PUSH2 0x827A JUMPI DUP3 DUP8 ADD MLOAD SWAP1 POP JUMPDEST PUSH2 0x8284 DUP6 DUP3 PUSH2 0x8206 JUMP JUMPDEST DUP7 SSTORE POP PUSH2 0x82EC JUMP JUMPDEST PUSH1 0x1F NOT DUP5 AND PUSH2 0x829A DUP7 PUSH2 0x8076 JUMP JUMPDEST PUSH1 0x0 JUMPDEST DUP3 DUP2 LT ISZERO PUSH2 0x82C2 JUMPI DUP5 DUP10 ADD MLOAD DUP3 SSTORE PUSH1 0x1 DUP3 ADD SWAP2 POP PUSH1 0x20 DUP6 ADD SWAP5 POP PUSH1 0x20 DUP2 ADD SWAP1 POP PUSH2 0x829D JUMP JUMPDEST DUP7 DUP4 LT ISZERO PUSH2 0x82DF JUMPI DUP5 DUP10 ADD MLOAD PUSH2 0x82DB PUSH1 0x1F DUP10 AND DUP3 PUSH2 0x81E8 JUMP JUMPDEST DUP4 SSTORE POP JUMPDEST PUSH1 0x1 PUSH1 0x2 DUP9 MUL ADD DUP9 SSTORE POP POP POP JUMPDEST POP POP POP POP POP POP JUMP JUMPDEST PUSH32 0x4E487B7100000000000000000000000000000000000000000000000000000000 PUSH1 0x0 MSTORE PUSH1 0x11 PUSH1 0x4 MSTORE PUSH1 0x24 PUSH1 0x0 REVERT JUMPDEST PUSH1 0x0 PUSH2 0x832E DUP3 PUSH2 0x68EA JUMP JUMPDEST SWAP2 POP PUSH2 0x8339 DUP4 PUSH2 0x68EA JUMP JUMPDEST SWAP3 POP DUP3 DUP3 ADD SWAP1 POP DUP1 DUP3 GT ISZERO PUSH2 0x8351 JUMPI PUSH2 0x8350 PUSH2 0x82F4 JUMP JUMPDEST JUMPDEST SWAP3 SWAP2 POP POP JUMP JUMPDEST PUSH32 0x41646D696E206F6E6C7900000000000000000000000000000000000000000000 PUSH1 0x0 DUP3 ADD MSTORE POP JUMP JUMPDEST PUSH1 0x0 PUSH2 0x838D PUSH1 0xA DUP4 PUSH2 0x6843 JUMP JUMPDEST SWAP2 POP PUSH2 0x8398 DUP3 PUSH2 0x8357 JUMP JUMPDEST PUSH1 0x20 DUP3 ADD SWAP1 POP SWAP2 SWAP1 POP JUMP JUMPDEST PUSH1 0x0 PUSH1 0x20 DUP3 ADD SWAP1 POP DUP2 DUP2 SUB PUSH1 0x0 DUP4 ADD MSTORE PUSH2 0x83BC DUP2 PUSH2 0x8380 JUMP JUMPDEST SWAP1 POP SWAP2 SWAP1 POP JUMP JUMPDEST PUSH32 0x526563697069656E74206E6F7420666F756E6400000000000000000000000000 PUSH1 0x0 DUP3 ADD MSTORE POP JUMP JUMPDEST PUSH1 0x0 PUSH2 0x83F9 PUSH1 0x13 DUP4 PUSH2 0x6843 JUMP JUMPDEST SWAP2 POP PUSH2 0x8404 DUP3 PUSH2 0x83C3 JUMP JUMPDEST PUSH1 0x20 DUP3 ADD SWAP1 POP SWAP2 SWAP1 POP JUMP JUMPDEST PUSH1 0x0 PUSH1 0x20 DUP3 ADD SWAP1 POP DUP2 DUP2 SUB PUSH1 0x0 DUP4 ADD MSTORE PUSH2 0x8428 DUP2 PUSH2 0x83EC JUMP JUMPDEST SWAP1 POP SWAP2 SWAP1 POP JUMP JUMPDEST PUSH32 0x4552433732313A20696E76616C696420746F6B656E2049440000000000000000 PUSH1 0x0 DUP3 ADD MSTORE POP JUMP JUMPDEST PUSH1 0x0 PUSH2 0x8465 PUSH1 0x18 DUP4 PUSH2 0x6843 JUMP JUMPDEST SWAP2 POP PUSH2 0x8470 DUP3 PUSH2 0x842F JUMP JUMPDEST PUSH1 0x20 DUP3 ADD SWAP1 POP SWAP2 SWAP1 POP JUMP JUMPDEST PUSH1 0x0 PUSH1 0x20 DUP3 ADD SWAP1 POP DUP2 DUP2 SUB PUSH1 0x0 DUP4 ADD MSTORE PUSH2 0x8494 DUP2 PUSH2 0x8458 JUMP JUMPDEST SWAP1 POP SWAP2 SWAP1 POP JUMP JUMPDEST PUSH32 0x4552433732313A2061646472657373207A65726F206973206E6F742061207661 PUSH1 0x0 DUP3 ADD MSTORE PUSH32 0x6C6964206F776E65720000000000000000000000000000000000000000000000 PUSH1 0x20 DUP3 ADD MSTORE POP JUMP JUMPDEST PUSH1 0x0 PUSH2 0x84F7 PUSH1 0x29 DUP4 PUSH2 0x6843 JUMP JUMPDEST SWAP2 POP PUSH2 0x8502 DUP3 PUSH2 0x849B JUMP JUMPDEST PUSH1 0x40 DUP3 ADD SWAP1 POP SWAP2 SWAP1 POP JUMP JUMPDEST PUSH1 0x0 PUSH1 0x20 DUP3 ADD SWAP1 POP DUP2 DUP2 SUB PUSH1 0x0 DUP4 ADD MSTORE PUSH2 0x8526 DUP2 PUSH2 0x84EA JUMP JUMPDEST SWAP1 POP SWAP2 SWAP1 POP JUMP JUMPDEST PUSH32 0x4E616D6520726571756972656400000000000000000000000000000000000000 PUSH1 0x0 DUP3 ADD MSTORE POP JUMP JUMPDEST PUSH1 0x0 PUSH2 0x8563 PUSH1 0xD DUP4 PUSH2 0x6843 JUMP JUMPDEST SWAP2 POP PUSH2 0x856E DUP3 PUSH2 0x852D JUMP JUMPDEST PUSH1 0x20 DUP3 ADD SWAP1 POP SWAP2 SWAP1 POP JUMP JUMPDEST PUSH1 0x0 PUSH1 0x20 DUP3 ADD SWAP1 POP DUP2 DUP2 SUB PUSH1 0x0 DUP4 ADD MSTORE PUSH2 0x8592 DUP2 PUSH2 0x8556 JUMP JUMPDEST SWAP1 POP SWAP2 SWAP1 POP JUMP JUMPDEST PUSH32 0x416C726561647920726567697374657265640000000000000000000000000000 PUSH1 0x0 DUP3 ADD MSTORE POP JUMP JUMPDEST PUSH1 0x0 PUSH2 0x85CF PUSH1 0x12 DUP4 PUSH2 0x6843 JUMP JUMPDEST SWAP2 POP PUSH2 0x85DA DUP3 PUSH2 0x8599 JUMP JUMPDEST PUSH1 0x20 DUP3 ADD SWAP1 POP SWAP2 SWAP1 POP JUMP JUMPDEST PUSH1 0x0 PUSH1 0x20 DUP3 ADD SWAP1 POP DUP2 DUP2 SUB PUSH1 0x0 DUP4 ADD MSTORE PUSH2 0x85FE DUP2 PUSH2 0x85C2 JUMP JUMPDEST SWAP1 POP SWAP2 SWAP1 POP JUMP JUMPDEST PUSH1 0x0 PUSH1 0x40 DUP3 ADD SWAP1 POP DUP2 DUP2 SUB PUSH1 0x0 DUP4 ADD MSTORE PUSH2 0x861F DUP2 DUP6 PUSH2 0x688F JUMP JUMPDEST SWAP1 POP DUP2 DUP2 SUB PUSH1 0x20 DUP4 ADD MSTORE PUSH2 0x8633 DUP2 DUP5 PUSH2 0x688F JUMP JUMPDEST SWAP1 POP SWAP4 SWAP3 POP POP POP JUMP JUMPDEST PUSH32 0x4F6E6C792069737375696E67206973737565722063616E207265766F6B650000 PUSH1 0x0 DUP3 ADD MSTORE POP JUMP JUMPDEST PUSH1 0x0 PUSH2 0x8672 PUSH1 0x1E DUP4 PUSH2 0x6843 JUMP JUMPDEST SWAP2 POP PUSH2 0x867D DUP3 PUSH2 0x863C JUMP JUMPDEST PUSH1 0x20 DUP3 ADD SWAP1 POP SWAP2 SWAP1 POP JUMP JUMPDEST PUSH1 0x0 PUSH1 0x20 DUP3 ADD SWAP1 POP DUP2 DUP2 SUB PUSH1 0x0 DUP4 ADD MSTORE PUSH2 0x86A1 DUP2 PUSH2 0x8665 JUMP JUMPDEST SWAP1 POP SWAP2 SWAP1 POP JUMP JUMPDEST PUSH32 0x416C7265616479207265766F6B65640000000000000000000000000000000000 PUSH1 0x0 DUP3 ADD MSTORE POP JUMP JUMPDEST PUSH1 0x0 PUSH2 0x86DE PUSH1 0xF DUP4 PUSH2 0x6843 JUMP JUMPDEST SWAP2 POP PUSH2 0x86E9 DUP3 PUSH2 0x86A8 JUMP JUMPDEST PUSH1 0x20 DUP3 ADD SWAP1 POP SWAP2 SWAP1 POP JUMP JUMPDEST PUSH1 0x0 PUSH1 0x20 DUP3 ADD SWAP1 POP DUP2 DUP2 SUB PUSH1 0x0 DUP4 ADD MSTORE PUSH2 0x870D DUP2 PUSH2 0x86D1 JUMP JUMPDEST SWAP1 POP SWAP2 SWAP1 POP JUMP JUMPDEST PUSH32 0x526561736F6E2072657175697265640000000000000000000000000000000000 PUSH1 0x0 DUP3 ADD MSTORE POP JUMP JUMPDEST PUSH1 0x0 PUSH2 0x874A PUSH1 0xF DUP4 PUSH2 0x6843 JUMP JUMPDEST SWAP2 POP PUSH2 0x8755 DUP3 PUSH2 0x8714 JUMP JUMPDEST PUSH1 0x20 DUP3 ADD SWAP1 POP SWAP2 SWAP1 POP JUMP JUMPDEST PUSH1 0x0 PUSH1 0x20 DUP3 ADD SWAP1 POP DUP2 DUP2 SUB PUSH1 0x0 DUP4 ADD MSTORE PUSH2 0x8779 DUP2 PUSH2 0x873D JUMP JUMPDEST SWAP1 POP SWAP2 SWAP1 POP JUMP JUMPDEST PUSH1 0x0 PUSH1 0x40 DUP3 ADD SWAP1 POP DUP2 DUP2 SUB PUSH1 0x0 DUP4 ADD MSTORE PUSH2 0x879A DUP2 DUP6 PUSH2 0x688F JUMP JUMPDEST SWAP1 POP PUSH2 0x87A9 PUSH1 0x20 DUP4 ADD DUP5 PUSH2 0x697F JUMP JUMPDEST SWAP4 SWAP3 POP POP POP JUMP JUMPDEST PUSH2 0x87B9 DUP2 PUSH2 0x792C JUMP JUMPDEST DUP3 MSTORE POP POP JUMP JUMPDEST PUSH1 0x0 PUSH1 0x20 DUP3 ADD SWAP1 POP PUSH2 0x87D4 PUSH1 0x0 DUP4 ADD DUP5 PUSH2 0x87B0 JUMP JUMPDEST SWAP3 SWAP2 POP POP JUMP JUMPDEST PUSH1 0x0 DUP2 SWAP1 POP SWAP3 SWAP2 POP POP JUMP JUMPDEST PUSH1 0x0 PUSH2 0x87F0 DUP3 PUSH2 0x6838 JUMP JUMPDEST PUSH2 0x87FA DUP2 DUP6 PUSH2 0x87DA JUMP JUMPDEST SWAP4 POP PUSH2 0x880A DUP2 DUP6 PUSH1 0x20 DUP7 ADD PUSH2 0x6854 JUMP JUMPDEST DUP1 DUP5 ADD SWAP2 POP POP SWAP3 SWAP2 POP POP JUMP JUMPDEST PUSH1 0x0 PUSH2 0x8822 DUP3 DUP6 PUSH2 0x87E5 JUMP JUMPDEST SWAP2 POP PUSH2 0x882E DUP3 DUP5 PUSH2 0x87E5 JUMP JUMPDEST SWAP2 POP DUP2 SWAP1 POP SWAP4 SWAP3 POP POP POP JUMP JUMPDEST PUSH32 0x4E6F74207265766F6B6564000000000000000000000000000000000000000000 PUSH1 0x0 DUP3 ADD MSTORE POP JUMP JUMPDEST PUSH1 0x0 PUSH2 0x8870 PUSH1 0xB DUP4 PUSH2 0x6843 JUMP JUMPDEST SWAP2 POP PUSH2 0x887B DUP3 PUSH2 0x883A JUMP JUMPDEST PUSH1 0x20 DUP3 ADD SWAP1 POP SWAP2 SWAP1 POP JUMP JUMPDEST PUSH1 0x0 PUSH1 0x20 DUP3 ADD SWAP1 POP DUP2 DUP2 SUB PUSH1 0x0 DUP4 ADD MSTORE PUSH2 0x889F DUP2 PUSH2 0x8863 JUMP JUMPDEST SWAP1 POP SWAP2 SWAP1 POP JUMP JUMPDEST PUSH32 0x456D707479206261746368000000000000000000000000000000000000000000 PUSH1 0x0 DUP3 ADD MSTORE POP JUMP JUMPDEST PUSH1 0x0 PUSH2 0x88DC PUSH1 0xB DUP4 PUSH2 0x6843 JUMP JUMPDEST SWAP2 POP PUSH2 0x88E7 DUP3 PUSH2 0x88A6 JUMP JUMPDEST PUSH1 0x20 DUP3 ADD SWAP1 POP SWAP2 SWAP1 POP JUMP JUMPDEST PUSH1 0x0 PUSH1 0x20 DUP3 ADD SWAP1 POP DUP2 DUP2 SUB PUSH1 0x0 DUP4 ADD MSTORE PUSH2 0x890B DUP2 PUSH2 0x88CF JUMP JUMPDEST SWAP1 POP SWAP2 SWAP1 POP JUMP JUMPDEST PUSH32 0x4C656E677468206D69736D617463680000000000000000000000000000000000 PUSH1 0x0 DUP3 ADD MSTORE POP JUMP JUMPDEST PUSH1 0x0 PUSH2 0x8948 PUSH1 0xF DUP4 PUSH2 0x6843 JUMP JUMPDEST SWAP2 POP PUSH2 0x8953 DUP3 PUSH2 0x8912 JUMP JUMPDEST PUSH1 0x20 DUP3 ADD SWAP1 POP SWAP2 SWAP1 POP JUMP JUMPDEST PUSH1 0x0 PUSH1 0x20 DUP3 ADD SWAP1 POP DUP2 DUP2 SUB PUSH1 0x0 DUP4 ADD MSTORE PUSH2 0x8977 DUP2 PUSH2 0x893B JUMP JUMPDEST SWAP1 POP SWAP2 SWAP1 POP JUMP JUMPDEST PUSH32 0x4E487B7100000000000000000000000000000000000000000000000000000000 PUSH1 0x0 MSTORE PUSH1 0x32 PUSH1 0x4 MSTORE PUSH1 0x24 PUSH1 0x0 REVERT JUMPDEST PUSH1 0x0 PUSH2 0x89B8 DUP3 PUSH2 0x68EA JUMP JUMPDEST SWAP2 POP PUSH32 0xFFFFFFFFFFFFFFFFFFFFFFFFFFFFFFFFFFFFFFFFFFFFFFFFFFFFFFFFFFFFFFFF DUP3 SUB PUSH2 0x89EA JUMPI PUSH2 0x89E9 PUSH2 0x82F4 JUMP JUMPDEST JUMPDEST PUSH1 0x1 DUP3 ADD SWAP1 POP SWAP2 SWAP1 POP JUMP JUMPDEST PUSH32 0x4552433732313A207472616E736665722066726F6D20696E636F727265637420 PUSH1 0x0 DUP3 ADD MSTORE PUSH32 0x6F776E6572000000000000000000000000000000000000000000000000000000 PUSH1 0x20 DUP3 ADD MSTORE POP JUMP JUMPDEST PUSH1 0x0 PUSH2 0x8A51 PUSH1 0x25 DUP4 PUSH2 0x6843 JUMP JUMPDEST SWAP2 POP PUSH2 0x8A5C DUP3 PUSH2 0x89F5 JUMP JUMPDEST PUSH1 0x40 DUP3 ADD SWAP1 POP SWAP2 SWAP1 POP JUMP JUMPDEST PUSH1 0x0 PUSH1 0x20 DUP3 ADD SWAP1 POP DUP2 DUP2 SUB PUSH1 0x0 DUP4 ADD MSTORE PUSH2 0x8A80 DUP2 PUSH2 0x8A44 JUMP JUMPDEST SWAP1 POP SWAP2 SWAP1 POP JUMP JUMPDEST PUSH32 0x4552433732313A207472616E7366657220746F20746865207A65726F20616464 PUSH1 0x0 DUP3 ADD MSTORE PUSH32 0x7265737300000000000000000000000000000000000000000000000000000000 PUSH1 0x20 DUP3 ADD MSTORE POP JUMP JUMPDEST PUSH1 0x0 PUSH2 0x8AE3 PUSH1 0x24 DUP4 PUSH2 0x6843 JUMP JUMPDEST SWAP2 POP PUSH2 0x8AEE DUP3 PUSH2 0x8A87 JUMP JUMPDEST PUSH1 0x40 DUP3 ADD SWAP1 POP SWAP2 SWAP1 POP JUMP JUMPDEST PUSH1 0x0 PUSH1 0x20 DUP3 ADD SWAP1 POP DUP2 DUP2 SUB PUSH1 0x0 DUP4 ADD MSTORE PUSH2 0x8B12 DUP2 PUSH2 0x8AD6 JUMP JUMPDEST SWAP1 POP SWAP2 SWAP1 POP JUMP JUMPDEST PUSH32 0x45524337323155524953746F726167653A2055524920736574206F66206E6F6E PUSH1 0x0 DUP3 ADD MSTORE PUSH32 0x6578697374656E7420746F6B656E000000000000000000000000000000000000 PUSH1 0x20 DUP3 ADD MSTORE POP JUMP JUMPDEST PUSH1 0x0 PUSH2 0x8B75 PUSH1 0x2E DUP4 PUSH2 0x6843 JUMP JUMPDEST SWAP2 POP PUSH2 0x8B80 DUP3 PUSH2 0x8B19 JUMP JUMPDEST PUSH1 0x40 DUP3 ADD SWAP1 POP SWAP2 SWAP1 POP JUMP JUMPDEST PUSH1 0x0 PUSH1 0x20 DUP3 ADD SWAP1 POP DUP2 DUP2 SUB PUSH1 0x0 DUP4 ADD MSTORE PUSH2 0x8BA4 DUP2 PUSH2 0x8B68 JUMP JUMPDEST SWAP1 POP SWAP2 SWAP1 POP JUMP JUMPDEST PUSH32 0x4552433732313A20617070726F766520746F2063616C6C657200000000000000 PUSH1 0x0 DUP3 ADD MSTORE POP JUMP JUMPDEST PUSH1 0x0 PUSH2 0x8BE1 PUSH1 0x19 DUP4 PUSH2 0x6843 JUMP JUMPDEST SWAP2 POP PUSH2 0x8BEC DUP3 PUSH2 0x8BAB JUMP JUMPDEST PUSH1 0x20 DUP3 ADD SWAP1 POP SWAP2 SWAP1 POP JUMP JUMPDEST PUSH1 0x0 PUSH1 0x20 DUP3 ADD SWAP1 POP DUP2 DUP2 SUB PUSH1 0x0 DUP4 ADD MSTORE PUSH2 0x8C10 DUP2 PUSH2 0x8BD4 JUMP JUMPDEST SWAP1 POP SWAP2 SWAP1 POP JUMP JUMPDEST PUSH32 0x4552433732313A207472616E7366657220746F206E6F6E204552433732315265 PUSH1 0x0 DUP3 ADD MSTORE PUSH32 0x63656976657220696D706C656D656E7465720000000000000000000000000000 PUSH1 0x20 DUP3 ADD MSTORE POP JUMP JUMPDEST PUSH1 0x0 PUSH2 0x8C73 PUSH1 0x32 DUP4 PUSH2 0x6843 JUMP JUMPDEST SWAP2 POP PUSH2 0x8C7E DUP3 PUSH2 0x8C17 JUMP JUMPDEST PUSH1 0x40 DUP3 ADD SWAP1 POP SWAP2 SWAP1 POP JUMP JUMPDEST PUSH1 0x0 PUSH1 0x20 DUP3 ADD SWAP1 POP DUP2 DUP2 SUB PUSH1 0x0 DUP4 ADD MSTORE PUSH2 0x8CA2 DUP2 PUSH2 0x8C66 JUMP JUMPDEST SWAP1 POP SWAP2 SWAP1 POP JUMP JUMPDEST PUSH1 0x0 DUP2 MLOAD SWAP1 POP SWAP2 SWAP1 POP JUMP JUMPDEST PUSH1 0x0 DUP3 DUP3 MSTORE PUSH1 0x20 DUP3 ADD SWAP1 POP SWAP3 SWAP2 POP POP JUMP JUMPDEST PUSH1 0x0 PUSH2 0x8CD0 DUP3 PUSH2 0x8CA9 JUMP JUMPDEST PUSH2 0x8CDA DUP2 DUP6 PUSH2 0x8CB4 JUMP JUMPDEST SWAP4 POP PUSH2 0x8CEA DUP2 DUP6 PUSH1 0x20 DUP7 ADD PUSH2 0x6854 JUMP JUMPDEST PUSH2 0x8CF3 DUP2 PUSH2 0x687E JUMP JUMPDEST DUP5 ADD SWAP2 POP POP SWAP3 SWAP2 POP POP JUMP JUMPDEST PUSH1 0x0 PUSH1 0x80 DUP3 ADD SWAP1 POP PUSH2 0x8D13 PUSH1 0x0 DUP4 ADD DUP8 PUSH2 0x697F JUMP JUMPDEST PUSH2 0x8D20 PUSH1 0x20 DUP4 ADD DUP7 PUSH2 0x697F JUMP JUMPDEST PUSH2 0x8D2D PUSH1 0x40 DUP4 ADD DUP6 PUSH2 0x6D46 JUMP JUMPDEST DUP2 DUP2 SUB PUSH1 0x60 DUP4 ADD MSTORE PUSH2 0x8D3F DUP2 DUP5 PUSH2 0x8CC5 JUMP JUMPDEST SWAP1 POP SWAP6 SWAP5 POP POP POP POP POP JUMP JUMPDEST PUSH1 0x0 DUP2 MLOAD SWAP1 POP PUSH2 0x8D59 DUP2 PUSH2 0x67A9 JUMP JUMPDEST SWAP3 SWAP2 POP POP JUMP JUMPDEST PUSH1 0x0 PUSH1 0x20 DUP3 DUP5 SUB SLT ISZERO PUSH2 0x8D75 JUMPI PUSH2 0x8D74 PUSH2 0x6773 JUMP JUMPDEST JUMPDEST PUSH1 0x0 PUSH2 0x8D83 DUP5 DUP3 DUP6 ADD PUSH2 0x8D4A JUMP JUMPDEST SWAP2 POP POP SWAP3 SWAP2 POP POP JUMP JUMPDEST PUSH32 0x4E487B7100000000000000000000000000000000000000000000000000000000 PUSH1 0x0 MSTORE PUSH1 0x12 PUSH1 0x4 MSTORE PUSH1 0x24 PUSH1 0x0 REVERT JUMPDEST PUSH32 0x4552433732313A206D696E7420746F20746865207A65726F2061646472657373 PUSH1 0x0 DUP3 ADD MSTORE POP JUMP JUMPDEST PUSH1 0x0 PUSH2 0x8DF1 PUSH1 0x20 DUP4 PUSH2 0x6843 JUMP JUMPDEST SWAP2 POP PUSH2 0x8DFC DUP3 PUSH2 0x8DBB JUMP JUMPDEST PUSH1 0x20 DUP3 ADD SWAP1 POP SWAP2 SWAP1 POP JUMP JUMPDEST PUSH1 0x0 PUSH1 0x20 DUP3 ADD SWAP1 POP DUP2 DUP2 SUB PUSH1 0x0 DUP4 ADD MSTORE PUSH2 0x8E20 DUP2 PUSH2 0x8DE4 JUMP JUMPDEST SWAP1 POP SWAP2 SWAP1 POP JUMP JUMPDEST PUSH32 0x4552433732313A20746F6B656E20616C7265616479206D696E74656400000000 PUSH1 0x0 DUP3 ADD MSTORE POP JUMP JUMPDEST PUSH1 0x0 PUSH2 0x8E5D PUSH1 0x1C DUP4 PUSH2 0x6843 JUMP JUMPDEST SWAP2 POP PUSH2 0x8E68 DUP3 PUSH2 0x8E27 JUMP JUMPDEST PUSH1 0x20 DUP3 ADD SWAP1 POP SWAP2 SWAP1 POP JUMP JUMPDEST PUSH1 0x0 PUSH1 0x20 DUP3 ADD SWAP1 POP DUP2 DUP2 SUB PUSH1 0x0 DUP4 ADD MSTORE PUSH2 0x8E8C DUP2 PUSH2 0x8E50 JUMP JUMPDEST SWAP1 POP SWAP2 SWAP1 POP JUMP INVALID LOG2 PUSH5 0x6970667358 0x22 SLT KECCAK256 0xA9 NUMBER CHAINID 0x2D RETURN SWAP10 0x2B 0xD 0xD1 0xDA 0x2C 0xC8 PUSH29 0x5915EF9F634F6534A036C324BE557CEF8BF47764736F6C634300081500 CALLER "},"methodIdentifiers":{"admin()":"f851a440","approve(address,uint256)":"095ea7b3","balanceOf(address)":"70a08231","batchIssueCertificates(bytes32[],address[],uint8,string,string[])":"fbca9e85","certificateExists(bytes32)":"b440983e","getApproved(uint256)":"081812fc","getCertificate(uint256)":"51640fee","getCertificateByHash(bytes32)":"90ab95cb","getIssuer(address)":"fef03da3","getIssuerCertificates(address)":"7a8ee24b","getRecipient(address)":"62812a39","getRecipientCertificates(address)":"b7716007","getRevocation(uint256)":"c962f634","isApprovedForAll(address,address)":"e985e9c5","isAuthorizedIssuer(address)":"31ba1966","isCertificateExpired(uint256)":"fdb5f9df","issueCertificate(bytes32,address,uint8,string,uint256,string)":"35e84174","issuerCertificates(address,uint256)":"947ff324","name()":"06fdde03","nextCertificateId()":"a0bdb003","owner()":"8da5cb5b","ownerOf(uint256)":"6352211e","recipientCertificates(address,uint256)":"73ae3899","registerIssuer(string,string,string)":"8096373e","revokeCertificate(uint256,string)":"b1466d1d","revokeCertificateByHash(bytes32,string)":"35941273","safeTransferFrom(address,address,uint256)":"42842e0e","safeTransferFrom(address,address,uint256,bytes)":"b88d4fde","setApprovalForAll(address,bool)":"a22cb465","supportsInterface(bytes4)":"01ffc9a7","symbol()":"95d89b41","tokenURI(uint256)":"c87b56dd","transferFrom(address,address,uint256)":"23b872dd","updateIssuerStatus(address,uint8)":"b40d35e6","verifyCertificate(bytes32)":"850c1768","verifyCertificateById(uint256)":"49e27a17","verifyIssuer(address)":"60c000d4"}}}}}